:020000040800F2
:10000000284400205D020008C31C00087518000881
:10001000B3190008390B00080D2B00080000000080
:100020000000000000000000000000009D0100082A
:100030005116000800000000F901000879260008A8
:1000400077020008770200087702000877020008AC
:10005000770200087702000877020008770200089C
:1000600077020008770200087702000829160008C6
:10007000770200087702000877020008770200087C
:100080007702000877020008B50900087702000827
:10009000770200087702000877020008770200085C
:1000A000770200087702000877020008770200084C
:1000B000F926000877020008770200087702000896
:1000C000770200087702000877020008770200082C
:1000D00077020008770200087702000881290008EB
:1000E000770200087702000877020008770200080C
:1000F00077020008770200087702000877020008FC
:1001000077020008770200087702000877020008EB
:1001100077020008770200087702000877020008DB
:1001200077020008770200087702000877020008CB
:1001300077020008770200087702000877020008BB
:1001400000000000000000000000000000000000AF
:10015000770200087702000877020008770200089B
:10016000770200087702000877020008770200088B
:10017000770200087702000877020008770200087B
:1001800077020008DFF810D000F0D4FB00480047E9
:10019000C1510008AFF30080284400202C4B19689F
:1001A0000868B0E8F04F80F30988BFF36F8F4FF015
:1001B000000080F3118870470000000008480068C4
:1001C000006880F308884FF0000080F3148862B65E
:1001D00061B6BFF34F8FBFF36F8F00DF00BF00BF6B
:1001E00008ED00E0DFF80C00016841F470010160E7
:1001F000704700BF88ED00E0EFF30980BFF36F8F19
:10020000134B1A681EF0100F08BF20ED108A20E96A
:10021000F04F106009B44FF0500080F31188BFF325
:100220004F8FBFF36F8F06F0EBFD4FF0000080F3B0
:10023000118809BC19680868B0E8F04F1EF0100F6B
:1002400008BFB0EC108A80F30988BFF36F8F704746
:1002500000020020EFF30580704700000648804749
:1002600006480047FEE7FEE7FEE7FEE7FEE7FEE79B
:10027000FEE7FEE7FEE7FEE78926000885010008A5
:1002800040EA01039B0703D009E008C9121F08C018
:10029000042AFAD203E011F8013B00F8013B521E98
:1002A000F9D27047D2B201E000F8012B491EFBD20F
:1002B00070470022F6E710B513460A460446194671
:1002C000FFF7F0FF204610BD2DE9FE4F804681EA82
:1002D0000300C00F0C46009021F0004123F00045C0
:1002E000B8EB0200A94105D24046214690461C4683
:1002F0000B46024623F00040104347D0270DC7F3BA
:100300000A00C3F30A510290401A019040286BDAA8
:10031000C3F3130040F4801B0098924620B10023E1
:10032000D2EB030A63EB0B0B01985946C0F1400274
:10033000504600F008FA06460D4650465946019AC6
:1003400000F010FA10EB08006141002487EA115216
:1003500084EAE7731A4340D0009A62B3019A012AF3
:100360004FEA075215DC001B61EB02014FF000421F
:1003700002EA0752CDE90042001C41F580113246E5
:100380002B4600F070FA03B0BDE8F08F40462146DE
:10039000F9E7001B61EB0201001C41F58013001816
:1003A0005B412018A2F5001747EB030140EAD57026
:1003B000B6196D4111E06D084FEA360645EAC07581
:1003C0004FEA0752001B61EB0201001C41F580114E
:1003D00049084FEA30000019514132462B4603B01C
:1003E000BDE8F04F00F030BA009801224000002331
:1003F000D0EB020263EBE073009821464FEAE07411
:10040000B8EB000061EB0401E9E783F000435BE730
:1004100081F0004158E72DE9FE4F81EA030404F022
:10042000004421F0004100944FF0000B23F0004302
:1004300050EA01045ED052EA03045BD0C3F30A54CD
:10044000C1F30A552C44A4F2F3340194A0FB0254E6
:10045000C1F3130141F48011C3F3130343F4801378
:1004600001FB024400FB034E840A970A44EA8154CC
:1004700047EA8357A4FB076802958D0A05FB0785A9
:100480004FEA932C04FB0C542705029D4FEA0658B3
:1004900047EA1637B5EB08056EEB070C870E920E90
:1004A00047EA811742EA8312A7FB0201B6EB0B0170
:1004B00064EB00042B0D43EA0C335E1844EB1C5034
:1004C000DA465146E7FB0201C5F313044FEA0B334A
:1004D00043EA14534FEA0432019C43EA0603A4F1B1
:1004E0000C040294009CCDE900B400F0BCF903B008
:1004F000BDE8F08F00200146F9E72DE9F04D81EAD3
:10050000030404F0004B21F0004514464FF0000AAC
:1005100023F0004150EA050220D054EA01021DD028
:10052000C5F30A570246C5F31303C1F31300C1F321
:100530000A5640F4801543F48013A7EB0608101BFD
:10054000D64608F2FD3873EB050002D308F1010826
:1005500001E092185B41B8F1000F03DA0020014678
:10056000BDE8F08D00204FF48011064684460EE071
:10057000171B73EB050705D3121B63EB050306433B
:100580004CEA010C49084FEA300092185B4150EAEE
:100590000107EDD152EA030012D082EA040083EA97
:1005A0000501084305D0101BAB4106D201220023F0
:1005B00006E000224FF0004302E06FF0010253100A
:1005C0001AEB06004CEB085110EB0A0041EB0B0153
:1005D000BDE8F04D00F038B90EB5C10F80EAE0700B
:1005E0000844CA07002140F233438DE80E000A4652
:1005F0000B4600F038F903B000BD00F0004230F0C7
:1006000000400AD0C10D01F56071C0F3160042EA46
:100610000151C2084007114370470020014670474E
:1006200030B5041E71F1000404DB4FF00044404279
:1006300064EB0101141E73F1000405DB1C464FF04E
:100640000043524263EB04038B4208BF824230BD39
:1006500030B5041E71F1000404DB4FF00044404249
:1006600064EB0101141E73F1000405DB1C464FF01E
:100670000043524263EB0403994208BF904230BDED
:1006800001F0004330B421F0004150EA010206D0ED
:100690000A0DA2F56072C1F31301002A02DC30BC1E
:1006A00000207047440F44EAC104C100E01830BC88
:1006B00000EBC25000F068B830B50B460146002090
:1006C0002022012409E021FA02F59D4205D303FA14
:1006D00002F5491B04FA02F52844151EA2F1010295
:1006E000F1DC30BD2DE9F05F0546002092469B46C7
:1006F00088460646814640241BE028464146474638
:10070000224600F029F953465A46C01A914110D3A7
:1007100011461846224600F016F82D1A67EB01081C
:100720004F4622460120002100F00DF817EB00098A
:100730004E41201EA4F10104DFDC484631462A4622
:100740004346BDE8F09F202A04DB203A00FA02F17C
:10075000002070479140C2F1200320FA03F31943AF
:1007600090407047202A06DBCB17203A41FA02F06E
:1007700043EAE07306E041FA02F3D040C2F12002FE
:1007800091400843194670470029A8BF7047401C94
:10079000490008BF20F00100704710B4B0FA80FC97
:1007A00000FA0CF050EA010404BF10BC704749B1D4
:1007B000CCF1200421FA04F411FA0CF118BF012144
:1007C00021430843A3EB0C01CB1D4FEA00614FEA24
:1007D000102042BF002010BC704700EBC3501044F3
:1007E0000029A4BF10BC7047401C490008BF20F07E
:1007F000010010BC7047F0B400F0004221F000414D
:1008000020F00040CE0DC30DC1F3160141F40001EC
:10081000C0F316004C42154640F40000761E09E075
:1008200010EB440002D582F0004240428842F7D8E3
:1008300040005B1EB342F9DA18B1F0BC0021FFF7AB
:10084000ACBF2846F0BC704710B5141E73F100040D
:1008500008DA401C41F1000192185B411A4301D1B2
:1008600020F0010010BD2DE9F04D92469B4611B1DC
:10087000B1FA81F202E0B0FA80F220329046FFF73E
:1008800062FF04460F4640EA0A0041EA0B01534664
:100890005A46084313D0114653EA010019D0C8F153
:1008A0004002504600F058F805460E46504659465C
:1008B0004246FFF748FF084305D0012004E02046E8
:1008C0003946BDE8F08D0020054346EAE0762C432A
:1008D00037430A986305E40AA0EB08000022FD0AEA
:1008E00044EA47540A3002D500200146E9E70105F1
:1008F00010196941DDE9084500196941BDE8F04D6D
:10090000A2E7C1F30A52C1F3130140F2FF3341F4ED
:1009100080119A4202DA00200146704740F23343C8
:100920009A42A2F2334202DC524200F015B8FFF7BD
:100930000ABF0000064C074D06E0E06840F00103E6
:1009400094E8070098471034AC42F6D3FFF71EFC3A
:1009500098870008B8870008202A04DB203A21FA8B
:1009600002F00021704721FA02F3D040C2F12002C8
:10097000914008431946704730B58C1810F8012B88
:1009800012F00F0301D110F8013B120906D110F843
:10099000012B03E010F8015B01F8015B5B1EF9D14C
:1009A00001E001F8013B521EFBD1A142E6D3002039
:1009B00030BD000010B50421174803F090F808B3CB
:1009C0000021154803F07EF91449086001211248FE
:1009D00003F078F91149486002210F4803F072F9D9
:1009E0000E49886003210C4803F06CF90C4908801B
:1009F0000C4801680C48006800F02CFE04210648F1
:100A000003F057F80421044803F069F818B10421F1
:100A1000014803F04EF810BD002401400C150020E1
:100A200000000020CC0100207001002010B52DED49
:100A3000048BB0EE408AB0EE480A00F07FF8F0EE8A
:100A4000408A0948006890ED160A38EEC00AB0EEF8
:100A5000409AB0EE490A01F055F9B0EE409AB0EE76
:100A6000490ABDEC048B10BD700100202DE9F04156
:100A70002DED048B04460D46002280212C4803F006
:100A800023F8B7EE000A00F0B5FF4FF47A7006F0D5
:100A9000D3F89FED280AB0EE408A0A279FED250A79
:100AA000B0EE409A01F0DCF8B0EE409A01F0D8F8D0
:100AB000B0EE409A002611E001F0D2F8B0EE409A74
:100AC000B0EE490A00F03AF8F0EE409A38EE290A02
:100AD000B0EE408A0A2006F0AFF8761C0A2EEBDB57
:100AE000B2EE040AC8EE000AC4ED000A01F0B8F83C
:100AF000B0EE409AB0EE490A00F020F8F0EE408ADD
:100B000094ED000A38EEC00A85ED000A4FF4FA7041
:100B100006F092F89FED070A00F06CFF0122802199
:100B2000034802F0D1FFBDEC048BBDE8F08100006A
:100B3000002401400000000000BFFEE710B52DEDCD
:100B4000028BB0EE408A0C48006890ED120AB8EEB5
:100B5000C00A60EE080A0848006890ED110AB8EE75
:100B6000C00A20EE800AF0EE408AB0EE680A01F07A
:100B7000C9F8BDEC028B10BD70010020D0ED130A46
:100B8000164991ED001A70EEC10AB0EE600ADFED71
:100B9000140AB4EEE00AF1EE10FA05DDDFED110AF9
:100BA00070EE600AB0EE600ADFED0F0AB4EEE00A04
:100BB000F1EE10FA05D2DFED0B0A70EE200AB0EE6E
:100BC000600AD0ED410A70EE800AC0ED410AD0ED16
:100BD000130A0249C1ED000A70470000D401002049
:100BE000D00F4940D00FC940D00F49C070B52DED8E
:100BF000028B0446F0EE408A0D4694ED130A1D4820
:100C0000D0ED000A30EE600AB0EE408A9FED1A0A7D
:100C1000B4EEC08AF1EE10FA06DD9FED180A38EE48
:100C2000400AB0EE408A0CE09FED150AB4EEC08A8F
:100C3000F1EE10FA05D29FED110A38EE000AB0EE7F
:100C4000408A94ED2D0A20EE080AC0EE280AC4ED71
:100C50002C0AD4ED2C0AB0EE600A04F1B00128464B
:100C600000F060FE94ED130A024880ED000ABDEC2E
:100C7000028B70BDD0010020D00F4940D00FC94079
:100C8000D00F49C000B593B0382101A8FFF711FB80
:100C9000F848007870B10FA804F076FA50B9012135
:100CA0000FA804F07BFA322005F0C6FF00210FA840
:100CB00004F074FAEF48007846287DD2DFE800F0AF
:100CC0007C23A3AAB0F0EE7CEDECEBEAE9E8E7E6E2
:100CD000E5E4E3E2E1E0DFDEDDDC7C7C7C7C7C7C67
:100CE000DBDAD9D87CD7D6D5D4D37C7C7C7C7C7C11
:100CF000D2D1D0CFCECDCCCBCAC97C7C7C7C7C7C05
:100D0000C8C7C6C5C4C3DC4803F0E2FFDA48406880
:100D1000DA4909684864D848C068D84909688864CD
:100D2000D5480068D54909688865D348006900EE50
:100D3000100AB8EEC00AD148006880ED2D0ACF48ED
:100D4000006890ED110AB8EEC00A8DED010ACB489B
:100D5000006890ED120AB8EEC00A8DED020AC7488D
:100D6000006890ED160A8DED030AC448006890ED06
:100D7000200A8DED040AC148006890ED210A8DED2E
:100D8000050A04F011F98DED060ABC48006890EDE3
:100D90002D0A8DED070AB948006890ED2F0A8DEDF8
:100DA000080AB648006890ED300A8DED090AB3488C
:100DB000006890ED380A00E055E28DED0A0AAF4870
:100DC000006890ED3A0A8DED0B0AAC48006890ED92
:100DD000280A8DED0C0AA948006890ED370A8DEDC0
:100DE0000D0AA648006890ED400A8DED0E0A0E220D
:100DF00001A9012001F03AFE0120A149087000205C
:100E00009C49087030E201209E49087000209949F1
:100E1000087029E200209B4908709649087023E277
:100E2000994803F055FF994890ED000ABDEEC00ABD
:100E300010EE100A94494860084603F08BFF00202A
:100E40008C49087010E203E2F7E1EBE1DFE1D3E166
:100E5000CCE1C4E1BDE1B5E1A9E19DE191E185E12C
:100E60007EE176E162E15BE153E140E12DE121E1E8
:100E7000F6E0ECE0E2E0D8E0CCE0C0E0B9E0B1E0E0
:100E8000AAE0A2E09BE093E08CE084E07DE075E0E6
:100E900067E060E058E04CE045E03DE013E0FFE74C
:100EA000794803F015FF794890ED000ABDEEC00ABD
:100EB00010EE100A7449C860084603F04BFF00208A
:100EC0006C490870D0E101210FA804F067F970495E
:100ED0007048FFF7CBFD6F4890ED000A8DED010AD9
:100EE0006B4890ED000A8DED020A674803F0F0FEB2
:100EF0006848006864490860084603F02BFF022236
:100F000001A9072001F0B2FD00210FA804F046F965
:100F1000002058490870A7E101205F4908700020AF
:100F200054490870A0E100205B49087051490870DD
:100F30009AE1564890ED000A5048006880ED0D0A8D
:100F400000204C4908708FE10120544908700020AE
:100F50004849087088E100205049087045490870E8
:100F600082E104F021F88DED010A012201A90D2092
:100F700001F07CFD00203F49087075E101204849DF
:100F8000087000203B4908706EE100204449087059
:100F90003849087068E1012042490870002035494D
:100FA000087061E100203F490870324908705BE138
:100FB00001203D49087000202E49087054E10020AE
:100FC000394908702B4908704EE1012037490870F3
:100FD00000202849087047E100203449087025495D
:100FE000087041E101203249087000202149087051
:100FF0003AE100202E4908701E49087034E1234868
:1010000090ED000A1D48006880ED290A002019496A
:10101000087029E11D4890ED000A1848006880ED2D
:101020002A0A0020134908701EE1012013490968AB
:1010300081F80C0100200F49087015E102200F49CA
:10104000096881F80C0100200A4908700CE10320AE
:101050000A49096881F80C0100200649087003E17B
:1010600004200649096881F80C0100200149087034
:10107000FAE0000033000020F81400207001002086
:10108000E0010020D8010020E414002034000020FA
:10109000EC010020E8010020D9010020DA01002045
:1010A000DB010020DC010020DD010020DE0100204A
:1010B000DF0100206E4890ED000A6E48006880ED68
:1010C0000E0A00206C490870CEE0694890ED000AD5
:1010D0006848006880ED200A654890ED000A654880
:1010E000006880ED170A002063490870BCE0604882
:1010F00090ED000A5F48006880ED210A5C4890EDA1
:10110000000A5C48006880ED180A00205A490870FF
:10111000AAE0012059490870002057490870A3E04F
:10112000002056490870544908709DE0544803F067
:10113000CFFD4F4890ED000ABDEEC00A10EE100A38
:101140004F490861084603F005FE00204A4908702F
:101150008AE001204B49087000204749087083E06D
:10116000002048490870444908707DE0404890EDEF
:10117000000A4048006880ED2E0A00203E490870B1
:1011800072E03B4890ED000A3A48006880ED2F0A73
:1011900000203949087067E0354890ED000A35486D
:1011A000006880ED300A0020334908705CE0304868
:1011B00090ED000A2F48006880ED420A00202E4979
:1011C000087051E001203049087000202A49087059
:1011D0004AE000202C4908702749087044E00120AB
:1011E0002A4908700020244908703DE00020274962
:1011F00008702149087037E01D4890ED000A1D482D
:10120000006880ED380A00201B4908702CE018485F
:1012100090ED000A1748006880ED3A0A0020164950
:10122000087021E0124890ED000A1248006880ED35
:10123000280A00201049087016E00D4890ED000AB9
:101240000C48006880ED370A00200B4908700BE05D
:10125000074890ED000A0748006880ED400A00202A
:101260000549087000E000BF00BF13B000BD0000DA
:10127000340000207001002033000020E101002034
:10128000E4140020E2010020E3010020E40100203A
:1012900010B52DED088B044694ED100A84ED1A0A62
:1012A00094ED2A0A84ED1B0A94ED1B0AD4ED1A0A68
:1012B00030EE600A84ED1C0A94ED1C0AD4ED1D0A80
:1012C00030EE600AD4ED180A20EE200AD4ED170A99
:1012D00094ED1C1A00EE810AD4ED1E0A30EE200AAD
:1012E00084ED1E0A94ED1C0A84ED1D0A94ED1F0A7C
:1012F00010EE101A0846FFF780F941EC1A0BB0EE19
:101300004A0AF0EE6A0A01F02FFCB0EE408AF0EED5
:10131000608A94ED1E0A10EE101A0846FFF76DF968
:1013200041EC190B53EC182BFFF792F917D294EDFF
:101330001F0A10EE101A0846FFF75FF941EC190B6F
:10134000B0EE490AF0EE690A01F00EFCB0EE408AF8
:10135000F0EE608A51EC180BFFF792F9A06794ED5C
:101360001F0A10EE101A0846FFF747F941EC1B0B55
:10137000B0EE4B0AF0EE6B0A01F0F6FBB0EE40AABD
:10138000F0EE60AA51EC1A0B81F0004141EC180B11
:1013900094ED1E0A10EE101A0846FFF72EF941ECE4
:1013A000190B53EC182BFFF73BF91BD294ED1F0AD6
:1013B00010EE101A0846FFF720F941EC1A0BB0EEB8
:1013C0004A0AF0EE6A0A01F0CFFBB0EE409AF0EE66
:1013D000609A51EC190B81F0004141EC180BFFF7BA
:1013E0004FF9A067BDEC088B10BD000010B52DEDC6
:1013F000088B044694ED0F0A84ED230A94ED290A24
:1014000084ED240A5948006890F80C01032805D09F
:101410005648006890F80C01042803D194ED360A70
:1014200084ED240A94ED240AD4ED230A30EE600AF8
:1014300084ED250A94ED250AD4ED260A30EE600AE3
:10144000D4ED210A20EE200AD4ED200A94ED251ACD
:1014500000EE810AD4ED270A30EE200A84ED270A37
:1014600094ED250A84ED260A94ED280A10EE101A50
:101470000846FFF7C2F841EC1A0BB0EE4A0AF0EE4C
:101480006A0A01F071FBB0EE408AF0EE608A94EDDA
:10149000270A10EE101A0846FFF7AFF841EC190BB7
:1014A00053EC182BFFF7D4F818D294ED280A10EE5D
:1014B000101A0846FFF7A1F841EC190BB0EE490AE3
:1014C000F0EE690A01F050FBB0EE408AF0EE608A5F
:1014D00051EC180BFFF7D4F89C21085194ED280A21
:1014E00010EE101A0846FFF788F841EC1B0BB0EE1F
:1014F0004B0AF0EE6B0A01F037FBB0EE40AAF0EEBB
:1015000060AA51EC1A0B81F0004141EC180B94EDEC
:10151000270A10EE101A0846FFF76FF841EC190B76
:1015200053EC182BFFF77CF81CD294ED280A10EE30
:10153000101A0846FFF761F841EC1A0BB0EE4A0AA0
:10154000F0EE6A0A01F010FBB0EE409AF0EE609AFD
:1015500051EC190B81F0004141EC180BFFF790F8AA
:101560009C210851BDEC088B10BD000070010020CB
:101570000A79072A53D2DFE802F05204111E2B38F1
:101580004500D0ED071A9FED272A72EE611A90ED03
:10159000092A71EEC21AC0ED081A41E0D0ED081A0E
:1015A0009FED202A72EE611A90ED092A71EEC21A9F
:1015B000C0ED071A34E0D0ED081A9FED1A2A72EE3A
:1015C000611A90ED092A71EEC21AC0ED071A27E0E0
:1015D000D0ED071A9FED132A72EE611A90ED082ADA
:1015E00071EEC21AC0ED091A1AE0D0ED071A9FED8C
:1015F0000D2A72EE611A90ED092A71EEC21AC0ED41
:10160000081A0DE0D0ED071A9FED062A72EE611A56
:1016100090ED082A71EEC21AC0ED091A00E000BF71
:1016200000BF70470000000010B5022003F0C0F8B2
:1016300048B1022003F028F80021034803F010F815
:1016400001200249087010BD080002402800002057
:101650007047000070B504460D4600F001FB84EDB4
:10166000130AD4ED130AB0EE600AFFF7DFF984ED38
:10167000150A6748006820806548406860806448B3
:101680008068A0802088E188401A00EE100AB8EE39
:10169000C00ADFED600A80EE201A9FED5F0A61EE5E
:1016A000000AB2EE041A80EE810ADFED5C0A80EED9
:1016B000201A84ED071A60882189401A00EE100A6A
:1016C000B8EEC00ADFED530A80EE201A9FED520AF1
:1016D00061EE000AB2EE041A80EE810ADFED4F0AD5
:1016E00080EE201A84ED081AA0886189401A00EE65
:1016F000100AF8EEC00A9FED471A80EE810ADFED6E
:10170000460A60EE200AB2EE041A80EE810ADFED8E
:10171000430A80EE201A84ED091AD4ED091AB0EEBE
:10172000611AD4ED081AF0EE610AD4ED071AB0EE92
:10173000610A29463A480068FFF71AFF94ED081A33
:10174000B1EE411AF0EE410A94ED071AB1EE411ADA
:10175000B0EE410A04F11801081F02F099FCD4ED23
:10176000151AB0EE611AD4ED061AF0EE610AD4ED46
:10177000051AB0EE610A04F13C01081D03F080FE79
:1017800094ED0F1AF0EE410A94ED101AB0EE410AF2
:1017900004F13C02111D2348006800F0D4F89FEDCD
:1017A000220A84ED0E0A2046FFF720FE2046FFF7AE
:1017B0006FFD1B48006890F80C01012807D094EDDC
:1017C000270A84ED0D0A94ED1E0A84ED0E0AD4ED6D
:1017D000151AB0EE611AD4ED0E1AF0EE610AD4EDCE
:1017E0000D1AB0EE610A04F11001081F03F0A0FC0D
:1017F00094ED041AF0EE410A94ED031AB0EE410A9A
:10180000284600F049FB284604F042FC70BD000069
:101810000C15002000008045333353400AD7233C89
:1018200070010020F0010020BD37863510B500F0B2
:1018300005F8044603F00EFD10BD000010B50221AE
:101840000B4802F036F90121094802F0E9F900BF1E
:101850000221074802F030F90028F9D0022104489B
:1018600002F027F9024802F0B8F90446204610BDFC
:101870000028014000BFFEE79FED131AF0EE410A79
:101880009FED121A20EE811AF3EE041A21EE211AAE
:10189000B7EE002AC2EE011AB7EE001A31EE811A35
:1018A000F7EE001A81EE812AB0EE420A80ED000ABE
:1018B0009FED071A80ED011A80ED020A9FED041AD0
:1018C00080ED031A7047000017B75138560EC94013
:1018D000000000009FED101AF0EE410A9FED0F1A74
:1018E00020EE811AF3EE041A21EE211AB7EE002A37
:1018F000C2EE011AB7EE001A31EE811AF7EE001AA5
:1019000081EE812AB0EE420A80ED000A9FED041AB2
:1019100080ED011A704700006F12833A560EC940DD
:1019200000000000D0ED010A90ED001AD0ED011A80
:1019300070EE611A41EE210AC0ED010AD0ED010AF4
:10194000C1ED000A704790ED011AD0ED001A90ED3C
:10195000012A30EE422A01EE821A80ED011A90ED42
:10196000011A81ED001A90ED031AD0ED021A90EDE4
:10197000032A30EEC22A01EE821A80ED031A90ED9E
:10198000031A82ED001A7047F0EE401AF4EEC11A05
:10199000F1EE10FA02DBB0EE410A7047F4EEE01A05
:1019A000F1EE10FA02D8B0EE600AF6E7B0EE610A86
:1019B000F3E700BFFEE700001CB500200090019097
:1019C00014E00B48007801280CD1FFF72FFF8DEDB4
:1019D000000A03F0E9FA8DED010A0222694624208B
:1019E00001F044F84FF4FA7005F026F9E9E7000039
:1019F000E001002010B52DED0A8BB0EE408A9FED7E
:101A0000370AF0EE408A9FED350AB0EE409A9FED1E
:101A1000330AF0EE409A9FED310AFFF78FF8B0EEEF
:101A200040AAB0EE4A0A02F073FFF1EE690A20EE16
:101A300020CAB0EE4A0A02F009FF08EE00CAF0EE32
:101A40004C8AB0EE4A0A02F001FF20EE29CAB0EE3D
:101A50004A0A02F05DFF08EE00CAB0EE4C9A204838
:101A6000D0ED000AB0EE001A80EE810A30EE280AAE
:101A7000F0EE40AADFED1B0AB0EE680A10EE890A0C
:101A8000B0EE001AC0EE010A90ED000AB0EE001AA6
:101A9000C0EE011A30EEA10AB0EE40BADFED120A34
:101AA000B0EE680A10EE890AB0EE001AC0EE010A24
:101AB00090ED000AB0EE001AC0EE011A30EEA10A55
:101AC000F0EE40BAB0EE6B1AF0EE4B0AB0EE6A0AD6
:101AD00000F00CF8BDEC0A8B10BD00000000000007
:101AE000480000202DB2DD3F2DB2DDBF10B52DED39
:101AF000048BB0EE409AB0EE608AF0EE418A324834
:101B000090ED001ADFED310AB0EE490AFFF73CFF15
:101B1000B0EE409A2C4890ED001ADFED2C0AB0EEA2
:101B2000480AFFF731FFB0EE408A274890ED001ACF
:101B3000DFED260AB0EE680AFFF726FFF0EE408AD6
:101B4000214890ED000AC9EE000AF0EE609AB7EE67
:101B5000001ADFED1E0AB0EE690AFFF715FF1C48F8
:101B600080ED000A184890ED000AC8EE000AF0EE79
:101B7000609AB7EE001ADFED150AB0EE690AFFF7BA
:101B800003FF144880ED000A0F4890ED000AC8EEEC
:101B9000800AF0EE609AB7EE001ADFED0C0AB0EEA4
:101BA000690AFFF7F1FE0C4880ED000A90ED001A7B
:101BB0000848D0ED000A064890ED000A04F07AFAD1
:101BC000BDEC048B10BD00004800002000000000A8
:101BD00074010020780100207C0100202DE9F041F3
:101BE0002DED028B04462189606803F017FA204628
:101BF00000F03EF80546204600F03AF8064620463A
:101C000000F036F807462189606803F009FA2804D5
:101C100040EA06203843801208EE100AB8EE480A5F
:101C2000DFED0C0A20EE200ADFED0B0A80EE201A11
:101C3000F0EE418A9FED090A28EE800ADFED050AE1
:101C400080EE201A84ED031A94ED030ABDEC028B9A
:101C5000BDE8F0810000B44300008046D00FC940C9
:101C600010B50248FFF7BAFF10BD00003800002091
:101C700070B50446002506E0681C80B205460A28B7
:101C800001DD002070BD0221206804F05DFA00280B
:101C9000F2D00021206804F055FA002506E0681C07
:101CA00080B205460A2801DD0020EBE7012120680B
:101CB00004F04AFA0028F2D0206804F03FFAC0B2DB
:101CC000E0E77047F0B503460C4603F00701C1F1A9
:101CD0000700042801D9042001E0C1F107000646ED
:101CE000081D072801D2002000E0C81E054601207B
:101CF000B040401E2040A8400127AF407F1E174043
:101D00003843F0BD10B52DED028BF0EE408ADFEDCB
:101D10000B0AB0EE680A00F031FFB0EE408AB5EE73
:101D2000C08AF1EE10FA04DBB0EE480ABDEC028B7B
:101D300010BD9FED020A38EE000AF7E7D00FC94048
:101D400010B52DED088B044694ED410A84ED3B0A55
:101D500094ED420A84ED3C0A94ED3C0AD4ED3B0A32
:101D600030EE600A84ED3D0A94ED380AD4ED3D0A68
:101D700020EE200AD4ED3D0A94ED3E1A70EEC10A21
:101D800094ED3A1A01EE200A84ED3F0A94ED3D0AE3
:101D900084ED3E0A94ED400A10EE101A0846FEF754
:101DA0002CFC41EC1A0BB0EE4A0AF0EE6A0A00F085
:101DB000DBFEB0EE408AF0EE608A94ED3F0A10EE52
:101DC000101A0846FEF719FC41EC190B53EC182BBE
:101DD000FEF73EFC18D294ED400A10EE101A0846A9
:101DE000FEF70BFC41EC190BB0EE490AF0EE690A64
:101DF00000F0BAFEB0EE408AF0EE608A51EC180BAB
:101E0000FEF73EFCFC21085194ED400A10EE101A3A
:101E10000846FEF7F2FB41EC1B0BB0EE4B0AF0EE6E
:101E20006B0A00F0A1FEB0EE40AAF0EE60AA51EC01
:101E30001A0B81F0004141EC180B94ED3F0A10EEB3
:101E4000101A0846FEF7D9FB41EC190B53EC182B7E
:101E5000FEF7E6FB1CD294ED400A10EE101A08467D
:101E6000FEF7CBFB41EC1A0BB0EE4A0AF0EE6A0A21
:101E700000F07AFEB0EE409AF0EE609A51EC190B49
:101E800081F0004141EC180BFEF7FAFBFC210851F0
:101E9000BDEC088B10BD000090ED001ADFEDFE1ABE
:101EA00021EE211AFD49D1ED001A81EE212A80EDA3
:101EB000112A90ED111A21EE201A80ED051A9FEDDE
:101EC000F81A20EE011AF6EE001A01EEE01AD0ED33
:101ED000111A21EE211A80ED061A9FEDF21A20EE5A
:101EE000011AF6EE001A01EEE01AD0ED111A21EEF9
:101EF000211A80ED071A90ED051AB5EEC01AF1EE21
:101F000010FA01DD012100E0002190ED061AB5EE86
:101F1000C01AF1EE10FA01DD012200E0002201EB0F
:101F2000420190ED071AB5EEC01AF1EE10FA01DD8C
:101F3000012200E0002201EB8201017101790729F1
:101F40007DD2DFE801F07C5EFC04FBBEFA0090ED80
:101F5000061A80ED0B1A90ED051A80ED0D1A90ED22
:101F60000B1AD0ED0D1A31EE211A80ED0F1A90EDFB
:101F70000F1AD0ED001AB4EEE11AF1EE10FA17DDE7
:101F800090ED001AD0ED0F1A81EE212A80ED102A73
:101F900090ED0B1AD0ED101A21EE211A80ED0B1ADC
:101FA00090ED0D1AD0ED101A21EE211A80ED0D1AC8
:101FB00090ED001AD0ED0B1A31EE611AD0ED0D1A2A
:101FC00031EE611AF0EE001A81EE212A80ED0E2A20
:101FD00090ED0B1AD0ED0D1A31EE211AD0ED0E1A3C
:101FE00031EE211A80ED021A90ED0D1AD0ED0E1A85
:101FF00031EE211A80ED031A90ED0E1A80ED041ACD
:10200000DEE190ED061AB1EE411A80ED091A90ED6D
:10201000071AB1EE411A80ED0D1A90ED091AD0EDB4
:102020000D1A31EE211A80ED0F1A90ED0F1AD0ED36
:10203000001AB4EEE11AF1EE10FA19DD00E0BEE18B
:1020400090ED001AD0ED0F1A81EE212A80ED102AB2
:1020500090ED091AD0ED101A21EE211A80ED091A1F
:1020600090ED0D1AD0ED101A21EE211A80ED0D1A07
:1020700090ED001AD0ED091A31EE611AD0ED0D1A6B
:1020800031EE611AF0EE001A81EE212A80ED0E2A5F
:1020900090ED0D1AD0ED0E1A31EE211A80ED021AD4
:1020A00090ED091AD0ED0D1A31EE211AD0ED0E1A6D
:1020B00031EE211A80ED031A90ED0E1A80ED041A0C
:1020C0007EE190ED051A80ED091A90ED071A80ED7A
:1020D0000A1A90ED091AD0ED0A1A31EE211A80ED94
:1020E0000F1A90ED0F1AD0ED001AB4EEE11AF1EECE
:1020F00010FA17DD90ED001AD0ED0F1A81EE212AAB
:1021000080ED102A90ED091AD0ED101A21EE211A57
:1021100080ED091A90ED0A1AD0ED101A21EE211A5D
:1021200080ED0A1A90ED001AD0ED091A31EE611A0D
:10213000D0ED0A1A31EE611A02E07EE01FE0E0E025
:10214000F0EE001A81EE212A80ED0E2A90ED0E1A93
:1021500080ED021A90ED091AD0ED0A1A31EE211A1B
:10216000D0ED0E1A31EE211A80ED031A90ED0A1A05
:10217000D0ED0E1A31EE211A80ED041A20E190ED17
:10218000051AB1EE411A80ED081A90ED061AB1EE6B
:10219000411A80ED0A1A90ED081AD0ED0A1A31EEB4
:1021A000211A80ED0F1A90ED0F1AD0ED001AB4EE3F
:1021B000E11AF1EE10FA17DD90ED001AD0ED0F1ACA
:1021C00081EE212A80ED102A90ED081AD0ED101A28
:1021D00021EE211A80ED081A90ED0A1AD0ED101A9E
:1021E00021EE211A80ED0A1A90ED001AD0ED081A9E
:1021F00031EE611AD0ED0A1A31EE611AF0EE001AD2
:1022000081EE212A80ED0E2A90ED0E1A80ED021A41
:1022100090ED0A1AD0ED0E1A31EE211A80ED031A54
:1022200090ED081AD0ED0A1A31EE211AD0ED0E1AEF
:1022300031EE211A80ED041AC2E090ED071A80ED0C
:10224000081A90ED061A80ED0C1A90ED081AD0EDE0
:102250000C1A31EE211A80ED0F1A90ED0F1AD0ED05
:10226000001AB4EEE11AF1EE10FA21DD90ED001A39
:10227000D0ED0F1A81EE212A80ED102A90ED081A78
:10228000D0ED101A21EE211A80ED081A90ED0C1AEB
:10229000D0ED101A08E000002DB2DD3F480000200C
:1022A000D0B35D3FD0B35DBF21EE211A80ED0C1A93
:1022B00090ED001AD0ED081A31EE611AD0ED0C1A2B
:1022C00031EE611AF0EE001A81EE212A80ED0E2A1D
:1022D00090ED0C1AD0ED0E1A31EE211A80ED021A93
:1022E00090ED0E1A80ED031A90ED081AD0ED0C1A3D
:1022F00031EE211AD0ED0E1A31EE211A80ED041ABA
:102300005EE090ED071AB1EE411A80ED0B1A90EDE8
:10231000051AB1EE411A80ED0C1A90ED0B1AD0EDB2
:102320000C1A31EE211A80ED0F1A90ED0F1AD0ED34
:10233000001AB4EEE11AF1EE10FA17DD90ED001A72
:10234000D0ED0F1A81EE212A80ED102A90ED0B1AA4
:10235000D0ED101A21EE211A80ED0B1A90ED0C1A17
:10236000D0ED101A21EE211A80ED0C1A90ED001A12
:10237000D0ED0B1A31EE611AD0ED0C1A31EE611A64
:10238000F0EE001A81EE212A80ED0E2A90ED0B1A54
:10239000D0ED0C1A31EE211AD0ED0E1A31EE211AC1
:1023A00080ED021A90ED0E1A80ED031A90ED0C1AD2
:1023B000D0ED0E1A31EE211A80ED041A00E000BFB4
:1023C00000BF704710B52DED0A8B84B00446B0EE07
:1023D000408AF0EE608AB0EE419AF0EE619A84EDA8
:1023E000178AC4ED188A84ED199AC4ED1F9A84EDFA
:1023F000208AC4ED218A84ED229AC4ED289A19EE30
:10240000100AFEF7FAF841EC1A0B18EE900AFEF7E4
:10241000F4F841EC1B0B18EE100AFEF7EEF841EC55
:102420001C0B8DED02AB8DED00BB53EC1C2B03A000
:1024300000F06EFB04B0BDEC0A8B10BD7365742018
:102440006B7020697320256C662C206B6920697382
:1024500020256C662C206B6420697320256C660D2A
:102460000A00000010B52DED068B82B00446B0EED8
:10247000408AF0EE608A84ED2A8AC4ED298A18EE3B
:10248000900AFEF7BAF841EC190B18EE100AFEF7A5
:10249000B4F841EC1A0B8DED009B53EC1A2B03A002
:1024A00000F036FB02B0BDEC068B10BD73657420E6
:1024B0007461725F696420697320256C662C2074D6
:1024C00061725F697120697320256C660D0A0000D6
:1024D00080ED380AC0ED390A80ED3A1AC0ED401A95
:1024E000704780ED420A704780ED2F0AC0ED300A38
:1024F00080ED311AC0ED371A704780ED2E0A704713
:1025000010B52DED088B044694ED2C0A84ED320AAB
:1025100094ED2E0A84ED330A5648006890F80C01B9
:10252000042803D194ED3F0A84ED330A94ED330A75
:10253000D4ED320A30EE600A84ED340A94ED340AA8
:10254000D4ED350A30EE600AD4ED300A20EE200AD0
:10255000D4ED2F0A94ED341A00EE810AD4ED360A38
:1025600030EE200A84ED360A94ED340A84ED350A03
:1025700094ED370A10EE101A0846FEF73EF841ECCB
:102580001A0BB0EE4A0AF0EE6A0A00F0EDFAB0EE6D
:10259000408AF0EE608A94ED360A10EE101A084672
:1025A000FEF72BF841EC190B53EC182BFEF750F803
:1025B00018D294ED370A10EE101A0846FEF71DF8EF
:1025C00041EC190BB0EE490AF0EE690A00F0CCFAC2
:1025D000B0EE408AF0EE608A51EC180BFEF750F82E
:1025E000D821085194ED370A10EE101A0846FEF76C
:1025F00004F841EC1B0BB0EE4B0AF0EE6B0A00F056
:10260000B3FAB0EE40AAF0EE60AA51EC1A0B81F0DA
:10261000004141EC180B94ED360A10EE101A0846F2
:10262000FDF7EBFF41EC190B53EC182BFDF7F8FF0E
:102630001CD294ED370A10EE101A0846FDF7DDFFA4
:1026400041EC1A0BB0EE4A0AF0EE6A0A00F08CFA7E
:10265000B0EE409AF0EE609A51EC190B81F0004117
:1026600041EC180BFEF70CF8D8210851BDEC088B93
:1026700010BD00007001002010B505F0FBFD012821
:1026800001D005F00FFA10BD1848006840F4700042
:10269000164908601648006820F00100401C1449E3
:1026A000086000BF12480068C0F340000028F9D05D
:1026B0000F48406820F003000D49486000BF0C48F7
:1026C0004068C0F381000028F9D109480068094931
:1026D0000840074908600020486008634FF41F0065
:1026E0008860C803014980390860704788ED00E0C0
:1026F00000100240FFFFF2FE10B59048007801285C
:1027000019D18F48006890ED0A0A8E4880ED000AC2
:102710008B48006890ED0B0A8A4880ED010A8848D2
:10272000006890ED0C0A874880ED020A03220146FA
:10273000082000F09BF984480078012828D18348BC
:10274000006883490988401A00EE100AB8EEC00AF2
:102750007C4880ED000A7D4840687D494988401AE0
:1027600000EE100AB8EEC00A764880ED010A7748FC
:10277000806877498988401A00EE100AB8EEC00ACE
:10278000704880ED020A032201460B2000F06EF92A
:1027900070480078012819D16F48006890ED020A4E
:1027A000684880ED000A6C48006890ED030A6548AF
:1027B00080ED010A6848006890ED040A614880EDE8
:1027C000020A032201460E2000F050F96348007807
:1027D000012819D15A48006890ED070A594880ED40
:1027E000000A5748006890ED080A564880ED010A33
:1027F0005348006890ED090A524880ED020A03220E
:102800000146102000F032F955480078012812D115
:102810004B48006890ED030A4A4880ED000A48489A
:10282000006890ED040A474880ED010A0222014643
:10283000122000F01BF94B480078012812D14048C3
:10284000006890ED050A3F4880ED000A3C480068AA
:1028500090ED060A3B4880ED010A02220146142051
:1028600000F004F940480078012812D1344800688B
:1028700090ED0F0A334880ED000A3148006890ED72
:10288000100A304880ED010A02220146162000F0AD
:10289000EDF83648007801280BD12948006890ED02
:1028A000130A284880ED000A01220146022000F0A8
:1028B000DDF82F48007801280BD12148006890ED01
:1028C0002C0A204880ED000A01220146282000F051
:1028D000CDF82848007801280BD11948006890ED00
:1028E000360A184880ED000A01220146312000F026
:1028F000BDF82148007801280BD11148006890EDFF
:10290000410A104880ED000A01220146372000F0FC
:10291000ADF81A48007801280BD10948006890EDFD
:102920003F0A084880ED000A01220146392000F0E4
:102930009DF80121880703F06CFD10BDD90100202E
:10294000700100207C020020DA0100200C1500201C
:1029500050000020DB010020CC010020DC01002021
:10296000DD010020DE010020DF010020D801002071
:10297000E1010020E2010020E3010020E401002049
:1029800010B52021084803F046FF58B1064803F06F
:1029900091FEC4B2204600F009F82021024803F05D
:1029A0009BFE00BF10BD0000004800402A49097886
:1029B00081B9A5280ED10021284A117011460A7844
:1029C0000978491C254B1970254988540121224A50
:1029D00011703FE02049097801293BD11F490A784D
:1029E0000978491C1D4B19701D49885419460978EE
:1029F000082926D11A49C979492922D10022002162
:102A000004E0174B5B5C1344DAB2491C0629F8DB7F
:102A100013498979914205D00021104B19700E4B52
:102A2000197070470E4949780E4B19700E490C4BBE
:102A3000D3F802300B600021084B1970064B197057
:102A400000BF06490978082904DB0021034A1170F8
:102A5000014A117000BFE4E732000020310000207D
:102A60002900002033000020340000202DE9F04729
:102A700005460E4617460024B8064FEA1068A146E0
:102A8000B246A5222146641C1D4842542146641CBE
:102A900045542146641C00F80180002008E01AF823
:102AA00000302146621CD4B2154A5354411CC8B2AE
:102AB0004045F4DB002006E01149095C494401F07F
:102AC000FF09411CC8B2A042F6DB2046611CCCB213
:102AD0000B4901F8009049222046611CCCB20849FC
:102AE0000A5408480078012807D12146064801F019
:102AF000BCFD0121044801F0B3FDBDE8F0870000F2
:102B000064140020280000200800024000BFFEE7F7
:102B10000FB4054B10B503A9044A029800F0FCFB62
:102B200010BC5DF814FB0000054E00087402002084
:102B300002480068C0F30220704700000CED00E07E
:102B400010B5002804DB0A07130E054A135406E0EB
:102B50000A07140E034A00F00F031B1FD45410BDC4
:102B600000E400E018ED00E02DED020B019820F0EC
:102B7000004001909DED000B02B0704710B52DEDA7
:102B8000028BF0EE408A18EE900AB0EE608A20F0D8
:102B90000040C0F1FF40C00F07D118EE100A20F02E
:102BA0000040C0F1FF40C00F2BD018EE101A18EEF5
:102BB000900AFDF720FE00EE100A10EE100A6FEAF0
:102BC000D05010F0FF0F04BFBDEC028B10BD18EE0B
:102BD000900A00F0004110EE100A00F0004081421F
:102BE00004BFBDEC028B10BD18EE101A10EE100AD7
:102BF000BDEC028B61F31E0000EE900A30EE600A1D
:102C000010BD18EE900A4FF07F41B1EB400F1CBF92
:102C100018EE100A5FEA4000C7D1012000F0B4FAB4
:102C2000BDEC028BBDE8104000F096BA0000000039
:102C300070B5D94B00242DED020B2DED108BDDE985
:102C40001010984205DA20F000429A4201D809D1CA
:102C500041B19DED100BBDEC108B02B0BDE8704092
:102C600000F05EBAB0F5801F26DA11430BD00028C1
:102C700013DA012000F088FABDEC108B02B0BDE839
:102C8000704000F059BA022000F07EFA00F030FAED
:102C900051EC100B81F000419EE06FF035049FED88
:102CA000C00B53EC102B9DED100B51EC100BFDF7EE
:102CB000B2FBCDE91001084604EB2051C0F3130428
:102CC000B948A1F2FF31204400F4801080F07F6207
:102CD00082F04052224301EB20559FEDB50B11923B
:102CE00053EC102B9DED100B51EC100BFDF78DFBF1
:102CF00041EC180BA01CC0F313009FEDAFDB9FED60
:102D0000B0EBB14E7E4403286CD296ED000B51EC33
:102D1000180B53EC102BFDF783FC1DD1002D01BFC8
:102D200096ED000BBDEC108B02B070BD2846FDF790
:102D300053FC41EC180B53EC1D2BFDF76CFB41ECE5
:102D4000190B53EC1E2B51EC180BFDF764FB53ECE5
:102D5000192BFDF7B9FA3FE09FED9D0B51EC180BD5
:102D600053EC102BFDF757FB9FED9B1B53EC112BE6
:102D7000FDF74EFB41EC190B53EC182B51EC180BE3
:102D8000FDF749FB53EC192BFDF745FB41EC190B03
:102D9000002D04BF53EC192B51EC180B1AD0284608
:102DA000FDF71AFC41EC1A0B53EC1D2BFDF733FB1E
:102DB00053EC192BFDF72CFB53EC182BFDF725FBDF
:102DC00041EC180B53EC1E2B51EC1A0BFDF723FBB7
:102DD00053EC182BFDF719FBBDEC108B02B041EC46
:102DE000100B70BD9FED7E0B51EC180B53EC102BAC
:102DF000FDF76AFA41EC100B51EC180B53EC102B59
:102E0000FDF77BFB41EC190B2846FDF7E5FB41EC98
:102E10001B0B53EC192B51EC190BFDF7FCFA41EC91
:102E20001A0B714853EC1A2B261851EC1A0BFDF7AC
:102E3000F2FA41EC1F0B6D48C4F1510404F5D7249C
:102E4000B0EE4F0AF0EE6F0A0321784400F0D2F89A
:102E500053EC1F2B51EC100BFDF7DDFA41EC1C0B72
:102E60006348B0EE4F0AF0EE6F0A0421784400F098
:102E7000C1F853EC1A2B51EC100BFDF7CCFA34438C
:102E800053EC1C2BFDF720FA41EC1C0B002C4CDD05
:102E90009FED510B51EC180B53EC102BFDF7BBFAC7
:102EA00053EC182BFDF7B7FA41EC1A0B55B353EC62
:102EB0001D2B51EC1B0BFDF7AEFA41EC1D0B53EC37
:102EC0001C2B51EC1A0BFDF7FFF953EC192BFDF7F6
:102ED000A2FA53EC1D2BFDF7F7F953EC1A2BFDF773
:102EE00097FA53EC182BFDF790FA41EC180B53ECC2
:102EF0001E2B51EC1B0BFDF78EFA53EC182BFDF734
:102F000084FA69E753EC1C2B51EC1A0BFDF7DCF942
:102F100053EC192BFDF77FFA53EC1A2BFDF778FAD7
:102F200053EC182BFDF774FA56E735B353EC1D2B11
:102F300051EC1B0BFDF76FFA41EC1A0B53EC1C2BF9
:102F400051EC180BFDF761FA53EC192BFDF763FAFE
:102F500053EC1A2BFDF759FA53EC182BFDF755FAE1
:102F600041EC180B53EC1E2B51EC1B0BFDF753FAE5
:102F700053EC182BFDF749FA2EE753EC1C2B51ECC0
:102F8000180BFDF742FA53EC192BFDF744FA53ECFA
:102F9000182BFDF73DFA1FE70000F07F000000004E
:102FA0000000000000005043645F090000000000C2
:102FB000000000000000F03F763C7935EF39EA3D33
:102FC0000000E0FE422EE63F885A000000000000AC
:102FD000555555555555D53F000000000000E03FC0
:102FE000000000000000004086EBF9FF0A590000D5
:102FF0000059000070B504462DED028B4D1E00EB0C
:10300000C500B0EE408AF0EE608A90ED000B35F01E
:10301000060017D053EC182B51EC100BFDF7FBF901
:1030200041EC100B6D1E04EBC50090ED001B51EC44
:10303000100B53EC112BFDF747F941EC100B35F059
:103040000600E7D1022D36D0042D1CD0062D1CBF62
:10305000BDEC028B70BD53EC182B51EC100BFDF73F
:10306000DAF994ED0A1B53EC112BFDF72DF953EC13
:10307000182BFDF7D0F994ED081B53EC112BFDF73D
:1030800023F941EC100B53EC182B51EC100BFDF70E
:10309000C2F994ED061B53EC112BFDF715F953EC17
:1030A000182BFDF7B8F994ED040B53EC102BFDF73A
:1030B0000BF941EC100B53EC182B51EC100BFDF7F6
:1030C000AAF994ED021B53EC112BFDF7FDF853EC1C
:1030D000182BFDF7A0F994ED001B53EC112BFDF715
:1030E000F3F8BDEC028B41EC100B70BD000000004A
:1030F0009FED070B10B553EC102B9FED070B51EC18
:10310000100BFDF7FAF941EC100B10BD00000000A8
:103110000000000000000000000000000000F03F80
:1031200010B553EC102B51EC100BFDF7CDF841EC22
:10313000100B10BD000000009FED050B10B553EC07
:10314000102B51EC100BFDF7D8F941EC100B10BD12
:103150000000000000000000DFED020A80EEA00A7F
:10316000704700000000000002E008C8121F08C1FC
:10317000002AFAD170477047002001E001C1121FF8
:10318000002AFBD170470000014908607047000029
:10319000780200202DE9FF5F82B00021DDE90430D4
:1031A000020DDDF840B0034318D044F61050A2F2EF
:1031B000FF3242431514119801281FD0A5EB0B00D4
:1031C000401C5FEA000A4FF000064E4FDFF83891CE
:1031D000B046504615D5CAF1000413E011980124F9
:1031E0004AA3012801D16FEA0B010298119AC0E9A4
:1031F0000031C0E9024206B0BDE8F09FCBF100000B
:10320000DFE704460021404A491842EB0450CDE96B
:10321000001012E0E00707D032463B4640464946E0
:10322000FDF7F9F88046894632463B461046194676
:10323000FDF7F1F806460F466410002CEAD1DDE9EF
:103240000401DDE90023BAF1000F06DAFDF7E3F827
:1032500042464B46FDF7DFF805E0FDF74EF94246E2
:103260004B46FDF74AF904460E460022284BFDF76F
:10327000EFF903D84FF0FF30014607E00022254B5D
:1032800020463146FDF720F8FDF73BFB102409E00E
:10329000002C0ADB0A220023FDF724FA039B3032BC
:1032A0001A55641E50EA0102F2D1641C039AC4F15B
:1032B00011031444119A012A03D0012208430DD1AD
:1032C0000AE0084304D000204FF0110B119072E780
:1032D000A3EB0B056D1E0DE05B4504DD4FF0000216
:1032E00005F1010504E003DA4FF00002A5F1010544
:1032F000002AECD002981199C0E90231C0E90045DA
:1033000079E70000000014400000F03F30000000AA
:103310000000F0430000E03F2DE9FF4F95B09A46D2
:10332000884606460025EEE1252877D10024274669
:10333000F94A0121039400E0044316F8013F203BC1
:1033400001FA03F01042F7D130782A2811D06FF03B
:103350002F033078A0F13002092A16D8039A44F0DE
:10336000020402EB820203EB42021044761C03903B
:10337000EFE758F8042B0392002A03DA504244F492
:103380000054039044F00204761C30782E2816D1A5
:1033900016F8010F44F004042A280DD06FF02F0214
:1033A0003078A0F13003092B09D807EB870302EB33
:1033B0004303C718761CF3E758F8047B761C307873
:1033C0006C280FD006DC4C2817D068280DD06A284E
:1033D00014D104E0742810D07A280FD10DE044F401
:1033E00000140AE044F4801401E044F440147278BC
:1033F000824202D104F58014761C761C307866284F
:103400000BD013DC582877D009DC002875D045286C
:10341000F6D04628F4D047281AD193E118E0632863
:1034200035D0642879D0652812D18BE1702873D00B
:1034300008DC6728F1D069286FD06E280DD06F287E
:1034400006D1ACE073282CD0752874D0782853D0DE
:103450005246179990476D1C54E1C4F3025002285C
:1034600009D003280DD0D8F8001004280DD00D6025
:1034700008F1040846E1D8F80010EA17C1E9005243
:10348000F6E7D8F800100D80F2E70D70F0E718F8B5
:10349000041B8DF8001000208DF80100EB46012080
:1034A00003E058F804BB4FF0FF3061074FF0000114
:1034B00002D40DE009F101018946B9420FDA8145D4
:1034C000F8DB1BF809100029F4D108E009F101012B
:1034D00089468142FADB1BF809100029F6D10398CE
:1034E0005346A0EB090721463846179A00F080FAA8
:1034F000284400EB090507E044E008E10DE01BF873
:10350000010B524617999047B9F10109F7D253467A
:1035100021463846179AF2E039E00A21C4F30252F4
:103520004FF0000B0091022A06D058F8040BC11787
:10353000032A09D00AE023E008F1070020F007027F
:10354000F2E80201904605E000B2C117042A01D159
:1035500040B2C117002906DA0A460021404261EB59
:1035600002012D2202E0220504D52B228DF8042031
:10357000012203E0E20701D02022F7E7914657E05D
:103580000A2100E010214FF0000B00910BE0102108
:103590004FF0000B44F004040827009103E00820DA
:1035A0004FF0000B0090C4F30252022A05D058F8E5
:1035B000040B0021032A08D008E008F1070020F0DE
:1035C0000702F2E80201904603E080B2042A00D12B
:1035D000C0B24FF0000922072AD53278702A07D0EE
:1035E000DDF800C08CF0100C5CEA0B0C05D00EE08E
:1035F00040228DF80420012208E050EA010306D0A1
:1036000030238DF804308DF8052002229146009B6E
:1036100083F0080353EA0B030AD150EA010201D1F7
:10362000620705D530228DF804204FF001097F1E76
:103630003278582A04D039A20C920CAA02920BE0DC
:103640003BA2F9E75B46009AFDF74CF80C9B9B5CAC
:10365000029A521E0292137050EA0102F2D10298AD
:1036600004A9081A00F1200B600702D524F4803465
:1036700000E001275F4502DDA7EB0B0000E0002022
:1036800000EB0B01009003984944401A0390E003BB
:1036900006D453462146179A039800F0A9F9054429
:1036A000002706E001A85246C05D179990476D1C9F
:1036B0007F1C4F45F6DBE0030CD553462146179A95
:1036C000039800F095F9054404E03020524617991C
:1036D00090476D1C0099481E00900029F5DC08E019
:1036E0000298029952460078491C02911799904716
:1036F0006D1CBBF10001ABF1010BF1DC5BE100F0F3
:1037000065F90544761C307800287FF40DAE19B0B9
:103710002846BDE8F08F000009280100303132331F
:1037200034353637383961626364656600000000FD
:1037300030313233343536373839414243444546E7
:1037400000000000600700D4062708F1070020F001
:103750000700F0E80223804603F0004C5FEA0C000B
:1037600001D097A009E0200501D596A005E0E0076B
:1037700001D095A001E0AFF24C001390307823F017
:10378000004365280CD006DC452809D046281DD00A
:1037900047287FD13BE0662818D067287AD136E0E9
:1037A0000021112F01DB112000E0781CCDE9000180
:1037B00004A90CA8FFF7EEFCDDE90D010C9A4FF00F
:1037C000000B07F10109109200914EE04FF000400C
:1037D0000097CDE9011004A90CA8FFF7DBFCDDE997
:1037E0000D020C9B0F994FF0000B91461093009225
:1037F00011B9791C00EB0109B7EB090003D4C0F142
:10380000FF3B07F10109A9EB0700019042E0012FFE
:1038100000DA01270021112F01DD112000E03846D8
:10382000CDE9000104A90CA8FFF7B4FCDDE90D0106
:103830000C9A00914FF0000BB946109221070FD45B
:10384000009A4A4503DA914601E0A9F10109B9F16C
:10385000010F05DD109AA9F10101515C3029F4D066
:10386000B84202DA10F1040F03DA0121CDE90110A8
:1038700010E0002803DC8344A9EB000102E0411CB6
:10388000494500DD8946A0EB0B00401C01904FF03C
:1038900000400290200705D40198484502DB4FF014
:1038A000FF30019000208DF84B0002980DF14B077E
:1038B000B0F1004F25D002200C902B200D900298E3
:1038C00000280CDA404202902D200D9007E00A21DA
:1038D0000298FCF7F1FE3031029007F8011D0C99B7
:1038E000481E0C900029F2DC02980028EFD1791EC6
:1038F0000D980870307800F0200040F0450007F87F
:10390000020D11A8C01BC01D02901398007800B1D1
:10391000012000EB0901019801EBE07102980144DC
:103920000398401A401E0390E00306D453462146F4
:10393000179A039800F05CF805441398007818B1C2
:103940005246179990476D1CE00323D553462146F4
:10395000179A039800F04CF805441BE0BBF1000FE8
:1039600007DB0098584504DD1098179910F80B00F4
:1039700001E0179930205246904701980BF1010B56
:10398000401E05F10105019004D12E2052461799E1
:1039900090476D1CB9F10001A9F10109DEDC05E0D9
:1039A00017F8010B5246179990476D1C0299481E53
:1039B00002900029F4DC53462146179A03989EE6AC
:1039C0002D0000002B000000200000002DE9F04138
:1039D000044600251E461746880404D405E03946EF
:1039E0002020B0476D1C641EF9D52846BDE8F08143
:1039F0002DE9F041044600251E469046C80301D536
:103A0000302700E02027880404D505E041463846E9
:103A1000B0476D1C641EF9D52846BDE8F0810B78CF
:103A2000426863F3082242604B78826863F3410284
:103A300082608B78826863F3CB228260CA78521EE0
:103A4000C36A62F31753C36270470021017041706B
:103A500081700121C1707047816821F0080108312F
:103A60008160704701468868C0F3C00008B101203A
:103A700070470020FCE7816821F00401091D816086
:103A8000704701468868C0F3800008B10120704784
:103A90000020FCE70349096860F31341014A116003
:103AA0007047000004240140826861F300028260D4
:103AB0007047CA43026070470246002013680B40FB
:103AC00003B900E001207047012A03D143680B438A
:103AD000436003E012B943688B434360704702467A
:103AE0000020012904D002290CD004291ED113E0A2
:103AF000136803F0010323B15368C3F3801303B1C8
:103B0000012014E01368C3F3400323B15368C3F3E7
:103B1000401303B101200AE01368C3F3800323B10B
:103B20005368C3F3C01303B1012000E000BF00BF1E
:103B3000704770B504460A290CDA206901EB41068A
:103B40000725B540A84301EB410503FA05F52843D5
:103B500020610FE0E068A1F10A0505EB45060725A5
:103B6000B540A843A1F10A0505EB450503FA05F5A3
:103B70002843E0600D2A10DBE06AA2F10D0505EB99
:103B800085061F25B540A843A2F10D0505EB850567
:103B900001FA05F52843E0621EE0072A0EDB206BE0
:103BA000D51F05EB85061F25B540A843D51F05EB9E
:103BB000850501FA05F5284320630DE0606B551E6D
:103BC00005EB85061F25B540A843551E05EB850569
:103BD00001FA05F52843606370BD0146C86C80B2E8
:103BE000704707290ADD836823F0007303F100732F
:103BF0008360836861F35343836007E0836823F045
:103C000000738360836861F353438360836862F366
:103C1000145383607047426861F3CB22426070475F
:103C2000826861F39652826070474A1E836B62F32A
:103C3000155383637047F0B514460A290CDA0269FC
:103C400001EB41070726BE40B24301EB410603FAF0
:103C500006F6324302610FE0C268A1F10A0606EBE4
:103C600046070726BE40B243A1F10A0606EB460608
:103C700003FA06F63243C260866BC6F30157E61CB0
:103C8000F61BF5B2012D06D0022D09D0032D0CD064
:103C9000042D14D10EE0866B61F3040686630FE0F9
:103CA000866B61F3491686630AE0866B61F38E26A4
:103CB000866305E0866B61F3D336866300E000BF60
:103CC00000BFF0BD0246002031B1012907D0022912
:103CD00008D003290CD108E0D36B98B209E0136C2B
:103CE00098B206E0536C98B203E0936C98B200E08F
:103CF00000BF00BF704707290ADD836823F0807387
:103D000003F180738360836861F30E33836007E09F
:103D1000836823F080738360836861F30E3383606C
:103D2000836862F3CF338360704731B1012909D0D2
:103D300002290CD0032914D10EE0436962F30B036E
:103D400043610FE0836962F30B0383610AE0C36997
:103D500062F30B03C36105E0036A62F30B030362C2
:103D600000E000BF00BF704710B50446134884420E
:103D700008D10121124800F0C1FB0021104800F0D9
:103D8000BDFB1AE00F4884420AD101210C48401CB7
:103D900000F0B4FB00210A48401C00F0AFFB0CE02F
:103DA0000948844209D101210548801D00F0A6FB85
:103DB00000210348801D00F0A1FB10BD002401403C
:103DC00009000C0000280140003C014030B50246CB
:103DD00000200023146824F002041460146824F006
:103DE0000104641C146000E05B1C546804F00104CE
:103DF0001CB94FF6FF74A342F6D1546804F00104D5
:103E0000002C3FD04D78146865F3C71414608D788A
:103E1000146865F386141460CD78146865F345144E
:103E200014600D79146865F3041414604D791468F6
:103E300065F3C30414608D79146865F3820414601B
:103E40000C78D56964F39E75D5610C786508D469E2
:103E500065F3DF74D461146824F001041460002356
:103E600000E05B1C546804F001041CB14FF6FF74C1
:103E7000A342F6D1546804F001040CB1002002E022
:103E8000012000E0002030BD30B5024600200023B4
:103E9000146824F002041460146824F00104641C03
:103EA000146000E05B1C546804F001041CB94FF678
:103EB000FF74A342F6D1546804F001045CB30C888B
:103EC000641ED56964F30B05D5618D78D46965F3FB
:103ED0001964D461CD78D46965F31344D4610D7944
:103EE000D46965F31654D461146824F00104146095
:103EF000002300E05B1C546804F001041CB14FF681
:103F0000FF74A342F6D1546804F001040CB1002000
:103F100002E0012000E0002030BD002141708170EE
:103F2000C1700171417181710170704730B500221B
:103F3000CC78012303FA04F2D0F8003223F0010315
:103F40005B1CC0F80032D0F81C329343C0F81C321E
:103F50000B7913B1012B5AD12CE0D0F80C329343DA
:103F6000C0F80C328B891C04CD7800F5107343F82F
:103F70003540CC7853F834300C892343CD7800F5A4
:103F8000107444F835304B891C04CD7800F510735B
:103F900003EBC5035C60CC7800F5107303EBC4033E
:103FA0005B68CC882343CD7800F5107404EBC5041E
:103FB00063602DE0D0F80C321343C0F80C32CB888C
:103FC0001C04CD7800F5107343F83540CC7853F8D5
:103FD00034300C892343CD7800F5107444F8353023
:103FE0004B891C04CD7800F5107303EBC5035C60AE
:103FF000CC7800F5107303EBC4035B688C89234312
:10400000CD7800F5107404EBC504636000E000BFD8
:1040100000BF4B7813B1012B0CD105E0D0F804326E
:104020009343C0F8043206E0D0F804321343C0F8DA
:10403000043200E000BF00BF8B7813B1012B0CD11C
:1040400005E0D0F814329343C0F8143206E0D0F8FB
:1040500014321343C0F8143200E000BF00BF0B78E5
:104060003BB1012B0BD1D0F81C321343C0F81C32EA
:1040700006E0D0F81C329343C0F81C3200E000BFC9
:1040800000BFD0F8003223F00103C0F8003230BD89
:1040900080ED000AF0EE001AB0EE401A01EEA01A10
:1040A000DFED031A21EE211A81ED001A704700009E
:1040B00056CE133F642002F0BFFD304800F008FEEA
:1040C0002E4840682E49096848642C48C0682C492D
:1040D000096888642948006829490968886500F0EA
:1040E00013FF28480068FDF7C7FB27480068FDF765
:1040F000F1FBDFED260A9FED250A21480068FEF757
:10410000B1F99FED220A1E480068FEF7F6F99FED0F
:104110001F0A1B480068FEF7E4F9F2EE081A9FED4B
:104120001B1AF6EE000A9FED1A0A15480068FEF702
:1041300049F9F2EE041A9FED151ADFED160A9FED0C
:10414000160A0F480068FEF7CFF9DFED141A9FED4D
:10415000141ADFED0E0AB7EE000A09480068FEF7F0
:10416000B7F910230F4A10A1114801F010F804E02C
:10417000FCF788FD052002F05FFDF9E7F814002048
:1041800070010020F0010020FC0100200000000070
:104190006F12033ACDCCCC3D6F12033B0000C843F5
:1041A00017B7D138000C01404C45443100000000E5
:1041B0008802002041F233720621104802F006F90D
:1041C00000241AE00E489FED0F0A01680E480068AF
:1041D000FCF70CFD0C480068FEF792F9641C052CF6
:1041E00008D109480068FCF7C9FC07480068FDF7DA
:1041F000A7FD0024022002F01FFDE3E7002C014090
:10420000FC0100206F12033B7001002030B5024614
:104210000B464FF0FF3100200FE0145C614000249A
:1042200008E001F001051DB1064D85EA510100E0ED
:104230004908641C082CF4D3401C9842EDD3C843B1
:1042400030BD00002083B8ED0649496860F38F3126
:10425000044A516082080349496862F31C71014AAB
:1042600051607047001002400349496860F307112C
:10427000014A51607047000000100240034949683C
:1042800060F30A21014A51607047000000100240AB
:104290000349496860F3CD21014A5160704700002D
:1042A00000100240012807D10749496D21F0300173
:1042B0003031054A516505E00349496D21F030016F
:1042C000014A51657047000000100240052827D2BE
:1042D000DFE800F0030A11181F00134A126861F3A7
:1042E0000002114B1A601CE00F4A126861F3104281
:1042F0000D4B1A6015E00C4A126861F318620A4B04
:104300001A600EE0084A126A61F30002064B1A6254
:1043100007E0054A526A61F30002034B5A6200E06B
:1043200000BF00BF70470000001002402DE9F041BF
:10433000014600270022002590460023002400F0BB
:1043400087F9064626B1012E12D0022E43D112E083
:104350003948406DC0F3402038B13748006BC0F396
:10436000406010B13548086001E03548086035E02C
:104370003348086032E030484068C0F300482E48B7
:104380004068C0F383422C484068C0F341750DB9C2
:104390000F2A03D12801401C024400E0921CB8F10E
:1043A000000F03D127485043086013E022484068BB
:1043B000C0F3404058B12048406DC0F30137B81CED
:1043C000DFF87CC0BCFBF0F05043086002E01C4802
:1043D0005043086002E01A48086000BF00BF16485A
:1043E0004068C0F303131848C45C0868E0404860A4
:1043F00011484068C0F302231448C45C4868E04098
:10440000C8600D484068C0F3C2231148C45C4868C6
:10441000E040886008484068C0F300730648406880
:10442000C0F3813040EA83030A48C45C8868B0FB6B
:10443000F4F00861BDE8F08100100240006CDC027D
:1044400000127A0000093D0020870008308700082C
:10445000388700084087000810B501460020094B46
:1044600003EB1142126801F01F040123A3401A401C
:1044700001F01F040123A3409A4200D000E0012074
:1044800010BD00000010024030B50024002500E0FF
:10449000641C1120FFF7E0FF012802D0B4F5405F53
:1044A000F6D31120FFF7D8FF012801D0002500E046
:1044B0000125284630BD000010B501290DD10E4B55
:1044C00003EB1042126800F01F040123A3401A43BB
:1044D000094C04EB10431A600CE0074B03EB10424D
:1044E000126800F01F040123A3409A43024C04EB1E
:1044F00010431A6010BD00000010024010B50129E1
:104500000DD10E4B03EB1042126800F01F04012383
:10451000A3401A43094C04EB10431A600CE0074B0C
:1045200003EB1042126800F01F040123A3409A43DA
:10453000024C04EB10431A6010BD00000010024052
:1045400010B568B91C4B5B6823F480331A4C636068
:1045500023461B6B23F0007303F10073236317E002
:10456000154B5B6823F4803303F58033124C636092
:10457000012805D123465B6823F40033636007E01C
:104580000D4B5B6823F4003303F500330A4C636082
:10459000094B5B6861F39543074C63600C09064B5C
:1045A0005B6864F35E73044C636023465B6862F38C
:1045B000DF73636010BD0000001002401348006804
:1045C00020F00100401C1149086000BF0F4800683E
:1045D000C0F340000028F9D00C48406820F00300E8
:1045E0000A49486000BF09484068C0F381000028BC
:1045F000F9D10648006806490840044908600020CF
:10460000486008634FF41F00886070470010024044
:10461000FFFFF2FE0D49496860F301010B4A51604A
:1046200000BF00BF00BF00BF00BF00BF00BF00BF92
:1046300000BF00BF00BF00BF00BF00BF00BF00BF82
:1046400000BF00BF00BF00BF704700000010024065
:1046500002484068C0F3810070470000001002402B
:10466000026861F3000202607047416070470021F8
:104670000160416001814181017341738173C173A4
:104680000174417470470000B0F1805F04D920F0DC
:104690007041034A116001E0024948607047000020
:1046A0000404024000000240D0F8A430C3F30063C9
:1046B0003BB9D0F8A43023F0807303F18073C0F8C5
:1046C000A430012906D1D0F8A03062F30703C0F866
:1046D000A03034E0022906D1D0F8A03062F30F23D5
:1046E000C0F8A0302BE0032906D1D0F8A03062F347
:1046F0001743C0F8A03022E0042906D1D0F8A0303A
:1047000062F31F63C0F8A03019E0052906D1D0F884
:10471000A43062F30703C0F8A43010E0062906D1E4
:10472000D0F8A43062F30F23C0F8A43007E00729C3
:1047300005D1D0F8A43062F31743C0F8A430704715
:1047400002684BF6EF731A40026002680B891A4345
:1047500002604B7C026863F30D320260CB7B02681F
:1047600063F38B2202608B7B026863F30922026091
:104770004B7B026863F3C71202600B7B026863F332
:10478000861202600B7C026863F3451202604A895C
:1047900042600A6882604A68C26070471AB1036862
:1047A0000B43036002E003688B4303607047000023
:1047B000014600200022B1F1805F02D9054B1A6842
:1047C00001E0054B1A6802EA01030BB1012000E089
:1047D00000207047000402400000024000210268EF
:1047E00022F0010202600022026042608260C26028
:1047F000014640F2FF420A40B2F5816F0DD2CAB2C3
:10480000083A1423B2FBF3F293000F229A400D4BA7
:104810005B681A430B4B5A6012E040F2FF420A40B9
:10482000B2F5916F0CD2CAB2083A1423B2FBF3F27C
:1048300093000F229A40044B1B681A43024B1A60E4
:10484000704700000000024004040240F0EE400AFD
:104850009FED270A20EE800ABDEEC00A10EE100A76
:1048600000EE100AB8EEC01ADFED221AB0EE600AB0
:1048700001EE610AF0EE400A00F0010179B1F5EEB7
:10488000C00AF1EE10FA04DD9FED1A0A30EEC00AFC
:1048900003E09FED180A30EE800AF0EE400A20EEA9
:1048A000A00ADFED151AB0EE611ADFED141A41EE21
:1048B000001AB0EE611ADFED121A41EE001AB0EEE6
:1048C000611ADFED101A41EE001AB0EE611ADFED49
:1048D0000E1A41EE001AB0EE611ADFED0C1A41EE2D
:1048E000001A20EEA01AB7EE000A01EE210A704766
:1048F00083F9A23EDA0F4940F2A3ED30017591B47D
:10490000B3CCCF371408B6BA83AA2A3DFDFFFFBE49
:10491000F0EE400A9FED280A20EE800ABDEEC00AA4
:1049200010EE100A00EE100AB8EEC01ADFED231ADE
:10493000B0EE600A01EE610AF0EE400A00F00101FB
:1049400079B1F5EEC00AF1EE10FA04DD9FED1B0A15
:1049500030EEC00A03E09FED190A30EE800AF0EE57
:10496000400A20EEA00ADFED161AB0EE611ADFED64
:10497000151A41EE001AB0EE611ADFED131A41EE7E
:10498000001AB0EE611ADFED111A41EE001AB0EE16
:10499000611ADFED0F1A41EE001AB0EE611ADFED79
:1049A0000D1A41EE001A20EEA00A20EE201AB0EEF9
:1049B000600A01EE210A704783F9A23EDA0F4940EE
:1049C0007ABF142FCA32D4B235C538369E0A50B9D0
:1049D0007888083CAAAA2ABE03200B49C96801F0BE
:1049E000010109B100200EE00749C968C1F3800147
:1049F00009B1012007E00449C968C1F3001109B1F8
:104A0000022000E0032070470020024000B502466B
:104A10000323FFF7E1FF034603E0FFF7DDFF034653
:104A2000521E0BB9002AF8D102B90423184600BD62
:104A300003200B49C96C01F0010109B100200EE00F
:104A40000749C96CC1F3800109B1012007E004499D
:104A5000C96CC1F3001109B1022000E003207047C6
:104A60000020024000B502460323FFF7E1FF0346A2
:104A700003E0FFF7DDFF0346521E0BB9002AF8D111
:104A800002B90423184600BD70B504460D4603263E
:104A9000B4F1006F16D32848844213D82748006920
:104AA00020F00100401C2549086125804FF480104A
:104AB000FFF7ACFF06462148006920F001001F49BE
:104AC000086136E01C48401C844216D3B4F1016FE3
:104AD00013D21A48006D20F00100401C17490865E8
:104AE00025804FF48010FFF7BDFF06461348006D88
:104AF00020F00100114908651BE0B4F1046F18D3E0
:104B00000E489030006820F00100401C0B499031A5
:104B1000086025804FF4801000F0B8F8064607487A
:104B2000D0F8900020F001000449C1F8900000F096
:104B300087F8304670BD0000FFFF070800200240E4
:104B40000648006920F0800080300449086108466A
:104B5000006D20F080008030086570470020024022
:104B600030B504460325B4F1006F1BD332488442AC
:104B700018D83248006920F00200801C2F490861D3
:104B800008464461006920F0400040300861480454
:104B9000FFF73CFF05462948006920F0020027493D
:104BA000086146E02448401C84421BD3B4F1016FE5
:104BB00018D22248006D20F00200801C1F490865B1
:104BC00008464465006D20F0400040300865480408
:104BD000FFF748FF05461948006D20F0020017490D
:104BE000086526E0B4F1046F23D3144890300068C0
:104BF00020F00200801C1149C1F890000846C0F85E
:104C000094400E489030006820F0400040300B493E
:104C1000903108604FF0FF3000F038F80546074843
:104C2000D0F8900020F0020004499031086000F0B4
:104C300007F8284630BD0000FFFF070800200240AB
:104C40004FF004600068024800680248006870473E
:104C5000001040080020400803200B49096801F0BB
:104C6000010109B100200EE007490968C1F3800184
:104C700009B1012007E004490968C1F3001109B135
:104C8000022000E0032070478C20024000B502465D
:104C90000323FFF7E1FF034603E0FFF7DDFF0346D1
:104CA000521E0BB9002AF8D102B90423184600BDE0
:104CB000044805494860054848600248486403487C
:104CC000486470472301674500200240AB89EFCD5F
:104CD00070B586B006466D46002008E0114A0244D1
:104CE000B2F8001829540B0A421CAB54801C182837
:104CF000F4D314216846FFF789FA04460598A042C8
:104D000005D009A0FDF704FF002006B070BD1422F5
:104D100069463046FBF7B4FA0BA0FDF7F9FE012017
:104D2000F3E7000000F00308435243204552524F7E
:104D3000522120466C617368206461746120696E41
:104D400076616C69642E0A004C6F6164204F4B2EB3
:104D50000A000000F0B587B005461422294601A8D4
:104D6000FBF78EFA142101A8FFF750FA06901821DC
:104D700012A0FDF7CDFE01AEFFF79AFF1748FFF72F
:104D8000EFFE002410E0315D601C305C41EA00273A
:104D9000124960183946FFF777FE104821183A4645
:104DA0000FA0FDF7B5FEA41C182CECD3FFF7C8FE2E
:104DB00010A0FDF7ADFE07B0F0BD000053617669AD
:104DC0006E6720506172616D732C2073697A653D46
:104DD00025642062797465730A00000000F80308F6
:104DE0002020307825303858203A2030782530344B
:104DF000580A00005361766520446F6E652E0A0ADA
:104E00000000000070B504460D4600BF802109482F
:104E100001F06BFC0028F9D0A1B2064801F04EFC6D
:104E200000BF4021034801F060FC0028F9D0204673
:104E300070BD00000048004010B503220021012091
:104E400002F04AFE0149086010BD00001400002075
:104E50000EB51648164900221346CDE900210290EE
:104E60004FF4807213A1164803F0A6F915490860A3
:104E70001548164900221346CDE9002102904FF44F
:104E8000807213A1164803F097F916490860164876
:104E9000164900221346CDE900210290802214A178
:104EA000174803F089F9174908600EBD980C0020D7
:104EB00098020020636F6D6D5F7461736B0000007A
:104EC000B540000808000020F40C002098060020DF
:104ED000636F6E74726F6C5F7461736B00000000BF
:104EE000B54100080C000020500D0020980A002059
:104EF0004D6F6E69746F725F7461736B00000000B8
:104F0000B91900081000002070B500240025002603
:104F1000002009E0134909680C44124949680D440E
:104F2000104989680E44401C1028F3DBC4F30F10AD
:104F30000D490968C880C5F30F100B49096808813D
:104F4000C6F30F1008490968488107480068C388FC
:104F500005480068C28804480068C18803A0FDF7BE
:104F6000D7FD70BD0C15002070010020766F6C74A9
:104F7000616765414F66667365743A2025642C76D7
:104F80006F6C74616765414F6666736574203A257E
:104F9000642C766F6C74616765414F6666736574E7
:104FA000203A25640D0A000010B52DED028B022178
:104FB0001748FEF77EFD01211548FEF731FE00BFC0
:104FC00002211348FEF778FD0028F9D0022110488D
:104FD000FEF76FFD0E48FEF700FE044600EE104A95
:104FE000B8EE400A9FED0B1AC0EE010A9FED0A0AC7
:104FF00020EE800AF3EE050A20EE200AF7EE000A02
:1050000080EE208AB0EE480ABDEC028B10BD000095
:105010000024014000008045333353404161704714
:10502000016170474FF6FF710160002181710171CC
:10503000042141710121C1717047F0B50A461588FC
:10504000ABB29579032D01D100241AE0957965B9A9
:10505000557905F00F045579182D01D1036110E041
:105060005579282D0DD143610BE0957905F00805A0
:10507000167906F004063543D67906F0030645EAAC
:105080000604DDB2A5B1002110E001258D401D40D0
:105090005DB105688F000F26BE40B5430560056809
:1050A0008E0004FA06F635430560491C0829ECD346
:1050B000FF2B15DD1B12002110E001258D401D4046
:1050C0005DB145688F000F26BE40B5434560456819
:1050D0008E0004FA06F635434560491C0829ECD3D6
:1050E000F0BD0000F0B50C46104F07EB1062C0F3A6
:1050F0000741C0F30725C6B2C5F12007A7EB010C95
:105100004FF0FF3707FA0CF3C5F120077F1AFB4079
:10511000CB408B4017689F4317602CB106FA01FC07
:10512000176847EA0C071760F0BD00000000014057
:1051300070B52DED048BB0EE408AF0EE608AB0EED3
:10514000419A04460D46B0EE490AFFF7E1FBF1EE45
:10515000480A60EE209AB0EE490AFFF777FB48EE66
:10516000809AC4ED009AB0EE490AFFF76FFB60EE3B
:10517000089AB0EE490AFFF7CBFB48EE809AC5EDDE
:10518000009ABDEC048B70BD0146C868704710B52D
:105190000160426083600024C46010BD70B50446A5
:1051A0000D462DB1228991B26068FFF737FF04E008
:1051B000228991B26068FFF733FFE56070BD00009F
:1051C00002F04EF902F0A6F801F0BCFF02F02EF852
:1051D00001F0F8FF01F0F8FE01F05AFE01F0BAFF0D
:1051E0008023174A1749184801F0DCFF01211648AF
:1051F000FFF736FA02F006FB02F052FB02F0D0F89D
:1052000002F07AF902F0D8FA01F02CFF0122802195
:105210000E48FEF759FC01221146900701F0FCF8F8
:10522000012202210848FFF7B9FA0122084905487E
:10523000001F01F0D5FA01F0B9FF00BFFEE7000042
:10524000641400200448004008000240002401408B
:1052500005000C0070B52DED0E8B0446002C04DC0F
:105260009FED3E0ABDEC0E8B70BD00EE104AB8EE0D
:10527000C00ADFED3B0AB4EEE00AF1EE10FA02DB01
:105280009FED360AEEE72046FBF7A6F941EC1C0B32
:105290009FED340B53EC102BFBF72FF941EC1B0B5C
:1052A0009FED320B53EC102BFBF7B5F841EC1A0BCA
:1052B000FBF7E6F908EE100AB5EEC08AF1EE10FA37
:1052C00006D99FED2C0AB4EEC08AF1EE10FA02DB8B
:1052D0009FED220AC6E7DFED270A80EE880AF7EE87
:1052E000000A30EE600ADFED240A20EE209A9FEDDE
:1052F000220AC9EE000A10EE905A2846FBF77DF903
:1053000041EC1D0BB0EE4D0AF0EE6D0AFDF790FC7E
:10531000B0EE40CAF0EE60CA9FED180B53EC102BB4
:1053200051EC1C0BFBF777F841EC1B0B9FED150BB9
:1053300053EC102BFAF7C8FF41EC1A0BFBF7A0F95E
:1053400008EE900AB7EE000AC0EE289A9FED0F0A09
:1053500039EEC0EAB0EE4E0A84E70000339388C30A
:1053600000F07F450000000000FEAF40000000603C
:1053700066660A403333534000401C4600000080FC
:105380006597303F000000E0E1796B3F339388433D
:105390002DE9F0470B4614464FF0000C00BF2C4A95
:1053A0001268C2F302211D4626460A46C2F10709C9
:1053B000B9F1040F02D94FF0040901E0C2F1070965
:1053C000C84602F10409B9F1070F02D24FF00009F3
:1053D00001E0A2F103094F464FF0010909FA08F96B
:1053E000A9F1010909EA050909FA07F94FF0010ACB
:1053F0000AFA07FAAAF1010A0AEA060A49EA0A09B8
:10540000CC4601466246002904DB15072E0E114DDD
:105410006E5407E015072F0E0D4D0C3501F00F06E9
:10542000361FAF5500BF014600290DDB00BF00BF8E
:1054300001F01F050122AA404D09AD0005F1E0254C
:10544000C5F8002100BF00BF00BFBDE8F087000025
:105450000CED00E000E400E000BF00F00702064BA6
:1054600019684FF6FF031940044B0B4343EA02212E
:10547000014B196000BF70470CED00E00000FA0519
:1054800070B52DED048BB0EE408AF0EE608AB0EE80
:10549000419A04460D46B0EE490AFFF7D7F960EE8F
:1054A000089AB0EE490AFFF733FA48EE809AC4ED45
:1054B000009AB0EE490AFFF72BFAF1EE480A60EEC7
:1054C000209AB0EE490AFFF7C1F948EE809AC5ED7F
:1054D000009ABDEC048B70BD2DE9F04105460E46E7
:1054E0001648076816480068001D01F01CFA681C81
:1054F00038B936B112480168091D124801F06AFA3C
:105500001AE07C190E4800684460BC4207D20C487F
:105510000168091D0C48006801F042FA0CE00848D7
:105520000168091D0948006801F03AFA0848006856
:10553000844201D206480460BDE8F08114020020D4
:1055400000020020F81600200802002004020020BB
:105550003002002010B5044601F048FA24480068E3
:10556000401C234908602348006840B92148046072
:105570000846006801280DD100F0FCF90AE01E4839
:10558000006838B91B480068C06AE16A884201D8DF
:105590001848046019480068401C1849086008460B
:1055A000006860641649E06A0968884202D91449B3
:1055B000E06A0860E16A01EB8101124A02EB8100B6
:1055C000211D01F007FA01F03BFA0B48006868B1B1
:1055D00008480068C06AE16A884207D24FF08050EC
:1055E00009490860BFF34F8FBFF36F8F10BD0000F4
:1055F00010020020000200201C0200202C020020CB
:10560000180200206815002004ED00E008B501F044
:10561000EDF912480068E8B9114801F0B1F91148F4
:1056200001F0AEF90E48104908600E480F490860B5
:1056300000200F4B0F4A102100900A2002F0A0FA20
:10564000064908600846006820B10BA103480068BD
:1056500001F0B6FA01F0F4F908BD0000480200209C
:105660000C170020201700204002002044020020D8
:105670003417002084170020546D72510000000080
:1056800010B516E001F0B2F90C48C068C468201DDE
:1056900001F049F90A480068401E094908600948B4
:1056A0000068401E0749086001F0CAF9204600F072
:1056B0005FF8044800680028E4D110BDE41600201B
:1056C000100200200C02002070B504460D46206C2C
:1056D00070B1216CE0680144E160D4E902108842B5
:1056E00001D32168E1602846226CE168FAF7C8FD21
:1056F00070BD2DE9F04104460F4615464FF00008F5
:10570000A66B206C48B9206800282CD1A06802F054
:1057100069FE80460020A06025E07DB93946226CF4
:105720006068FAF7ADFD216C606808446060D4E9F8
:105730000101884217D32068606014E03946226C6A
:10574000E068FAF79DFD216CE068411AE16021688C
:10575000E068884203D2216CA068411AE160022D02
:1057600001D106B1761E701CA0634046BDE8F081F1
:1057700010B5044694F8590030B9206B01F07EF959
:10578000204601F07BF91AE094F85900012803D172
:10579000204601F073F912E094F85900022801D173
:1057A000012000E0002050B900BF502080F3118894
:1057B000BFF34F8FBFF36F8F00BF00BFFEE710BD79
:1057C0000146084A126812680AB9012200E0002264
:1057D0000A600A6822B9034A1268D268106800E0B9
:1057E000002070474002002030B54FF42053174886
:1057F00000F007042CB1C01D20F00700134C041B5F
:105800001B1B0246124C22600024114D6C60D01804
:10581000083820F007000F4C206000240D4D2D6843
:105820006C600C4D2D682C601146441A4C60094C7C
:1058300024680C60084D4C682C60084D4C682C6046
:105840004FF00044064D2C6030BD000024180020AD
:10585000540200205C02002064020020600200204C
:105860007002002000BFFFF70BFF06480068012808
:10587000F9D94FF0805004490860BFF34F8FBFF350
:105880006F8FF0E76815002004ED00E02DE9F0418E
:1058900006460D4617469846069C0DB9246000E062
:1058A0002760E66325640121204602F0D9F984F8D7
:1058B0004C80BDE8F0812DE9F05F82460E469046AF
:1058C0009B460A9F0C9C4FEA8801A522206BFAF7A1
:1058D000E9FCA8F10100216B01EB800929F007091F
:1058E00009F0070008B9012000E0002050B900BF0E
:1058F000502080F31188BFF34F8FBFF36F8F00BF2D
:1059000000BFFEE786B1002507E0715D04F13400B9
:105910004155705D00B902E06D1C102DF5D300BF3C
:1059200000214320015502E0002084F83400102FAC
:1059300000D30F27E762E76400202065201D01F0F7
:105940002CF804F1180001F028F82461C7F11000C8
:10595000A06164620020606584F858005A46514690
:10596000484600F07FFB20600B9808B10B9804605C
:10597000BDE8F09F10B5002407E004EB84010F4A56
:1059800002EB810000F0FCFF641C102CF5D30C48E6
:1059900000F0F6FF0B4800F0F3FF0B4800F0F0FFBB
:1059A0000A4800F0EDFF0A4800F0EAFF0448094900
:1059B000086004480849086010BD00006815002010
:1059C000A8160020BC160020D0160020E4160020E7
:1059D000F8160020040200200802002010B501463D
:1059E000164800E0006803688B42FBD30246436818
:1059F00013448B4204D143684C68234443600146FE
:105A00000A464B6813440468A34211D10C4C036846
:105A10002468A34208D04B680468646823444B6040
:105A200003681B680B6005E0054B1B680B6001E019
:105A300003680B60884200D0016010BD5402002052
:105A40005C0200202DE9F04104460D4616461F4633
:105A50004FF0000865602461B5420CD8F01BA169C5
:105A6000884202D34FF0010811E0211D0948006867
:105A700000F096FF0BE0BE4204D2BD4202D34FF0CD
:105A8000010804E0211D0448006800F089FF404639
:105A9000BDE8F081440200204002002070B50546B8
:105AA00000F0A4FFA86B08B9012400E0002400F076
:105AB000C7FF204670BD70B5054600F097FFA86B84
:105AC000E96B884201D1012400E0002400F0B8FF16
:105AD000204670BDF8B505460F461A480068C068F4
