:020000040800F2
:1000000010150020E5020008670500085F050008DC
:10001000630500082F050008E10600080000000045
:1000200000000000000000000000000025020008A1
:100030005D0500080000000081020008A905000815
:10004000FF020008FF020008FF020008FF0200088C
:10005000FF020008FF020008FF020008FF0200087C
:10006000FF020008FF020008FF0200083505000833
:10007000FF020008FF020008FF020008FF0200085C
:10008000FF020008FF020008FF020008FF0200084C
:10009000FF020008FF020008FF020008FF0200083C
:1000A000FF020008FF020008FF020008FF0200082C
:1000B000FF020008FF020008FF020008FF0200081C
:1000C000FF020008FF020008FF020008FF0200080C
:1000D000FF020008FF020008FF02000821060008D6
:1000E000FF020008FF020008FF020008FF020008EC
:1000F000FF020008FF020008FF020008FF020008DC
:10010000FF020008FF020008FF020008FF020008CB
:10011000FF020008FF020008FF020008FF020008BB
:10012000FF020008FF020008FF020008FF020008AB
:10013000FF020008FF020008FF020008FF0200089B
:1001400000000000000000000000000000000000AF
:10015000FF020008FF020008FF020008FF0200087B
:10016000FF020008FF020008FF020008FF0200086B
:10017000FF020008FF020008FF020008FF0200085B
:10018000FF02000800F002F800F03CF80AA090E836
:10019000000C82448344AAF10107DA4501D100F042
:1001A00031F8AFF2090EBAE80F0013F0010F18BFD3
:1001B000FB1A43F00103184798300000B8300000E4
:1001C000103A24BF78C878C1FAD8520724BF30C883
:1001D00030C144BF04680C60704700000023002455
:1001E00000250026103A28BF78C1FBD8520728BF47
:1001F00030C148BF0B6070471FB502F0FFFF1FBD45
:1002000010B510BD00F059F91146FFF7F5FF00F0E9
:1002100001FE00F077F903B4FFF7F2FF03BC00F032
:100220007FF900002C4B19680868B0E8F04F80F3A4
:100230000988BFF36F8F4FF0000080F3118870477B
:100240000000000008480068006880F308884FF04C
:10025000000080F3148862B661B6BFF34F8FBFF31E
:100260006F8F00DF00BF00BF08ED00E0DFF80C007B
:10027000016841F470010160704700BF88ED00E043
:10028000EFF30980BFF36F8F134B1A681EF0100F46
:1002900008BF20ED108A20E9F04F106009B44FF03C
:1002A000500080F31188BFF34F8FBFF36F8F01F0C1
:1002B0005DFF4FF0000080F3118809BC19680868E1
:1002C000B0E8F04F1EF0100F08BFB0EC108A80F3BA
:1002D0000988BFF36F8F704718000020EFF3058087
:1002E000704700000948804709480047FEE7FEE7DD
:1002F000FEE7FEE7FEE7FEE7FEE7FEE7FEE7FEE7D6
:1003000004480549054A064B70470000B10500083E
:1003100085010008100F002010150020101100208A
:1003200010110020032A40F2308010F0030C00F07E
:10033000158011F8013BBCF1020F624498BF11F81F
:1003400001CB00F8013B38BF11F8013BA2F10402D8
:1003500098BF00F801CB38BF00F8013B11F0030350
:1003600000F05780083AC0F0088051F8043B083A82
:1003700051F804CBA0E80810F5E7121D5CBF51F856
:10038000043B40F8043BAFF30080D20724BF11F8D0
:10039000013B11F801CB48BF11F8012B24BF00F835
:1003A000013B00F801CB48BF00F8012B704702F079
:1003B000FF0343EA032242EA024200F05EB84FF034
:1003C000000200B5134694469646203922BFA0E8A5
:1003D0000C50A0E80C50B1F12001BFF4F7AF0907B1
:1003E00028BFA0E80C5048BF0CC05DF804EB8900A2
:1003F00028BF40F8042B08BF704748BF20F8022BE5
:1004000011F0804F18BF00F8012B704770477047FC
:10041000704710B5203AC0F00B80B1E81850203A70
:10042000A0E81850B1E81850A0E81850BFF4F5AF94
:100430005FEA027C24BFB1E81850A0E8185044BF1E
:1004400018C918C0BDE810405FEA827C24BF51F88B
:10045000043B40F8043B08BF7047D20728BF31F87F
:10046000023B48BF11F8012B28BF20F8023B48BFD0
:1004700000F8012B70474FF000020429C0F01280F1
:1004800010F0030C3FF49DAFCCF1040CBCF1020F53
:1004900018BF00F8012BA8BF20F8022BA1EB0C011C
:1004A000FFF78FBF5FEAC17C24BF00F8012B00F883
:1004B000012B48BF00F8012B7047754600F02CF85F
:1004C000AE4605006946534620F00700854618B041
:1004D00020B5FFF715FFBDE820404FF000064FF0B4
:1004E00000074FF000084FF0000B21F00701AC4669
:1004F000ACE8C009ACE8C009ACE8C009ACE8C00988
:100500008D46704710B50446AFF300802046BDE825
:100510001040FFF780BE000000487047AC0E00207E
:1005200001491820ABBEFEE726000200704700BF5D
:10053000FEE7000010B5022000F078FB48B1012072
:1005400004490870022000F0DDFA0021024800F0A2
:10055000C5FA10BD1400002008000240704700BF1B
:10056000FEE700BFFEE77047F0B503460C4603F018
:100570000701C1F10700042801D9042001E0C1F1FD
:1005800007000646081D072801D2002000E0C81E0B
:1005900005460120B040401E2040A8400127AF4042
:1005A0007F1E17403843F0BD10B502F03DF810BD76
:1005B0001848006840F47000164908601648006842
:1005C00020F00100401C1449086000BF1248006878
:1005D000C0F340000028F9D00F48406820F0030025
:1005E0000D49486000BF0C484068C0F381000028F6
:1005F000F9D1094800680949084007490860002006
:10060000486008634FF41F008860C80301498039BF
:100610000860704788ED00E000100240FFFFF2FE26
:1006200010B52021044801F0ACFA18B1202102488D
:1006300001F010FA10BD0000004800402DE9F0471D
:1006400005460E460024B006070EA046A946A52280
:100650002146641C1F48425401222146641C425416
:100660002146641C4754002008E019F80030214658
:10067000621CD4B2174A5354411CC8B2B842F4DBCE
:10068000002006E01349095C414401F0FF08411CC9
:10069000C8B2A042F6DB2046611CCCB20D4901F87D
:1006A000008049222046611CCCB20A490A5400BF8E
:1006B000094800780028FBD000200749087021462F
:1006C000064800F010FA0121044800F007FABDE8DE
:1006D000F0870000A00B002014000020080002405A
:1006E00000BFFEE702480068C0F302207047000028
:1006F0000CED00E010B5002804DB0A07130E054AD4
:10070000135406E00A07140E034A00F00F031B1FE0
:10071000D45410BD00E400E018ED00E002E0012038
:1007200001F040FCFBE700000349496860F3071152
:10073000014A5160704700000010024003494968B7
:1007400060F30A21014A5160704700000010024026
:100750000349496860F3CD21014A516070470000A8
:1007600000100240012807D10749496D21F03001EE
:100770003031054A516505E00349496D21F03001EA
:10078000014A51657047000000100240052827D239
:10079000DFE800F0030A11181F00134A126861F322
:1007A0000002114B1A601CE00F4A126861F31042FC
:1007B0000D4B1A6015E00C4A126861F318620A4B7F
:1007C0001A600EE0084A126A61F30002064B1A62D0
:1007D00007E0054A526A61F30002034B5A6200E0E7
:1007E00000BF00BF70470000001002402DE9F0413B
:1007F000014600270022002590460023002400F037
:1008000065F9064626B1012E12D0022E43D112E020
:100810003948406DC0F3402038B13748006BC0F311
:10082000406010B13548086001E03548086035E0A7
:100830003348086032E030484068C0F300482E4832
:100840004068C0F383422C484068C0F341750DB93D
:100850000F2A03D12801401C024400E0921CB8F189
:10086000000F03D127485043086013E02248406836
:10087000C0F3404058B12048406DC0F30137B81C68
:10088000DFF87CC0BCFBF0F05043086002E01C487D
:100890005043086002E01A48086000BF00BF1648D5
:1008A0004068C0F303131848C45C0868E04048601F
:1008B00011484068C0F302231448C45C4868E04013
:1008C000C8600D484068C0F3C2231148C45C486842
:1008D000E040886008484068C0F3007306484068FC
:1008E000C0F3813040EA83030A48C45C8868B0FBE7
:1008F000F4F00861BDE8F08100100240006CDC02F9
:1009000000127A0000093D00183200082832000861
:10091000303200083832000810B501460020094B7B
:1009200003EB1142126801F01F040123A3401A4097
:1009300001F01F040123A3409A4200D000E00120EF
:1009400010BD00000010024030B50024002500E07A
:10095000641C1120FFF7E0FF012802D0B4F5405FCE
:10096000F6D31120FFF7D8FF012801D0002500E0C1
:100970000125284630BD000010B501290DD10E4BD0
:1009800003EB1042126800F01F040123A3401A4336
:10099000094C04EB10431A600CE0074B03EB1042C8
:1009A000126800F01F040123A3409A43024C04EB99
:1009B00010431A6010BD00000010024010B568B965
:1009C0001C4B5B6823F480331A4C636023461B6B1B
:1009D00023F0007303F10073236317E0154B5B688A
:1009E00023F4803303F58033124C6360012805D172
:1009F00023465B6823F40033636007E00D4B5B68BC
:100A000023F4003303F500330A4C6360094B5B6841
:100A100061F39543074C63600C09064B5B6864F314
:100A20005E73044C636023465B6862F3DF7363604C
:100A300010BD0000001002401348006820F00100C3
:100A4000401C1149086000BF0F480068C0F3400017
:100A50000028F9D00C48406820F003000A4948609B
:100A600000BF09484068C0F381000028F9D106485A
:100A7000006806490840044908600020486008638F
:100A80004FF41F008860704700100240FFFFF2FE25
:100A90000D49496860F301010B4A516000BF00BF76
:100AA00000BF00BF00BF00BF00BF00BF00BF00BF4E
:100AB00000BF00BF00BF00BF00BF00BF00BF00BF3E
:100AC00000BF00BF704700000010024002484068AD
:100AD000C0F381007047000000100240026861F31B
:100AE0000002026070474160704700210160416070
:100AF00001814181017341738173C1730174417438
:100B000070470000B0F1805F04D920F07041034AC3
:100B1000116001E00249486070470000040402408F
:100B200000000240D0F8A430C3F300633BB9D0F812
:100B3000A43023F0807303F18073C0F8A43001293E
:100B400006D1D0F8A03062F30703C0F8A03034E03B
:100B5000022906D1D0F8A03062F30F23C0F8A030EC
:100B60002BE0032906D1D0F8A03062F31743C0F878
:100B7000A03022E0042906D1D0F8A03062F31F6330
:100B8000C0F8A03019E0052906D1D0F8A43062F3EE
:100B90000703C0F8A43010E0062906D1D0F8A4302D
:100BA00062F30F23C0F8A43007E0072905D1D0F87D
:100BB000A43062F31743C0F8A430704702684BF6C4
:100BC000EF731A40026002680B891A4302604B7C83
:100BD000026863F30D320260CB7B026863F38B2201
:100BE00002608B7B026863F3092202604B7B026820
:100BF00063F3C71202600B7B026863F38612026024
:100C00000B7C026863F3451202604A8942600A68FD
:100C100082604A68C26070471AB103680B43036080
:100C200002E003688B430360704700000146002028
:100C30000022B1F1805F02D9054B1A6801E0054B33
:100C40001A6802EA01030BB1012000E0002070479E
:100C500000040240000002400021026822F001026C
:100C600002600022026042608260C260014640F27F
:100C7000FF420A40B2F5816F0DD2CAB2083A14237E
:100C8000B2FBF3F293000F229A400D4B5B681A43BC
:100C90000B4B5A6012E040F2FF420A40B2F5916FEE
:100CA0000CD2CAB2083A1423B2FBF3F293000F221B
:100CB0009A40044B1B681A43024B1A6070470000AD
:100CC00000000240040402400EB508480849002212
:100CD0001346CDE9002102904FF4807205A1084827
:100CE00001F0D8FF074908600EBD00008C04002009
:100CF0008C000020636F6D6D5F7461736B0000008A
:100D00001D070008000000204FF6FF710160002160
:100D100081710171042141710121C1717047F0B5E8
:100D20000A461588ABB29579032D01D100241AE04B
:100D3000957965B9557905F00F045579182D01D1CC
:100D4000036110E05579282D0DD143610BE09579B1
:100D500005F00805167906F004063543D67906F045
:100D6000030645EA0604DDB2A5B1002110E0012525
:100D70008D401D405DB105688F000F26BE40B54314
:100D8000056005688E0004FA06F635430560491CC7
:100D90000829ECD3FF2B15DD1B12002110E00125E3
:100DA0008D401D405DB145688F000F26BE40B543A4
:100DB000456045688E0004FA06F635434560491CD7
:100DC0000829ECD3F0BD0000F0B50C46104F07EB3E
:100DD0001062C0F30741C0F30725C6B2C5F1200772
:100DE000A7EB010C4FF0FF3707FA0CF3C5F1200712
:100DF0007F1AFB40CB408B4017689F4317602CB194
:100E000006FA01FC176847EA0C071760F0BD0000FE
:100E1000000001401FB501F0BBFA01F097FA01F0A4
:100E2000EDF901F029FA01F0F1F91023114A124904
:100E3000124801F013FA01211048FFF74FFE01F0AC
:100E4000F3FA01F00FFA012202210C48FFF7E4FE49
:100E500001220B490848001F00F078FE08E0094B0A
:100E60000FCB8DE80F0004216846FFF7E7FB00BFBA
:100E7000F5E70000A00B00200448004008000240F5
:100E800005000C00083200082DE9F0470B46144617
:100E90004FF0000C00BF2C4A1268C2F302211D461D
:100EA00026460A46C2F10709B9F1040F02D94FF0EC
:100EB000040901E0C2F10709C84602F10409B9F1C9
:100EC000070F02D24FF0000901E0A2F103094F46DB
:100ED0004FF0010909FA08F9A9F1010909EA050920
:100EE00009FA07F94FF0010A0AFA07FAAAF1010A0A
:100EF0000AEA060A49EA0A09CC460146624600297E
:100F000004DB15072E0E114D6E5407E015072F0E4A
:100F10000D4D0C3501F00F06361FAF5500BF0146D1
:100F200000290DDB00BF00BF01F01F050122AA4010
:100F30004D09AD0005F1E025C5F8002100BF00BF57
:100F400000BFBDE8F08700000CED00E000E400E029
:100F500000BF00F00702064B19684FF6FF03194067
:100F6000044B0B4343EA0221014B196000BF704759
:100F70000CED00E00000FA052DE9F04105460E46B3
:100F80001648076816480068001D00F082FE681CBD
:100F900038B936B112480168091D124800F0D0FE78
:100FA0001AE07C190E4800684460BC4207D20C4825
:100FB0000168091D0C48006800F0A8FE0CE0084814
:100FC0000168091D0948006800F0A0FE0848006893
:100FD000844201D206480460BDE8F0812C00002064
:100FE00018000020800D0020200000201C000020A0
:100FF0004800002010B5044600F0AEFE244800680A
:10100000401C234908602348006840B92148046017
:101010000846006801280DD100F0BEF90AE01E481C
:10102000006838B91B480068C06AE16A884201D884
:101030001848046019480068401C184908600846B0
:10104000006860641649E06A0968884202D9144958
:10105000E06A0860E16A01EB8101124A02EB81005B
:10106000211D00F06DFE00F0A1FE0B48006868B184
:1010700008480068C06AE16A884207D24FF0805091
:1010800009490860BFF34F8FBFF36F8F10BD000099
:101090002800002018000020340000204400002018
:1010A00030000020F00B002004ED00E008B500F057
:1010B00053FE12480068E8B9114800F017FE1148C5
:1010C00000F014FE0E48104908600E480F490860F1
:1010D00000200F4B0F4A102100900A2001F0BEFAA9
:1010E000064908600846006820B10BA10348006863
:1010F00000F01CFF00F05AFE08BD00006000002058
:10110000940D0020A80D0020580000205C00002055
:10111000BC0D00200C0E0020546D72510000000028
:1011200010B516E000F018FE0C48C068C468201D19
:1011300000F0AFFD0A480068401E094908600948F0
:101140000068401E0749086000F030FE204600F0AD
:101150005FF8044800680028E4D110BD6C0D002041
:10116000280000202400002070B504460D46206CA5
:1011700070B1216CE0680144E160D4E9021088425A
:1011800001D32168E1602846226CE168FFF7CAF8C4
:1011900070BD2DE9F04104460F4615464FF000089A
:1011A000A66B206C48B9206800282CD1A06801F0FB
:1011B00087FE80460020A06025E07DB93946226C7C
:1011C0006068FFF7AFF8216C606808446060D4E99C
:1011D0000101884217D32068606014E03946226C10
:1011E000E068FFF79FF8216CE068411AE160216830
:1011F000E068884203D2216CA068411AE160022DA8
:1012000001D106B1761E701CA0634046BDE8F08196
:1012100010B5044694F8590030B9206B00F0E4FD95
:10122000204600F0E1FD1AE094F85900012803D1AE
:10123000204600F0D9FD12E094F85900022801D1AF
:10124000012000E0002050B900BF502080F3118839
:10125000BFF34F8FBFF36F8F00BF00BFFEE710BD1E
:101260000146084A126812680AB9012200E0002209
:101270000A600A6822B9034A1268D268106800E05E
:10128000002070475800002000BFFFF749FF0648C4
:1012900000680128F9D94FF0805004490860BFF375
:1012A0004F8FBFF36F8FF0E7F00B002004ED00E0ED
:1012B0002DE9F04106460D4617469846069C0DB9A5
:1012C000246000E02760E66325640121204601F0E8
:1012D00035FA84F84C80BDE8F0812DE9F05F824654
:1012E0000E4690469B460A9F0C9C4FEA8801A52219
:1012F000206BFFF75CF8A8F10100216B01EB80097E
:1013000029F0070909F0070008B9012000E00020D2
:1013100050B900BF502080F31188BFF34F8FBFF347
:101320006F8F00BF00BFFEE786B1002507E0715D4B
:1013300004F134004155705D00B902E06D1C102DC0
:10134000F5D300BF00214320015502E0002084F8BE
:101350003400102F00D30F27E762E76400202065D8
:10136000201D00F0D0FC04F1180000F0CCFC24613A
:10137000C7F11000A06164620020606584F8580025
:101380005A465146484600F0C9FA20600B9808B109
:101390000B980460BDE8F09F10B5002407E004EB53
:1013A00084010F4A02EB810000F0A0FC641C102CA9
:1013B000F5D30C4800F09AFC0B4800F097FC0B4862
:1013C00000F094FC0A4800F091FC0A4800F08EFC02
:1013D00004480949086004480849086010BD000035
:1013E000F00B0020300D0020440D0020580D00208F
:1013F0006C0D0020800D00201C000020200000202B
:1014000010B50146164800E0006803688B42FBD324
:101410000246436813448B4204D143684C6823441A
:10142000436001460A464B6813440468A34211D145
:101430000C4C03682468A34208D04B6804686468B5
:1014400023444B6003681B680B6005E0054B1B6879
:101450000B6001E003680B60884200D0016010BDA2
:101460006C000020740000202DE9F04104460D4678
:1014700016461F464FF0000865602461B5420CD83F
:10148000F01BA169884202D34FF0010811E0211D31
:101490000948006800F03AFC0BE0BE4204D2BD42AD
:1014A00002D34FF0010804E0211D0448006800F059
:1014B0002DFC4046BDE8F0815C0000205800002073
:1014C00070B5054600F048FCA86B08B9012400E09F
:1014D000002400F06BFC204670BD70B5054600F09E
:1014E0003BFCA86BE96B884201D1012400E0002499
:1014F00000F05CFC204670BDF8B505460F461A4862
:101500000068C068C468201D00F0C3FB94F8280080
:1015100000F00400E8B1A06941192B463A46204684
:10152000FFF7A2FFD8B1002003462A4601460090EB
:10153000204601F021FE064656B900BF502080F338
:101540001188BFF34F8FBFF36F8F00BF00BFFEE75F
:1015500005E094F8280020F0010084F828002046D7
:10156000216A8847F8BD000058000020F0B587B018
:10157000A0E00398002811DA04AE56B900BF50204D
:1015800080F31188BFF34F8FBFF36F8F00BF00BF91
:10159000FEE7D6E90020B168904700BF0398002815
:1015A000E6DB059C606908B9012000E0002010B965
:1015B000201D00F06EFB02A800F0DCF80546039841
:1015C0000A2875D2DFE800F00905073941630608EB
:1015D0003A4200BF00BF00BF00BF94F8280040F0AF
:1015E000010084F828000498A269811803462A465D
:1015F0002046FFF739FFF8B12046216A884794F862
:10160000280000F00400B8B1002000900498A169FF
:10161000421800231946204601F0AEFD074657B98F
:1016200000BF502080F31188BFF34F8FBFF36F8F3F
:1016300000BF00BFFEE700BF3BE000BF94F82800FA
:1016400020F0010084F8280033E000BF94F828005F
:1016500040F0010084F828000498A061A06908B156
:10166000012000E0002050B900BF502080F3118815
:10167000BFF34F8FBFF36F8F00BF00BFFEE7A069BE
:1016800041192B462A462046FFF7EEFE11E094F85A
:10169000280000F0020018B9204600F0A5FB05E084
:1016A00094F8280020F0010084F8280001E0FFE70A
:1016B00000BF00BF002203A90448006801F0EEF952
:1016C00000287FF456AF07B0F0BD00006000002096
:1016D000F8B505460C4600F041FD684600F04AF8B2
:1016E0000646009820BB44B9B54206D801F086FCF6
:1016F00031462846FFF700FF1CE03CB10E48006869
:10170000006808B9012000E000200446A91B224619
:101710000A48006800F020FC01F070FC50B94FF05E
:10172000805007490860BFF34F8FBFF36F8F01E010
:1017300001F064FCF8BD00005C00002060000020A7
:1017400004ED00E009480068006808B9012000E0E5
:10175000002020B14FF0FF300549086005E0034844
:101760000068C06800680249086070471C000020DB
:101770004800002070B5044601F0FAFA0546074813
:101780000068854204D200F00BF80120206001E0DF
:101790000020206001480560284670BD68000020D8
:1017A0002DE9F84334E025480068C06805682348FF
:1017B0000068C068C468201D00F06BFA2046216AEA
:1017C000884794F8280000F0040008B3A06946197F
:1017D000AE4207D966602461211D1848006800F0F8
:1017E00095FA15E0002003462A460146009020465F
:1017F00001F0C2FC074657B900BF502080F31188A2
:10180000BFF34F8FBFF36F8F00BF00BFFEE700BF76
:101810000A480068006808B9012000E0002000289C
:10182000C1D00648D0F80080054800680349086028
:101830000348C0F80080BDE8F8830000580000208D
:101840005C0000200E480068401C08B9012000E040
:10185000002050B900BF502080F31188BFF34F8F94
:10186000BFF36F8F00BF00BFFEE700BF502080F3C3
:101870001188BFF34F8FBFF36F8F00BF00BFFEE72C
:101880000400002008B500BF6846FFF7E9FC0446E5
:1018900020460099FFF71CFFFFF768FEF4E770B5DC
:1018A000044600F059FA94F9455010E0606A08B90E
:1018B000012000E0002038B904F1240001F052FBBF
:1018C00018B100F0A9FB00E003E0681E45B2002D4E
:1018D000ECDC00BFFF2084F8450000F067FA00F060
:1018E0003BFA94F9445010E0206908B9012000E067
:1018F000002048B904F1100001F034FB08B100F0F9
:101900008BFB681E45B200E001E0002DECDC00BF5F
:10191000FF2084F8440000F049FA70BD001F4FF02A
:1019200080730360001F21F001030360001F054B5B
:10193000036014380260001F6FF002030360203858
:1019400070470000451800082DE9F04700260024E4
:1019500000250027A046A146FFF7B8F88246BAF155
:10196000000F06D0BAF1010F15D0BAF1020F46D11F
:1019700015E02D48406DC0F3402040B12A48006B6F
:10198000C0F3406018B129482949086002E029489D
:101990002749086037E027482549086033E0224896
:1019A0004068C0F3004720484068C0F383441E48A5
:1019B0004068C0F341750DB90F2C03D12801401CBC
:1019C000044400E0A41C27B91B4860431849086080
:1019D00014E015484068C0F3404058B11248406DCB
:1019E000C0F30136B01C1349B1FBF0F0604310495D
:1019F000086003E00F4860430D49086003E00D48AC
:101A00000B49086000BF00BF07484068C0F30318D7
:101A10000A4810F808900648006820FA09F00449BE
:101A20000860BDE8F087000000100240006CDC0296
:101A30001000002000127A0000093D00403200082A
:101A4000426961F3C71242617047C26861F34D3267
:101A5000C260704701F01F0212B10268426801E0E3
:101A6000CA430260704741B9426922F48072426100
:101A7000426922F40072426127E001290AD14269D9
:101A800022F4807202F580724261426922F400728F
:101A900042611AE002290AD1426922F4807242614D
:101AA000426922F4007202F5007242610DE00329DE
:101AB0000BD1426922F4807202F580724261426960
:101AC00022F4007202F50072426170472DE9F04382
:101AD00085B004460F46904699466846FEF786FE56
:101AE0001748844205D01748844202D016488442E1
:101AF00001D1029E00E0039E06EB86004000B0FB91
:101B0000F7F50A20B5FBF0F100FB1150052803D2D0
:101B10000A20B5FBF0F503E00A20B5FBF0F0451C08
:101B2000A06865F30F00A060E06868F30C30E06027
:101B3000206969F30D30206105B0BDE8F083000035
:101B400000380140006001400064014030B5012AC6
:101B50000BD100EB11431B6801F01F050124AC40C1
:101B6000234300EB114423600AE000EB11431B68A0
:101B700001F01F050124AC40A34300EB1144236096
:101B800030BD02460023202927D00CDC042939D09F
:101B900004DC01293BD002293DD134E0082920D0C2
:101BA000102938D12AE0402913D080290DD0B1F571
:101BB000807F06D0B1F5007F2DD15069C0F380231E
:101BC0002BE01069C0F3801327E0D068C0F3C01386
:101BD00023E0D068C0F380131FE0D068C0F3401347
:101BE0001BE0D068C0F3401018B9506900F0010044
:101BF00008B1012000E0002003460EE0D068C0F3E9
:101C000000130AE000BF506900F0010305E0D0684E
:101C1000C0F3002301E0002300BF00BF012B01D06F
:101C2000002070471068084008B10120F9E7002043
:101C3000F7E741B9C26822F40072C260C26822F4B8
:101C40008062C2601AE001290AD1C26822F40072DF
:101C5000C260C26822F4806202F58062C2600DE058
:101C600002290BD1C26822F4007202F50072C26030
:101C7000C26822F4806202F58062C2607047C26866
:101C800061F38202C2607047C26861F3C302C2603E
:101C9000704701460A69D1E901309860D1E9010332
:101CA00058605068884201D18868506000200861FF
:101CB0001068401E1060106870470000034B0360FE
:101CC000034B0B608023136070470000E80A00207C
:101CD000E8040020034B0360034B0B604FF4807358
:101CE00013607047440B0020E806002000F1080153
:101CF00041604FF0FF31816000F10801C160016176
:101D000000210160704700210161704710B5024653
:101D10000B685C1C0CB9106907E002F1080000E0D8
:101D20004068446824689C42FAD944684C604C6816
:101D3000A160886041600A611468641C146010BD71
:101D400042684A6093688B6093685960916008614B
:101D500003685B1C0360704700BF502080F311884C
:101D6000BFF34F8FBFF36F8F00BF0E480068401C5A
:101D70000C49086008460068012812D10A4800682A
:101D8000C0B208B9012000E0002050B900BF5020C7
:101D900080F31188BFF34F8FBFF36F8F00BF00BF79
:101DA000FEE770470400002004ED00E00D480068E5
:101DB00050B900BF502080F31188BFF34F8FBFF39D
:101DC0006F8F00BF00BFFEE706480068401E054950
:101DD00008600846006820B9002080F3118800BF21
:101DE00000BF70470400002070B506463546002E3F
:101DF00044D0083D2C46224960680968084008B173
:101E0000012000E0002050B900BF502080F311886D
:101E1000BFF34F8FBFF36F8F00BF00BFFEE7206897
:101E200008B9012000E0002050B900BF502080F325
:101E30001188BFF34F8FBFF36F8F00BF00BFFEE766
:101E40000F49606809680840C0B12068B0B90C4902
:101E5000606809688843606000F080F9094960683B
:101E600009680844074908602046FFF7C9FA064890
:101E70000068401C0449086001F0C0F870BD000013
:101E800088000020780000208400002000204FF00F
:101E9000E02108618861064800684FF47A71B0FB60
:101EA000F1F0401E4FF0E0214861072008617047C3
:101EB0001000002070B5FEF711FA0446102C16D35E
:101EC00004F1E02090F8F05315480078854201DBDA
:101ED000012000E0002050B900BF502080F311889D
:101EE000BFF34F8FBFF36F8F00BF00BFFEE70D48FA
:101EF000006800F4E0600C490968884201D80120BC
:101F000000E0002050B900BF502080F31188BFF3DB
:101F10004F8FBFF36F8F00BF00BFFEE770BD0000A3
:101F2000080000200CED00E00C000020024600201C
:101F30000BE0084B53F8303033B9064B43F8301000
:101F400003EBC0035A6002E0401C0828F1D300BF35
:101F500070470000B00B00202DE9F04105460E4609
:101F600017462C46FFF7F8FE94F94400401C10B9C0
:101F7000002084F8440094F94500401C10B900206A
:101F800084F84500FFF712FFA06B28B93A463146A6
:101F900004F1240000F062F82046FFF780FCBDE861
:101FA000F081000070B504460025D4B112480068E5
:101FB00008B9012000E0002050B900BF502080F394
:101FC0001188BFF34F8FBFF36F8F00BF00BFFEE7D5
:101FD00000F0C4F800212046FEF7CEFF01F00EF815
:101FE00005463DB94FF0805004490860BFF34F8F5C
:101FF000BFF36F8F70BD00005400002004ED00E0BF
:10200000034909680160034909684160704700009D
:10201000400000202C00002001200149086070478A
:102020003C00002070B504460D4654B900BF502056
:1020300080F31188BFF34F8FBFF36F8F00BF00BFD6
:10204000FEE70548016818312046FFF75FFE0121D1
:102050002846FEF791FF70BD1800002070B50546B8
:102060000E46144655B900BF502080F31188BFF3C7
:102070004F8FBFF36F8F00BF00BFFEE706480168B8
:1020800018312846FFF75CFE0CB14FF0FF362146B1
:102090003046FEF771FF70BD1800002010B586B005
:1020A00000200590049003AA04A905A8FFF706FEE6
:1020B0000022DDE904101346CDE9002102901FA1A2
:1020C0002048039A00F0E6FD1F49086008460068B2
:1020D00008B1012400E00024012C02D101F010F825
:1020E0000446012C15D100BF502080F31188BFF3A6
:1020F0004F8FBFF36F8F00BF4FF0FF301349086061
:1021000001201349086000201249086000F0D8F946
:1021100010E0601C08B1012000E0002050B900BFB1
:10212000502080F31188BFF34F8FBFF36F8F00BF34
:1021300000BFFEE70848006806B010BD49444C45A2
:1021400000000000891200084C0000204800002018
:10215000340000202C0000205000002002480068BD
:10216000401C014908607047540000201E48006868
:1021700018B101201D49086034E000201B490860A7
:102180001B4801680CE051B900BF502080F3118852
:10219000BFF34F8FBFF36F8F00BF00BFFEE7491E35
:1021A00001EB8100134A52F8200008B9012000E039
:1021B00000200028E7D101EB81020E4B03EB8200E7
:1021C00042685268426000F108024368934202D1BB
:1021D0004268526842604268D268074B1A600448FD
:1021E000016000BF70470000540000203C00002048
:1021F00030000020F00B00201800002010B5012155
:102200000148FEF7E1FD10BD0203103000B585B0B6
:102210001148FEF721FD6846FEF767FC1020ADF877
:10222000080000208DF80F0001208DF80D0000201F
:102230008DF80E008DF80C008DF811008DF810004F
:1022400069460548FEF7BAFC1E22012102480838FB
:10225000FEF768FC05B000BD0800024043608160E5
:10226000C260704710B5FFF777FDFEF72DFDFFF751
:102270009DFDFFF713FF10BD70B50320FEF768FE4C
:10228000FEF730FA054600221146FEF76DF90446C6
:1022900021466FF00B00FEF72DFAFEF723FA0546F4
:1022A00000221146FEF760F9044621466FF00A004D
:1022B000FEF720FAFEF716FA054600221146FEF751
:1022C00053F9044621466FF00900FEF713FAFEF7B2
:1022D00009FA054600221146FEF746F90446214652
:1022E0006FF00400FEF706FAFEF7FCF9054600223F
:1022F0001146FEF739F9044621466FF00300FEF758
:10230000F9F9FEF7EFF9054600220F21FEF72CF947
:10231000044621466FF00100FEF7ECF9FEF7E2F902
:10232000054600220F21FEF71FF9044621464FF013
:10233000FF30FEF7DFF9002205210B20FEF7A4FD98
:10234000002205212720FEF79FFD70BD10B5012159
:102350004FF4A010FEF710FB01214FF4C010FEF760
:102360000BFB01210848FEF707FB01210648401C32
:10237000FEF702FB01210448C01CFEF7FDFA012113
:102380000248FEF7F9FA10BD0200180012001C0006
:1023900010B5FEF751FB01210420FEF7F7F900BF4D
:1023A0002048FEF7B9FA0128FAD101210846FEF7C4
:1023B000EDF900BFFEF7C8FA0028FBD0012100208C
:1023C000FEF7E4F900BF0120FEF7A6FA0128FAD1D2
:1023D00001221D211046FEF7F1FA01210220FEF72D
:1023E000D5F900BF1920FEF797FA0128FAD100208D
:1023F000FEF79AF90420FEF7ABF90420FEF79EF9E8
:102400000120FEF7AFF90220FEF742FB00BFFEF706
:102410005DFB0228FBD10020FEF7A4F9FFF794FA38
:1024200010BD0000010024001CB56846FEF76CFCDE
:1024300002208DF8070000208DF8040008208DF898
:102440000600C001009004208DF8050069461A4876
:10245000FEF765FC02208DF8070000208DF80400CF
:102460008DF806004FF40060009004208DF8050000
:1024700069461148FEF753FC00231A464FF46121C8
:102480000E48FFF723FB01210C48FFF7FDFB01215C
:102490000A48FFF7F4FB00210848FFF7CAFB0121B7
:1024A0000648FFF7CDFA00210448FFF7DCFA0121C6
:1024B0000248FFF7CAFA1CBD000C0140004800406A
:1024C0001CB5524800685249884201D0012000E002
:1024D000002050B900BF502080F31188BFF34F8F08
:1024E000BFF36F8F00BF00BFFEE748480068484950
:1024F000491E884201D0012000E0002050B900BFF1
:10250000502080F31188BFF34F8FBFF36F8F00BF50
:1025100000BFFEE73F49084600780190FF200A46C9
:1025200010700846007800909DF8000000F0F00060
:102530009DF80020904201D1012000E0002050B918
:1025400000BF502080F31188BFF34F8FBFF36F8F10
:1025500000BF00BFFEE79DF8000000F050002E4ACB
:10256000107007202D4A106009E02C480068401EBA
:102570002A4A10609DF800004006000E00909DF869
:10258000000000F080008028EFD024480068C0F1EF
:102590000700042801D1012000E0002050B900BF4D
:1025A000502080F31188BFF34F8FBFF36F8F00BFB0
:1025B00000BFFEE7194800680002184A1060104684
:1025C000008800F4E0601060124A019810700F4813
:1025D0002030006840F470000C4920310860084643
:1025E000006840F070400860FFF750FC00200C4984
:1025F0000860FDF73BFE0B48006840F04040094989
:102600000860FDF71FFE00201CBD000000ED00E08B
:1026100071C20F4100E400E0080000200C0000201F
:102620000400002034EF00E010B500BF502080F31C
:102630001188BFF34F8FBFF36F8F00BF00F09EFB79
:1026400018B14FF080500449086000BF002080F3AB
:10265000118800BF10BD000004ED00E02DE9F84333
:1026600080460E4617461D46DDF82090B8F1000F53
:1026700001D0012000E0002050B900BF502080F3BD
:102680001188BFF34F8FBFF36F8F00BF00BFFEE70E
:102690000DB1012000E0002050B900BF502080F3B0
:1026A0001188BFF34F8FBFF36F8F00BF00BFFEE7EE
:1026B00007B10EB1012000E0002050B900BF50204A
:1026C00080F31188BFF34F8FBFF36F8F00BF00BF40
:1026D000FEE707B90EB9012000E0002050B900BFA5
:1026E000502080F31188BFF34F8FBFF36F8F00BF6F
:1026F00000BFFEE7502000900098502801D1012033
:1027000000E0002050B900BF502080F31188BFF3D3
:102710004F8FBFF36F8F00BF00BFFEE700BF2C4697
:102720004CB1012084F846004B463A4631464046BB
:102730000094FEF7BDFD2046BDE8F88370B5054660
:102740000E462C4654B900BF502080F31188BFF3C9
:102750004F8FBFF36F8F00BF00BFFEE7FFF7FCFA9C
:10276000D4E90F12206801FB0200A0600020A063E2
:1027700020686060E06B401E226C216800FB021143
:10278000E160FF2084F8440084F845009EB9206988
:1027900008B9012000E00020A8B904F1100000F001
:1027A000E1FB80B14FF0805009490860BFF34F8FC3
:1027B000BFF36F8F07E004F11000FFF797FA04F101
:1027C0002400FFF793FAFFF7F1FA012070BD000033
:1027D00004ED00E02DE9FF4383B0064688461D4620
:1027E0004FF00009344654B900BF502080F31188DF
:1027F000BFF34F8FBFF36F8F00BF00BFFEE7B8F18D
:10280000000F01D1206C08B9012000E0002050B970
:1028100000BF502080F31188BFF34F8FBFF36F8F3D
:1028200000BF00BFFEE7022D02D1E06B012801D1FD
:10283000012000E0002050B900BF502080F3118833
:10284000BFF34F8FBFF36F8F00BF00BFFEE700F0F5
:102850007FFA08B9059808B9012000E0002050B9B6
:1028600000BF502080F31188BFF34F8FBFF36F8FED
:1028700000BF00BFFEE700BFFFF76EFAA06BE16B81
:10288000884201D3022D28D12A4641462046FEF730
:1028900080FC0746606A08B9012000E0002068B9A2
:1028A00004F1240000F05EFB88B14FF08050324903
:1028B0000860BFF34F8FBFF36F8F08E03FB14FF059
:1028C00080502D490860BFF34F8FBFF36F8FFFF724
:1028D0006DFA012007B0BDE8F083059818B9FFF73D
:1028E00065FA0020F6E7B9F1000F04D101A8FFF75F
:1028F00087FB4FF00109FFF759FAFFF72FFCFFF7AD
:102900002BFA94F94400401C10B9002084F84400CC
:1029100094F94500401C10B9002084F84500FFF7E9
:1029200045FA05A901A800F06DF9F0B92046FEF7B7
:10293000D4FDA0B104F110000599FFF773FB204608
:10294000FEF7ADFF00F05AFB002895D14FF0805004
:1029500009490860BFF34F8FBFF36F8F8CE72046A4
:10296000FEF79DFF00F04AFB86E72046FEF797FF43
:1029700000F044FB0020ADE704ED00E02DE9F84F46
:1029800007468B4690461E463C4654B900BF502031
:1029900080F31188BFF34F8FBFF36F8F00BF00BF6D
:1029A000FEE7BBF1000F01D1206C08B9012000E067
:1029B000002050B900BF502080F31188BFF34F8F23
:1029C000BFF36F8F00BF00BFFEE7022E02D1E06BA6
:1029D000012801D1012000E0002050B900BF5020A3
:1029E00080F31188BFF34F8FBFF36F8F00BF00BF1D
:1029F000FEE7FFF75FFA00BF5021EFF3118081F38C
:102A00001188BFF34F8FBFF36F8F00BF0546A06BD8
:102A1000E16B884201D3022E37D194F945A0A06B17
:102A20000090324659462046FEF7B3FB0AF10100FA
:102A300088B9606A08B9012000E0002050B904F1AB
:102A4000240000F08FFA28B1B8F1000F02D0012065
:102A5000C8F8000016E0BAF17F0F01D0012000E0B5
:102A6000002050B900BF502080F31188BFF34F8F72
:102A7000BFF36F8F00BF00BFFEE70AF1010040B255
:102A800084F845004FF0010901E04FF0000900BF54
:102A900085F3118800BF4846BDE8F88F2DE9F7415E
:102AA00083B005460E464FF000082C4654B900BFCF
:102AB000502080F31188BFF34F8FBFF36F8F00BF9B
:102AC00000BFFEE70EB9206C08B9012000E000202D
:102AD00050B900BF502080F31188BFF34F8FBFF370
:102AE0006F8F00BF00BFFEE700F032F908B905980C
:102AF00008B9012000E0002050B900BF502080F349
:102B00001188BFF34F8FBFF36F8F00BF00BFFEE789
:102B100000BFFFF721F9A76BF7B131462046FEF75A
:102B200023FB781EA063206908B9012000E0002083
:102B300060B904F1100000F015FA38B14FF0805080
:102B40002F490860BFF34F8FBFF36F8FFFF72EF948
:102B5000012006B0BDE8F081059818B9FFF726F905
:102B60000020F6E7B8F1000F04D101A8FFF748FAFA
:102B70004FF00108FFF71AF9FFF7F0FAFFF7ECF84A
:102B800094F94400401C10B9002084F8440094F9E2
:102B90004500401C10B9002084F84500FFF706F9F5
:102BA00005A901A800F02EF8F0B92046FEF788FC30
:102BB000A0B104F124000599FFF734FA2046FEF78E
:102BC0006EFE00F01BFA0028A3D14FF080500C4994
:102BD0000860BFF34F8FBFF36F8F9AE72046FEF771
:102BE0005EFE00F00BFA94E72046FEF758FE00F078
:102BF00005FA2046FEF764FC00288AD00020A8E7EA
:102C000004ED00E070B505460C4655B900BF5020F4
:102C100080F31188BFF34F8FBFF36F8F00BF00BFEA
:102C2000FEE754B900BF502080F31188BFF34F8FE7
:102C3000BFF36F8F00BF00BFFEE7FFF78DF81348AB
:102C400002686868131A2068401C08B9002619E059
:102C50000F4928680968884206D06868904203D8FE
:102C60000126002020600DE02068984207D92068E6
:102C7000C01A20602846FFF7C3F9002602E00020B2
:102C800020600126FFF792F8304670BD2C0000202E
:102C9000400000202DE9F04F85B007468846914658
:102CA0009A46DDE90EB6109C0EB1012000E000202E
:102CB00050B900BF502080F31188BFF34F8FBFF38E
:102CC0006F8F00BF00BFFEE70CB1012000E00020C5
:102CD00050B900BF502080F31188BFF34F8FBFF36E
:102CE0006F8F00BF00BFFEE75C20039003985C2855
:102CF00001D1012000E0002050B900BF502080F336
:102D00001188BFF34F8FBFF36F8F00BF00BFFEE787
:102D100000BFB4B1AEB125462C462E63022085F823
:102D20005900002004A953464A46CDE900B1CDE937
:102D3000025041463846FEF7D0FA2846FEF75AF9C7
:102D400001E000200490049805B0BDE8F08F000079
:102D50000549096809B9012005E00449096809B96C
:102D6000022000E0002070473400002054000020C2
:102D700001490868704700002C0000202DE9F0414F
:102D80004FF000084348006800287BD142480068A3
:102D9000451C4148056015BB40480068006808B9FB
:102DA000012000E0002050B900BF502080F31188BE
:102DB000BFF34F8FBFF36F8F00BF00BFFEE73748F1
:102DC0000768374800683549086035480760354866
:102DD0000068401C33490860FEF7B4FC00BF32486D
:102DE000006885423BD300BF2C480068006808B9E2
:102DF000012000E0002020B14FF0FF302A49086098
:102E00002CE026480068C068C4686668B54202D2F3
:102E10002548066022E0201DFEF73BFFA06A18B19E
:102E200004F11800FEF735FF2049E06A096888427E
:102E300002D91E49E06A0860E16A01EB81011C4A7F
:102E400002EB8100211DFEF77BFF1A49E06A096849
:102E5000C96A8842C8D34FF00108C5E700BF1548CA
:102E60000068C06A00EB8000114951F82000012879
:102E700001D94FF001081048006808B14FF001086F
:102E800005E0FFE70D480068401C0C49086040461B
:102E9000BDE8F081540000202C0000201C00002020
:102EA00020000020400000204800002030000020CA
:102EB000F00B0020180000203C000020380000200B
:102EC00070B505462C460026002D43D022480068E8
:102ED000844201D1012000E0002050B900BF502001
:102EE00080F31188BFF34F8FBFF36F8F00BF00BF18
:102EF000FEE7206D50B900BF502080F31188BFF36A
:102F00004F8FBFF36F8F00BF00BFFEE7206D401EE5
:102F10002065E16CE06A88421CD0206DD0B9201D8C
:102F2000FEF7B7FEE06CE062E06AC0F11000A0615D
:102F30000A49E06A0968884202D90849E06A0860DB
:102F4000E16A01EB8101064A02EB8100211DFEF7D7
:102F5000F7FE0126304670BD18000020300000202A
:102F6000F00B002070B50646F068C46854B900BF85
:102F7000502080F31188BFF34F8FBFF36F8F00BFD6
:102F800000BFFEE704F11800FEF783FE1548006855
:102F9000A0B9201DFEF77DFE1349E06A096888424A
:102FA00002D91149E06A0860E16A01EB81010F4A28
:102FB00002EB8100211DFEF7C3FE04E004F11801BD
:102FC0000B48FEF7BDFE0B49E06A0968C96A8842F2
:102FD00004D9012501200849086000E000252846A1
:102FE00070BD00005400002030000020F00B0020D5
:102FF000580D0020180000203C00002070B500246F
:1030000000263648006850B900BF502080F3118870
:10301000BFF34F8FBFF36F8F00BF00BFFEE7FEF718
:103020009BFE2E480068401E2C4908600846006838
:1030300000284ED12A48006800284AD023E02948B9
:10304000C068C46804F11800FEF723FE201DFEF7D7
:1030500020FE2549E06A0968884202D92249E06ACF
:103060000860E16A01EB8101204A02EB8100211D29
:10307000FEF766FE1E49E06A0968C96A884202D303
:1030800001201C4908601748006808B9012000E0C9
:1030900000200028D3D00CB1FEF754FB1648056879
:1030A00065B100BFFFF76AFE10B101201149086049
:1030B0006D1E002DF6D100200F4908600D480068F4
:1030C00038B1012630070D490860BFF34F8FBFF3B9
:1030D0006F8FFEF76BFE304670BD0000540000207D
:1030E00028000020580D002030000020F00B0020A8
:1030F000180000203C0000203800002004ED00E013
:1031000010B586B00024FDF7D1FF16480068D0B195
:1031100000200590049003AA04A905A8FEF7DAFD93
:103120000222DDE904100023CDE9002102900EA166
:103130000F48039AFFF7AEFD0E4908600846006885
:1031400000B1012400BF54B900BF502080F31188A2
:10315000BFF34F8FBFF36F8F00BF00BFFEE7204666
:1031600006B010BD60000020546D722053766300DD
:1031700085180008640000202DE9FF4704460D462D
:1031800016461F46DDF830804FF0000954B900BFE5
:10319000502080F31188BFF34F8FBFF36F8F00BFB4
:1031A00000BFFEE71448006810B300950196029432
:1031B000062D15DAFFF7CCFD022808D10023424680
:1031C00069460D480068FFF705FB814610E00023C3
:1031D0001A46694608480068FFF7FCFA814607E08E
:1031E00000233A46694604480068FFF7C7FB81465A
:1031F000484604B0BDE8F087600000204FF0407002
:10320000E1EE100A704700000AD7233C0AD7A33C1E
:103210008FC2F53C0AD7233D0000000000000000EB
:10322000010203040607080900000000010203046C
:10323000000000000102030402040608020C08104A
:103240000000000000000000010203040607080956
:1032500070320008000000208C000000C00100084F
:10326000FC3200088C00002084140000DC010008FF
:1032700000000000AAAAAAAA0000000000000000A6
:1032800000127A00000000000000000000000000B2
:10329000000000000000000000000000000000002E
:1032A000000000000000000000000000000000001E
:1032B000000000000000000000000000000000000E
:1032C0000F000000000000000000000000000000EF
:1032D00000000000000000000000000000000000EE
:1032E00000000000000000000000000000000000DE
:0C32F000000000000000000000000000D2
:040000050800018569
:00000001FF
