:020000040800F2
:10000000204100205D020008B3150008A11100087E
:10001000DF120008290B00082D2200080000000054
:100020000000000000000000000000009D0100082A
:10003000C50F000800000000F9010008DF1D0008DE
:1000400077020008770200087702000877020008AC
:10005000770200087702000877020008770200089C
:100060007702000877020008770200089D0F000859
:10007000770200087702000877020008770200087C
:100080007702000877020008B1090008770200082B
:10009000770200087702000877020008770200085C
:1000A000770200087702000877020008770200084C
:1000B000611E000877020008770200087702000836
:1000C000770200087702000877020008770200082C
:1000D000770200087702000877020008A1200008D4
:1000E000770200087702000877020008770200080C
:1000F00077020008770200087702000877020008FC
:1001000077020008770200087702000877020008EB
:1001100077020008770200087702000877020008DB
:1001200077020008770200087702000877020008CB
:1001300077020008770200087702000877020008BB
:1001400000000000000000000000000000000000AF
:10015000770200087702000877020008770200089B
:10016000770200087702000877020008770200088B
:10017000770200087702000877020008770200087B
:1001800077020008DFF810D000F0C4FB00480047F9
:1001900079440008AFF30080204100202C4B1968FF
:1001A0000868B0E8F04F80F30988BFF36F8F4FF015
:1001B000000080F3118870470000000008480068C4
:1001C000006880F308884FF0000080F3148862B65E
:1001D00061B6BFF34F8FBFF36F8F00DF00BF00BF6B
:1001E00008ED00E0DFF80C00016841F470010160E7
:1001F000704700BF88ED00E0EFF30980BFF36F8F19
:10020000134B1A681EF0100F08BF20ED108A20E96A
:10021000F04F106009B44FF0500080F31188BFF325
:100220004F8FBFF36F8F05F0A3FE4FF0000080F3F8
:10023000118809BC19680868B0E8F04F1EF0100F6B
:1002400008BFB0EC108A80F30988BFF36F8F704746
:10025000C8010020EFF30580704700000648804782
:1002600006480047FEE7FEE7FEE7FEE7FEE7FEE79B
:10027000FEE7FEE7FEE7FEE7F11D00088501000846
:1002800040EA01039B0703D009E008C9121F08C018
:10029000042AFAD203E011F8013B00F8013B521E98
:1002A000F9D27047D2B201E000F8012B491EFBD20F
:1002B00070470022F6E710B513460A460446194671
:1002C000FFF7F0FF204610BD2DE9FE4F804681EA82
:1002D0000300C00F0C46009021F0004123F00045C0
:1002E000B8EB0200A94105D24046214690461C4683
:1002F0000B46024623F00040104347D0270DC7F3BA
:100300000A00C3F30A510290401A019040286BDAA8
:10031000C3F3130040F4801B0098924620B10023E1
:10032000D2EB030A63EB0B0B01985946C0F1400274
:10033000504600F0F8F906460D4650465946019AD7
:1003400000F000FA10EB08006141002487EA115226
:1003500084EAE7731A4340D0009A62B3019A012AF3
:100360004FEA075215DC001B61EB02014FF000421F
:1003700002EA0752CDE90042001C41F580113246E5
:100380002B4600F060FA03B0BDE8F08F40462146EE
:10039000F9E7001B61EB0201001C41F58013001816
:1003A0005B412018A2F5001747EB030140EAD57026
:1003B000B6196D4111E06D084FEA360645EAC07581
:1003C0004FEA0752001B61EB0201001C41F580114E
:1003D00049084FEA30000019514132462B4603B01C
:1003E000BDE8F04F00F020BA009801224000002341
:1003F000D0EB020263EBE073009821464FEAE07411
:10040000B8EB000061EB0401E9E783F000435BE730
:1004100081F0004158E72DE9FE4F81EA030404F022
:10042000004421F0004100944FF0000B23F0004302
:1004300050EA01045ED052EA03045BD0C3F30A54CD
:10044000C1F30A552C44A4F2F3340194A0FB0254E6
:10045000C1F3130141F48011C3F3130343F4801378
:1004600001FB024400FB034E840A970A44EA8154CC
:1004700047EA8357A4FB076802958D0A05FB0785A9
:100480004FEA932C04FB0C542705029D4FEA0658B3
:1004900047EA1637B5EB08056EEB070C870E920E90
:1004A00047EA811742EA8312A7FB0201B6EB0B0170
:1004B00064EB00042B0D43EA0C335E1844EB1C5034
:1004C000DA465146E7FB0201C5F313044FEA0B334A
:1004D00043EA14534FEA0432019C43EA0603A4F1B1
:1004E0000C040294009CCDE900B400F0ACF903B018
:1004F000BDE8F08F00200146F9E72DE9F04D81EAD3
:10050000030404F0004B21F0004514464FF0000AAC
:1005100023F0004150EA050220D054EA01021DD028
:10052000C5F30A570246C5F31303C1F31300C1F321
:100530000A5640F4801543F48013A7EB0608101BFD
:10054000D64608F2FD3873EB050002D308F1010826
:1005500001E092185B41B8F1000F03DA0020014678
:10056000BDE8F08D00204FF48011064684460EE071
:10057000171B73EB050705D3121B63EB050306433B
:100580004CEA010C49084FEA300092185B4150EAEE
:100590000107EDD152EA030012D082EA040083EA97
:1005A0000501084305D0101BAB4106D201220023F0
:1005B00006E000224FF0004302E06FF0010253100A
:1005C0001AEB06004CEB085110EB0A0041EB0B0153
:1005D000BDE8F04D00F028B900F0004230F00040D6
:1005E0000AD0C10D01F56071C0F3160042EA015155
:1005F000C2084007114370470020014670470000C1
:1006000030B5041E71F1000404DB4FF00044404299
:1006100064EB0101141E73F1000405DB1C464FF06E
:100620000043524263EB04038B4208BF824230BD59
:1006300030B5041E71F1000404DB4FF00044404269
:1006400064EB0101141E73F1000405DB1C464FF03E
:100650000043524263EB0403994208BF904230BD0D
:1006600001F0004330B421F0004150EA010206D00D
:100670000A0DA2F56072C1F31301002A02DC30BC3E
:1006800000207047440F44EAC104C100E01830BCA8
:1006900000EBC25000F068B830B50B4601460020B0
:1006A0002022012409E021FA02F59D4205D303FA34
:1006B00002F5491B04FA02F52844151EA2F10102B5
:1006C000F1DC30BD2DE9F05F0546002092469B46E7
:1006D00088460646814640241BE028464146474658
:1006E000224600F029F953465A46C01A914110D3C8
:1006F00011461846224600F016F82D1A67EB01083D
:100700004F4622460120002100F00DF817EB0009AA
:100710004E41201EA4F10104DFDC484631462A4642
:100720004346BDE8F09F202A04DB203A00FA02F19C
:10073000002070479140C2F1200320FA03F31943CF
:1007400090407047202A06DBCB17203A41FA02F08E
:1007500043EAE07306E041FA02F3D040C2F120021E
:1007600091400843194670470029A8BF7047401CB4
:10077000490008BF20F00100704710B4B0FA80FCB7
:1007800000FA0CF050EA010404BF10BC704749B1F4
:10079000CCF1200421FA04F411FA0CF118BF012164
:1007A00021430843A3EB0C01CB1D4FEA00614FEA44
:1007B000102042BF002010BC704700EBC350104413
:1007C0000029A4BF10BC7047401C490008BF20F09E
:1007D000010010BC7047F0B400F0004221F000416D
:1007E00020F00040CE0DC30DC1F3160141F400010D
:1007F000C0F316004C42154640F40000761E09E096
:1008000010EB440002D582F0004240428842F7D803
:1008100040005B1EB342F9DA18B1F0BC0021FFF7CB
:10082000ACBF2846F0BC704710B5141E73F100042D
:1008300008DA401C41F1000192185B411A4301D1D2
:1008400020F0010010BD2DE9F04D92469B4611B1FC
:10085000B1FA81F202E0B0FA80F220329046FFF75E
:1008600062FF04460F4640EA0A0041EA0B01534684
:100870005A46084313D0114653EA010019D0C8F173
:100880004002504600F058F805460E46504659467C
:100890004246FFF748FF084305D0012004E0204608
:1008A0003946BDE8F08D0020054346EAE0762C434A
:1008B00037430A986305E40AA0EB08000022FD0A0A
:1008C00044EA47540A3002D500200146E9E7010511
:1008D00010196941DDE9084500196941BDE8F04D8D
:1008E000A2E7C1F30A52C1F3130140F2FF3341F40E
:1008F00080119A4202DA00200146704740F23343E9
:100900009A42A2F2334202DC524200F015B8FFF7DD
:100910000ABF0000064C074D06E0E06840F0010306
:1009200094E8070098471034AC42F6D3FFF72EFC4A
:10093000A4760008C4760008202A04DB203A21FAB5
:1009400002F00021704721FA02F3D040C2F12002E8
:10095000914008431946704770B58C1810F8015B38
:1009600015F0070301D110F8013B2A1106D110F848
:10097000012B03E010F8016B01F8016B5B1EF9D14C
:100980002B0705D40023521E0DD401F8013BFAE7D2
:1009900010F8013BCB1A921C03E013F8015B01F83D
:1009A000015B521EF9D5A142D8D3002070BD0000D2
:1009B00010B50421174802F08CF908B3002115483E
:1009C00002F07AFA144908600121124802F074FA20
:1009D0001149486002210F4802F06EFA0E49886002
:1009E00003210C4802F068FA0C4908800C480168A1
:1009F0000C48006800F0E8FA0421064802F053F9B8
:100A00000421044802F065F918B10421014802F0FC
:100A10004AF910BD00240140081200200200002005
:100A2000B00100205401002010B52DED048BB0EE74
:100A3000408AB0EE480A00F079F8F0EE408A0948A2
:100A4000006890ED160A38EEC00AB0EE409AB0EE9B
:100A5000490A00F0CFFDB0EE409AB0EE490ABDEC75
:100A6000048B10BD540100202DE9F0412DED048BC5
:100A700004460D4600228021284802F01FF9B7EEF7
:100A8000080A00F02FFC40F2DC5005F08DF99FEDD4
:100A9000240AB0EE408A32279FED210AB0EE409A38
:100AA000002611E000F054FDB0EE409AB0EE490A85
:100AB00000F03CF8F0EE409A38EE290AB0EE408A99
:100AC0000A2005F071F9761C322EEBDB9FED150A3A
:100AD000C8EE000AC4ED000A00F03AFDB0EE409AFC
:100AE000B0EE490A00F022F8F0EE408A94ED000AD8
:100AF00038EEC00A85ED000A4FF4FA7005F054F99B
:100B00009FED070A00F0EEFB01228021034802F06E
:100B1000D5F8BDEC048BBDE8F08100000024014055
:100B2000000000000000484200BFFEE710B52DEDB8
:100B3000028BB0EE408A0C48006890ED120AB8EEC5
:100B4000C00A60EE080A0848006890ED110AB8EE85
:100B5000C00A20EE800AF0EE408AB0EE680A00F08B
:100B600049FDBDEC028B10BD5401002070B52DED88
:100B7000028B0446F0EE408A0D4694ED130A1D48A0
:100B8000D0ED000A30EE600AB0EE408A9FED1A0AFE
:100B9000B4EEC08AF1EE10FA06DD9FED180A38EEC9
:100BA000400AB0EE408A0CE09FED150AB4EEC08A10
:100BB000F1EE10FA05D29FED110A38EE000AB0EE00
:100BC000408A94ED2D0A20EE080AC0EE280AC4EDF2
:100BD0002C0AD4ED2C0AB0EE600A04F1B0012846CC
:100BE00000F036FB94ED130A024880ED000ABDECDC
:100BF000028B70BDB4010020D00F4940D00FC94016
:100C0000D00F49C010B52DED088B044694ED100AA5
:100C100084ED1A0A94ED2A0A84ED1B0A94ED1B0A4E
:100C2000D4ED1A0A30EE600A84ED1C0A94ED1C0A19
:100C3000D4ED1D0A30EE600AD4ED180A20EE200A29
:100C4000D4ED170A94ED1C1A00EE810AD4ED1E0AA9
:100C500030EE200A84ED1E0A94ED1C0A84ED1D0A74
:100C600094ED1F0A10EE101A0846FFF7B5FC41EC90
:100C70001A0BB0EE4A0AF0EE6A0A01F005FBB0EE7C
:100C8000408AF0EE608A94ED1E0A10EE101A0846B3
:100C9000FFF7A2FC41EC190B53EC182BFFF7C8FC33
:100CA00017D294ED1F0A10EE101A0846FFF794FCB5
:100CB00041EC190BB0EE490AF0EE690A01F0E4FAD2
:100CC000B0EE408AF0EE608A51EC180BFFF7C8FCDA
:100CD000A06794ED1F0A10EE101A0846FFF77CFC7F
:100CE00041EC1B0BB0EE4B0AF0EE6B0A01F0CCFAB4
:100CF000B0EE40AAF0EE60AA51EC1A0B81F0004170
:100D000041EC180B94ED1E0A10EE101A0846FFF77E
:100D100063FC41EC190B53EC182BFFF771FC1BD251
:100D200094ED1F0A10EE101A0846FFF755FC41EC2F
:100D30001A0BB0EE4A0AF0EE6A0A01F0A5FAB0EE1C
:100D4000409AF0EE609A51EC190B81F0004141ECB1
:100D5000180BFFF785FCA067BDEC088B10BD0000E9
:100D600010B52DED088B044694ED0F0A84ED230A8F
:100D700094ED290A84ED240A5948006890F8E000AF
:100D8000032805D05648006890F8E000042803D1F5
:100D900094ED360A84ED240A94ED240AD4ED230A56
:100DA00030EE600A84ED250A94ED250AD4ED260A7A
:100DB00030EE600AD4ED210A20EE200AD4ED200A9C
:100DC00094ED251A00EE810AD4ED270A30EE200AB0
:100DD00084ED270A94ED250A84ED260A94ED280A6D
:100DE00010EE101A0846FFF7F7FB41EC1A0BB0EEB5
:100DF0004A0AF0EE6A0A01F047FAB0EE408AF0EED5
:100E0000608A94ED270A10EE101A0846FFF7E4FBFB
:100E100041EC190B53EC182BFFF70AFC18D294ED98
:100E2000280A10EE101A0846FFF7D6FB41EC190B02
:100E3000B0EE490AF0EE690A01F026FAB0EE408AF7
:100E4000F0EE608A51EC180BFFF70AFC9C21085168
:100E500094ED280A10EE101A0846FFF7BDFB41EC8E
:100E60001B0BB0EE4B0AF0EE6B0A01F00DFAB0EE80
:100E700040AAF0EE60AA51EC1A0B81F0004141EC5F
:100E8000180B94ED270A10EE101A0846FFF7A4FB82
:100E900041EC190B53EC182BFFF7B2FB1CD294ED6D
:100EA000280A10EE101A0846FFF796FB41EC1A0BC1
:100EB000B0EE4A0AF0EE6A0A01F0E6F9B0EE409AA6
:100EC000F0EE609A51EC190B81F0004141EC180BE7
:100ED000FFF7C6FB9C210851BDEC088B10BD00003C
:100EE000540100200A79072A53D2DFE802F05204A5
:100EF000111E2B384500D0ED071A9FED272A72EE00
:100F0000611A90ED092A71EEC21AC0ED081A41E08B
:100F1000D0ED081A9FED202A72EE611A90ED092A91
:100F200071EEC21AC0ED071A34E0D0ED081A9FED39
:100F30001A2A72EE611A90ED092A71EEC21AC0EDFA
:100F4000071A27E0D0ED071A9FED132A72EE611AF7
:100F500090ED082A71EEC21AC0ED091A1AE0D0ED20
:100F6000071A9FED0D2A72EE611A90ED092A71EEB3
:100F7000C21AC0ED081A0DE0D0ED071A9FED062A3F
:100F800072EE611A90ED082A71EEC21AC0ED091ACC
:100F900000E000BF00BF70470000000010B5022055
:100FA00002F0BCFD48B1022002F024FD00210348FC
:100FB00002F00CFD01200249087010BD080002403B
:100FC000380000207047000070B504460D4600F060
:100FD000BFFA84ED130AD4ED130AB0EE600AFFF7EE
:100FE00023FD84ED150A6748006820806548406845
:100FF000608064488068A0802088E188401A00EE04
:10100000100AB8EEC00ADFED600A80EE201A9FEDEC
:101010005F0A61EE000AB2EE041A80EE810ADFED8B
:101020005C0A80EE201A84ED071A60882189401A34
:1010300000EE100AB8EEC00ADFED530A80EE201A67
:101040009FED520A61EE000AB2EE041A80EE810AA8
:10105000DFED4F0A80EE201A84ED081AA08861891E
:10106000401A00EE100AF8EEC00A9FED471A80EE13
:10107000810ADFED460A60EE200AB2EE041A80EE25
:10108000810ADFED430A80EE201A84ED091AD4EDBF
:10109000091AB0EE611AD4ED081AF0EE610AD4ED27
:1010A000071AB0EE610A29463A480068FFF71AFFAE
:1010B00094ED081AB1EE411AF0EE410A94ED071AC8
:1010C000B1EE411AB0EE410A04F11801081F01F017
:1010D00077FFD4ED151AB0EE611AD4ED061AF0EED2
:1010E000610AD4ED051AB0EE610A04F13C01081D55
:1010F00003F07EFA94ED0F1AF0EE410A94ED101A07
:10110000B0EE410A04F13C02111D2348006800F0D2
:10111000B0F89FED220A84ED0E0A2046FFF720FE6C
:101120002046FFF76FFD1B48006890F8E00001289B
:1011300007D094ED270A84ED0D0A94ED1E0A84ED84
:101140000E0AD4ED151AB0EE611AD4ED0E1AF0EEB7
:10115000610AD4ED0D1AB0EE610A04F11001081F06
:1011600003F042F994ED041AF0EE410A94ED031AEB
:10117000B0EE410A284600F05BFA284604F040F839
:1011800070BD00000812002000008045333353403A
:101190000AD7233C54010020B8010020BD37863512
:1011A00000BFFEE79FED131AF0EE410A9FED121A01
:1011B00020EE811AF3EE041A21EE211AB7EE002A6E
:1011C000C2EE011AB7EE001A31EE811AF7EE001ADC
:1011D00081EE812AB0EE420A80ED000A9FED071AE7
:1011E00080ED011A80ED020A9FED041A80ED031ACA
:1011F0007047000017B75138560EC9400000000074
:101200009FED101AF0EE410A9FED0F1A20EE811AA1
:10121000F3EE041A21EE211AB7EE002AC2EE011AEB
:10122000B7EE001A31EE811AF7EE001A81EE812A2C
:10123000B0EE420A80ED000A9FED041A80ED011A1B
:10124000704700006F12833A560EC940000000003C
:10125000D0ED010A90ED001AD0ED011A70EE611A7E
:1012600041EE210AC0ED010AD0ED010AC1ED000AEC
:10127000704790ED011AD0ED001A90ED012A30EE82
:10128000422A01EE821A80ED011A90ED011A81EDD9
:10129000001A90ED031AD0ED021A90ED032A30EEF9
:1012A000C22A01EE821A80ED031A90ED031A82ED34
:1012B000001A7047F0EE401AF4EEC11AF1EE10FA7F
:1012C00002DBB0EE410A7047F4EEE01AF1EE10FADC
:1012D00002D8B0EE600AF6E7B0EE610AF3E700BFAD
:1012E000FEE7000010B52DED0A8BB0EE408A9FEDB1
:1012F000370AF0EE408A9FED350AB0EE409A9FED36
:10130000330AF0EE409A9FED310AFFF70FFCB0EE82
:1013100040AAB0EE4A0A02F0B1FCF1EE690A20EEF2
:1013200020CAB0EE4A0A02F047FC08EE00CAF0EE0E
:101330004C8AB0EE4A0A02F03FFC20EE29CAB0EE19
:101340004A0A02F09BFC08EE00CAB0EE4C9A204814
:10135000D0ED000AB0EE001A80EE810A30EE280AC5
:10136000F0EE40AADFED1B0AB0EE680A10EE890A23
:10137000B0EE001AC0EE010A90ED000AB0EE001ABD
:10138000C0EE011A30EEA10AB0EE40BADFED120A4B
:10139000B0EE680A10EE890AB0EE001AC0EE010A3B
:1013A00090ED000AB0EE001AC0EE011A30EEA10A6C
:1013B000F0EE40BAB0EE6B1AF0EE4B0AB0EE6A0AED
:1013C00000F00CF8BDEC0A8B10BD0000000000001E
:1013D000580000202DB2DD3F2DB2DDBF10B52DED40
:1013E000048BB0EE409AB0EE608AF0EE418A32484B
:1013F00090ED001ADFED310AB0EE490AFFF75AFF0F
:10140000B0EE409A2C4890ED001ADFED2C0AB0EEB9
:10141000480AFFF74FFFB0EE408A274890ED001AC8
:10142000DFED260AB0EE680AFFF744FFF0EE408ACF
:10143000214890ED000AC9EE000AF0EE609AB7EE7E
:10144000001ADFED1E0AB0EE690AFFF733FF1C48F1
:1014500080ED000A184890ED000AC8EE000AF0EE90
:10146000609AB7EE001ADFED150AB0EE690AFFF7D1
:1014700021FF144880ED000A0F4890ED000AC8EEE5
:10148000800AF0EE609AB7EE001ADFED0C0AB0EEBB
:10149000690AFFF70FFF0C4880ED000A90ED001A73
:1014A0000848D0ED000A064890ED000A03F0BAFEA5
:1014B000BDEC048B10BD00005800002000000000AF
:1014C000580100205C010020600100202DE9F0415E
:1014D0002DED028B04462189606802F0FBFE204658
:1014E00000F03EF80546204600F03AF80646204651
:1014F00000F036F807462189606802F0EDFE280406
:1015000040EA06203843801208EE100AB8EE480A76
:10151000DFED0C0A20EE200ADFED0B0A80EE201A28
:10152000F0EE418A9FED090A28EE800ADFED050AF8
:1015300080EE201A84ED031A94ED030ABDEC028BB1
:10154000BDE8F0810000B44300008046D00FC940E0
:1015500010B50248FFF7BAFF10BD00004800002098
:1015600070B50446002506E0681C80B205460A28CE
:1015700001DD002070BD0221206803F09DFE0028DF
:10158000F2D00021206803F095FE002506E0681CDB
:1015900080B205460A2801DD0020EBE70121206822
:1015A00003F08AFE0028F2D0206803F07FFEC0B26C
:1015B000E0E77047F0B503460C4603F00701C1F1C0
:1015C0000700042801D9042001E0C1F10700064604
:1015D000081D072801D2002000E0C81E0546012092
:1015E000B040401E2040A8400127AF407F1E17405A
:1015F0003843F0BD10B52DED028BF0EE408ADFEDE3
:101600000B0AB0EE680A00F049FEB0EE408AB5EE73
:10161000C08AF1EE10FA04DBB0EE480ABDEC028B92
:1016200010BD9FED020A38EE000AF7E7D00FC9405F
:1016300090ED001ADFEDFE1A21EE211AFD49D1EDE1
:10164000001A81EE212A80ED112A90ED111A21EE67
:10165000201A80ED051A9FEDF81A20EE011AF6EE19
:10166000001A01EEE01AD0ED111A21EE211A80EDD8
:10167000061A9FEDF21A20EE011AF6EE001A01EE9C
:10168000E01AD0ED111A21EE211A80ED071A90ED23
:10169000051AB5EEC01AF1EE10FA01DD012100E0E5
:1016A000002190ED061AB5EEC01AF1EE10FA01DD38
:1016B000012200E0002201EB420190ED071AB5EE95
:1016C000C01AF1EE10FA01DD012200E0002201EB68
:1016D00082010171017907297DD2DFE801F07C5E8A
:1016E000FC04FBBEFA0090ED061A80ED0B1A90ED9B
:1016F000051A80ED0D1A90ED0B1AD0ED0D1A31EE92
:10170000211A80ED0F1A90ED0F1AD0ED001AB4EEE9
:10171000E11AF1EE10FA17DD90ED001AD0ED0F1A74
:1017200081EE212A80ED102A90ED0B1AD0ED101ACF
:1017300021EE211A80ED0B1A90ED0D1AD0ED101A42
:1017400021EE211A80ED0D1A90ED001AD0ED0B1A42
:1017500031EE611AD0ED0D1A31EE611AF0EE001A79
:1017600081EE212A80ED0E2A90ED0B1AD0ED0D1A94
:1017700031EE211AD0ED0E1A31EE211A80ED021A47
:1017800090ED0D1AD0ED0E1A31EE211A80ED031AEC
:1017900090ED0E1A80ED041ADEE190ED061AB1EE1E
:1017A000411A80ED091A90ED071AB1EE411A80ED49
:1017B0000D1A90ED091AD0ED0D1A31EE211A80EDB7
:1017C0000F1A90ED0F1AD0ED001AB4EEE11AF1EEF7
:1017D00010FA19DD00E0BEE190ED001AD0ED0F1A0D
:1017E00081EE212A80ED102A90ED091AD0ED101A11
:1017F00021EE211A80ED091A90ED0D1AD0ED101A84
:1018000021EE211A80ED0D1A90ED001AD0ED091A83
:1018100031EE611AD0ED0D1A31EE611AF0EE001AB8
:1018200081EE212A80ED0E2A90ED0D1AD0ED0E1AD0
:1018300031EE211A80ED021A90ED091AD0ED0D1A41
:1018400031EE211AD0ED0E1A31EE211A80ED031A75
:1018500090ED0E1A80ED041A7EE190ED051A80EDF0
:10186000091A90ED071A80ED0A1A90ED091AD0EDC9
:101870000A1A31EE211A80ED0F1A90ED0F1AD0EDF1
:10188000001AB4EEE11AF1EE10FA17DD90ED001A2D
:10189000D0ED0F1A81EE212A80ED102A90ED091A61
:1018A000D0ED101A21EE211A80ED091A90ED0A1AD6
:1018B000D0ED101A21EE211A80ED0A1A90ED001ACF
:1018C000D0ED091A31EE611AD0ED0A1A31EE611A23
:1018D00002E07EE01FE0E0E0F0EE001A81EE212A57
:1018E00080ED0E2A90ED0E1A80ED021A90ED091A85
:1018F000D0ED0A1A31EE211AD0ED0E1A31EE211A6E
:1019000080ED031A90ED0A1AD0ED0E1A31EE211A6D
:1019100080ED041A20E190ED051AB1EE411A80ED38
:10192000081A90ED061AB1EE411A80ED0A1A90EDF0
:10193000081AD0ED0A1A31EE211A80ED0F1A90ED37
:101940000F1AD0ED001AB4EEE11AF1EE10FA17DD1D
:1019500090ED001AD0ED0F1A81EE212A80ED102AA9
:1019600090ED081AD0ED101A21EE211A80ED081A18
:1019700090ED0A1AD0ED101A21EE211A80ED0A1A04
:1019800090ED001AD0ED081A31EE611AD0ED0A1A66
:1019900031EE611AF0EE001A81EE212A80ED0E2A56
:1019A00090ED0E1A80ED021A90ED0A1AD0ED0E1A83
:1019B00031EE211A80ED031A90ED081AD0ED0A1AC3
:1019C00031EE211AD0ED0E1A31EE211A80ED041AF3
:1019D000C2E090ED071A80ED081A90ED061A80ED2E
:1019E0000C1A90ED081AD0ED0C1A31EE211A80ED88
:1019F0000F1A90ED0F1AD0ED001AB4EEE11AF1EEC5
:101A000010FA21DD90ED001AD0ED0F1A81EE212A97
:101A100080ED102A90ED081AD0ED101A21EE211A4F
:101A200080ED081A90ED0C1AD0ED101A08E00000B5
:101A30002DB2DD3F58000020D0B35D3FD0B35DBF75
:101A400021EE211A80ED0C1A90ED001AD0ED081A43
:101A500031EE611AD0ED0C1A31EE611AF0EE001A77
:101A600081EE212A80ED0E2A90ED0C1AD0ED0E1A8F
:101A700031EE211A80ED021A90ED0E1A80ED031A54
:101A800090ED081AD0ED0C1A31EE211AD0ED0E1A95
:101A900031EE211A80ED041A5EE090ED071AB1EEE6
:101AA000411A80ED0B1A90ED051AB1EE411A80ED46
:101AB0000C1A90ED0B1AD0ED0C1A31EE211A80EDB4
:101AC0000F1A90ED0F1AD0ED001AB4EEE11AF1EEF4
:101AD00010FA17DD90ED001AD0ED0F1A81EE212AD1
:101AE00080ED102A90ED0B1AD0ED101A21EE211A7C
:101AF00080ED0B1A90ED0C1AD0ED101A21EE211A80
:101B000080ED0C1A90ED001AD0ED0B1A31EE611A2F
:101B1000D0ED0C1A31EE611AF0EE001A81EE212A96
:101B200080ED0E2A90ED0B1AD0ED0C1A31EE211A31
:101B3000D0ED0E1A31EE211A80ED021A90ED0E1A38
:101B400080ED031A90ED0C1AD0ED0E1A31EE211A29
:101B500080ED041A00E000BF00BF704710B52DED06
:101B60000A8B84B00446B0EE408AF0EE608AB0EE94
:101B7000419AF0EE619A84ED178AC4ED188A84EDDB
:101B8000199AC4ED1F9A84ED208AC4ED218A84ED50
:101B9000229AC4ED289A19EE100AFEF71DFD41ECB9
:101BA0001A0B18EE900AFEF717FD41EC1B0B18EE0E
:101BB000100AFEF711FD41EC1C0B8DED02AB8DED13
:101BC00000BB53EC1C2B03A000F032FB04B0BDECB7
:101BD0000A8B10BD736574206B7020697320256CAF
:101BE000662C206B6920697320256C662C206B6441
:101BF00020697320256C660D0A00000010B52DEDDC
:101C0000068B82B00446B0EE408AF0EE608A84ED26
:101C10002A8AC4ED298A18EE900AFEF7DDFC41EC11
:101C2000190B18EE100AFEF7D7FC41EC1A0B8DEDDC
:101C3000009B53EC1A2B03A000F0FAFA02B0BDECA3
:101C4000068B10BD736574207461725F69642069CE
:101C50007320256C662C207461725F697120697332
:101C600020256C660D0A000080ED2F0AC0ED300AB9
:101C700080ED311AC0ED371A704780ED2E0A70479B
:101C800010B52DED088B044694ED2C0A84ED320A34
:101C900094ED2E0A84ED330A94ED330AD4ED320A22
:101CA00030EE600A84ED340A94ED340AD4ED350A3E
:101CB00030EE600AD4ED300A20EE200AD4ED2F0A6F
:101CC00094ED341A00EE810AD4ED360A30EE200A83
:101CD00084ED360A94ED340A84ED350A94ED370A22
:101CE00010EE101A0846FEF777FC41EC1A0BB0EE26
:101CF0004A0AF0EE6A0A00F0C7FAB0EE408AF0EE47
:101D0000608A94ED360A10EE101A0846FEF764FC5D
:101D100041EC190B53EC182BFEF78AFC18D294ED0A
:101D2000370A10EE101A0846FEF756FC41EC190B64
:101D3000B0EE490AF0EE690A00F0A6FAB0EE408A69
:101D4000F0EE608A51EC180BFEF78AFCD82108519E
:101D500094ED370A10EE101A0846FEF73DFC41ECF0
:101D60001B0BB0EE4B0AF0EE6B0A00F08DFAB0EEF2
:101D700040AAF0EE60AA51EC1A0B81F0004141EC50
:101D8000180B94ED360A10EE101A0846FEF724FCE4
:101D900041EC190B53EC182BFEF732FC1CD294EDDE
:101DA000370A10EE101A0846FEF716FC41EC1A0B23
:101DB000B0EE4A0AF0EE6A0A00F066FAB0EE409A17
:101DC000F0EE609A51EC190B81F0004141EC180BD8
:101DD000FEF746FCD8210851BDEC088B10BD10B5AC
:101DE00005F0EEF9012801D004F002FE10BD00005C
:101DF0001848006840F470001649086016480068EA
:101E000020F00100401C1449086000BF124800681F
:101E1000C0F340000028F9D00F48406820F00300CC
:101E20000D49486000BF0C484068C0F3810000289D
:101E3000F9D10948006809490840074908600020AD
:101E4000486008634FF41F008860C8030149803967
:101E50000860704788ED00E000100240FFFFF2FECE
:101E600010B580480078012819D17F48006890EDAE
:101E70000A0A7E4880ED000A7B48006890ED0B0A54
:101E80007A4880ED010A7848006890ED0C0A77489E
:101E900080ED020A03220146082000F077F9744819
:101EA0000078012828D17348006873490988401ACE
:101EB00000EE100AB8EEC00A6C4880ED000A6D48CA
:101EC00040686D494988401A00EE100AB8EEC00A11
:101ED000664880ED010A6748806867498988401A2A
:101EE00000EE100AB8EEC00A604880ED020A032234
:101EF00001460B2000F04AF960480078012819D10A
:101F00005F48006890ED020A584880ED000A5C487E
:101F1000006890ED030A554880ED010A58480068B2
:101F200090ED040A514880ED020A032201460E207A
:101F300000F02CF953480078012819D14A4800686C
:101F400090ED070A494880ED000A4748006890ED87
:101F5000080A464880ED010A4348006890ED090AE6
:101F6000424880ED020A03220146102000F00EF9DB
:101F700045480078012812D13B48006890ED030ADB
:101F80003A4880ED000A3848006890ED040A374866
:101F900080ED010A02220146122000F0F7F83B48CA
:101FA0000078012812D13048006890ED050A2F48CA
:101FB00080ED000A2C48006890ED060A2B4880ED61
:101FC000010A02220146142000F0E0F830480078AF
:101FD000012812D12448006890ED0F0A234880EDB3
:101FE000000A2148006890ED100A204880ED010A9F
:101FF00002220146162000F0C9F826480078012880
:102000000BD11948006890ED130A184880ED000ABA
:1020100001220146022000F0B9F81F48007801288B
:102020000BD11148006890ED2C0A104880ED000A91
:1020300001220146282000F0A9F81848007801285C
:102040000BD10948006890ED360A084880ED000A77
:1020500001220146312000F099F80121880703F0A0
:1020600090FA10BD1100002054010020440200200D
:102070001200002008120020600000201300002041
:10208000B0010020140000201500002016000020E0
:102090001700002010000020190000201A00002066
:1020A00010B52021084803F06EFC58B1064803F033
:1020B000B9FBC4B2204600F009F82021024803F021
:1020C000C3FB00BF10BD0000004800402A4909784A
:1020D00081B9A5280ED10021284A117011460A782D
:1020E0000978491C254B1970254988540121224A39
:1020F00011703FE02049097801293BD11F490A7836
:102100000978491C1D4B19701D49885419460978D6
:10211000082926D11A49C979492922D1002200214A
:1021200004E0174B5B5C1344DAB2491C0629F8DB68
:1021300013498979914205D00021104B19700E4B3B
:10214000197070470E4949780E4B19700E490C4BA7
:10215000D3F802300B600021084B1970064B197040
:1021600000BF06490978082904DB0021034A1170E1
:10217000014A117000BFE4E7420000204100002046
:102180003900002043000020440000202DE9F047E2
:1021900005460E4617460024B8064FEA1068A146C9
:1021A000B246A5222146641C1D4842542146641CA7
:1021B00045542146641C00F80180002008E01AF80C
:1021C00000302146621CD4B2154A5354411CC8B297
:1021D0004045F4DB002006E01149095C494401F068
:1021E000FF09411CC8B2A042F6DB2046611CCCB2FC
:1021F0000B4901F8009049222046611CCCB20849E5
:102200000A5408480078012807D12146064801F001
:10221000E2FB0121044801F0D9FBBDE8F087000092
:10222000D0110020380000200800024000BFFEE767
:102230000FB4054B10B503A9044A029800F066F9E3
:1022400010BC5DF814FB0000E54000083C020020D3
:1022500002480068C0F30220704700000CED00E067
:1022600010B5002804DB0A07130E054A135406E0D4
:102270000A07140E034A00F00F031B1FD45410BDAD
:1022800000E400E018ED00E02DED020B019820F0D5
:10229000004001909DED000B02B0704710B52DED90
:1022A000028BF0EE408A18EE900AB0EE608A20F0C1
:1022B0000040C0F1FF40C00F07D118EE100A20F017
:1022C0000040C0F1FF40C00F2BD018EE101A18EEDE
:1022D000900AFEF780FA00EE100A10EE100A6FEA7C
:1022E000D05010F0FF0F04BFBDEC028B10BD18EEF4
:1022F000900A00F0004110EE100A00F00040814208
:1023000004BFBDEC028B10BD18EE101A10EE100ABF
:10231000BDEC028B61F31E0000EE900A30EE600A05
:1023200010BD18EE900A4FF07F41B1EB400F1CBF7B
:1023300018EE100A5FEA4000C7D1012000F01EF835
:10234000BDEC028BBDE81040AFF30080DFED020A68
:1023500080EEA00A704700000000000002E008C8FC
:10236000121F08C1002AFAD170477047002001E00F
:1023700001C1121F002AFBD170470000014908600B
:1023800070470000400200202DE9FF5F82B000216D
:10239000DDE90430020DDDF840B0034318D044F607
:1023A0001050A2F2FF3242431514119801281FD099
:1023B000A5EB0B00401C5FEA000A4FF000064E4FF1
:1023C000DFF83891B046504615D5CAF1000413E045
:1023D000119801244AA3012801D16FEA0B01029848
:1023E000119AC0E90031C0E9024206B0BDE8F09F91
:1023F000CBF10000DFE704460021404A491842EBD8
:102400000450CDE9001012E0E00707D032463B4609
:1024100040464946FDF7FFFF8046894632463B4627
:1024200010461946FDF7F7FF06460F466410002CCC
:10243000EAD1DDE90401DDE90023BAF1000F06DA93
:10244000FDF7E9FF42464B46FDF7E5FF05E0FEF7E5
:1024500054F842464B46FEF750F804460E4600221A
:10246000284BFEF7E5F803D84FF0FF30014607E0B0
:102470000022254B20463146FDF726FFFEF731FAB4
:10248000102409E0002C0ADB0A220023FEF71AF9C7
:10249000039B30321A55641E50EA0102F2D1641CCB
:1024A000039AC4F111031444119A012A03D00122A2
:1024B00008430DD10AE0084304D000204FF0110B6F
:1024C000119072E7A3EB0B056D1E0DE05B4504DD7B
:1024D0004FF0000205F1010504E003DA4FF00002BD
:1024E000A5F10105002AECD002981199C0E902314A
:1024F000C0E9004579E70000000014400000F03F0B
:10250000300000000000F0430000E03F2DE9FF4FE5
:1025100095B09A46884606460025EEE1252877D1F3
:1025200000242746F94A0121039400E0044316F8E9
:10253000013F203B01FA03F01042F7D130782A28FE
:1025400011D06FF02F033078A0F13002092A16D88D
:10255000039A44F0020402EB820203EB42021044AD
:10256000761C0390EFE758F8042B0392002A03DA55
:10257000504244F40054039044F00204761C307836
:102580002E2816D116F8010F44F004042A280DD085
:102590006FF02F023078A0F13003092B09D807EB38
:1025A000870302EB4303C718761CF3E758F8047B54
:1025B000761C30786C280FD006DC4C2817D06828A1
:1025C0000DD06A2814D104E0742810D07A280FD1D5
:1025D0000DE044F400140AE044F4801401E044F4F3
:1025E00040147278824202D104F58014761C761C65
:1025F000307866280BD013DC582877D009DC002807
:1026000075D04528F6D04628F4D047281AD193E152
:1026100018E0632835D0642879D0652812D18BE181
:10262000702873D008DC6728F1D069286FD06E2835
:102630000DD06F2806D1ACE073282CD0752874D04B
:10264000782853D05246179990476D1C54E1C4F333
:102650000250022809D003280DD0D8F80010042811
:102660000DD00D6008F1040846E1D8F80010EA1713
:10267000C1E90052F6E7D8F800100D80F2E70D70BE
:10268000F0E718F8041B8DF8001000208DF8010009
:10269000EB46012003E058F804BB4FF0FF30610720
:1026A0004FF0000102D40DE009F101018946B94261
:1026B0000FDA8145F8DB1BF809100029F4D108E096
:1026C00009F1010189468142FADB1BF80910002952
:1026D000F6D103985346A0EB090721463846179ACE
:1026E00000F080FA284400EB090507E044E008E127
:1026F0000DE01BF8010B524617999047B9F10109FB
:10270000F7D2534621463846179AF2E039E00A21BB
:10271000C4F302524FF0000B0091022A06D058F881
:10272000040BC117032A09D00AE023E008F10700CF
:1027300020F00702F2E80201904605E000B2C1175E
:10274000042A01D140B2C117002906DA0A46002145
:10275000404261EB02012D2202E0220504D52B222A
:102760008DF80420012203E0E20701D02022F7E7E0
:10277000914657E00A2100E010214FF0000B009134
:102780000BE010214FF0000B44F0040408270091E7
:1027900003E008204FF0000B0090C4F30252022A1D
:1027A00005D058F8040B0021032A08D008E008F1EE
:1027B000070020F00702F2E80201904603E080B231
:1027C000042A00D1C0B24FF0000922072AD532787E
:1027D000702A07D0DDF800C08CF0100C5CEA0B0CFE
:1027E00005D00EE040228DF80420012208E050EAD6
:1027F000010306D030238DF804308DF80520022225
:102800009146009B83F0080353EA0B030AD150EA78
:10281000010201D1620705D530228DF804204FF066
:1028200001097F1E3278582A04D039A20C920CAAD2
:1028300002920BE03BA2F9E75B46009AFDF742FFEC
:102840000C9B9B5C029A521E0292137050EA01028A
:10285000F2D1029804A9081A00F1200B600702D5F2
:1028600024F4803400E001275F4502DDA7EB0B0074
:1028700000E0002000EB0B01009003984944401A4F
:102880000390E00306D453462146179A039800F0BC
:10289000A9F90544002706E001A85246C05D179932
:1028A00090476D1C7F1C4F45F6DBE0030CD553466B
:1028B0002146179A039800F095F9054404E030206A
:1028C0005246179990476D1C0099481E00900029A8
:1028D000F5DC08E00298029952460078491C029102
:1028E000179990476D1CBBF10001ABF1010BF1DCB6
:1028F0005BE100F065F90544761C307800287FF430
:102900000DAE19B02846BDE8F08F0000092801007F
:102910003031323334353637383961626364656655
:102920000000000030313233343536373839414217
:102930004344454600000000600700D4062708F124
:10294000070020F00700F0E80223804603F0004C67
:102950005FEA0C0001D097A009E0200501D596A000
:1029600005E0E00701D095A001E0AFF24C00139024
:10297000307823F0004365280CD006DC452809D0C8
:1029800046281DD047287FD13BE0662818D067280D
:102990007AD136E00021112F01DB112000E0781CF4
:1029A000CDE9000104A90CA8FFF7EEFCDDE90D015B
:1029B0000C9A4FF0000B07F10109109200914EE0C4
:1029C0004FF000400097CDE9011004A90CA8FFF7D3
:1029D000DBFCDDE90D020C9B0F994FF0000B9146DB
:1029E0001093009211B9791C00EB0109B7EB0900B3
:1029F00003D4C0F1FF3B07F10109A9EB07000190E7
:102A000042E0012F00DA01270021112F01DD112002
:102A100000E03846CDE9000104A90CA8FFF7B4FC9A
:102A2000DDE90D010C9A00914FF0000BB9461092B0
:102A300021070FD4009A4A4503DA914601E0A9F133
:102A40000109B9F1010F05DD109AA9F10101515CED
:102A50003029F4D0B84202DA10F1040F03DA012170
:102A6000CDE9011010E0002803DC8344A9EB00014C
:102A700002E0411C494500DD8946A0EB0B00401CEB
:102A800001904FF000400290200705D4019848457E
:102A900002DB4FF0FF30019000208DF84B000298D0
:102AA0000DF14B07B0F1004F25D002200C902B20E8
:102AB0000D90029800280CDA404202902D200D90D3
:102AC00007E00A210298FDF7E7FD3031029007F890
:102AD000011D0C99481E0C900029F2DC0298002878
:102AE000EFD1791E0D980870307800F0200040F08A
:102AF000450007F8020D11A8C01BC01D02901398D5
:102B0000007800B1012000EB0901019801EBE071B0
:102B1000029801440398401A401E0390E00306D433
:102B200053462146179A039800F05CF80544139821
:102B3000007818B15246179990476D1CE00323D5D1
:102B400053462146179A039800F04CF805441BE0C1
:102B5000BBF1000F07DB0098584504DD109817996A
:102B600010F80B0001E01799302052469047019869
:102B70000BF1010B401E05F10105019004D12E203F
:102B80005246179990476D1CB9F10001A9F101094E
:102B9000DEDC05E017F8010B5246179990476D1CD3
:102BA0000299481E02900029F4DC53462146179AE8
:102BB00003989EE62D0000002B000000200000007E
:102BC0002DE9F041044600251E461746880404D42A
:102BD00005E039462020B0476D1C641EF9D5284613
:102BE000BDE8F0812DE9F041044600251E469046DF
:102BF000C80301D5302700E02027880404D505E06C
:102C000041463846B0476D1C641EF9D52846BDE8DC
:102C1000F0810B78426863F3082242604B78826847
:102C200063F3410282608B78826863F3CB22826017
:102C3000CA78521EC36A62F31753C36270470021F9
:102C40000170417081700121C1707047816821F06D
:102C5000080108318160704701468868C0F3C000F0
:102C600008B1012070470020FCE7816821F00401D1
:102C7000091D8160704701468868C0F3800008B173
:102C8000012070470020FCE70349096860F3134105
:102C9000014A11607047000004240140826861F31A
:102CA000000282607047CA430260704702460020FB
:102CB00013680B4003B900E001207047012A03D1DB
:102CC00043680B43436003E012B943688B4343609E
:102CD000704702460020012904D002290CD00429A3
:102CE0001ED113E0136803F0010323B15368C3F34B
:102CF000801303B1012014E01368C3F3400323B130
:102D00005368C3F3401303B101200AE01368C3F30F
:102D1000800323B15368C3F3C01303B1012000E063
:102D200000BF00BF704770B504460A290CDA20695D
:102D300001EB41060725B540A84301EB410503FA25
:102D400005F5284320610FE0E068A1F10A0505EBD5
:102D500045060725B540A843A1F10A0505EB450541
:102D600003FA05F52843E0600D2A10DBE06AA2F1C2
:102D70000D0505EB85061F25B540A843A2F10D05FD
:102D800005EB850501FA05F52843E0621EE0072AF8
:102D90000EDB206BD51F05EB85061F25B540A8432C
:102DA000D51F05EB850501FA05F5284320630DE0E5
:102DB000606B551E05EB85061F25B540A843551EC3
:102DC00005EB850501FA05F52843606370BD0146F2
:102DD000C86C80B2704707290ADD836823F000734E
:102DE00003F100738360836861F35343836007E0FA
:102DF000836823F000738360836861F353438360C7
:102E0000836862F3145383607047426861F3CB2296
:102E100042607047826861F39652826070474A1E32
:102E2000836B62F3155383637047F0B514460A2928
:102E30000CDA026901EB41070726BE40B24301EB01
:102E4000410603FA06F6324302610FE0C268A1F1BF
:102E50000A0606EB46070726BE40B243A1F10A0662
:102E600006EB460603FA06F63243C260866BC6F3EB
:102E70000157E61CF61BF5B2012D06D0022D09D034
:102E8000032D0CD0042D14D10EE0866B61F30406E3
:102E900086630FE0866B61F3491686630AE0866BF2
:102EA00061F38E26866305E0866B61F3D336866315
:102EB00000E000BF00BFF0BD0246002031B1012993
:102EC00007D0022908D003290CD108E0D36B98B2AF
:102ED00009E0136C98B206E0536C98B203E0936C6F
:102EE00098B200E000BF00BF704707290ADD836881
:102EF00023F0807303F180738360836861F30E3382
:102F0000836007E0836823F080738360836861F3E4
:102F10000E338360836862F3CF338360704731B1CF
:102F2000012909D002290CD0032914D10EE04369EC
:102F300062F30B0343610FE0836962F30B03836168
:102F40000AE0C36962F30B03C36105E0036A62F33D
:102F50000B03036200E000BF00BF704710B50446DA
:102F60001348844208D10121124800F07DFC002161
:102F7000104800F079FC1AE00F4884420AD1012180
:102F80000C48401C00F070FC00210A48401C00F076
:102F90006BFC0CE00948844209D101210548801DE1
:102FA00000F062FC00210348801D00F05DFC10BDB4
:102FB0000024014009000C0000280140003C0140B1
:102FC00080ED000AF0EE001AB0EE401A01EEA01AF1
:102FD000DFED031A21EE211A81ED001A704700007F
:102FE00056CE133F8AB0642002F0DEFEF74801F0AF
:102FF00025F8F6484068F64909684864F348C0680F
:10300000F34909688864F14890ED000AF0480068C7
:1030100080ED160A01F0CAF8EE480068FEF7C2F823
:10302000ED480068FEF7ECF8DFEDEC0A9FEDEB0AE7
:10303000E7480068FEF7E2FD9FEDE80AE448006813
:10304000FEF71BFEF2EE081A9FEDE41AF6EE000AF8
:103050009FEDE30ADE480068FEF780FDF2EE081AF5
:103060009FEDDE1ADFEDDF0A9FEDDF0AD84800682A
:10307000FEF7FAFD242101A8FDF71BF91023DB4A16
:10308000DBA1DD4801F0DFF963E2DC48007870B1D4
:10309000D94801F0D5F950B90121D74801F0DAF942
:1030A000322002F081FE0021D34801F0D3F9D34849
:1030B000007836287DD2DFE800F07C1B7D848A987A
:1030C000A67CCDF4FAF1F0EFEEEDECEBEAE9E8E7FF
:1030D000E6E5E4E37C7C7C7C7C7CE2E1E0DF7CDE9A
:1030E000DDDCDBDA7C7C7C7C7C7CD9D8D7D6D5D483
:1030F000B64800F0A3FFB5484068B5490968486480
:10310000B248C068B24909688864B04890ED000AC6
:10311000AF48006880ED160AAC4890ED040AB8EE9E
:10312000C00AAB48006880ED2D0AA948006890ED00
:10313000110AB8EEC00A8DED010AA548006890EDAD
:10314000120AB8EEC00A8DED020AA148006890ED9F
:10315000160A8DED030A9E48006890ED200A8DED59
:10316000040A9B48006890ED210A8DED050A01F0E4
:103170006DF88DED060A9648006890ED2D0A8DEDEC
:10318000070A9348006890ED2F0A8DED080A9048D1
:10319000006890ED300A8DED090A092201A901208D
:1031A000FEF7F4FF0120964908700020934908704B
:1031B000CBE1C9E101209349087000208F490870D4
:1031C000C3E100208F4908708C490870BDE18E482A
:1031D00090ED000ABDEEC00A8C4880ED010A00F0B7
:1031E0004FFF002085490870AFE1874890ED000A45
:1031F000BDEEC00A854880ED030A00F041FF0020C3
:103200007E490870A1E101217B4801F023F9804942
:103210008048FDF729FC7F4890ED000A8DED010AFA
:103220007B4890ED000A8DED020A7A4890ED000A85
:10323000764880ED000A00F023FF022201A9072052
:10324000FEF7A4FF00216C4801F004F900206B494F
:1032500008707AE101207049087000206749087001
:1032600073E166E15AE14EE147E13FE130E129E1F6
:1032700021E10EE1FBE0EFE0E5E0DBE09CE092E045
:1032800086E07AE073E06BE064E05CE055E04DE0FE
:1032900046E03EE037E02FE021E01AE012E006E0F1
:1032A000FFE700205C490870544908704DE156481A
:1032B00090ED000A4648006880ED0D0A00204F4955
:1032C000087042E101205549087000204B49087000
:1032D0003BE10020514908704849087035E100F091
:1032E000B5FF8DED010A012201A90D20FEF74EFF69
:1032F00000204249087028E1012049490870002057
:103300003E49087021E10020454908703B4908709A
:103310001BE101204349087000203849087014E17E
:10332000002040490870354908700EE101203E49EF
:10333000087000203149087007E100203A49087000
:103340002E49087001E101203849087000202B49FE
:103350000870FAE000203549087028490870F4E048
:10336000012033490870002024490870EDE0002056
:103370002F49087021490870E7E0234890ED000AC2
:103380001348006880ED290A00201C490870DCE021
:103390001D4890ED000A0E48006880ED2A0A0020C2
:1033A00016490870D1E001200949096881F8E00058
:1033B000002012490870C8E002200549096881F818
:1033C000E00000200D490870BFE00000E01100207F
:1033D00054010020B8010020C401002000000000BA
:1033E0004260653B0AD7A33D6F12033B000C0140CE
:1033F0004C454431000000005002002043000020F2
:10340000180000201000002044000020F4110020CB
:103410000C000020080000201100002012000020F5
:1034200013000020140000201500002016000020CA
:103430001700002003204749096881F8E0000020B8
:103440004549087081E004204249096881F8E0009C
:1034500000204149087078E0404890ED000A3D485E
:10346000006880ED0E0A00203B4908706DE03B4883
:1034700090ED000A3748006880ED200A374890ED4B
:10348000000A3448006880ED170A002032490870AD
:103490005BE0324890ED000A2E48006880ED210A7A
:1034A0002E4890ED000A2B48006880ED180A002095
:1034B0002949087049E0012029490870002026495F
:1034C000087042E0002026490870234908703CE05B
:1034D000224890ED000ABDEEC00A224880ED040AA1
:1034E00000F0CEFD00201C4908702EE001201E498E
:1034F000087000201849087027E000201A49087059
:103500001549087021E0154890ED000A114800683F
:1035100080ED2E0A00201049087016E00F4890ED4B
:10352000000A0C48006880ED2F0A00200A49087044
:103530000BE00A4890ED000A0648006880ED300A6A
:1035400000200549087000E000BF00BF052002F020
:103550002BFC9AE554010020430000204400002089
:1035600019000020F41100201A0000200EB541F2CD
:10357000337206210B4801F0E1FF0020009001901A
:1035800002900EE008489FED090A016808480068AB
:10359000FDF7ECFA06480068FEF772FB022002F025
:1035A00003FCEFE7002C0140C40100206F12033B35
:1035B000540100200649496860F38F31044A516084
:1035C00082080349496862F31C71014A51607047DF
:1035D000001002400349496860F30711014A516035
:1035E00070470000001002400349496860F30A2157
:1035F000014A5160704700000010024003494968C9
:1036000060F3CD21014A5160704700000010024074
:10361000012807D10749496D21F030013031054AB1
:10362000516505E00349496D21F03001014A5165BA
:103630007047000000100240052827D2DFE800F0A4
:10364000030A11181F00134A126861F30002114B9C
:103650001A601CE00F4A126861F310420D4B1A60A9
:1036600015E00C4A126861F318620A4B1A600EE00A
:10367000084A126A61F30002064B1A6207E0054A23
:10368000526A61F30002034B5A6200E000BF00BFC0
:1036900070470000001002402DE9F041014600276C
:1036A0000022002590460023002400F087F90646FA
:1036B00026B1012E12D0022E43D112E03948406DBE
:1036C000C0F3402038B13748006BC0F3406010B100
:1036D0003548086001E03548086035E03348086047
:1036E00032E030484068C0F300482E484068C0F3DC
:1036F00083422C484068C0F341750DB90F2A03D1AD
:103700002801401C024400E0921CB8F1000F03D1D4
:1037100027485043086013E022484068C0F3404007
:1037200058B12048406DC0F30137B81CDFF87CC0A9
:10373000BCFBF0F05043086002E01C4850430860B6
:1037400002E01A48086000BF00BF16484068C0F396
:1037500003131848C45C0868E0404860114840689A
:10376000C0F302231448C45C4868E040C8600D48B8
:103770004068C0F3C2231148C45C4868E0408860D8
:1037800008484068C0F3007306484068C0F38130C1
:1037900040EA83030A48C45C8868B0FBF4F008611F
:1037A000BDE8F08100100240006CDC0200127A00DB
:1037B00000093D006C7600087C76000884760008DD
:1037C0008C76000810B501460020094B03EB11422E
:1037D000126801F01F040123A3401A4001F01F04E6
:1037E0000123A3409A4200D000E0012010BD000058
:1037F0000010024030B50024002500E0641C1120B8
:10380000FFF7E0FF012802D0B4F5405FF6D31120A6
:10381000FFF7D8FF012801D0002500E00125284648
:1038200030BD000010B501290DD10E4B03EB104245
:10383000126800F01F040123A3401A43094C04EB53
:1038400010431A600CE0074B03EB1042126800F0C3
:103850001F040123A3409A43024C04EB10431A6057
:1038600010BD00000010024010B501290DD10E4B13
:1038700003EB1042126800F01F040123A3401A4317
:10388000094C04EB10431A600CE0074B03EB1042A9
:10389000126800F01F040123A3409A43024C04EB7A
:1038A00010431A6010BD00000010024010B568B946
:1038B0001C4B5B6823F480331A4C636023461B6BFC
:1038C00023F0007303F10073236317E0154B5B686B
:1038D00023F4803303F58033124C6360012805D153
:1038E00023465B6823F40033636007E00D4B5B689D
:1038F00023F4003303F500330A4C6360094B5B6823
:1039000061F39543074C63600C09064B5B6864F3F5
:103910005E73044C636023465B6862F3DF7363602D
:1039200010BD0000001002401348006820F00100A4
:10393000401C1149086000BF0F480068C0F34000F8
:103940000028F9D00C48406820F003000A4948607C
:1039500000BF09484068C0F381000028F9D106483B
:103960000068064908400449086000204860086370
:103970004FF41F008860704700100240FFFFF2FE06
:103980000D49496860F301010B4A516000BF00BF57
:1039900000BF00BF00BF00BF00BF00BF00BF00BF2F
:1039A00000BF00BF00BF00BF00BF00BF00BF00BF1F
:1039B00000BF00BF7047000000100240024840688E
:1039C000C0F381007047000000100240026861F3FC
:1039D0000002026070474160704700210160416051
:1039E00001814181017341738173C1730174417419
:1039F00070470000B0F1805F04D920F07041034AA5
:103A0000116001E002494860704700000404024070
:103A100000000240D0F8A430C3F300633BB9D0F8F3
:103A2000A43023F0807303F18073C0F8A43001291F
:103A300006D1D0F8A03062F30703C0F8A03034E01C
:103A4000022906D1D0F8A03062F30F23C0F8A030CD
:103A50002BE0032906D1D0F8A03062F31743C0F859
:103A6000A03022E0042906D1D0F8A03062F31F6311
:103A7000C0F8A03019E0052906D1D0F8A43062F3CF
:103A80000703C0F8A43010E0062906D1D0F8A4300E
:103A900062F30F23C0F8A43007E0072905D1D0F85E
:103AA000A43062F31743C0F8A430704702684BF6A5
:103AB000EF731A40026002680B891A4302604B7C64
:103AC000026863F30D320260CB7B026863F38B22E2
:103AD00002608B7B026863F3092202604B7B026801
:103AE00063F3C71202600B7B026863F38612026005
:103AF0000B7C026863F3451202604A8942600A68DF
:103B000082604A68C26070471AB103680B43036061
:103B100002E003688B430360704700000146002009
:103B20000022B1F1805F02D9054B1A6801E0054B14
:103B30001A6802EA01030BB1012000E0002070477F
:103B400000040240000002400021026822F001024D
:103B500002600022026042608260C260014640F260
:103B6000FF420A40B2F5816F0DD2CAB2083A14235F
:103B7000B2FBF3F293000F229A400D4B5B681A439D
:103B80000B4B5A6012E040F2FF420A40B2F5916FCF
:103B90000CD2CAB2083A1423B2FBF3F293000F22FC
:103BA0009A40044B1B681A43024B1A60704700008E
:103BB0000000024004040240F0EE400A9FED270A94
:103BC00020EE800ABDEEC00A10EE100A00EE100AC8
:103BD000B8EEC01ADFED221AB0EE600A01EE610AFB
:103BE000F0EE400A00F0010179B1F5EEC00AF1EE05
:103BF00010FA04DD9FED1A0A30EEC00A03E09FEDD3
:103C0000180A30EE800AF0EE400A20EEA00ADFED3E
:103C1000151AB0EE611ADFED141A41EE001AB0EE7B
:103C2000611ADFED121A41EE001AB0EE611ADFEDF3
:103C3000101A41EE001AB0EE611ADFED0E1A41EED5
:103C4000001AB0EE611ADFED0C1A41EE001A20EEF8
:103C5000A01AB7EE000A01EE210A704783F9A23ECE
:103C6000DA0F4940F2A3ED30017591B4B3CCCF37F0
:103C70001408B6BA83AA2A3DFDFFFFBEF0EE400A43
:103C80009FED280A20EE800ABDEEC00A10EE100A51
:103C900000EE100AB8EEC01ADFED231AB0EE600A8B
:103CA00001EE610AF0EE400A00F0010179B1F5EE93
:103CB000C00AF1EE10FA04DD9FED1B0A30EEC00AD7
:103CC00003E09FED190A30EE800AF0EE400A20EE84
:103CD000A00ADFED161AB0EE611ADFED151A41EEFB
:103CE000001AB0EE611ADFED131A41EE001AB0EEC1
:103CF000611ADFED111A41EE001AB0EE611ADFED24
:103D00000F1A41EE001AB0EE611ADFED0D1A41EE06
:103D1000001A20EEA00A20EE201AB0EE600A01EE92
:103D2000210A704783F9A23EDA0F49407ABF142F67
:103D3000CA32D4B235C538369E0A50B97888083CA4
:103D4000AAAA2ABE03200B49C96801F0010109B1E2
:103D500000200EE00749C968C1F3800109B10120C4
:103D600007E00449C968C1F3001109B1022000E06D
:103D7000032070470020024000B502460323FFF7EE
:103D8000E1FF034603E0FFF7DDFF0346521E0BB9D8
:103D9000002AF8D102B90423184600BD03200B49BC
:103DA000C96C01F0010109B100200EE00749C96C9E
:103DB000C1F3800109B1012007E00449C96CC1F3D6
:103DC000001109B1022000E00320704700200240EA
:103DD00000B502460323FFF7E1FF034603E0FFF7C8
:103DE000DDFF0346521E0BB9002AF8D102B90423A5
:103DF000184600BD70B504460D460326B4F1006FA9
:103E000016D32848844213D82748006920F00100BF
:103E1000401C2549086125804FF48010FFF7ACFF56
:103E200006462148006920F001001F49086136E07C
:103E30001C48401C844216D3B4F1016F13D21A48B7
:103E4000006D20F00100401C1749086525804FF4E3
:103E50008010FFF7BDFF06461348006D20F00100FB
:103E6000114908651BE0B4F1046F18D30E48903077
:103E7000006820F00100401C0B499031086025804B
:103E80004FF4801000F0B8F806460748D0F89000CC
:103E900020F001000449C1F8900000F087F8304696
:103EA00070BD0000FFFF07080020024006480069BF
:103EB00020F080008030044908610846006D20F041
:103EC00080008030086570470020024030B504460D
:103ED0000325B4F1006F1BD33248844218D832480E
:103EE000006920F00200801C2F49086108464461E7
:103EF000006920F04000403008614804FFF73CFFB3
:103F000005462948006920F002002749086146E07B
:103F10002448401C84421BD3B4F1016F18D22248BC
:103F2000006D20F00200801C1F49086508464465AA
:103F3000006D20F04000403008654804FFF748FF5E
:103F400005461948006D20F002001749086526E073
:103F5000B4F1046F23D314489030006820F00200BD
:103F6000801C1149C1F890000846C0F894400E48E2
:103F70009030006820F0400040300B4990310860DC
:103F80004FF0FF3000F038F805460748D0F89000B1
:103F900020F0020004499031086000F007F828463C
:103FA00030BD0000FFFF0708002002404FF0046012
:103FB0000068024800680248006870470010400826
:103FC0000020400803200B49096801F0010109B1F4
:103FD00000200EE007490968C1F3800109B1012002
:103FE00007E004490968C1F3001109B1022000E0AB
:103FF000032070478C20024000B502460323FFF7E0
:10400000E1FF034603E0FFF7DDFF0346521E0BB955
:10401000002AF8D102B90423184600BD0448054916
:10402000486005484860024848640348486470474F
:104030002301674500200240AB89EFCD30B585B044
:10404000044600BF00BF00200DE00C4A0244B2F855
:104050000018CAB20DF800200B0A421C0DF80230FD
:1040600000BF00BF801C1428EFD300BF00BF142284
:1040700069462046FCF704F905B030BD00F003089E
:1040800070B586B005461422294601A8FCF7F8F859
:10409000FFF7C4FF1248FFF719FF032805D000BF40
:1040A00000BFFFF703FF06B070BD00BF00BF0024D4
:1040B0000EE001A8015D01AA601C105C41EA002627
:1040C000074960183146FFF795FE00BF00BFA41CEA
:1040D000142CEED300BF00BFFFF7E8FE00BFE2E7FD
:1040E00000F8030870B504460D4600BF802109485A
:1040F00001F0B3FB0028F9D0A1B2064801F096FB0D
:1041000000BF4021034801F0A8FB0028F9D0204659
:1041100070BD00000048004010B5032200210120BE
:1041200002F080FC0149086010BD0000240000205E
:104130000EB50F480F4900221346CDE90021029029
:104140004FF480720CA10F4802F0DCFF0E490860AA
:104150000E480F4900221346CDE9002102904FF48A
:1041600080720CA10F4802F0CDFF0F4908600EBD10
:10417000600A002060020020636F6D6D5F746173E0
:104180006B000000E52F00081C000020BC0A002086
:1041900060060020636F6E74726F6C5F7461736B86
:1041A000000000006D3500082000002070B50024DC
:1041B00000250026002009E0134909680C44124933
:1041C00049680D44104989680E44401C1028F3DBEF
:1041D000C4F30F100D490968C880C5F30F100B49CF
:1041E00009680881C6F30F10084909684881074823
:1041F0000068C38805480068C28804480068C18810
:1042000003A0FEF715F870BD08120020540100202D
:10421000766F6C74616765414F66667365743A20AA
:1042200025642C766F6C74616765414F66667365B3
:1042300074203A25642C766F6C74616765414F6613
:1042400066736574203A25640D0A000010B52DEDE3
:10425000028B0423022219461A48FEF764FD02214C
:104260001848FEF720FD01211648FEF7D3FD00BFD8
:1042700002211448FEF71AFD0028F9D00221114846
:10428000FEF711FD0F48FEF7A2FD0F490880084612
:10429000008800EE100AB8EE400A9FED0C1AC0EE3E
:1042A000010A9FED0B0A20EE800AF3EE050A20EECC
:1042B000200AF7EE000A80EE208AB0EE480ABDEC34
:1042C000028B10BD0024014000000020000080454A
:1042D0003333534041617047016170474FF6FF71BE
:1042E0000160002181710171042141710121C171BD
:1042F0007047F0B50A461588ABB29579032D01D108
:1043000000241AE0957965B9557905F00F045579BF
:10431000182D01D1036110E05579282D0DD143618D
:104320000BE0957905F00805167906F0040635438B
:10433000D67906F0030645EA0604DDB2A5B10021F0
:1043400010E001258D401D405DB105688F000F26EE
:10435000BE40B543056005688E0004FA06F6354395
:104360000560491C0829ECD3FF2B15DD1B12002129
:1043700010E001258D401D405DB145688F000F267E
:10438000BE40B543456045688E0004FA06F63543E5
:104390004560491C0829ECD3F0BD0000F0B50C467F
:1043A000104F07EB1062C0F30741C0F30725C6B2F8
:1043B000C5F12007A7EB010C4FF0FF3707FA0CF30C
:1043C000C5F120077F1AFB40CB408B4017689F4305
:1043D00017602CB106FA01FC176847EA0C07176052
:1043E000F0BD00000000014070B52DED048BB0EE73
:1043F000408AF0EE608AB0EE419A04460D46B0EE77
:10440000490AFFF73BFCF1EE480A60EE209AB0EE55
:10441000490AFFF7D1FB48EE809AC4ED009AB0EE4E
:10442000490AFFF7C9FB60EE089AB0EE490AFFF7A8
:1044300025FC48EE809AC5ED009ABDEC048B70BD5A
:104440000146C868704710B501604260836000246F
:10445000C46010BD70B504460D462DB1228991B2DD
:104460006068FFF737FF04E0228991B26068FFF7C8
:1044700033FFE56070BD000001F0E6FF01F04EFF84
:1044800001F064FE01F0D6FE01F0A0FE01F0B8FDDF
:1044900001F064FE1023154A1549164801F086FE06
:1044A00001211448FFF792FA02F0A0F901F06CFF25
:1044B00002F016F802F074F9012280210E48FEF78E
:1044C000FDFB01221146900701F05EF80122022156
:1044D0000848FFF719FB012208490548001F01F0B1
:1044E00037FA01F067FE00BFFEE70000D0110020A0
:1044F00004480040080002400024014005000C0070
:104500002DE9F0470B4614464FF0000C00BF2C4A33
:104510001268C2F302211D4626460A46C2F1070967
:10452000B9F1040F02D94FF0040901E0C2F1070903
:10453000C84602F10409B9F1070F02D24FF0000991
:1045400001E0A2F103094F464FF0010909FA08F909
:10455000A9F1010909EA050909FA07F94FF0010A69
:104560000AFA07FAAAF1010A0AEA060A49EA0A0956
:10457000CC4601466246002904DB15072E0E114D7C
:104580006E5407E015072F0E0D4D0C3501F00F0688
:10459000361FAF5500BF014600290DDB00BF00BF2D
:1045A00001F01F050122AA404D09AD0005F1E025EB
:1045B000C5F8002100BF00BF00BFBDE8F0870000C4
:1045C0000CED00E000E400E000BF00F00702064B45
:1045D00019684FF6FF031940044B0B4343EA0221CD
:1045E000014B196000BF70470CED00E00000FA05B8
:1045F00070B52DED048BB0EE408AF0EE608AB0EE1F
:10460000419A04460D46B0EE490AFFF7D5FA60EE2E
:10461000089AB0EE490AFFF731FB48EE809AC4EDE4
:10462000009AB0EE490AFFF729FBF1EE480A60EE66
:10463000209AB0EE490AFFF7BFFA48EE809AC5ED1E
:10464000009ABDEC048B70BD2DE9F04105460E4685
:104650001648076816480068001D01F01CFA681C1F
:1046600038B936B112480168091D124801F06AFADA
:104670001AE07C190E4800684460BC4207D20C481E
:104680000168091D0C48006801F042FA0CE0084876
:104690000168091D0948006801F03AFA08480068F5
:1046A000844201D206480460BDE8F081DC010020AC
:1046B000C8010020F4130020D0010020CC0100200C
:1046C000F801002010B5044601F048FA24480068BB
:1046D000401C234908602348006840B92148046011
:1046E0000846006801280DD100F0FCF90AE01E48D8
:1046F000006838B91B480068C06AE16A884201D87E
:104700001848046019480068401C184908600846A9
:10471000006860641649E06A0968884202D9144951
:10472000E06A0860E16A01EB8101124A02EB810054
:10473000211D01F007FA01F03BFA0B48006868B14F
:1047400008480068C06AE16A884207D24FF080508A
:1047500009490860BFF34F8FBFF36F8F10BD000092
:10476000D8010020C8010020E4010020F40100204D
:10477000E00100206412002004ED00E008B501F023
:10478000EDF912480068E8B9114801F0B1F9114893
:1047900001F0AEF90E48104908600E480F49086054
:1047A00000200F4B0F4A102100900A2002F08EF9D2
:1047B000064908600846006820B10BA1034800685C
:1047C00001F0B6FA01F0F4F908BD00001002002073
:1047D000081400201C140020080200200C020020F5
:1047E0003014002080140020546D7251000000002D
:1047F00010B516E001F0B2F90C48C068C468201D7D
:1048000001F049F90A480068401E09490860094852
:104810000068401E0749086001F0CAF9204600F010
:104820005FF8044800680028E4D110BDE0130020C0
:10483000D8010020D401002070B504460D46206C3C
:1048400070B1216CE0680144E160D4E90210884253
:1048500001D32168E1602846226CE168FBF710FD76
:1048600070BD2DE9F04104460F4615464FF0000893
:10487000A66B206C48B9206800282CD1A06802F0F3
:1048800057FD80460020A06025E07DB93946226CA6
:104890006068FBF7F5FC216C606808446060D4E94F
:1048A0000101884217D32068606014E03946226C09
:1048B000E068FBF7E5FC216CE068411AE1602168E3
:1048C000E068884203D2216CA068411AE160022DA1
:1048D00001D106B1761E701CA0634046BDE8F08190
:1048E00010B5044694F8590030B9206B01F07EF9F8
:1048F000204601F07BF91AE094F85900012803D111
:10490000204601F073F912E094F85900022801D111
:10491000012000E0002050B900BF502080F3118832
:10492000BFF34F8FBFF36F8F00BF00BFFEE710BD17
:104930000146084A126812680AB9012200E0002202
:104940000A600A6822B9034A1268D268106800E057
:10495000002070470802002030B54FF4205317485C
:1049600000F007042CB1C01D20F00700134C041BFD
:104970001B1B0246124C22600024114D6C60D018A3
:10498000083820F007000F4C206000240D4D2D68E2
:104990006C600C4D2D682C601146441A4C60094C1B
:1049A00024680C60084D4C682C60084D4C682C60E5
:1049B0004FF00044064D2C6030BD00002015002053
:1049C0001C020020240200202C02002028020020CB
:1049D0003802002000BFFFF70BFF064800680128DF
:1049E000F9D94FF0805004490860BFF34F8FBFF3EF
:1049F0006F8FF0E76412002004ED00E02DE9F04134
:104A000006460D4617469846069C0DB9246000E000
:104A10002760E66325640121204602F0C7F884F888
:104A20004C80BDE8F0812DE9F05F82460E4690464D
:104A30009B460A9F0C9C4FEA8801A522206BFBF73E
:104A400031FCA8F10100216B01EB800929F0070975
:104A500009F0070008B9012000E0002050B900BFAC
:104A6000502080F31188BFF34F8FBFF36F8F00BFCB
:104A700000BFFEE786B1002507E0715D04F1340058
:104A80004155705D00B902E06D1C102DF5D300BFDB
:104A900000214320015502E0002084F83400102F4B
:104AA00000D30F27E762E76400202065201D01F096
:104AB0002CF804F1180001F028F82461C7F1100067
:104AC000A06164620020606584F858005A4651462F
:104AD000484600F07FFB20600B9808B10B980460FB
:104AE000BDE8F09F10B5002407E004EB84010F4AF5
:104AF00002EB810000F0FCFF641C102CF5D30C4885
:104B000000F0F6FF0B4800F0F3FF0B4800F0F0FF59
:104B10000A4800F0EDFF0A4800F0EAFF044809499E
:104B2000086004480849086010BD000064120020B5
:104B3000A4130020B8130020CC130020E0130020A1
:104B4000F4130020CC010020D001002010B5014654
:104B5000164800E0006803688B42FBD302464368B6
:104B600013448B4204D143684C682344436001469C
:104B70000A464B6813440468A34211D10C4C0368E5
:104B80002468A34208D04B680468646823444B60DF
:104B900003681B680B6005E0054B1B680B6001E0B8
:104BA00003680B60884200D0016010BD1C02002029
:104BB000240200202DE9F04104460D4616461F460A
:104BC0004FF0000865602461B5420CD8F01BA16964
:104BD000884202D34FF0010811E0211D0948006806
:104BE00000F096FF0BE0BE4204D2BD4202D34FF06C
:104BF000010804E0211D0448006800F089FF4046D8
:104C0000BDE8F0810C0200200802002070B50546C6
:104C100000F0A4FFA86B08B9012400E0002400F014
:104C2000C7FF204670BD70B5054600F097FFA86B22
:104C3000E96B884201D1012400E0002400F0B8FFB4
:104C4000204670BDF8B505460F461A480068C06892
:104C5000C468201D00F01FFF94F8280000F0040035
:104C6000E8B1A06941192B463A462046FFF7A2FF5A
:104C7000D8B1002003462A4601460090204602F0A3
:104C8000B3FC064656B900BF502080F31188BFF32D
:104C90004F8FBFF36F8F00BF00BFFEE705E094F8B2
:104CA000280020F0010084F828002046216A884767
:104CB000F8BD000008020020F0B587B0A0E003981E
:104CC000002811DA04AE56B900BF502080F31188D5
:104CD000BFF34F8FBFF36F8F00BF00BFFEE7D6E972
:104CE0000020B168904700BF03980028E6DB059CD0
:104CF000606908B9012000E0002010B9201D00F013
:104D0000CAFE02A800F0DCF8054603980A2875D20E
:104D1000DFE800F009050739416306083A4200BFA1
:104D200000BF00BF00BF94F8280040F0010084F8E5
:104D300028000498A269811803462A462046FFF7F6
:104D400039FFF8B12046216A884794F8280000F01E
:104D50000400B8B1002000900498A1694218002313
:104D60001946204602F040FC074657B900BF5020C4
:104D700080F31188BFF34F8FBFF36F8F00BF00BF69
:104D8000FEE700BF3BE000BF94F8280020F00100E0
:104D900084F8280033E000BF94F8280040F00100B8
:104DA00084F828000498A061A06908B1012000E0FF
:104DB000002050B900BF502080F31188BFF34F8FFF
:104DC000BFF36F8F00BF00BFFEE7A06941192B46FC
:104DD0002A462046FFF7EEFE11E094F8280000F086
:104DE000020018B9204600F001FF05E094F8280001
:104DF00020F0010084F8280001E0FFE700BF00BFB9
:104E0000002203A90448006802F080F800287FF41B
:104E100056AF07B0F0BD000010020020F8B50546FF
:104E20000C4601F09DF8684600F04AF806460098E6
:104E300020BB44B9B54206D802F018FB31462846DB
:104E4000FFF700FF1CE03CB10E480068006808B99D
:104E5000012000E000200446A91B22460A48006801
:104E600000F07CFF02F002FB50B94FF08050074980
:104E70000860BFF34F8FBFF36F8F01E002F0F6FAC7
:104E8000F8BD00000C0200201002002004ED00E03C
:104E900009480068006808B9012000E0002020B13E
:104EA0004FF0FF300549086005E003480068C0681E
:104EB0000068024908607047CC010020F80100201A
:104EC00070B5044602F08CF9054607480068854233
:104ED00004D200F00BF80120206001E000202060E7
:104EE00001480560284670BD180200202DE9F843EE
:104EF00034E025480068C068056823480068C06839
:104F0000C468201D00F0C7FD2046216A884794F838
:104F1000280000F0040008B3A0694619AE4207D982
:104F200066602461211D1848006800F0F1FD15E05D
:104F3000002003462A4601460090204602F054FB1A
:104F4000074657B900BF502080F31188BFF34F8F39
:104F5000BFF36F8F00BF00BFFEE700BF0A480068C5
:104F6000006808B9012000E000200028C1D00648F0
:104F7000D0F8008005480068034908600348C0F87D
:104F80000080BDE8F8830000080200200C02002029
:104F90000E480068401C08B9012000E0002050B90C
:104FA00000BF502080F31188BFF34F8FBFF36F8F86
:104FB00000BF00BFFEE700BF502080F31188BFF3A1
:104FC0004F8FBFF36F8F00BF00BFFEE728000020A8
:104FD00008B500BF6846FFF7ABFC044620460099C1
:104FE000FFF71CFFFFF768FEF4E770B5044600F01A
:104FF000B5FD94F9455010E0606A08B9012000E061
:10500000002038B904F1240002F0E4F918B100F0EE
:1050100005FF00E003E0681E45B2002DECDC00BF98
:10502000FF2084F8450000F0C3FD00F097FD94F9DF
:10503000445010E0206908B9012000E0002048B980
:1050400004F1100002F0C6F908B100F0E7FE681E96
:1050500045B200E001E0002DECDC00BFFF2084F849
:10506000440000F0A5FD70BD2DE9F04104464FF06D
:10507000000800F075FF5148006808B9FFF76CFCA4
:105080004F480068204000287ED13CB304F108005E
:10509000A04223D9083404F0070000B304F007004D
:1050A000C0F108002044A04216D904F00700C0F166
:1050B0000800044404F0070008B9012000E00020C3
:1050C00068B900BF502080F31188BFF34F8FBFF342
:1050D0006F8F00BF00BFFEE7002400E00024002C1B
:1050E00054D038480068844250D8374E304605685E
:1050F00001E02E462D686868A04202D22868002888
:10510000F7D12E480068854240D0306800F1080889
:10511000286830606868001B102819D92F1907F01B
:10512000070008B9012000E0002050B900BF50205E
:1051300080F31188BFF34F8FBFF36F8F00BF00BFA5
:10514000FEE76868001B78606C603846FFF7FEFC7D
:105150001C4968680968081A1A4908600846006806
:105160001A490968884203D216480068174908603E
:10517000134968680968084368600020286014487B
:105180000068401C124900E000E0086002F06EF97F
:1051900008F0070008B9012000E0002050B900BF66
:1051A000502080F31188BFF34F8FBFF36F8F00BF84
:1051B00000BFFEE74046BDE8F08100002402002069
:1051C00038020020280200201C0200202C020020AF
:1051D00030020020001F4FF080730360001F21F099
:1051E00001030360001F054B036014380260001FB9
:1051F0006FF002030360203870470000914F0008F1
:1052000010B50446D4ED041AB0EE611AD4ED031AB9
:10521000F0EE610AD4ED021AB0EE610A00F002F875
:1052200010BD000010B52DED048BB0EE408AF0EEFD
:10523000608AB0EE419A9FED130A28EE000ABCEE98
:10524000C00A10EE102A00210F4800F077F99FEDF8
:105250000D0A28EE800ABCEEC00A10EE102A0221C8
:10526000094800F06BF99FED070A29EE000ABCEE31
:10527000C00A10EE102A0421034800F05FF9BDECCB
:10528000048B10BD0078BB45002C0140002101704B
:1052900041708170C1700171417181710121C171D1
:1052A0007047026861F38612026070470146C86861
:1052B00080B27047C16070470246002093680B407F
:1052C00003B900E001207047C26922F40062C261A4
:1052D0000A7862B9026822F400420260026822F48D
:1052E00080420260026822F48062026036E00A783E
:1052F000012A0ED1026822F400420260026822F400
:1053000080420260026822F4806202F580620260DC
:1053100024E00A78022A0ED1026822F4004202F543
:1053200000420260026822F480420260026822F4B5
:105330008062026012E00A78032A0FD1026822F428
:10534000004202F500420260026822F4804202F547
:1053500080420260026822F480620260CB790268B7
:1053600063F3492202604A78012A09D1CA79012AE5
:1053700006D1026822F4807202F58072026003E0B6
:10538000026822F4807202604B78026863F3820242
:1053900002608A78072A0BDD426822F4807202F5E7
:1053A000807242608A78036862F3C503036008E094
:1053B000426822F4807242608B78026863F3C5020F
:1053C0000260CB78026863F3C71202600B7902684F
:1053D00063F3CB2202604B79026863F341020260FF
:1053E0008B79026863F30002026070472DE9F04791
:1053F0000026002400250027A046A146FEF7DEFA7D
:105400008246BAF1000F06D0BAF1010F15D0BAF1F9
:10541000020F46D115E02D48406DC0F3402040B149
:105420002A48006BC0F3406018B129482949086038
:1054300002E029482749086037E0274825490860E5
:1054400033E022484068C0F3004720484068C0F37A
:1054500083441E484068C0F341750DB90F2C03D139
:105460002801401C044400E0A41C27B91B486043E9
:105470001849086014E015484068C0F3404058B12E
:105480001248406DC0F30136B01C1349B1FBF0F077
:1054900060431049086003E00F4860430D4908600D
:1054A00003E00D480B49086000BF00BF0748406893
:1054B000C0F303180A4810F808900648006820FA5C
:1054C00009F004490860BDE8F087000000100240C0
:1054D000006CDC023400002000127A0000093D005C
:1054E00094760008C1628262436923F001035B1C69
:1054F000436170478B79426C63F30C3242640B78E2
:10550000426C63F3070242644B79426C63F38A2274
:1055100042640B79426C63F3CB2242644B78426C59
:1055200063F34D324264CB78426C63F38E32426453
:105530008B78426C63F30922426470470B4633B1A7
:10554000022B06D0042B06D0062B08D105E04263BF
:1055500006E0826304E0C26302E0026400E000BF90
:1055600000BF7047026861F3092202607047026859
:1055700061F3061202607047026861F30002026084
:105580007047CA4302617047012A03D1C3680B43C5
:10559000C36003E012B9C3688B43C360704710B5A2
:1055A0000B4633B1022B09D0042B0CD0062B14D19F
:1055B0000EE0846962F3C30484610FE0846962F3DE
:1055C000CB2484610AE0C46962F3C304C46105E0CA
:1055D000C46962F3CB24C46100E000BF00BF10BD0A
:1055E0002DE9F04100260027002501F108035C1C8D
:1055F00092F801C00CFA03FC1FFA8CF692F802C074
:105600000CFA04FC1FFA8CF7D0F804804FF0010C60
:105610000CFA04FC28EA0C08C0F80480D0F804C096
:105620004CEA070CC0F804C0D0F804804FF0010C1D
:105630000CFA03FC28EA0C08C0F80480D0F804C077
:105640004CEA060CC0F804C00D464B004FF0020CAB
:105650000CEB41044FF0010808FA04F8D0F820C020
:105660002CEA080CC0F820C04FF0010C0CFA03FC27
:10567000D0F8208028EA0C08C0F8208035B1022D2F
:1056800013D0042D20D0062D3CD12CE0D0F818C02A
:105690002CF0030CC0F818C092F80080D0F818C0A5
:1056A00068F3061CC0F818C02DE0D0F818C02CF420
:1056B000407CC0F818C092F80080D0F818C068F399
:1056C0000E3CC0F818C01EE0D0F81CC02CF0030C33
:1056D000C0F81CC092F80080D0F81CC068F3061C0B
:1056E000C0F81CC00FE0D0F81CC02CF4407CC0F8FF
:1056F0001CC092F80080D0F81CC068F30E3CC0F8C3
:105700001CC000E000BF00BF4FF0010C0CEB4103D8
:105710004FF0030C0CEB410492F803C00CFA03FCAD
:105720001FFA8CF692F804C00CFA04FC1FFA8CF7EE
:105730004FF0010C0CFA04FCD0F8208028EA0C0889
:10574000C0F82080D0F820C04CEA070CC0F820C078
:105750004FF0010C0CFA03FCD0F8208028EA0C086A
:10576000C0F82080D0F820C04CEA060CC0F820C059
:1057700092F805C04FEA41080CFA08FC1FFA8CF6B3
:1057800092F806C04FF0020808EB41080CFA08FC3A
:105790001FFA8CF7D0F820C04CEA070CC0F820C0E4
:1057A000D0F820C04CEA060CC0F820C0BDE8F0815B
:1057B00010B50B4633B1022B09D0042B0CD0062BAD
:1057C00014D10EE0846962F3820484610FE084697D
:1057D00062F38A2484610AE0C46962F38204C461CA
:1057E00005E0C46962F38A24C46100E000BF00BF21
:1057F00010BD426C61F3CF3242647047026861F3BE
:10580000C71202607047426861F306124260704737
:10581000026B61F3070202637047826861F3C7128B
:10582000826070470146486880B27047C1F3080241
:1058300042607047426961F3C71242617047C268B3
:1058400061F34D32C260704701F01F0212B102686D
:10585000426801E0CA43026070470246106808408F
:1058600008B1012070470020FCE741B9426922F4E9
:1058700080724261426922F40072426127E001298C
:105880000AD1426922F4807202F580724261426953
:1058900022F4007242611AE002290AD1426922F41C
:1058A00080724261426922F4007202F50072426124
:1058B0000DE003290BD1426922F4807202F5807257
:1058C0004261426922F4007202F50072426170473F
:1058D0002DE9F04385B004460F4690469946684648
:1058E000FDF7DAFE1748844205D01748844202D0FB
:1058F0001648844201D1029E00E0039E06EB86001A
:105900004000B0FBF7F50A20B5FBF0F100FB1150A9
:10591000052803D20A20B5FBF0F503E00A20B5FB09
:10592000F0F0451CA06865F30F00A060E06868F324
:105930000C30E060206969F30D30206105B0BDE8EE
:10594000F083000000380140006001400064014025
:1059500030B5012A0BD100EB11431B6801F01F0584
:105960000124AC40234300EB114423600AE000EB28
:1059700011431B6801F01F050124AC40A34300EB59
:105980001144236030BD02460023202927D00CDCBF
:10599000042939D004DC01293BD002293DD134E06F
:1059A000082920D0102938D12AE0402913D0802995
:1059B0000DD0B1F5807F06D0B1F5007F2DD15069B3
:1059C000C0F380232BE01069C0F3801327E0D06878
:1059D000C0F3C01323E0D068C0F380131FE0D06889
:1059E000C0F340131BE0D068C0F3401018B95069F1
:1059F00000F0010008B1012000E0002003460EE0A5
:105A0000D068C0F300130AE000BF506900F0010342
:105A100005E0D068C0F3002301E0002300BF00BF11
:105A2000012B01D0002070471068084008B1012008
:105A3000F9E70020F7E741B9C26822F40072C260BA
:105A4000C26822F48062C2601AE001290AD1C268E9
:105A500022F40072C260C26822F4806202F58062A1
:105A6000C2600DE002290BD1C26822F4007202F577
:105A70000072C260C26822F4806202F58062C26075
:105A80007047C26861F38202C2607047C26861F306
:105A9000C302C260704701460A69D1E901309860CB
:105AA000D1E9010358605068884201D1886850608C
:105AB000002008611068401E1060106870470000E8
:105AC000034B0360034B0B6080231360704700009F
:105AD00018110020180B0020034B0360034B0B60D0
