:020000040800F2
:10000000E84000205D02000883130008E50F0008A7
:10001000B1100008050B00080D1E000800000000CC
:100020000000000000000000000000009D0100082A
:10003000290E000800000000F9010008391A000824
:1000400077020008770200087702000877020008AC
:10005000770200087702000877020008770200089C
:10006000770200087702000877020008010E0008F6
:10007000770200087702000877020008770200087C
:100080007702000877020008B1090008770200082B
:10009000770200087702000877020008770200085C
:1000A000770200087702000877020008770200084C
:1000B000B91A0008770200087702000877020008E2
:1000C000770200087702000877020008770200082C
:1000D000770200087702000877020008811C0008F8
:1000E000770200087702000877020008770200080C
:1000F00077020008770200087702000877020008FC
:1001000077020008770200087702000877020008EB
:1001100077020008770200087702000877020008DB
:1001200077020008770200087702000877020008CB
:1001300077020008770200087702000877020008BB
:1001400000000000000000000000000000000000AF
:10015000770200087702000877020008770200089B
:10016000770200087702000877020008770200088B
:10017000770200087702000877020008770200087B
:1001800077020008DFF810D000F046FB0048004777
:100190009D3F0008AFF30080E84000202C4B196819
:1001A0000868B0E8F04F80F30988BFF36F8F4FF015
:1001B000000080F3118870470000000008480068C4
:1001C000006880F308884FF0000080F3148862B65E
:1001D00061B6BFF34F8FBFF36F8F00DF00BF00BF6B
:1001E00008ED00E0DFF80C00016841F470010160E7
:1001F000704700BF88ED00E0EFF30980BFF36F8F19
:10020000134B1A681EF0100F08BF20ED108A20E96A
:10021000F04F106009B44FF0500080F31188BFF325
:100220004F8FBFF36F8F05F011FC4FF0000080F38C
:10023000118809BC19680868B0E8F04F1EF0100F6B
:1002400008BFB0EC108A80F30988BFF36F8F704746
:10025000DC000020EFF3058070470000064880476F
:1002600006480047FEE7FEE7FEE7FEE7FEE7FEE79B
:10027000FEE7FEE7FEE7FEE7491A000885010008F1
:1002800040EA01039B0703D009E008C9121F08C018
:10029000042AFAD203E011F8013B00F8013B521E98
:1002A000F9D27047D2B201E000F8012B491EFBD20F
:1002B00070470022F6E710B513460A460446194671
:1002C000FFF7F0FF204610BD00F0004230F0004084
:1002D0000AD0C10D01F56071C0F3160042EA015168
:1002E000C2084007114370470020014670470000D4
:1002F00030B5041E71F1000404DB4FF000444042AD
:1003000064EB0101141E73F1000405DB1C464FF081
:100310000043524263EB04038B4208BF824230BD6C
:1003200030B5041E71F1000404DB4FF0004440427C
:1003300064EB0101141E73F1000405DB1C464FF051
:100340000043524263EB0403994208BF904230BD20
:1003500001F0004330B421F0004150EA010206D020
:100360000A0DA2F56072C1F31301002A02DC30BC51
:1003700000207047440F44EAC104C100E01830BCBB
:1003800000EBC25000F047B830B50B4601460020E4
:100390002022012409E021FA02F59D4205D303FA47
:1003A00002F5491B04FA02F52844151EA2F10102C8
:1003B000F1DC30BD2DE9F05F0546002092469B46FA
:1003C00088460646814640241BE02846414647466B
:1003D000224600F042FA53465A46C01A914110D3C1
:1003E00011461846224600F029FA2D1A67EB01083B
:1003F0004F4622460120002100F020FA17EB0009A9
:100400004E41201EA4F10104DFDC484631462A4655
:100410004346BDE8F09F0029A8BF7047401C490033
:1004200008BF20F00100704710B4B0FA80FC00FA59
:100430000CF050EA010404BF10BC704749B1CCF184
:10044000200421FA04F411FA0CF118BF0121214310
:100450000843A3EB0C01CB1D4FEA00614FEA1020CB
:1004600042BF002010BC704700EBC350104400296D
:10047000A4BF10BC7047401C490008BF20F0010019
:1004800010BC7047F0B400F0004221F0004120F0B1
:100490000040CE0DC30DC1F3160141F40001C0F3BD
:1004A00016004C42154640F40000761E09E010EBA1
:1004B000440002D582F0004240428842F7D8400012
:1004C0005B1EB342F9DA18B1F0BC0021FFF7ACBFF4
:1004D0002846F0BC70472DE9FE4F804681EA0300B4
:1004E000C00F0C46009021F0004123F00045B8EB0E
:1004F0000200A94105D24046214690461C460B46C3
:10050000024623F00040104347D0270DC7F30A00EE
:10051000C3F30A510290401A019040286BDAC3F3EA
:10052000130040F4801B0098924620B10023D2EBC8
:10053000030A63EB0B0B01985946C0F14002504689
:1005400000F07CF906460D4650465946019A00F0E7
:1005500094F910EB08006141002487EA115284EA03
:10056000E7731A4340D0009A62B3019A012A4FEA16
:10057000075215DC001B61EB02014FF0004202EA5A
:100580000752CDE90042001C41F5801132462B464E
:1005900000F094F903B0BDE8F08F40462146F9E73A
:1005A000001B61EB0201001C41F5801300185B4148
:1005B0002018A2F5001747EB030140EAD570B619E1
:1005C0006D4111E06D084FEA360645EAC0754FEA05
:1005D0000752001B61EB0201001C41F58011490824
:1005E0004FEA30000019514132462B4603B0BDE8B6
:1005F000F04F00F054B90098012240000023D0EBE6
:10060000020263EBE073009821464FEAE074B8EB16
:10061000000061EB0401E9E783F000435BE781F050
:10062000004158E72DE9FE4F81EA030404F000443D
:1006300021F0004100944FF0000B23F0004350EAFA
:1006400001045ED052EA03045BD0C3F30A54C1F341
:100650000A552C44A4F2F3340194A0FB0254C1F3D4
:10066000130141F48011C3F3130343F4801301FB1E
:10067000024400FB034E840A970A44EA815447EA85
:100680008357A4FB076802958D0A05FB07854FEA8F
:10069000932C04FB0C542705029D4FEA065847EAA9
:1006A0001637B5EB08056EEB070C870E920E47EA7E
:1006B000811742EA8312A7FB0201B6EB0B0164EB40
:1006C00000042B0D43EA0C335E1844EB1C50DA4651
:1006D0005146E7FB0201C5F313044FEA0B3343EA2B
:1006E00014534FEA0432019C43EA0603A4F10C04BC
:1006F0000294009CCDE900B400F0E0F803B0BDE83E
:10070000F08F00200146F9E72DE9F04D81EA03045E
:1007100004F0004B21F0004514464FF0000A23F08E
:10072000004150EA050220D054EA01021DD0C5F371
:100730000A570246C5F31303C1F31300C1F30A5667
:1007400040F4801543F48013A7EB0608101BD6462F
:1007500008F2FD3873EB050002D308F1010801E04F
:1007600092185B41B8F1000F03DA00200146BDE8A2
:10077000F08D00204FF48011064684460EE0171BD2
:1007800073EB050705D3121B63EB050306434CEA25
:10079000010C49084FEA300092185B4150EA01070A
:1007A000EDD152EA030012D082EA040083EA050187
:1007B000084305D0101BAB4106D20122002306E0FE
:1007C00000224FF0004302E06FF0010253101AEBD9
:1007D00006004CEB085110EB0A0041EB0B01BDE8A1
:1007E000F04D00F05CB8C1F30A52C1F3130140F2BE
:1007F000FF3341F480119A4202DA0020014670472B
:1008000040F233439A42A2F2334202DC524200F0F9
:1008100024B800F013B80000064C074D06E0E0686D
:1008200040F0010394E8070098471034AC42F6D337
:10083000FFF7ACFC6471000884710008202A04DB17
:10084000203A00FA02F1002070479140C2F12003E3
:1008500020FA03F3194390407047202A04DB203A22
:1008600021FA02F00021704721FA02F3D040C2F1D0
:1008700020029140084319467047202A06DBCB1717
:10088000203A41FA02F043EAE07306E041FA02F34B
:10089000D040C2F12002914008431946704710B57C
:1008A000141E73F1000408DA401C41F10001921893
:1008B0005B411A4301D120F0010010BD2DE9F04D3C
:1008C00092469B4611B1B1FA81F202E0B0FA80F291
:1008D00020329046FFF7B2FF04460F4640EA0A0076
:1008E00041EA0B0153465A46084313D0114653EAD6
:1008F000010019D0C8F140025046FFF7AEFF05468F
:100900000E46504659464246FFF798FF084305D029
:10091000012004E020463946BDE8F08D0020054363
:1009200046EAE0762C4337430A986305E40AA0EBD5
:1009300008000022FD0A44EA47540A3002D500208C
:100940000146E9E7010510196941DDE9084500198B
:100950006941BDE8F04DA2E770B58C1810F8015B55
:1009600015F0070301D110F8013B2A1106D110F848
:10097000012B03E010F8016B01F8016B5B1EF9D14C
:100980002B0705D40023521E0DD401F8013BFAE7D2
:1009900010F8013BCB1A921C03E013F8015B01F83D
:1009A000015B521EF9D5A142D8D3002070BD0000D2
:1009B00010B50421104801F07CFFD8B100210E4889
:1009C00002F06AF80D49086001210B4802F064F852
:1009D0000A4948600221084802F05EF80749886029
:1009E000074801680748006800F020FA042102481F
:1009F00001F049FF10BD0000002401401411002047
:100A0000C80000206C00002010B52DED048BB0EE66
:100A1000408AB0EE480A00F077F8F0EE408A0948C4
:100A2000006890ED160A38EEC00AB0EE409AB0EEBB
:100A3000490A00F0C7FCB0EE409AB0EE490ABDEC9E
:100A4000048B10BD6C0000202DE9F0412DED048BCE
:100A500004460D4600228021284801F01FFFB7EE12
:100A6000080A00F027FB4FF4FA6004F00BFF9FED3B
:100A7000240AB0EE408A0A279FED210AB0EE409A80
:100A8000002611E000F04CFCB0EE409AB0EE490AAE
:100A900000F03AF8F0EE409A38EE290AB0EE408ABB
:100AA0000A2004F0EFFE761C0A2EEBDBB2EE040AFD
:100AB000C8EE000AC4ED000A00F032FCB0EE409A25
:100AC000B0EE490A00F020F8F0EE408A94ED000AFA
:100AD00038EEC00A85ED000A4FF4FA7004F0D2FE39
:100AE0009FED070A00F0E6FA01228021034801F099
:100AF000D5FEBDEC048BBDE8F08100000024014070
:100B00000000000000BFFEE710B52DED028BB0EE37
:100B1000408A0C48006890ED120AB8EEC00A60EEF8
:100B2000080A0848006890ED110AB8EEC00A20EEE5
:100B3000800AF0EE408AB0EE680A00F043FCBDEC9B
:100B4000028B10BD6C00002010B52DED088B044603
:100B500094ED100A84ED1A0A94ED2A0A84ED1B0A1A
:100B600094ED1B0AD4ED1A0A30EE600A84ED1C0ADB
:100B700094ED1C0AD4ED1D0A30EE600AD4ED180A7B
:100B800020EE200AD4ED170A94ED1C1A00EE810A1B
:100B9000D4ED1E0A30EE200A84ED1E0A94ED1C0AE4
:100BA00084ED1D0A94ED1F0A10EE101A0846FFF797
:100BB0008BFB41EC1A0BB0EE4A0AF0EE6A0A01F028
:100BC00053F9B0EE408AF0EE608A94ED1E0A10EE02
:100BD000101A0846FFF778FB41EC190B53EC182B61
:100BE000FFF79EFB17D294ED1F0A10EE101A08466D
:100BF000FFF76AFB41EC190BB0EE490AF0EE690A07
:100C000001F032F9B0EE408AF0EE608A51EC180B38
:100C1000FFF79EFBA06794ED1F0A10EE101A08461E
:100C2000FFF752FB41EC1B0BB0EE4B0AF0EE6B0AE8
:100C300001F01AF9B0EE40AAF0EE60AA51EC1A0BDE
:100C400081F0004141EC180B94ED1E0A10EE101AD1
:100C50000846FFF739FB41EC190B53EC182BFFF753
:100C600047FB1BD294ED1F0A10EE101A0846FFF73F
:100C70002BFB41EC1A0BB0EE4A0AF0EE6A0A01F0C7
:100C8000F3F8B0EE409AF0EE609A51EC190B81F057
:100C9000004141EC180BFFF75BFBA067BDEC088B34
:100CA00010BD10B52DED088B044694ED0F0A84EDB0
:100CB000230A94ED290A84ED240A94ED240AD4ED44
:100CC000230A30EE600A84ED250A94ED250AD4ED5E
:100CD000260A30EE600AD4ED210A20EE200AD4ED77
:100CE000200A94ED251A00EE810AD4ED270A30EE91
:100CF000200A84ED270A94ED250A84ED260A94ED56
:100D0000280A10EE101A0846FFF7DEFA41EC1A0B1B
:100D1000B0EE4A0AF0EE6A0A01F0A6F8B0EE408A98
:100D2000F0EE608A94ED270A10EE101A0846FFF7DD
:100D3000CBFA41EC190B53EC182BFFF7F1FA18D250
:100D400094ED280A10EE101A0846FFF7BDFA41ECA0
:100D5000190BB0EE490AF0EE690A01F085F8B0EE21
:100D6000408AF0EE608A51EC180BFFF7F1FA9C21F3
:100D7000085194ED280A10EE101A0846FFF7A4FA5D
:100D800041EC1B0BB0EE4B0AF0EE6B0A01F06CF875
:100D9000B0EE40AAF0EE60AA51EC1A0B81F00041CF
:100DA00041EC180B94ED270A10EE101A0846FFF7D5
:100DB0008BFA41EC190B53EC182BFFF799FA1CD264
:100DC00094ED280A10EE101A0846FFF77DFA41EC60
:100DD0001A0BB0EE4A0AF0EE6A0A01F045F8B0EEDE
:100DE000409AF0EE609A51EC190B81F0004141EC11
:100DF000180BFFF7ADFA9C210851BDEC088B10BD14
:100E000010B5022002F0AAFB48B1022002F012FB4A
:100E10000021034802F0FAFA01200249087010BDCF
:100E200008000240380000207047000070B50446FA
:100E30000D4600F075FA84ED130AD4ED130AB0EEF6
:100E4000600AFFF7E1FD84ED150A60480068208024
:100E50005E48406860805D488068A0802088E188A6
:100E6000401A00EE100AF8EEC00A9FED591A80EE03
:100E7000810ADFED580A60EE200A9FED571A80EED6
:100E8000810ADFED560A80EE201A84ED071A608889
:100E90002189401A00EE100AB8EEC00ADFED4C0AB4
:100EA00080EE201A9FED4B0A61EE000A9FED4A1A70
:100EB00080EE810ADFED490A80EE201A84ED081ADF
:100EC000A0886189401A00EE100AB8EEC00ADFED72
:100ED000400A80EE201A9FED3F0A61EE000A9FED66
:100EE0003E1A80EE810ADFED3D0A80EE201A84ED85
:100EF000091A94ED081AB1EE411AF0EE410A94ED88
:100F0000091AB1EE411AB0EE410A04F11801081FA6
:100F100001F046FED4ED151AB0EE611AD4ED061AB2
:100F2000F0EE610AD4ED051AB0EE610A04F13C015D
:100F3000081D03F0D5F894ED0F1AF0EE410A94ED78
:100F4000101AB0EE410A04F13C02111D2448006859
:100F500000F078F82046FFF7F7FD94ED1E0A84EDC7
:100F60000E0A2046FFF79DFE94ED270A84ED0D0A38
:100F7000D4ED151AB0EE611AD4ED0E1AF0EE610A36
:100F8000D4ED0D1AB0EE610A04F11001081F02F051
:100F9000BDFF94ED041AF0EE410A94ED031AB0EE91
:100FA000410A04F13002111F081F02F075FF94ED91
:100FB000041AF0EE410A94ED031AB0EE410A2846F5
:100FC00000F01EFA284603F093FE70BD14110020B5
:100FD0000000804533335340000048426F12033B0A
:100FE000CC00002000BFFEE79FED131AF0EE410A8F
:100FF0009FED121A20EE811AF2EE041A21EE211A48
:10100000B7EE002AC2EE011AB7EE001A31EE811ACD
:10101000F7EE001A81EE812AB0EE420A80ED000A56
:101020009FED071A80ED011A80ED020A9FED041A68
:1010300080ED031A7047000017B75138560EC940AB
:101040000000000090ED011AD0ED001A90ED012A89
:1010500030EE422A01EE821A80ED011A90ED011A5B
:1010600081ED001A90ED031AD0ED021A90ED032ADB
:1010700030EEC22A01EE821A80ED031A90ED031AB7
:1010800082ED001A7047F0EE401AF4EEC11AF1EE4C
:1010900010FA02DBB0EE410A7047F4EEE01AF1EE0E
:1010A00010FA02D8B0EE600AF6E7B0EE610AF3E794
:1010B00000BFFEE710B52DED0A8BB0EE408A9FED24
:1010C000370AF0EE408A9FED350AB0EE409A9FED68
:1010D000330AF0EE409A9FED310AFFF715FDB0EEAE
:1010E00040AAB0EE4A0A02F0E9FAF1EE690A20EEEF
:1010F00020CAB0EE4A0A02F07FFA08EE00CAF0EE0B
:101100004C8AB0EE4A0A02F077FA20EE29CAB0EE15
:101110004A0A02F0D3FA08EE00CAB0EE4C9A204810
:10112000D0ED000AB0EE001A80EE810A30EE280AF7
:10113000F0EE40AADFED1B0AB0EE680A10EE890A55
:10114000B0EE001AC0EE010A90ED000AB0EE001AEF
:10115000C0EE011A30EEA10AB0EE40BADFED120A7D
:10116000B0EE680A10EE890AB0EE001AC0EE010A6D
:1011700090ED000AB0EE001AC0EE011A30EEA10A9E
:10118000F0EE40BAB0EE6B1AF0EE4B0AB0EE6A0A1F
:1011900000F00CF8BDEC0A8B10BD00000000000050
:1011A000580000202DB2DD3F2DB2DDBF10B52DED72
:1011B000048BB0EE409AB0EE608AF0EE418A32487D
:1011C00090ED001ADFED310AB0EE490AFFF75BFF40
:1011D000B0EE409A2C4890ED001ADFED2C0AB0EEEC
:1011E000480AFFF750FFB0EE408A274890ED001AFA
:1011F000DFED260AB0EE680AFFF745FFF0EE408A01
:10120000214890ED000AC9EE000AF0EE609AB7EEB0
:10121000001ADFED1E0AB0EE690AFFF734FF1C4822
:1012200080ED000A184890ED000AC8EE000AF0EEC2
:10123000609AB7EE001ADFED150AB0EE690AFFF703
:1012400022FF144880ED000A0F4890ED000AC8EE16
:10125000800AF0EE609AB7EE001ADFED0C0AB0EEED
:10126000690AFFF710FF0C4880ED000A90ED001AA4
:101270000848D0ED000A064890ED000A03F04AFD48
:10128000BDEC048B10BD00005800002000000000E1
:101290007000002074000020780000202DE9F0414B
:1012A0002DED028B04462189606802F06BFD20461B
:1012B00000F03EF80546204600F03AF80646204683
:1012C00000F036F807462189606802F05DFD2804C9
:1012D00040EA06203843801208EE100AB8EE480AA9
:1012E000DFED0C0A20EE200ADFED0B0A80EE201A5B
:1012F000F0EE418A9FED090A28EE800ADFED050A2B
:1013000080EE201A84ED031A94ED030ABDEC028BE3
:10131000BDE8F0810000B44300008046D00FC94012
:1013200010B50248FFF7BAFF10BD000048000020CA
:1013300070B50446002506E0681C80B205460A2800
:1013400001DD002070BD0221206803F03BFD002874
:10135000F2D00021206803F033FD002506E0681C70
:1013600080B205460A2801DD0020EBE70121206854
:1013700003F028FD0028F2D0206803F01DFDC0B264
:10138000E0E77047F0B503460C4603F00701C1F1F2
:101390000700042801D9042001E0C1F10700064636
:1013A000081D072801D2002000E0C81E05460120C4
:1013B000B040401E2040A8400127AF407F1E17408C
:1013C0003843F0BD10B52DED028BF0EE408ADFED15
:1013D0000B0AB0EE680A00F051FDB0EE408AB5EE9F
:1013E000C08AF1EE10FA04DBB0EE480ABDEC028BC5
:1013F00010BD9FED020A38EE000AF7E7D00FC94092
:1014000090ED001ADFEDFE1A21EE211AFD49D1ED13
:10141000001A81EE212A80ED112A90ED111A21EE99
:10142000201A80ED051A9FEDF81A20EE011AF6EE4B
:10143000001A01EEE01AD0ED111A21EE211A80ED0A
:10144000061A9FEDF21A20EE011AF6EE001A01EECE
:10145000E01AD0ED111A21EE211A80ED071A90ED55
:10146000051AB5EEC01AF1EE10FA01DD012100E017
:10147000002190ED061AB5EEC01AF1EE10FA01DD6A
:10148000012200E0002201EB420190ED071AB5EEC7
:10149000C01AF1EE10FA01DD012200E0002201EB9A
:1014A00082010171017907297DD2DFE801F07C5EBC
:1014B000FC04FBBEFA0090ED061A80ED0B1A90EDCD
:1014C000051A80ED0D1A90ED0B1AD0ED0D1A31EEC4
:1014D000211A80ED0F1A90ED0F1AD0ED001AB4EE1C
:1014E000E11AF1EE10FA17DD90ED001AD0ED0F1AA7
:1014F00081EE212A80ED102A90ED0B1AD0ED101A02
:1015000021EE211A80ED0B1A90ED0D1AD0ED101A74
:1015100021EE211A80ED0D1A90ED001AD0ED0B1A74
:1015200031EE611AD0ED0D1A31EE611AF0EE001AAB
:1015300081EE212A80ED0E2A90ED0B1AD0ED0D1AC6
:1015400031EE211AD0ED0E1A31EE211A80ED021A79
:1015500090ED0D1AD0ED0E1A31EE211A80ED031A1E
:1015600090ED0E1A80ED041ADEE190ED061AB1EE50
:10157000411A80ED091A90ED071AB1EE411A80ED7B
:101580000D1A90ED091AD0ED0D1A31EE211A80EDE9
:101590000F1A90ED0F1AD0ED001AB4EEE11AF1EE29
:1015A00010FA19DD00E0BEE190ED001AD0ED0F1A3F
:1015B00081EE212A80ED102A90ED091AD0ED101A43
:1015C00021EE211A80ED091A90ED0D1AD0ED101AB6
:1015D00021EE211A80ED0D1A90ED001AD0ED091AB6
:1015E00031EE611AD0ED0D1A31EE611AF0EE001AEB
:1015F00081EE212A80ED0E2A90ED0D1AD0ED0E1A03
:1016000031EE211A80ED021A90ED091AD0ED0D1A73
:1016100031EE211AD0ED0E1A31EE211A80ED031AA7
:1016200090ED0E1A80ED041A7EE190ED051A80ED22
:10163000091A90ED071A80ED0A1A90ED091AD0EDFB
:101640000A1A31EE211A80ED0F1A90ED0F1AD0ED23
:10165000001AB4EEE11AF1EE10FA17DD90ED001A5F
:10166000D0ED0F1A81EE212A80ED102A90ED091A93
:10167000D0ED101A21EE211A80ED091A90ED0A1A08
:10168000D0ED101A21EE211A80ED0A1A90ED001A01
:10169000D0ED091A31EE611AD0ED0A1A31EE611A55
:1016A00002E07EE01FE0E0E0F0EE001A81EE212A89
:1016B00080ED0E2A90ED0E1A80ED021A90ED091AB7
:1016C000D0ED0A1A31EE211AD0ED0E1A31EE211AA0
:1016D00080ED031A90ED0A1AD0ED0E1A31EE211AA0
:1016E00080ED041A20E190ED051AB1EE411A80ED6B
:1016F000081A90ED061AB1EE411A80ED0A1A90ED23
:10170000081AD0ED0A1A31EE211A80ED0F1A90ED69
:101710000F1AD0ED001AB4EEE11AF1EE10FA17DD4F
:1017200090ED001AD0ED0F1A81EE212A80ED102ADB
:1017300090ED081AD0ED101A21EE211A80ED081A4A
:1017400090ED0A1AD0ED101A21EE211A80ED0A1A36
:1017500090ED001AD0ED081A31EE611AD0ED0A1A98
:1017600031EE611AF0EE001A81EE212A80ED0E2A88
:1017700090ED0E1A80ED021A90ED0A1AD0ED0E1AB5
:1017800031EE211A80ED031A90ED081AD0ED0A1AF5
:1017900031EE211AD0ED0E1A31EE211A80ED041A25
:1017A000C2E090ED071A80ED081A90ED061A80ED60
:1017B0000C1A90ED081AD0ED0C1A31EE211A80EDBA
:1017C0000F1A90ED0F1AD0ED001AB4EEE11AF1EEF7
:1017D00010FA21DD90ED001AD0ED0F1A81EE212ACA
:1017E00080ED102A90ED081AD0ED101A21EE211A82
:1017F00080ED081A90ED0C1AD0ED101A08E00000E8
:101800002DB2DD3F58000020D0B35D3FD0B35DBFA7
:1018100021EE211A80ED0C1A90ED001AD0ED081A75
:1018200031EE611AD0ED0C1A31EE611AF0EE001AA9
:1018300081EE212A80ED0E2A90ED0C1AD0ED0E1AC1
:1018400031EE211A80ED021A90ED0E1A80ED031A86
:1018500090ED081AD0ED0C1A31EE211AD0ED0E1AC7
:1018600031EE211A80ED041A5EE090ED071AB1EE18
:10187000411A80ED0B1A90ED051AB1EE411A80ED78
:101880000C1A90ED0B1AD0ED0C1A31EE211A80EDE6
:101890000F1A90ED0F1AD0ED001AB4EEE11AF1EE26
:1018A00010FA17DD90ED001AD0ED0F1A81EE212A03
:1018B00080ED102A90ED0B1AD0ED101A21EE211AAE
:1018C00080ED0B1A90ED0C1AD0ED101A21EE211AB2
:1018D00080ED0C1A90ED001AD0ED0B1A31EE611A62
:1018E000D0ED0C1A31EE611AF0EE001A81EE212AC9
:1018F00080ED0E2A90ED0B1AD0ED0C1A31EE211A64
:10190000D0ED0E1A31EE211A80ED021A90ED0E1A6A
:1019100080ED031A90ED0C1AD0ED0E1A31EE211A5B
:1019200080ED041A00E000BF00BF704710B52DED38
:101930000A8B84B00446B0EE408AF0EE608AB0EEC6
:10194000419AF0EE619A84ED178AC4ED188A84ED0D
:10195000199AC4ED1F9A84ED208AC4ED218A84ED82
:10196000229AC4ED289A19EE100AFEF7ADFC41EC5C
:101970001A0B18EE900AFEF7A7FC41EC1B0B18EEB1
:10198000100AFEF7A1FC41EC1C0B8DED02AB8DEDB6
:1019900000BB53EC1C2B03A000F03AFA04B0BDECE2
:1019A0000A8B10BD736574206B7020697320256CE1
:1019B000662C206B6920697320256C662C206B6473
:1019C00020697320256C660D0A00000010B52DED0E
:1019D000068B82B00446B0EE408AF0EE608A84ED59
:1019E0002A8AC4ED298A18EE900AFEF76DFC41ECB4
:1019F000190B18EE100AFEF767FC41EC1A0B8DED7F
:101A0000009B53EC1A2B03A000F002FA02B0BDECCD
:101A1000068B10BD736574207461725F6964206900
:101A20007320256C662C207461725F697120697364
:101A300020256C660D0A000010B505F021F901287B
:101A400001D004F035FD10BD1848006840F4700066
:101A5000164908601648006820F00100401C14492F
:101A6000086000BF12480068C0F340000028F9D0A9
:101A70000F48406820F003000D49486000BF0C4843
:101A80004068C0F381000028F9D10948006809497D
:101A90000840074908600020486008634FF41F00B1
:101AA0008860C803014980390860704788ED00E00C
:101AB00000100240FFFFF2FE10B5654800780128D3
:101AC00019D16448006890ED0A0A634880ED000A65
:101AD0006048006890ED0B0A5F4880ED010A5D48A0
:101AE000006890ED0C0A5C4880ED020A0322014672
:101AF000082000F03BF959480078012828D15848BF
:101B0000006858490988401A00EE100AB8EEC00A69
:101B1000514880ED000A5248406852494988401AAD
:101B200000EE100AB8EEC00A4B4880ED010A4C489E
:101B300080684C498988401A00EE100AB8EEC00A45
:101B4000454880ED020A032201460B2000F00EF901
:101B500045480078012819D14448006890ED020AF0
:101B60003D4880ED000A4148006890ED030A3A487C
:101B700080ED010A3D48006890ED040A364880ED8A
:101B8000020A032201460E2000F0F0F838480078DF
:101B9000012812D12F48006890ED080A2E4880EDE8
:101BA000010A2C48006890ED090A2B4880ED020AD2
:101BB00003220146102000F0D9F82E4800780128B1
:101BC00012D12448006890ED030A234880ED000AF2
:101BD0002048006890ED040A1F4880ED010A0222A7
:101BE0000146122000F0C2F823480078012812D1E3
:101BF0001848006890ED050A174880ED000A15485E
:101C0000006890ED060A144880ED010A02220146A0
:101C1000142000F0ABF819480078012812D10D48C3
:101C2000006890ED0F0A0C4880ED000A0948006832
:101C300090ED100A084880ED010A022201461620A4
:101C400000F094F80121880703F021FA10BD00008C
:101C5000140000206C000020580100201500002016
:101C6000141100206000002016000020C800002091
:101C70001700002018000020190000201A00002082
:101C800010B52021084803F0ECFB58B1064803F0DA
:101C900037FBC4B2204600F009F82021024803F0C7
:101CA00041FB00BF10BD0000004800402A490978F0
:101CB00081B9A5280ED10021284A117011460A7851
:101CC0000978491C254B1970254988540121224A5D
:101CD00011703FE02049097801293BD11F490A785A
:101CE0000978491C1D4B19701D49885419460978FB
:101CF000082926D11A49C979492922D1002200216F
:101D000004E0174B5B5C1344DAB2491C0629F8DB8C
:101D100013498979914205D00021104B19700E4B5F
:101D2000197070470E4949780E4B19700E490C4BCB
:101D3000D3F802300B600021084B1970064B197064
:101D400000BF06490978082904DB0021034A117005
:101D5000014A117000BFE4E742000020410000206A
:101D60003900002043000020440000202DE9F04706
:101D700005460E4617460024B8064FEA1068A146ED
:101D8000B246A5222146641C1D4842542146641CCB
:101D900045542146641C00F80180002008E01AF830
:101DA00000302146621CD4B2154A5354411CC8B2BB
:101DB0004045F4DB002006E01149095C494401F08C
:101DC000FF09411CC8B2A042F6DB2046611CCCB220
:101DD0000B4901F8009049222046611CCCB2084909
:101DE0000A5408480078012807D12146064801F026
:101DF00012FB0121044801F009FBBDE8F087000057
:101E0000E4100020380000200800024000BFFEE778
:101E10000FB4054B10B503A9044A029800F066F907
:101E200010BC5DF814FB0000F53B000850010020D9
:101E300002480068C0F30220704700000CED00E08B
:101E400010B5002804DB0A07130E054A135406E0F8
:101E50000A07140E034A00F00F031B1FD45410BDD1
:101E600000E400E018ED00E02DED020B019820F0F9
:101E7000004001909DED000B02B0704710B52DEDB4
:101E8000028BF0EE408A18EE900AB0EE608A20F0E5
:101E90000040C0F1FF40C00F07D118EE100A20F03B
:101EA0000040C0F1FF40C00F2BD018EE101A18EE02
:101EB000900AFEF7E7FA00EE100A10EE100A6FEA39
:101EC000D05010F0FF0F04BFBDEC028B10BD18EE18
:101ED000900A00F0004110EE100A00F0004081422C
:101EE00004BFBDEC028B10BD18EE101A10EE100AE4
:101EF000BDEC028B61F31E0000EE900A30EE600A2A
:101F000010BD18EE900A4FF07F41B1EB400F1CBF9F
:101F100018EE100A5FEA4000C7D1012000F01EF859
:101F2000BDEC028BBDE81040AFF30080DFED020A8C
:101F300080EEA00A704700000000000002E008C820
:101F4000121F08C1002AFAD170477047002001E033
:101F500001C1121F002AFBD170470000014908602F
:101F600070470000540100202DE9FF5F82B000217E
:101F7000DDE90430020DDDF840B0034318D044F62B
:101F80001050A2F2FF3242431514119801281FD0BD
:101F9000A5EB0B00401C5FEA000A4FF000064E4F15
:101FA000DFF83891B046504615D5CAF1000413E069
:101FB000119801244AA3012801D16FEA0B0102986C
:101FC000119AC0E90031C0E9024206B0BDE8F09FB5
:101FD000CBF10000DFE704460021404A491842EBFC
:101FE0000450CDE9001012E0E00707D032463B462E
:101FF00040464946FEF716FB8046894632463B4638
:1020000010461946FEF70EFB06460F466410002CDC
:10201000EAD1DDE90401DDE90023BAF1000F06DAB7
:10202000FEF700FB42464B46FEF7FCFA05E0FEF7E2
:102030006BFB42464B46FEF767FB04460E4600220A
:10204000284BFEF76DF903D84FF0FF30014607E04B
:102050000022254B20463146FEF73DFAFEF7C3FB32
:10206000102409E0002C0ADB0A220023FEF7A2F963
:10207000039B30321A55641E50EA0102F2D1641CEF
:10208000039AC4F111031444119A012A03D00122C6
:1020900008430DD10AE0084304D000204FF0110B93
:1020A000119072E7A3EB0B056D1E0DE05B4504DD9F
:1020B0004FF0000205F1010504E003DA4FF00002E1
:1020C000A5F10105002AECD002981199C0E902316E
:1020D000C0E9004579E70000000014400000F03F2F
:1020E000300000000000F0430000E03F2DE9FF4F0A
:1020F00095B09A46884606460025EEE1252877D118
:1021000000242746F94A0121039400E0044316F80D
:10211000013F203B01FA03F01042F7D130782A2822
:1021200011D06FF02F033078A0F13002092A16D8B1
:10213000039A44F0020402EB820203EB42021044D1
:10214000761C0390EFE758F8042B0392002A03DA79
:10215000504244F40054039044F00204761C30785A
:102160002E2816D116F8010F44F004042A280DD0A9
:102170006FF02F023078A0F13003092B09D807EB5C
:10218000870302EB4303C718761CF3E758F8047B78
:10219000761C30786C280FD006DC4C2817D06828C5
:1021A0000DD06A2814D104E0742810D07A280FD1F9
:1021B0000DE044F400140AE044F4801401E044F417
:1021C00040147278824202D104F58014761C761C89
:1021D000307866280BD013DC582877D009DC00282B
:1021E00075D04528F6D04628F4D047281AD193E177
:1021F00018E0632835D0642879D0652812D18BE1A6
:10220000702873D008DC6728F1D069286FD06E2859
:102210000DD06F2806D1ACE073282CD0752874D06F
:10222000782853D05246179990476D1C54E1C4F357
:102230000250022809D003280DD0D8F80010042835
:102240000DD00D6008F1040846E1D8F80010EA1737
:10225000C1E90052F6E7D8F800100D80F2E70D70E2
:10226000F0E718F8041B8DF8001000208DF801002D
:10227000EB46012003E058F804BB4FF0FF30610744
:102280004FF0000102D40DE009F101018946B94285
:102290000FDA8145F8DB1BF809100029F4D108E0BA
:1022A00009F1010189468142FADB1BF80910002976
:1022B000F6D103985346A0EB090721463846179AF2
:1022C00000F080FA284400EB090507E044E008E14B
:1022D0000DE01BF8010B524617999047B9F101091F
:1022E000F7D2534621463846179AF2E039E00A21E0
:1022F000C4F302524FF0000B0091022A06D058F8A6
:10230000040BC117032A09D00AE023E008F10700F3
:1023100020F00702F2E80201904605E000B2C11782
:10232000042A01D140B2C117002906DA0A46002169
:10233000404261EB02012D2202E0220504D52B224E
:102340008DF80420012203E0E20701D02022F7E704
:10235000914657E00A2100E010214FF0000B009158
:102360000BE010214FF0000B44F00404082700910B
:1023700003E008204FF0000B0090C4F30252022A41
:1023800005D058F8040B0021032A08D008E008F112
:10239000070020F00702F2E80201904603E080B255
:1023A000042A00D1C0B24FF0000922072AD53278A2
:1023B000702A07D0DDF800C08CF0100C5CEA0B0C22
:1023C00005D00EE040228DF80420012208E050EAFA
:1023D000010306D030238DF804308DF80520022249
:1023E0009146009B83F0080353EA0B030AD150EA9D
:1023F000010201D1620705D530228DF804204FF08B
:1024000001097F1E3278582A04D039A20C920CAAF6
:1024100002920BE03BA2F9E75B46009AFDF7CAFF88
:102420000C9B9B5C029A521E0292137050EA0102AE
:10243000F2D1029804A9081A00F1200B600702D516
:1024400024F4803400E001275F4502DDA7EB0B0098
:1024500000E0002000EB0B01009003984944401A73
:102460000390E00306D453462146179A039800F0E0
:10247000A9F90544002706E001A85246C05D179956
:1024800090476D1C7F1C4F45F6DBE0030CD553468F
:102490002146179A039800F095F9054404E030208E
:1024A0005246179990476D1C0099481E00900029CC
:1024B000F5DC08E00298029952460078491C029126
:1024C000179990476D1CBBF10001ABF1010BF1DCDA
:1024D0005BE100F065F90544761C307800287FF454
:1024E0000DAE19B02846BDE8F08F000009280100A4
:1024F000303132333435363738396162636465667A
:10250000000000003031323334353637383941423B
:102510004344454600000000600700D4062708F148
:10252000070020F00700F0E80223804603F0004C8B
:102530005FEA0C0001D097A009E0200501D596A024
:1025400005E0E00701D095A001E0AFF24C00139048
:10255000307823F0004365280CD006DC452809D0EC
:1025600046281DD047287FD13BE0662818D0672831
:102570007AD136E00021112F01DB112000E0781C18
:10258000CDE9000104A90CA8FFF7EEFCDDE90D017F
:102590000C9A4FF0000B07F10109109200914EE0E8
:1025A0004FF000400097CDE9011004A90CA8FFF7F7
:1025B000DBFCDDE90D020C9B0F994FF0000B9146FF
:1025C0001093009211B9791C00EB0109B7EB0900D7
:1025D00003D4C0F1FF3B07F10109A9EB070001900B
:1025E00042E0012F00DA01270021112F01DD112027
:1025F00000E03846CDE9000104A90CA8FFF7B4FCBF
:10260000DDE90D010C9A00914FF0000BB9461092D4
:1026100021070FD4009A4A4503DA914601E0A9F157
:102620000109B9F1010F05DD109AA9F10101515C11
:102630003029F4D0B84202DA10F1040F03DA012194
:10264000CDE9011010E0002803DC8344A9EB000170
:1026500002E0411C494500DD8946A0EB0B00401C0F
:1026600001904FF000400290200705D401984845A2
:1026700002DB4FF0FF30019000208DF84B000298F4
:102680000DF14B07B0F1004F25D002200C902B200C
:102690000D90029800280CDA404202902D200D90F7
:1026A00007E00A210298FDF76FFE3031029007F82B
:1026B000011D0C99481E0C900029F2DC029800289C
:1026C000EFD1791E0D980870307800F0200040F0AE
:1026D000450007F8020D11A8C01BC01D02901398F9
:1026E000007800B1012000EB0901019801EBE071D5
:1026F000029801440398401A401E0390E00306D458
:1027000053462146179A039800F05CF80544139845
:10271000007818B15246179990476D1CE00323D5F5
:1027200053462146179A039800F04CF805441BE0E5
:10273000BBF1000F07DB0098584504DD109817998E
:1027400010F80B0001E0179930205246904701988D
:102750000BF1010B401E05F10105019004D12E2063
:102760005246179990476D1CB9F10001A9F1010972
:10277000DEDC05E017F8010B5246179990476D1CF7
:102780000299481E02900029F4DC53462146179A0C
:1027900003989EE62D0000002B00000020000000A2
:1027A0002DE9F041044600251E461746880404D44E
:1027B00005E039462020B0476D1C641EF9D5284637
:1027C000BDE8F0812DE9F041044600251E46904603
:1027D000C80301D5302700E02027880404D505E090
:1027E00041463846B0476D1C641EF9D52846BDE801
:1027F000F0810B78426863F3082242604B7882686C
:1028000063F3410282608B78826863F3CB2282603B
:10281000CA78521EC36A62F31753C362704700211D
:102820000170417081700121C1707047816821F091
:10283000080108318160704701468868C0F3C00014
:1028400008B1012070470020FCE7816821F00401F5
:10285000091D8160704701468868C0F3800008B197
:10286000012070470020FCE70349096860F3134129
:10287000014A11607047000004240140826861F33E
:10288000000282607047CA4302607047024600201F
:1028900013680B4003B900E001207047012A03D1FF
:1028A00043680B43436003E012B943688B434360C2
:1028B000704702460020012904D002290CD00429C7
:1028C0001ED113E0136803F0010323B15368C3F36F
:1028D000801303B1012014E01368C3F3400323B154
:1028E0005368C3F3401303B101200AE01368C3F334
:1028F000800323B15368C3F3C01303B1012000E088
:1029000000BF00BF704770B504460A290CDA206981
:1029100001EB41060725B540A84301EB410503FA49
:1029200005F5284320610FE0E068A1F10A0505EBF9
:1029300045060725B540A843A1F10A0505EB450565
:1029400003FA05F52843E0600D2A10DBE06AA2F1E6
:102950000D0505EB85061F25B540A843A2F10D0521
:1029600005EB850501FA05F52843E0621EE0072A1C
:102970000EDB206BD51F05EB85061F25B540A84350
:10298000D51F05EB850501FA05F5284320630DE009
:10299000606B551E05EB85061F25B540A843551EE7
:1029A00005EB850501FA05F52843606370BD014616
:1029B000C86C80B2704707290ADD836823F0007372
:1029C00003F100738360836861F35343836007E01E
:1029D000836823F000738360836861F353438360EB
:1029E000836862F3145383607047426861F3CB22BB
:1029F00042607047826861F39652826070474A1E57
:102A0000836B62F3155383637047F0B514460A294C
:102A10000CDA026901EB41070726BE40B24301EB25
:102A2000410603FA06F6324302610FE0C268A1F1E3
:102A30000A0606EB46070726BE40B243A1F10A0686
:102A400006EB460603FA06F63243C260866BC6F30F
:102A50000157E61CF61BF5B2012D06D0022D09D058
:102A6000032D0CD0042D14D10EE0866B61F3040607
:102A700086630FE0866B61F3491686630AE0866B16
:102A800061F38E26866305E0866B61F3D336866339
:102A900000E000BF00BFF0BD0246002031B10129B7
:102AA00007D0022908D003290CD108E0D36B98B2D3
:102AB00009E0136C98B206E0536C98B203E0936C93
:102AC00098B200E000BF00BF704707290ADD8368A5
:102AD00023F0807303F180738360836861F30E33A6
:102AE000836007E0836823F080738360836861F309
:102AF0000E338360836862F3CF338360704731B1F4
:102B0000012909D002290CD0032914D10EE0436910
:102B100062F30B0343610FE0836962F30B0383618C
:102B20000AE0C36962F30B03C36105E0036A62F361
:102B30000B03036200E000BF00BF704710B50446FE
:102B40001348844208D10121124800F0ADFB002156
:102B5000104800F0A9FB1AE00F4884420AD1012175
:102B60000C48401C00F0A0FB00210A48401C00F06B
:102B70009BFB0CE00948844209D101210548801DD6
:102B800000F092FB00210348801D00F08DFB10BD7A
:102B90000024014009000C0000280140003C0140D5
:102BA00080ED000AF0EE001AB0EE401A01EEA01A15
:102BB000DFED031A21EE211A81ED001A70470000A3
:102BC00056CE133F0EB501221146900702F062FA6D
:102BD00001220221C14800F0B7FC0122C049C148CE
:102BE00002F024FCC04800F049FFBF484068BF49DC
:102BF00009684864BC48C068BC4909688864BA4828
:102C000090ED000AB948006880ED160A01F056F808
:102C1000B7480068FEF7E8F9DFEDB60A9FEDB50AA0
:102C2000B2480068FEF7D2FEF2EE081A9FEDB11A24
:102C3000DFEDB10A9FEDB10AAC480068FEF776FE01
:102C400000200090019002901023AD4AADA1AF4842
:102C500001F08BF9002440E1AD48007870B1AB4839
:102C600001F080F950B90121A84801F085F932201E
:102C700002F008FE0021A54801F07EF9A448007882
:102C80001A287DD2DFE800F07C0D40454A58667C6A
:102C90008F969CA7AEB4C1C8CED5DBE2E8F4FAF1BA
:102CA000F0EF914800F0EAFE8F4840688F490968CC
:102CB00048648D48C0688D49096888648A4890EDE9
:102CC000000A8A48006880ED160A8848006890ED7E
:102CD000110AB8EEC00A8DED000A8448006890ED34
:102CE000120AB8EEC00A8DED010A8048006890ED26
:102CF000160A8DED020A032269460120FFF736F815
:102D0000002083490870DDE001240020804908701C
:102D1000D8E0002400207E490870D3E07D4890ED83
:102D2000000ABDEEC00A7C4880ED010A00F0F6FE04
:102D3000002077490870C5E0764890ED000ABDEEA6
:102D4000C00A754880ED030A00F0E8FE00207049D3
:102D50000870B7E001216D4801F00EF96F49704825
:102D6000FDF772FE6E4890ED000A8DED000A6B488B
:102D700090ED000A8DED010A694890ED000A00E02F
:102D80009FE0654880ED000A00F0C8FE0222694617
:102D90000720FEF7EBFF00215C4801F0EDF8002072
:102DA0005B4908708EE001205E4908700020584998
:102DB000087087E000205B4908705549087081E081
:102DC000544890ED000A4948006880ED0D0A002043
:102DD0004F49087076E001205349087000204C49A3
:102DE00008706FE00020504908704949087069E098
:102DF00000F08AFF8DED000A012269460D20FEF7E2
:102E0000B5FF0020424908705CE001204749087086
:102E100000203F49087055E00020444908703C49B3
:102E200008704FE0012042490870002038490870BE
:102E300048E000203E4908703549087042E0012012
:102E40003C4908700020324908703BE000203949B5
:102E500008702F49087035E00120374908700020BC
:102E60002B4908702EE021E015E00EE006E0FFE7B8
:102E70000020314908702649087023E001202F49BD
:102E800008700020224908701CE000202B490870BF
:102E90001F49087016E01F4890ED000A13480068AB
:102EA00080ED290A00201A4908700BE0194890EDBE
:102EB000000A0E48006880ED2A0A002014490870B4
:102EC00000E000BF00BF012C04D101221C490220F8
:102ED000FEF74CFF052002F0D5FCBDE608000240DD
:102EE00005000C0000480040F41000206C00002099
:102EF000CC000020000000009A99993F0AD7233C9B
:102F0000000C01404C4544310000000064010020E9
:102F10004300002044000020041100201000002085
:102F20000C000020140000201500002016000020D6
:102F30001700002018000020190000201A000020AF
:102F4000000000202DED088B86B001228021224850
:102F5000FFF7A4FC41F2F7620621204802F074F862
:102F600039E01F48006890ED1E0A10EE101A08465E
:102F7000FDF7AAF941EC180B1948006890ED270AF3
:102F800010EE101A0846FDF79FF941EC190B144892
:102F9000006890ED100A10EE101A0846FDF794F93B
:102FA00041EC1A0B0E48006890ED0F0A10EE101A53
:102FB0000846FDF789F941EC1B0B8DED048B8DED77
:102FC000029B8DED00AB53EC1B2B06A0FEF720FF00
:102FD0000A2002F057FCC4E700240140002C014005
:102FE0006C00002025662C25662C25662C25660D98
:102FF0000A0000000649496860F38F31044A5160B5
:1030000082080349496862F31C71014A51607047A4
:10301000001002400349496860F30711014A5160FA
:1030200070470000001002400349496860F30A211C
:10303000014A51607047000000100240034949688E
:1030400060F3CD21014A516070470000001002403A
:10305000012807D10749496D21F030013031054A77
:10306000516505E00349496D21F03001014A516580
:103070007047000000100240052827D2DFE800F06A
:10308000030A11181F00134A126861F30002114B62
:103090001A601CE00F4A126861F310420D4B1A606F
:1030A00015E00C4A126861F318620A4B1A600EE0D0
:1030B000084A126A61F30002064B1A6207E0054AE9
:1030C000526A61F30002034B5A6200E000BF00BF86
:1030D00070470000001002402DE9F0410146002732
:1030E0000022002590460023002400F087F90646C0
:1030F00026B1012E12D0022E43D112E03948406D84
:10310000C0F3402038B13748006BC0F3406010B1C5
:103110003548086001E03548086035E0334808600C
:1031200032E030484068C0F300482E484068C0F3A1
:1031300083422C484068C0F341750DB90F2A03D172
:103140002801401C024400E0921CB8F1000F03D19A
:1031500027485043086013E022484068C0F34040CD
:1031600058B12048406DC0F30137B81CDFF87CC06F
:10317000BCFBF0F05043086002E01C48504308607C
:1031800002E01A48086000BF00BF16484068C0F35C
:1031900003131848C45C0868E04048601148406860
:1031A000C0F302231448C45C4868E040C8600D487E
:1031B0004068C0F3C2231148C45C4868E04088609E
:1031C00008484068C0F3007306484068C0F3813087
:1031D00040EA83030A48C45C8868B0FBF4F00861E5
:1031E000BDE8F08100100240006CDC0200127A00A1
:1031F00000093D002C7100083C7100084471000872
:103200004C71000810B501460020094B03EB114238
:10321000126801F01F040123A3401A4001F01F04AB
:103220000123A3409A4200D000E0012010BD00001D
:103230000010024030B50024002500E0641C11207D
:10324000FFF7E0FF012802D0B4F5405FF6D311206C
:10325000FFF7D8FF012801D0002500E0012528460E
:1032600030BD000010B501290DD10E4B03EB10420B
:10327000126800F01F040123A3401A43094C04EB19
:1032800010431A600CE0074B03EB1042126800F089
:103290001F040123A3409A43024C04EB10431A601D
:1032A00010BD00000010024010B501290DD10E4BD9
:1032B00003EB1042126800F01F040123A3401A43DD
:1032C000094C04EB10431A600CE0074B03EB10426F
:1032D000126800F01F040123A3409A43024C04EB40
:1032E00010431A6010BD00000010024010B568B90C
:1032F0001C4B5B6823F480331A4C636023461B6BC2
:1033000023F0007303F10073236317E0154B5B6830
:1033100023F4803303F58033124C6360012805D118
:1033200023465B6823F40033636007E00D4B5B6862
:1033300023F4003303F500330A4C6360094B5B68E8
:1033400061F39543074C63600C09064B5B6864F3BB
:103350005E73044C636023465B6862F3DF736360F3
:1033600010BD0000001002401348006820F001006A
:10337000401C1149086000BF0F480068C0F34000BE
:103380000028F9D00C48406820F003000A49486042
:1033900000BF09484068C0F381000028F9D1064801
:1033A0000068064908400449086000204860086336
:1033B0004FF41F008860704700100240FFFFF2FECC
:1033C0000D49496860F301010B4A516000BF00BF1D
:1033D00000BF00BF00BF00BF00BF00BF00BF00BFF5
:1033E00000BF00BF00BF00BF00BF00BF00BF00BFE5
:1033F00000BF00BF70470000001002400248406854
:10340000C0F381007047000000100240026861F3C1
:103410000002026070474160704700210160416016
:1034200001814181017341738173C17301744174DE
:1034300070470000B0F1805F04D920F07041034A6A
:10344000116001E002494860704700000404024036
:1034500000000240D0F8A430C3F300633BB9D0F8B9
:10346000A43023F0807303F18073C0F8A4300129E5
:1034700006D1D0F8A03062F30703C0F8A03034E0E2
:10348000022906D1D0F8A03062F30F23C0F8A03093
:103490002BE0032906D1D0F8A03062F31743C0F81F
:1034A000A03022E0042906D1D0F8A03062F31F63D7
:1034B000C0F8A03019E0052906D1D0F8A43062F395
:1034C0000703C0F8A43010E0062906D1D0F8A430D4
:1034D00062F30F23C0F8A43007E0072905D1D0F824
:1034E000A43062F31743C0F8A430704702684BF66B
:1034F000EF731A40026002680B891A4302604B7C2A
:10350000026863F30D320260CB7B026863F38B22A7
:1035100002608B7B026863F3092202604B7B0268C6
:1035200063F3C71202600B7B026863F386120260CA
:103530000B7C026863F3451202604A8942600A68A4
:1035400082604A68C26070471AB103680B43036027
:1035500002E003688B4303607047000001460020CF
:103560000022B1F1805F02D9054B1A6801E0054BDA
:103570001A6802EA01030BB1012000E00020704745
:1035800000040240000002400021026822F0010213
:1035900002600022026042608260C260014640F226
:1035A000FF420A40B2F5816F0DD2CAB2083A142325
:1035B000B2FBF3F293000F229A400D4B5B681A4363
:1035C0000B4B5A6012E040F2FF420A40B2F5916F95
:1035D0000CD2CAB2083A1423B2FBF3F293000F22C2
:1035E0009A40044B1B681A43024B1A607047000054
:1035F0000000024004040240F0EE400A9FED270A5A
:1036000020EE800ABDEEC00A10EE100A00EE100A8D
:10361000B8EEC01ADFED221AB0EE600A01EE610AC0
:10362000F0EE400A00F0010179B1F5EEC00AF1EECA
:1036300010FA04DD9FED1A0A30EEC00A03E09FED98
:10364000180A30EE800AF0EE400A20EEA00ADFED04
:10365000151AB0EE611ADFED141A41EE001AB0EE41
:10366000611ADFED121A41EE001AB0EE611ADFEDB9
:10367000101A41EE001AB0EE611ADFED0E1A41EE9B
:10368000001AB0EE611ADFED0C1A41EE001A20EEBE
:10369000A01AB7EE000A01EE210A704783F9A23E94
:1036A000DA0F4940F2A3ED30017591B4B3CCCF37B6
:1036B0001408B6BA83AA2A3DFDFFFFBEF0EE400A09
:1036C0009FED280A20EE800ABDEEC00A10EE100A17
:1036D00000EE100AB8EEC01ADFED231AB0EE600A51
:1036E00001EE610AF0EE400A00F0010179B1F5EE59
:1036F000C00AF1EE10FA04DD9FED1B0A30EEC00A9D
:1037000003E09FED190A30EE800AF0EE400A20EE49
:10371000A00ADFED161AB0EE611ADFED151A41EEC0
:10372000001AB0EE611ADFED131A41EE001AB0EE86
:10373000611ADFED111A41EE001AB0EE611ADFEDE9
:103740000F1A41EE001AB0EE611ADFED0D1A41EECC
:10375000001A20EEA00A20EE201AB0EE600A01EE58
:10376000210A704783F9A23EDA0F49407ABF142F2D
:10377000CA32D4B235C538369E0A50B97888083C6A
:10378000AAAA2ABE03200B49C96801F0010109B1A8
:1037900000200EE00749C968C1F3800109B101208A
:1037A00007E00449C968C1F3001109B1022000E033
:1037B000032070470020024000B502460323FFF7B4
:1037C000E1FF034603E0FFF7DDFF0346521E0BB99E
:1037D000002AF8D102B90423184600BD03200B4982
:1037E000C96C01F0010109B100200EE00749C96C64
:1037F000C1F3800109B1012007E00449C96CC1F39C
:10380000001109B1022000E00320704700200240AF
:1038100000B502460323FFF7E1FF034603E0FFF78D
:10382000DDFF0346521E0BB9002AF8D102B904236A
:10383000184600BD70B504460D460326B4F1006F6E
:1038400016D32848844213D82748006920F0010085
:10385000401C2549086125804FF48010FFF7ACFF1C
:1038600006462148006920F001001F49086136E042
:103870001C48401C844216D3B4F1016F13D21A487D
:10388000006D20F00100401C1749086525804FF4A9
:103890008010FFF7BDFF06461348006D20F00100C1
:1038A000114908651BE0B4F1046F18D30E4890303D
:1038B000006820F00100401C0B4990310860258011
:1038C0004FF4801000F0B8F806460748D0F8900092
:1038D00020F001000449C1F8900000F087F830465C
:1038E00070BD0000FFFF0708002002400648006985
:1038F00020F080008030044908610846006D20F007
:1039000080008030086570470020024030B50446D2
:103910000325B4F1006F1BD33248844218D83248D3
:10392000006920F00200801C2F49086108464461AC
:10393000006920F04000403008614804FFF73CFF78
:1039400005462948006920F002002749086146E041
:103950002448401C84421BD3B4F1016F18D2224882
:10396000006D20F00200801C1F4908650846446570
:10397000006D20F04000403008654804FFF748FF24
:1039800005461948006D20F002001749086526E039
:10399000B4F1046F23D314489030006820F0020083
:1039A000801C1149C1F890000846C0F894400E48A8
:1039B0009030006820F0400040300B4990310860A2
:1039C0004FF0FF3000F038F805460748D0F8900077
:1039D00020F0020004499031086000F007F8284602
:1039E00030BD0000FFFF0708002002404FF00460D8
:1039F00000680248006802480068704700104008EC
:103A00000020400803200B49096801F0010109B1B9
:103A100000200EE007490968C1F3800109B10120C7
:103A200007E004490968C1F3001109B1022000E070
:103A3000032070478C20024000B502460323FFF7A5
:103A4000E1FF034603E0FFF7DDFF0346521E0BB91B
:103A5000002AF8D102B90423184600BD04480549DC
:103A60004860054848600248486403484864704715
:103A70002301674500200240AB89EFCD70B586B0C9
:103A8000064613A0FEF7C4F9002415E015482044AB
:103A9000B0F8005802A90D55290A02AA601C115459
:103AA00002A9085C009002A8035D0F4821182A466D
:103AB0000EA0FEF7ADF9A41C102CE7D316A0FEF75C
:103AC000A7F902A80FC886E80F0006B070BD000075
:103AD00052656164696E6720466C6173683A0D0ACD
:103AE0000000000000F0030800F8030820204164F3
:103AF000647220307825303858203A2030782530CC
:103B00003458202D3E20307825303258203078250A
:103B10003032580D0A0000000D0A0000F0B585B0E3
:103B2000054695E80F0001AC0FC4FFF797FF194851
:103B3000FFF7ECFE032806D017A0FEF769F9FFF7A0
:103B4000D5FE05B0F0BD1AA0FEF762F9002417E01B
:103B500001A8015D01AA601C105C41EA00260D4924
:103B600060183146FFF766FE01AF601C00963B5CB3
:103B700001A8025D0748211812A0FEF749F9A41C0C
:103B8000102CE5D31AA0FEF743F9FFF7AFFE00BFF4
:103B9000D7E7000000F80308466C6173682065727F
:103BA000617365204552524F52210D0A00000000FA
:103BB00057726974696E6720466C6173683A0D0AC2
:103BC00000000000202041646472203078253038E5
:103BD00058203A203078253032582030782530323D
:103BE00058202D3E203078253034580D0A00000032
:103BF0000D0A000070B504460D4600BF802109483B
:103C000001F099FB0028F9D0A1B2064801F07CFB35
:103C100000BF4021034801F08EFB0028F9D0204668
:103C200070BD00000048004010B5032200210120B3
:103C300002F058FC0149086010BD0000240000207B
:103C40000EB50F480F4900221346CDE9002102901E
:103C50004FF480720CA10F4802F0B4FF0E490860C7
:103C60000E480F4900221346CDE9002102904FF47F
:103C700080720CA10F4802F0A5FF0F4908600EBD2D
:103C80007409002074010020636F6D6D5F746173AF
:103C90006B000000C52B00081C000020D00900208C
:103CA00074050020636F6E74726F6C5F7461736B68
:103CB00000000000452F00082000002010B5002063
:103CC00000210022002309E00D4C246820440C4C04
:103CD000646821440A4CA46822445B1C102BF3DB6B
:103CE000C0F30F13074C2468E380C1F30F13054C96
:103CF00024682381C2F30F13024C2468638110BD32
:103D0000141100206C00002010B52DED028B022153
:103D10001848FEF7B8FD01211648FEF76BFE00BFFC
:103D200002211448FEF7B2FD0028F9D00221114803
:103D3000FEF7A9FD0F48FEF73AFE0F490880084636
:103D4000008800EE100AB8EE400A9FED0C1AC0EE93
:103D5000010A9FED0B0A20EE800AF3EE050A20EE21
:103D6000200AF7EE000A80EE208AB0EE480ABDEC89
:103D7000028B10BD0024014004000020000080459B
:103D80003333534041617047016170474FF6FF7113
:103D90000160002181710171042141710121C17112
:103DA0007047F0B50A461588ABB29579032D01D15D
:103DB00000241AE0957965B9557905F00F04557915
:103DC000182D01D1036110E05579282D0DD14361E3
:103DD0000BE0957905F00805167906F004063543E1
:103DE000D67906F0030645EA0604DDB2A5B1002146
:103DF00010E001258D401D405DB105688F000F2644
:103E0000BE40B543056005688E0004FA06F63543EA
:103E10000560491C0829ECD3FF2B15DD1B1200217E
:103E200010E001258D401D405DB145688F000F26D3
:103E3000BE40B543456045688E0004FA06F635433A
:103E40004560491C0829ECD3F0BD0000F0B50C46D4
:103E5000104F07EB1062C0F30741C0F30725C6B24D
:103E6000C5F12007A7EB010C4FF0FF3707FA0CF361
:103E7000C5F120077F1AFB40CB408B4017689F435A
:103E800017602CB106FA01FC176847EA0C071760A7
:103E9000F0BD000000000140194BD3ED001AB0EE58
:103EA000002A81EE821A31EE001A80ED001ADFED51
:103EB000151AB0EE401A11EEA01AB0EE002AC1EEAB
:103EC000021A93ED001AB0EE002AC1EE022A31EE7A
:103ED000A21A81ED001ADFED0C1AB0EE401A11EEB5
:103EE000A01AB0EE002AC1EE021A93ED001AB0EE4D
:103EF000002AC1EE022A31EEA21A82ED001A7047A2
:103F0000580000202DB2DD3F2DB2DDBF70B52DED84
:103F1000048BB0EE408AF0EE608AB0EE419A04461F
:103F20000D46B0EE490AFFF7C9FBF1EE480A60EE14
:103F3000209AB0EE490AFFF75FFB48EE809AC4ED85
:103F4000009AB0EE490AFFF757FB60EE089AB0EE10
:103F5000490AFFF7B3FB48EE809AC5ED009ABDEC25
:103F6000048B70BD0146C868704710B5016042609F
:103F700083600024C46010BD70B504460D462DB1A9
:103F8000228991B26068FFF7FDFE04E0228991B2B8
:103F90006068FFF7F9FEE56070BD000001F0B4FF56
:103FA00001F01CFF01F032FE01F0A4FE01F06EFEF4
:103FB00001F094FD01F032FE10230A4A0A490B4831
:103FC00001F054FE01210948FFF720FA02F06EF9D2
:103FD00001F03AFF01F0E4FF02F042F901F04AFE7D
:103FE00000BFFEE7E4100020044800400800024043
:103FF0002DE9F0470B4614464FF0000C00BF2C4A49
:104000001268C2F302211D4626460A46C2F107097C
:10401000B9F1040F02D94FF0040901E0C2F1070918
:10402000C84602F10409B9F1070F02D24FF00009A6
:1040300001E0A2F103094F464FF0010909FA08F91E
:10404000A9F1010909EA050909FA07F94FF0010A7E
:104050000AFA07FAAAF1010A0AEA060A49EA0A096B
:10406000CC4601466246002904DB15072E0E114D91
:104070006E5407E015072F0E0D4D0C3501F00F069D
:10408000361FAF5500BF014600290DDB00BF00BF42
:1040900001F01F050122AA404D09AD0005F1E02500
:1040A000C5F8002100BF00BF00BFBDE8F0870000D9
:1040B0000CED00E000E400E000BF00F00702064B5A
:1040C00019684FF6FF031940044B0B4343EA0221E2
:1040D000014B196000BF70470CED00E00000FA05CD
:1040E00070B52DED048BB0EE408AF0EE608AB0EE34
:1040F000419A04460D46B0EE490AFFF77DFA60EE9C
:10410000089AB0EE490AFFF7D9FA48EE809AC4ED52
:10411000009AB0EE490AFFF7D1FAF1EE480A60EED4
:10412000209AB0EE490AFFF767FA48EE809AC5ED8B
:10413000009ABDEC048B70BD2DE9F04105460E469A
:104140001648076816480068001D01F012FA681C3E
:1041500038B936B112480168091D124801F060FAF9
:104160001AE07C190E4800684460BC4207D20C4833
:104170000168091D0C48006801F038FA0CE0084895
:104180000168091D0948006801F030FA0848006814
:10419000844201D206480460BDE8F081F0000020AE
:1041A000DC000020B8130020E4000020E000002024
:1041B0000C01002010B5044601F03EFA24480068C6
:1041C000401C234908602348006840B92148046026
:1041D0000846006801280DD100F0FCF90AE01E48ED
:1041E000006838B91B480068C06AE16A884201D893
:1041F0001848046019480068401C184908600846BF
:10420000006860641649E06A0968884202D9144966
:10421000E06A0860E16A01EB8101124A02EB810069
:10422000211D01F0FDF901F031FA0B48006868B179
:1042300008480068C06AE16A884207D24FF080509F
:1042400009490860BFF34F8FBFF36F8F10BD0000A7
:10425000EC000020DC000020F80000200801002015
:10426000F40000202812002004ED00E008B501F061
:10427000E3F912480068E8B9114801F0A7F91148BC
:1042800001F0A4F90E48104908600E480F49086073
:1042900000200F4B0F4A102100900A2002F076F9FF
:1042A000064908600846006820B10BA10348006871
:1042B00001F0ACFA01F0EAF908BD00002401002089
:1042C000CC130020E01300201C010020200100205E
:1042D000F413002044140020546D725100000000BB
:1042E00010B516E001F0A8F90C48C068C468201D9C
:1042F00001F03FF90A480068401E09490860094872
:104300000068401E0749086001F0C0F9204600F02F
:104310005FF8044800680028E4D110BDA413002011
:10432000EC000020E800002070B504460D46206C2B
:1043300070B1216CE0680144E160D4E90210884268
:1043400001D32168E1602846226CE168FBF798FF01
:1043500070BD2DE9F04104460F4615464FF00008A8
:10436000A66B206C48B9206800282CD1A06802F008
:104370003FFD80460020A06025E07DB93946226CD3
:104380006068FBF77DFF216C606808446060D4E9D9
:104390000101884217D32068606014E03946226C1E
:1043A000E068FBF76DFF216CE068411AE16021686D
:1043B000E068884203D2216CA068411AE160022DB6
:1043C00001D106B1761E701CA0634046BDE8F081A5
:1043D00010B5044694F8590030B9206B01F074F917
:1043E000204601F071F91AE094F85900012803D130
:1043F000204601F069F912E094F85900022801D131
:10440000012000E0002050B900BF502080F3118847
:10441000BFF34F8FBFF36F8F00BF00BFFEE710BD2C
:104420000146084A126812680AB9012200E0002217
:104430000A600A6822B9034A1268D268106800E06C
:10444000002070471C01002030B54FF4205317485E
:1044500000F007042CB1C01D20F00700134C041B12
:104460001B1B0246124C22600024114D6C60D018B8
:10447000083820F007000F4C206000240D4D2D68F7
:104480006C600C4D2D682C601146441A4C60094C30
:1044900024680C60084D4C682C60084D4C682C60FA
:1044A0004FF00044064D2C6030BD0000E4140020A5
:1044B0003001002038010020400100203C01002094
:1044C0004C01002000BFFFF70BFF064800680128E1
:1044D000F9D94FF0805004490860BFF34F8FBFF304
:1044E0006F8FF0E72812002004ED00E02DE9F04185
:1044F00006460D4617469846069C0DB9246000E016
:104500002760E66325640121204602F0AFF884F8B5
:104510004C80BDE8F0812DE9F05F82460E46904662
:104520009B460A9F0C9C4FEA8801A522206BFBF753
:10453000B9FEA8F10100216B01EB800929F0070900
:1045400009F0070008B9012000E0002050B900BFC1
:10455000502080F31188BFF34F8FBFF36F8F00BFE0
:1045600000BFFEE786B1002507E0715D04F134006D
:104570004155705D00B902E06D1C102DF5D300BFF0
:1045800000214320015502E0002084F83400102F60
:1045900000D30F27E762E76400202065201D01F0AB
:1045A00022F804F1180001F01EF82461C7F1100090
:1045B000A06164620020606584F858005A46514644
:1045C000484600F07FFB20600B9808B10B98046010
:1045D000BDE8F09F10B5002407E004EB84010F4A0A
:1045E00002EB810000F0F2FF641C102CF5D30C48A4
:1045F00000F0ECFF0B4800F0E9FF0B4800F0E6FF8D
:104600000A4800F0E3FF0A4800F0E0FF04480949C7
:10461000086004480849086010BD00002812002006
:10462000681300207C13002090130020A4130020A6
:10463000B8130020E0000020E400002010B501467F
:10464000164800E0006803688B42FBD302464368CB
:1046500013448B4204D143684C68234443600146B1
:104660000A464B6813440468A34211D10C4C0368FA
:104670002468A34208D04B680468646823444B60F4
:1046800003681B680B6005E0054B1B680B6001E0CD
:1046900003680B60884200D0016010BD300100202B
:1046A000380100202DE9F04104460D4616461F460C
:1046B0004FF0000865602461B5420CD8F01BA16979
:1046C000884202D34FF0010811E0211D094800681B
:1046D00000F08CFF0BE0BE4204D2BD4202D34FF08B
:1046E000010804E0211D0448006800F07FFF4046F7
:1046F000BDE8F081200100201C01002070B50546B6
:1047000000F09AFFA86B08B9012400E0002400F033
:10471000BDFF204670BD70B5054600F08DFFA86B4B
:10472000E96B884201D1012400E0002400F0AEFFD3
:10473000204670BDF8B505460F461A480068C068A7
:10474000C468201D00F015FF94F8280000F0040054
:10475000E8B1A06941192B463A462046FFF7A2FF6F
:10476000D8B1002003462A4601460090204602F0B8
:104770009BFC064656B900BF502080F31188BFF35A
:104780004F8FBFF36F8F00BF00BFFEE705E094F8C7
:10479000280020F0010084F828002046216A88477C
:1047A000F8BD00001C010020F0B587B0A0E0039820
:1047B000002811DA04AE56B900BF502080F31188EA
:1047C000BFF34F8FBFF36F8F00BF00BFFEE7D6E987
:1047D0000020B168904700BF03980028E6DB059CE5
:1047E000606908B9012000E0002010B9201D00F028
:1047F000C0FE02A800F0DCF8054603980A2875D22E
:10480000DFE800F009050739416306083A4200BFB6
:1048100000BF00BF00BF94F8280040F0010084F8FA
:1048200028000498A269811803462A462046FFF70B
:1048300039FFF8B12046216A884794F8280000F033
:104840000400B8B1002000900498A1694218002328
:104850001946204602F028FC074657B900BF5020F1
:1048600080F31188BFF34F8FBFF36F8F00BF00BF7E
:10487000FEE700BF3BE000BF94F8280020F00100F5
:1048800084F8280033E000BF94F8280040F00100CD
:1048900084F828000498A061A06908B1012000E014
:1048A000002050B900BF502080F31188BFF34F8F14
:1048B000BFF36F8F00BF00BFFEE7A06941192B4611
:1048C0002A462046FFF7EEFE11E094F8280000F09B
:1048D000020018B9204600F0F7FE05E094F8280021
:1048E00020F0010084F8280001E0FFE700BF00BFCE
:1048F000002203A90448006802F068F800287FF449
:1049000056AF07B0F0BD000024010020F8B5054601
:104910000C4601F093F8684600F04AF80646009805
:1049200020BB44B9B54206D802F000FB3146284608
:10493000FFF700FF1CE03CB10E480068006808B9B2
:10494000012000E000200446A91B22460A48006816
:1049500000F072FF02F0EAFA50B94FF080500749B8
:104960000860BFF34F8FBFF36F8F01E002F0DEFAF4
:10497000F8BD0000200100202401002004ED00E02B
:1049800009480068006808B9012000E0002020B153
:104990004FF0FF300549086005E003480068C06833
:1049A0000068024908607047E00000200C01002008
:1049B00070B5044602F074F9054607480068854260
:1049C00004D200F00BF80120206001E000202060FC
:1049D00001480560284670BD2C0100202DE9F843F0
:1049E00034E025480068C068056823480068C0684E
:1049F000C468201D00F0BDFD2046216A884794F858
:104A0000280000F0040008B3A0694619AE4207D997
:104A100066602461211D1848006800F0E7FD15E07C
:104A2000002003462A4601460090204602F03CFB47
:104A3000074657B900BF502080F31188BFF34F8F4E
:104A4000BFF36F8F00BF00BFFEE700BF0A480068DA
:104A5000006808B9012000E000200028C1D0064805
:104A6000D0F8008005480068034908600348C0F892
:104A70000080BDE8F88300001C0100202001002018
:104A80000E480068401C08B9012000E0002050B921
:104A900000BF502080F31188BFF34F8FBFF36F8F9B
:104AA00000BF00BFFEE700BF502080F31188BFF3B6
:104AB0004F8FBFF36F8F00BF00BFFEE728000020BD
:104AC00008B500BF6846FFF7ABFC044620460099D6
:104AD000FFF71CFFFFF768FEF4E770B5044600F02F
:104AE000ABFD94F9455010E0606A08B9012000E080
:104AF000002038B904F1240002F0CCF918B100F01C
:104B0000FBFE00E003E0681E45B2002DECDC00BFB8
:104B1000FF2084F8450000F0B9FD00F08DFD94F908
:104B2000445010E0206908B9012000E0002048B995
:104B300004F1100002F0AEF908B100F0DDFE681ECD
:104B400045B200E001E0002DECDC00BFFF2084F85E
:104B5000440000F09BFD70BD2DE9F04104464FF08C
:104B6000000800F06BFF5148006808B9FFF76CFCC3
:104B70004F480068204000287ED13CB304F1080073
:104B8000A04223D9083404F0070000B304F0070062
:104B9000C0F108002044A04216D904F00700C0F17B
:104BA0000800044404F0070008B9012000E00020D8
:104BB00068B900BF502080F31188BFF34F8FBFF357
:104BC0006F8F00BF00BFFEE7002400E00024002C30
:104BD00054D038480068844250D8374E3046056873
:104BE00001E02E462D686868A04202D2286800289D
:104BF000F7D12E480068854240D0306800F108089F
:104C0000286830606868001B102819D92F1907F030
:104C1000070008B9012000E0002050B900BF502073
:104C200080F31188BFF34F8FBFF36F8F00BF00BFBA
:104C3000FEE76868001B78606C603846FFF7FEFC92
:104C40001C4968680968081A1A490860084600681B
:104C50001A490968884203D2164800681749086053
:104C60001349686809680843686000202860144890
:104C70000068401C124900E000E0086002F056F9AC
:104C800008F0070008B9012000E0002050B900BF7B
:104C9000502080F31188BFF34F8FBFF36F8F00BF99
:104CA00000BFFEE74046BDE8F0810000380100206B
:104CB0004C0100203C010020300100204001002078
:104CC00044010020001F4FF080730360001F21F09B
:104CD00001030360001F054B036014380260001FCE
:104CE0006FF002030360203870470000814A00081B
:104CF00010B50446D4ED041AB0EE611AD4ED031ACF
:104D0000F0EE610AD4ED021AB0EE610A00F002F88A
:104D100010BD000010B52DED048BB0EE408AF0EE12
:104D2000608AB0EE419A9FED190A28EE000ADFED85
:104D3000180A20EE200ABCEEC00A10EE102A00214C
:104D4000144800F081F99FED110A28EE800ADFED8A
:104D5000100A20EE200ABCEEC00A10EE102A022132
:104D60000C4800F071F99FED090A29EE000ADFED09
:104D7000080A20EE200ABCEEC00A10EE102A042118
:104D8000044800F061F9BDEC048B10BD0078BB4510
:104D90003333733F002C014000210170417081705A
:104DA000C1700171417181710121C1717047026847
:104DB00061F38612026070470146C86880B270478E
:104DC000C16070470246002093680B4003B900E0C1
:104DD00001207047C26922F40062C2610A7862B998
:104DE000026822F400420260026822F480420260FB
:104DF000026822F48062026036E00A78012A0ED14D
:104E0000026822F400420260026822F480420260DA
:104E1000026822F4806202F58062026024E00A786F
:104E2000022A0ED1026822F4004202F5004202601A
:104E3000026822F480420260026822F4806202600A
:104E400012E00A78032A0FD1026822F4004202F528
:104E500000420260026822F4804202F58042026051
:104E6000026822F480620260CB79026863F349220F
:104E700002604A78012A09D1CA79012A06D102685A
:104E800022F4807202F58072026003E0026822F46C
:104E9000807202604B78026863F3820202608A7853
:104EA000072A0BDD426822F4807202F580724260AC
:104EB0008A78036862F3C503036008E0426822F45D
:104EC000807242608B78026863F3C5020260CB781F
:104ED000026863F3C71202600B79026863F3CB22A6
:104EE00002604B79026863F3410202608B790268C9
:104EF00063F30002026070472DE9F04700260024AA
:104F000000250027A046A146FEF778FA8246BAF1AE
:104F1000000F06D0BAF1010F15D0BAF1020F46D139
:104F200015E02D48406DC0F3402040B12A48006B89
:104F3000C0F3406018B129482949086002E02948B7
:104F40002749086037E027482549086033E02248B0
:104F50004068C0F3004720484068C0F383441E48BF
:104F60004068C0F341750DB90F2C03D12801401CD6
:104F7000044400E0A41C27B91B486043184908609A
:104F800014E015484068C0F3404058B11248406DE5
:104F9000C0F30136B01C1349B1FBF0F06043104977
:104FA000086003E00F4860430D49086003E00D48C6
:104FB0000B49086000BF00BF07484068C0F30318F2
:104FC0000A4810F808900648006820FA09F00449D9
:104FD0000860BDE8F087000000100240006CDC02B1
:104FE0003400002000127A0000093D0054710008CE
:104FF000C1628262436923F001035B1C4361704715
:105000008B79426C63F30C3242640B78426C63F32D
:10501000070242644B79426C63F38A2242640B7943
:10502000426C63F3CB2242644B78426C63F34D32A3
:105030004264CB78426C63F38E3242648B78426C6C
:1050400063F30922426470470B4633B1022B06D04A
:10505000042B06D0062B08D105E0426306E08263EC
:1050600004E0C26302E0026400E000BF00BF7047DA
:10507000026861F3092202607047026861F3061258
:1050800002607047026861F3000202607047CA4321
:1050900002617047012A03D1C3680B43C36003E078
:1050A00012B9C3688B43C360704710B50B4633B168
:1050B000022B09D0042B0CD0062B14D10EE08469EE
:1050C00062F3C30484610FE0846962F3CB248461DA
:1050D0000AE0C46962F3C304C46105E0C46962F311
:1050E000CB24C46100E000BF00BF10BD2DE9F0413A
:1050F00000250026002701F108035C1C92F801C07E
:105100000CFA03FC1FFA8CF592F802C00CFA04FCAE
:105110001FFA8CF6D0F804C04FF0010808FA04F822
:105120002CEA080CC0F804C0D0F804C04CEA060C05
:10513000C0F804C0D0F804C04FF0010808FA03F822
:105140002CEA080CC0F804C0D0F804C04CEA050CE6
:10515000C0F804C00F4637B1022F0DD0042F14D071
:10516000062F24D11AE092F80080D0F818C068F316
:10517000061CC0F818C01BE092F80080D0F818C0D8
:1051800068F30E3CC0F818C012E092F80080D0F826
:105190001CC068F3061CC0F81CC009E092F800802F
:1051A000D0F81CC068F30E3CC0F81CC000E000BF83
:1051B00000BF4FF0010C0CEB41034FF0030C0CEB64
:1051C000410492F803C00CFA03FC1FFA8CF592F824
:1051D00004C00CFA04FC1FFA8CF64FF0010808FA20
:1051E00004F8D0F820C02CEA080CC0F820C0D0F891
:1051F00020C04CEA060CC0F820C04FF0010C0CFA9D
:1052000003FCD0F8208028EA0C08C0F82080D0F8F1
:1052100020C04CEA050CC0F820C04B004FF0020C37
:105220000CEB410492F805C04FEA41080CFA08FC67
:105230001FFA8CF592F806C04FF0020808EB4108FF
:105240000CFA08FC1FFA8CF64FF0010808FA04F873
:10525000D0F820C02CEA080CC0F820C0D0F820C03C
:105260004CEA060CC0F820C04FF0010808FA03F819
:10527000D0F820C02CEA080CC0F820C0D0F820C01C
:105280004CEA050CC0F820C0BDE8F08110B50B4613
:1052900033B1022B09D0042B0CD0062B14D10EE015
:1052A000846962F3820484610FE0846962F38A2472
:1052B00084610AE0C46962F38204C46105E0C469E0
:1052C00062F38A24C46100E000BF00BF10BD426CDD
:1052D00061F3CF3242647047026861F3C712026023
:1052E0007047426861F3061242607047026B61F3D7
:1052F000070202637047826861F3C71282607047D9
:105300000146486880B27047C1F3080242607047A6
:10531000426961F3C71242617047C26861F34D325E
:10532000C260704701F01F0212B10268426801E0DA
:10533000CA430260704702461068084008B1012065
:1053400070470020FCE741B9426922F48072426153
:10535000426922F40072426127E001290AD14269C0
:1053600022F4807202F580724261426922F4007276
:1053700042611AE002290AD1426922F48072426134
:10538000426922F4007202F5007242610DE00329C5
:105390000BD1426922F4807202F580724261426947
:1053A00022F4007202F50072426170472DE9F04369
:1053B00085B004460F46904699466846FDF78CFE38
:1053C0001748844205D01748844202D016488442C8
:1053D00001D1029E00E0039E06EB86004000B0FB78
:1053E000F7F50A20B5FBF0F100FB1150052803D2B8
:1053F0000A20B5FBF0F503E00A20B5FBF0F0451CF0
:10540000A06865F30F00A060E06868F30C30E0600E
:10541000206969F30D30206105B0BDE8F08300001C
:1054200000380140006001400064014030B5012AAD
:105430000BD100EB11431B6801F01F050124AC40A8
:10544000234300EB114423600AE000EB11431B6887
:1054500001F01F050124AC40A34300EB114423607D
:1054600030BD02460023202927D00CDC042939D086
:1054700004DC01293BD002293DD134E0082920D0A9
:10548000102938D12AE0402913D080290DD0B1F558
:10549000807F06D0B1F5007F2DD15069C0F3802305
:1054A0002BE01069C0F3801327E0D068C0F3C0136D
:1054B00023E0D068C0F380131FE0D068C0F340132E
:1054C0001BE0D068C0F3401018B9506900F001002B
:1054D00008B1012000E0002003460EE0D068C0F3D0
:1054E00000130AE000BF506900F0010305E0D06836
:1054F000C0F3002301E0002300BF00BF012B01D057
:10550000002070471068084008B10120F9E700202A
:10551000F7E741B9C26822F40072C260C26822F49F
:105520008062C2601AE001290AD1C26822F40072C6
:10553000C260C26822F4806202F58062C2600DE03F
:1055400002290BD1C26822F4007202F50072C26017
:10555000C26822F4806202F58062C2607047C2684D
:1055600061F38202C2607047C26861F3C302C26025
:10557000704701460A69D1E901309860D1E9010319
:1055800058605068884201D18868506000200861E6
:105590001068401E1060106870470000034B0360E5
:1055A000034B0B6080231360704700002C10002019
:1055B0002C0A0020034B0360034B0B604FF48073F5
:1055C00013607047881000202C0C002000F10801A7
:1055D00041604FF0FF31816000F10801C16001615D
:1055E00000210160704700210161704710B502463B
:1055F0000B685C1C0CB9106907E002F1080000E0C0
:105600004068446824689C42FAD944684C604C68FD
:10561000A160886041600A611468641C146010BD58
:1056200042684A6093688B60936859609160086132
:1056300003685B1C0360704700BF502080F3118833
:10564000BFF34F8FBFF36F8F00BF0E480068401C41
:105650000C49086008460068012812D10A48006811
:10566000C0B208B9012000E0002050B900BF5020AE
:1056700080F31188BFF34F8FBFF36F8F00BF00BF60
:10568000FEE770472800002004ED00E00D480068A8
:1056900050B900BF502080F31188BFF34F8FBFF384
:1056A0006F8F00BF00BFFEE706480068401E054937
:1056B00008600846006820B9002080F3118800BF08
:1056C00000BF70472800002070B506463546002E02
:1056D00044D0083D2C46224960680968084008B15A
:1056E000012000E0002050B900BF502080F3118855
:1056F000BFF34F8FBFF36F8F00BF00BFFEE720687F
:1057000008B9012000E0002050B900BF502080F30C
:105710001188BFF34F8FBFF36F8F00BF00BFFEE74D
:105720000F49606809680840C0B12068B0B90C49E9
:10573000606809688843606000F080F90949606822
:1057400009680844074908602046FEF777FF0648C5
:105750000068401C0449086001F0E8FB70BD0000CF
:105760004C0100203C0100204801002000204FF0A7
:10577000E02108618861064800684FF47A71B0FB47
:10578000F1F0401E4FF0E0214861072008617047AA
:105790003400002070B5FAF75DFD0446102C16D3D6
:1057A00004F1E02090F8F05315480078854201DBC1
:1057B000012000E0002050B900BF502080F3118884
:1057C000BFF34F8FBFF36F8F00BF00BFFEE70D48E1
:1057D000006800F4E0600C490968884201D80120A3
:1057E00000E0002050B900BF502080F31188BFF3C3
:1057F0004F8FBFF36F8F00BF00BFFEE770BD00008B
:105800002C0000200CED00E03000002002460020BB
:105810000BE0084B53F8303033B9064B43F83010E7
:1058200003EBC0035A6002E0401C0828F1D300BF1C
:1058300070470000E81100202DE9F04105460E46B2
:1058400017462C46FFF7F8FE94F94400401C10B9A7
:10585000002084F8440094F94500401C10B9002051
:1058600084F84500FFF712FFA06B28B93A4631468D
:1058700004F1240000F062F82046FFF72EF9BDE89D
:10588000F081000070B504460025D4B112480068CC
:1058900008B9012000E0002050B900BF502080F37B
:1058A0001188BFF34F8FBFF36F8F00BF00BFFEE7BC
:1058B00000F0C4F800212046FEF73EFC01F036FB64
:1058C00005463DB94FF0805004490860BFF34F8F43
:1058D000BFF36F8F70BD00001801002004ED00E0E1
:1058E0000349096801600349096841607047000085
:1058F00004010020F00000200120014908607047E9
:105900000001002070B504460D4654B900BF502078
:1059100080F31188BFF34F8FBFF36F8F00BF00BFBD
:10592000FEE70548016818312046FFF75FFE0121B8
:105930002846FEF701FC70BDDC00002070B505466E
:105940000E46144655B900BF502080F31188BFF3AE
:105950004F8FBFF36F8F00BF00BFFEE7064801689F
:1059600018312846FFF75CFE0CB14FF0FF36214698
:105970003046FEF7E1FB70BDDC00002010B586B0BC
:1059800000200590049003AA04A905A8FFF706FECD
:105990000022DDE904101346CDE9002102901FA189
:1059A0002048039A01F00EF91F4908600846006874
:1059B00008B1012400E00024012C02D101F038FBE1
:1059C0000446012C15D100BF502080F31188BFF38D
:1059D0004F8FBFF36F8F00BF4FF0FF301349086048
:1059E00001201349086000201249086000F0ACFC57
:1059F00010E0601C08B1012000E0002050B900BF99
:105A0000502080F31188BFF34F8FBFF36F8F00BF1B
:105A100000BFFEE70848006806B010BD49444C4589
:105A200000000000C5440008100100200C01002007
:105A3000F8000020F0000020140100200248006857
:105A4000401C014908607047180100201E4800688A
:105A500018B101201D49086034E000201B4908608E
:105A60001B4801680CE051B900BF502080F3118839
:105A7000BFF34F8FBFF36F8F00BF00BFFEE7491E1C
:105A800001EB8100134A52F8200008B9012000E020
:105A900000200028E7D101EB81020E4B03EB8200CE
:105AA00042685268426000F108024368934202D1A2
:105AB0004268526842604268D268074B1A600448E4
:105AC000016000BF704700001801002000010020A5
:105AD000F400002028120020DC0000200EB501A8F0
