:020000040800F2
:10000000E03A00205D0200083304000843030008C2
:1000100047030008ED020008850600080000000004
:100020000000000000000000000000009D0100082A
:100030004103000800000000F901000875040008F1
:1000400077020008770200087702000877020008AC
:10005000770200087702000877020008770200089C
:10006000770200087702000877020008F102000812
:10007000770200087702000877020008770200087C
:10008000770200087702000877020008770200086C
:10009000770200087702000877020008770200085C
:1000A000770200087702000877020008770200084C
:1000B000770200087702000877020008770200083C
:1000C000770200087702000877020008770200082C
:1000D000770200087702000877020008F50400089C
:1000E000770200087702000877020008770200080C
:1000F00077020008770200087702000877020008FC
:1001000077020008770200087702000877020008EB
:1001100077020008770200087702000877020008DB
:1001200077020008770200087702000877020008CB
:1001300077020008770200087702000877020008BB
:1001400000000000000000000000000000000000AF
:10015000770200087702000877020008770200089B
:10016000770200087702000877020008770200088B
:10017000770200087702000877020008770200087B
:1001800077020008DFF810D000F09EF80048004722
:10019000FD0E0008AFF30080E03A00202C4B1968F8
:1001A0000868B0E8F04F80F30988BFF36F8F4FF015
:1001B000000080F3118870470000000008480068C4
:1001C000006880F308884FF0000080F3148862B65E
:1001D00061B6BFF34F8FBFF36F8F00DF00BF00BF6B
:1001E00008ED00E0DFF80C00016841F470010160E7
:1001F000704700BF88ED00E0EFF30980BFF36F8F19
:10020000134B1A681EF0100F08BF20ED108A20E96A
:10021000F04F106009B44FF0500080F31188BFF325
:100220004F8FBFF36F8F02F0A5FB4FF0000080F3FC
:10023000118809BC19680868B0E8F04F1EF0100F6B
:1002400008BFB0EC108A80F30988BFF36F8F704746
:1002500038000020EFF30580704700000648804713
:1002600006480047FEE7FEE7FEE7FEE7FEE7FEE79B
:10027000FEE7FEE7FEE7FEE78504000885010008CB
:1002800040EA01039B0703D009E008C9121F08C018
:10029000042AFAD203E011F8013B00F8013B521E98
:1002A000F9D27047D2B201E000F8012B491EFBD20F
:1002B00070470022F6E710B513460A460446194671
:1002C000FFF7F0FF204610BD064C074D06E0E06842
:1002D00040F0010394E8070098471034AC42F6D38D
:1002E000FFF754FF444200086442000800BFFEE7E5
:1002F00008B500200090022000F0E0FCC0B1022010
:1003000000F048FC00210B4800F030FC0A4800686F
:1003100070B169460848006803F018FA009838B1CF
:100320004FF0805005490860BFF34F8FBFF36F8FC8
:1003300008BD0000080002400800002004ED00E0B5
:10034000704700BFFEE700BFFEE700002DE9F04167
:100350002DED028B04462189606800F029FD2046BE
:1003600000F03EF80546204600F03AF806462046E2
:1003700000F036F807462189606800F01BFD28046C
:1003800040EA06203843801208EE100AB8EE480A08
:10039000DFED0C0A20EE200ADFED0B0A80EE201ABA
:1003A000F0EE418A9FED090A28EE800ADFED050A8A
:1003B00080EE201A84ED031A94ED030ABDEC028B43
:1003C000BDE8F0810000B44300008046D00FC94072
:1003D00010B50248FFF7BAFF10BD0000280000204A
:1003E00070B50446002506E0681C80B205460A2860
:1003F00001DD002070BD0221206801F029FC0028E9
:10040000F2D00021206801F021FC002506E0681CE4
:1004100080B205460A2801DD0020EBE701212068B3
:1004200001F016FC0028F2D0206801F00BFCC0B2ED
:10043000E0E77047F0B503460C4603F00701C1F151
:100440000700042801D9042001E0C1F10700064695
:10045000081D072801D2002000E0C81E0546012023
:10046000B040401E2040A8400127AF407F1E1740EB
:100470003843F0BD10B503F021FC012801D002F093
:10048000D7FE10BD1848006840F470001649086097
:100490001648006820F00100401C1449086000BFA5
:1004A00012480068C0F340000028F9D00F484068A7
:1004B00020F003000D49486000BF0C484068C0F3BD
:1004C00081000028F9D10948006809490840074916
:1004D00008600020486008634FF41F008860C8036C
:1004E000014980390860704788ED00E00010024043
:1004F000FFFFF2FE10B52021084801F0DEFE58B1E2
:10050000064801F035FEC4B2204600F009F820216B
:10051000024801F03BFE00BF10BD00000048004053
:1005200008B52A49097881B9A5280ED10021284AA1
:10053000117011460A780978491C254B1970254914
:1005400088540121214A11703EE02049097801298F
:100550003AD11F490A780978491C1D4B19701D4969
:10056000885419460978082925D11A49C979492991
:1005700021D10022002104E0164B5B5C1344DAB267
:10058000491C0629F8DB13498979914205D00021DD
:100590000F4B19700D4B197008BD0E4949780E4B61
:1005A00019700C49D1F8021000910021084B197004
:1005B000064B197000BF06490978082904DB0021A1
:1005C000034A1170014A117000BFE5E726000020C0
:1005D000250000201D000020270000202DE9F04705
:1005E00005460E4617460024B8064FEA1068A14695
:1005F000B246A5222146641C1F4842542146641C71
:1006000045542146641C00F80180002008E01AF8D7
:1006100000302146621CD4B2174A5354411CC8B260
:100620004045F4DB002006E01349095C494401F031
:10063000FF09411CC8B2A042F6DB2046611CCCB2C7
:100640000D4901F8009049222046611CCCB20A49AC
:100650000A5400BF01210948006803F0ADF90028E1
:10066000F8D12146064800F086FA0121044800F03E
:100670007DFABDE8F0870000D00B002008000020C4
:100680000800024000BFFEE702480068C0F30220F5
:10069000704700000CED00E010B5002804DB0A07ED
:1006A000130E054A135406E00A07140E034A00F01D
:1006B0000F031B1FD45410BD00E400E018ED00E050
:1006C00002E008C8121F08C1002AFAD1704770471B
:1006D000002001E001C1121F002AFBD17047000079
:1006E00008B5012202212A4800F0DEFA0122294938
:1006F000294801F0C7FD9FED290A8DED000A10235E
:10070000274A28A1294800F0E0FB00243EE02848C1
:10071000007870B1254800F0D5FB50B9012123487D
:1007200000F0DAFB322001F0D9FF00211F4800F071
:10073000D3FBFFF74DFE1F4880ED000A1C480078F0
:10074000012804D002280BD0032813D10DE0012288
:1007500069461046FFF742FF0020154908700AE07D
:10076000012400201249087005E0002400201049EF
:10077000087000E000BF00BF012C04D101220D4928
:100780000220FFF72BFF012001F0A8FFBFE70000C8
:100790000800024005000C00004800409A99993F6B
:1007A000000C01404C45443100000000AC0000202A
:1007B00027000020000000200349496860F307116A
:1007C000014A516070470000001002400349496827
:1007D00060F30A21014A5160704700000010024096
:1007E0000349496860F3CD21014A51607047000018
:1007F00000100240012807D10749496D21F030015E
:100800003031054A516505E00349496D21F0300159
:10081000014A51657047000000100240052827D2A8
:10082000DFE800F0030A11181F00134A126861F391
:100830000002114B1A601CE00F4A126861F310426B
:100840000D4B1A6015E00C4A126861F318620A4BEE
:100850001A600EE0084A126A61F30002064B1A623F
:1008600007E0054A526A61F30002034B5A6200E056
:1008700000BF00BF70470000001002402DE9F041AA
:10088000014600270022002590460023002400F0A6
:1008900065F9064626B1012E12D0022E43D112E090
:1008A0003948406DC0F3402038B13748006BC0F381
:1008B000406010B13548086001E03548086035E017
:1008C0003348086032E030484068C0F300482E48A2
:1008D0004068C0F383422C484068C0F341750DB9AD
:1008E0000F2A03D12801401C024400E0921CB8F1F9
:1008F000000F03D127485043086013E022484068A6
:10090000C0F3404058B12048406DC0F30137B81CD7
:10091000DFF87CC0BCFBF0F05043086002E01C48EC
:100920005043086002E01A48086000BF00BF164844
:100930004068C0F303131848C45C0868E04048608E
:1009400011484068C0F302231448C45C4868E04082
:10095000C8600D484068C0F3C2231148C45C4868B1
:10096000E040886008484068C0F30073064840686B
:10097000C0F3813040EA83030A48C45C8868B0FB56
:10098000F4F00861BDE8F08100100240006CDC0268
:1009900000127A0000093D000C4200081C420008C9
:1009A000244200082C42000810B501460020094BE3
:1009B00003EB1142126801F01F040123A3401A4007
:1009C00001F01F040123A3409A4200D000E001205F
:1009D00010BD00000010024030B50024002500E0EA
:1009E000641C1120FFF7E0FF012802D0B4F5405F3E
:1009F000F6D31120FFF7D8FF012801D0002500E031
:100A00000125284630BD000010B501290DD10E4B3F
:100A100003EB1042126800F01F040123A3401A43A5
:100A2000094C04EB10431A600CE0074B03EB104237
:100A3000126800F01F040123A3409A43024C04EB08
:100A400010431A6010BD00000010024010B568B9D4
:100A50001C4B5B6823F480331A4C636023461B6B8A
:100A600023F0007303F10073236317E0154B5B68F9
:100A700023F4803303F58033124C6360012805D1E1
:100A800023465B6823F40033636007E00D4B5B682B
:100A900023F4003303F500330A4C6360094B5B68B1
:100AA00061F39543074C63600C09064B5B6864F384
:100AB0005E73044C636023465B6862F3DF736360BC
:100AC00010BD0000001002401348006820F0010033
:100AD000401C1149086000BF0F480068C0F3400087
:100AE0000028F9D00C48406820F003000A4948600B
:100AF00000BF09484068C0F381000028F9D10648CA
:100B000000680649084004490860002048600863FE
:100B10004FF41F008860704700100240FFFFF2FE94
:100B20000D49496860F301010B4A516000BF00BFE5
:100B300000BF00BF00BF00BF00BF00BF00BF00BFBD
:100B400000BF00BF00BF00BF00BF00BF00BF00BFAD
:100B500000BF00BF7047000000100240024840681C
:100B6000C0F381007047000000100240026861F38A
:100B700000020260704741607047002101604160DF
:100B800001814181017341738173C17301744174A7
:100B900070470000B0F1805F04D920F07041034A33
:100BA000116001E0024948607047000004040240FF
:100BB00000000240D0F8A430C3F300633BB9D0F882
:100BC000A43023F0807303F18073C0F8A4300129AE
:100BD00006D1D0F8A03062F30703C0F8A03034E0AB
:100BE000022906D1D0F8A03062F30F23C0F8A0305C
:100BF0002BE0032906D1D0F8A03062F31743C0F8E8
:100C0000A03022E0042906D1D0F8A03062F31F639F
:100C1000C0F8A03019E0052906D1D0F8A43062F35D
:100C20000703C0F8A43010E0062906D1D0F8A4309C
:100C300062F30F23C0F8A43007E0072905D1D0F8EC
:100C4000A43062F31743C0F8A430704702684BF633
:100C5000EF731A40026002680B891A4302604B7CF2
:100C6000026863F30D320260CB7B026863F38B2270
:100C700002608B7B026863F3092202604B7B02688F
:100C800063F3C71202600B7B026863F38612026093
:100C90000B7C026863F3451202604A8942600A686D
:100CA00082604A68C26070471AB103680B430360F0
:100CB00002E003688B430360704700000146002098
:100CC0000022B1F1805F02D9054B1A6801E0054BA3
:100CD0001A6802EA01030BB1012000E0002070470E
:100CE00000040240000002400021026822F00102DC
:100CF00002600022026042608260C260014640F2EF
:100D0000FF420A40B2F5816F0DD2CAB2083A1423ED
:100D1000B2FBF3F293000F229A400D4B5B681A432B
:100D20000B4B5A6012E040F2FF420A40B2F5916F5D
:100D30000CD2CAB2083A1423B2FBF3F293000F228A
:100D40009A40044B1B681A43024B1A60704700001C
:100D5000000002400404024010B5032200210120DB
:100D600002F080FA0149086010BD00000800002070
:100D70000EB50848084900221346CDE9002102902B
:100D80004FF4807205A1084802F03AFF0749086055
:100D90000EBD0000BC040020BC000020636F6D6D20
:100DA0005F7461736B000000E1060008040000201E
:100DB00041617047016170474FF6FF71016000218A
:100DC00081710171042141710121C1717047F0B538
:100DD0000A461588ABB29579032D01D100241AE09B
:100DE000957965B9557905F00F045579182D01D11C
:100DF000036110E05579282D0DD143610BE0957901
:100E000005F00805167906F004063543D67906F094
:100E1000030645EA0604DDB2A5B1002110E0012574
:100E20008D401D405DB105688F000F26BE40B54363
:100E3000056005688E0004FA06F635430560491C16
:100E40000829ECD3FF2B15DD1B12002110E0012532
:100E50008D401D405DB145688F000F26BE40B543F3
:100E6000456045688E0004FA06F635434560491C26
:100E70000829ECD3F0BD0000F0B50C46104F07EB8D
:100E80001062C0F30741C0F30725C6B2C5F12007C1
:100E9000A7EB010C4FF0FF3707FA0CF3C5F1200761
:100EA0007F1AFB40CB408B4017689F4317602CB1E3
:100EB00006FA01FC176847EA0C071760F0BD00004E
:100EC000000001400146C868704710B501604260EB
:100ED00083600024C46010BD70B504460D462DB17A
:100EE000228991B26068FFF763FF04E0228991B222
:100EF0006068FFF75FFFE56070BD000001F0ECFE89
:100F000001F05EFE01F07EFD01F0F0FD01F0BAFDA2
:100F100001F080FD1023094A09490A4801F0A2FDA9
:100F200001210848FFF722FE02F082F801F074FE6A
:100F300001F01EFF01F09AFD00BFFEE7D00B00207C
:100F400004480040080002402DE9F0470B461446D3
:100F50004FF0000C00BF2C4A1268C2F302211D465C
:100F600026460A46C2F10709B9F1040F02D94FF02B
:100F7000040901E0C2F10709C84602F10409B9F108
:100F8000070F02D24FF0000901E0A2F103094F461A
:100F90004FF0010909FA08F9A9F1010909EA05095F
:100FA00009FA07F94FF0010A0AFA07FAAAF1010A49
:100FB0000AEA060A49EA0A09CC46014662460029BD
:100FC00004DB15072E0E114D6E5407E015072F0E8A
:100FD0000D4D0C3501F00F06361FAF5500BF014611
:100FE00000290DDB00BF00BF01F01F050122AA4050
:100FF0004D09AD0005F1E025C5F8002100BF00BF97
:1010000000BFBDE8F08700000CED00E000E400E068
:1010100000BF00F00702064B19684FF6FF031940A6
:10102000044B0B4343EA0221014B196000BF704798
:101030000CED00E00000FA052DE9F04105460E46F2
:101040001648076816480068001D01F0BEF9681CC4
:1010500038B936B112480168091D124801F00CFA7E
:101060001AE07C190E4800684460BC4207D20C4864
:101070000168091D0C48006801F0E4F90CE008481B
:101080000168091D0948006801F0DCF9084800689A
:10109000844201D206480460BDE8F0814C00002083
:1010A00038000020B00D0020400000203C0000204F
:1010B0006800002010B5044601F0EAF924480068F1
:1010C000401C234908602348006840B92148046057
:1010D0000846006801280DD100F006FA0AE01E4813
:1010E000006838B91B480068C06AE16A884201D8C4
:1010F0001848046019480068401C184908600846F0
:10110000006860641649E06A0968884202D9144997
:10111000E06A0860E16A01EB8101124A02EB81009A
:10112000211D01F0A9F901F0DDF90B48006868B153
:1011300008480068C06AE16A884207D24FF08050D0
:1011400009490860BFF34F8FBFF36F8F10BD0000D8
:1011500048000020380000205400002064000020D7
:1011600050000020200C002004ED00E008B501F044
:101170008FF912480068E8B9114801F053F9114895
:1011800001F050F90E48104908600E480F490860F8
:1011900000200F4B0F4A102100900A2002F0B6F8F1
:1011A000064908600846006820B10BA103480068A2
:1011B00001F058FA01F096F908BD00008000002007
:1011C000C40D0020D80D0020780000207C000020F5
:1011D000EC0D00203C0E0020546D72510000000008
:1011E00010B516E001F054F90C48C068C468201D21
:1011F00001F0EBF80A480068401E094908600948F8
:101200000068401E0749086001F06CF9204600F0B4
:101210005FF8044800680028E4D110BD9C0D002050
:10122000480000204400002070B504460D46206CA4
:1012300070B1216CE0680144E160D4E90210884299
:1012400001D32168E1602846226CE168FFF718F8B5
:1012500070BD2DE9F04104460F4615464FF00008D9
:10126000A66B206C48B9206800282CD1A06802F039
:10127000DDFD80460020A06025E07DB93946226C66
:101280006068FEF7FDFF216C606808446060D4E987
:101290000101884217D32068606014E03946226C4F
:1012A000E068FEF7EDFF216CE068411AE16021681B
:1012B000E068884203D2216CA068411AE160022DE7
:1012C00001D106B1761E701CA0634046BDE8F081D6
:1012D00010B5044694F8590030B9206B01F020F99C
:1012E000204601F01DF91AE094F85900012803D1B5
:1012F000204601F015F912E094F85900022801D1B6
:10130000012000E0002050B900BF502080F3118878
:10131000BFF34F8FBFF36F8F00BF00BFFEE710BD5D
:1013200001464A6A22B10A6B1268C2F1100000E05D
:10133000002070470146084A126812680AB9012263
:1013400000E000220A600A6822B9034A1268D268E3
:10135000106800E0002070477800002030B54FF49E
:101360002053174800F007042CB1C01D20F00700DF
:10137000134C041B1B1B0246124C22600024114D0F
:101380006C60D018083820F007000F4C2060002453
:101390000D4D2D686C600C4D2D682C601146441A63
:1013A0004C60094C24680C60084D4C682C60084D5A
:1013B0004C682C604FF00044064D2C6030BD00009E
:1013C000DC0E00208C000020940000209C000020F7
:1013D00098000020A800002000BFFFF701FF06488A
:1013E00000680128F9D94FF0805004490860BFF324
:1013F0004F8FBFF36F8FF0E7200C002004ED00E06B
:101400002DE9F04106460D4617469846069C0DB953
:10141000246000E02760E66325640121204601F096
:10142000E5FF84F84C80BDE8F0812DE9F05F82464D
:101430000E4690469B460A9F0C9C4FEA8801A522C7
:10144000206BFEF72FFFA8F10100216B01EB800953
:1014500029F0070909F0070008B9012000E0002081
:1014600050B900BF502080F31188BFF34F8FBFF3F6
:101470006F8F00BF00BFFEE786B1002507E0715DFA
:1014800004F134004155705D00B902E06D1C102D6F
:10149000F5D300BF00214320015502E0002084F86D
:1014A0003400102F00D30F27E762E7640020206587
:1014B000201D00F0C4FF04F1180000F0C0FF2461FB
:1014C000C7F11000A06164620020606584F85800D4
:1014D0005A465146484600F08FFB20600B9808B1F1
:1014E0000B980460BDE8F09F10B5002407E004EB02
:1014F00084010F4A02EB810000F094FF641C102C61
:10150000F5D30C4800F08EFF0B4800F08BFF0B4822
:1015100000F088FF0A4800F085FF0A4800F082FFCB
:1015200004480949086004480849086010BD0000E3
:10153000200C0020600D0020740D0020880D00207C
:101540009C0D0020B00D00203C0000204000002039
:1015500010B50146164800E0006803688B42FBD3D3
:101560000246436813448B4204D143684C682344C9
:10157000436001460A464B6813440468A34211D1F4
:101580000C4C03682468A34208D04B680468646864
:1015900023444B6003681B680B6005E0054B1B6828
:1015A0000B6001E003680B60884200D0016010BD51
:1015B0008C000020940000202DE9F04104460D46E7
:1015C00016461F464FF0000865602461B5420CD8EE
:1015D000F01BA169884202D34FF0010811E0211DE0
:1015E0000948006800F02EFF0BE0BE4204D2BD4265
:1015F00002D34FF0010804E0211D0448006800F008
:1016000021FF4046BDE8F0817C00002078000020EA
:1016100070B5054600F03CFFA86B08B9012400E056
:10162000002400F05FFF204670BD70B5054600F055
:101630002FFFA86BE96B884201D1012400E0002450
:1016400000F050FF204670BDF8B505460F461A4819
:101650000068C068C468201D00F0B7FE94F8280038
:1016600000F00400E8B1A06941192B463A46204633
:10167000FFF7A2FFD8B1002003462A46014600909A
:10168000204602F081FD064656B900BF502080F387
:101690001188BFF34F8FBFF36F8F00BF00BFFEE70E
:1016A00005E094F8280020F0010084F82800204686
:1016B000216A8847F8BD000078000020F0B587B0A7
:1016C000A0E00398002811DA04AE56B900BF5020FC
:1016D00080F31188BFF34F8FBFF36F8F00BF00BF40
:1016E000FEE7D6E90020B168904700BF03980028C4
:1016F000E6DB059C606908B9012000E0002010B914
:10170000201D00F062FE02A800F0DCF805460398F8
:101710000A2875D2DFE800F0090507394163060899
:101720003A4200BF00BF00BF00BF94F8280040F05D
:10173000010084F828000498A269811803462A460B
:101740002046FFF739FFF8B12046216A884794F810
:10175000280000F00400B8B1002000900498A169AE
:10176000421800231946204602F00EFD074657B9DD
:1017700000BF502080F31188BFF34F8FBFF36F8FEE
:1017800000BF00BFFEE700BF3BE000BF94F82800A9
:1017900020F0010084F8280033E000BF94F828000E
:1017A00040F0010084F828000498A061A06908B105
:1017B000012000E0002050B900BF502080F31188C4
:1017C000BFF34F8FBFF36F8F00BF00BFFEE7A0696D
:1017D00041192B462A462046FFF7EEFE11E094F809
:1017E000280000F0020018B9204600F099FE05E03C
:1017F00094F8280020F0010084F8280001E0FFE7B9
:1018000000BF00BF002203A90448006802F020F8CE
:1018100000287FF456AF07B0F0BD00008000002024
:10182000F8B505460C4601F09DF8684600F04AF808
:101830000646009820BB44B9B54206D802F0E6FB44
:1018400031462846FFF700FF1CE03CB10E48006817
:10185000006808B9012000E000200446A91B2246C8
:101860000A48006800F014FF02F0D0FB50B94FF0B6
:10187000805007490860BFF34F8FBFF36F8F01E0BF
:1018800002F0C4FBF8BD00007C00002080000020B6
:1018900004ED00E009480068006808B9012000E094
:1018A000002020B14FF0FF300549086005E00348F3
:1018B0000068C06800680249086070473C0000206A
:1018C0006800002070B5044602F008FA0546074893
:1018D0000068854204D200F00BF80120206001E08E
:1018E0000020206001480560284670BD8800002067
:1018F0002DE9F84334E025480068C06805682348AE
:101900000068C068C468201D00F05FFD2046216AA1
:10191000884794F8280000F0040008B3A06946192D
:10192000AE4207D966602461211D1848006800F0A6
:1019300089FD15E0002003462A4601460090204616
:1019400002F022FC074657B900BF502080F31188EF
:10195000BFF34F8FBFF36F8F00BF00BFFEE700BF25
:101960000A480068006808B9012000E0002000284B
:10197000C1D00648D0F800800548006803490860D7
:101980000348C0F80080BDE8F8830000780000201C
:101990007C0000200E480068401C08B9012000E0CF
:1019A000002050B900BF502080F31188BFF34F8F43
:1019B000BFF36F8F00BF00BFFEE700BF502080F372
:1019C0001188BFF34F8FBFF36F8F00BF00BFFEE7DB
:1019D0000C00002008B500BF6846FFF7ABFC0446CA
:1019E00020460099FFF71CFFFFF768FEF4E770B58B
:1019F000044600F04DFD94F9455010E0606A08B9C6
:101A0000012000E0002038B904F1240002F0B2FA0D
:101A100018B100F09DFE00E003E0681E45B2002D05
:101A2000ECDC00BFFF2084F8450000F05BFD00F017
:101A30002FFD94F9445010E0206908B9012000E01E
:101A4000002048B904F1100002F094FA08B100F047
:101A50007FFE681E45B200E001E0002DECDC00BF17
:101A6000FF2084F8440000F03DFD70BD2DE9F041F9
:101A700004464FF0000800F075FF5148006808B9AF
:101A8000FFF76CFC4F480068204000287ED13CB333
:101A900004F10800A04223D9083404F0070000B381
:101AA00004F00700C0F108002044A04216D904F059
:101AB0000700C0F10800044404F0070008B9012041
:101AC00000E0002068B900BF502080F31188BFF308
:101AD0004F8FBFF36F8F00BF00BFFEE7002400E011
:101AE0000024002C54D038480068844250D8374E27
:101AF0003046056801E02E462D686868A04202D293
:101B000028680028F7D12E480068854240D0306808
:101B100000F10808286830606868001B102819D98F
:101B20002F1907F0070008B9012000E0002050B984
:101B300000BF502080F31188BFF34F8FBFF36F8F2A
:101B400000BF00BFFEE76868001B78606C60384625
:101B5000FFF7FEFC1C4968680968081A1A49086002
:101B6000084600681A490968884203D21648006886
:101B700017490860134968680968084368600020CD
:101B8000286014480068401C124900E000E008602A
:101B900002F03CFA08F0070008B9012000E000203C
:101BA00050B900BF502080F31188BFF34F8FBFF3AF
:101BB0006F8F00BF00BFFEE74046BDE8F081000028
:101BC00094000020A8000020980000208C00002035
:101BD0009C000020A00000200648006830B10549A4
:101BE000096801F15000096D491C01600148006855
:101BF0007047000038000020001F4FF08073036022
:101C0000001F21F001030360001F054B036014381F
:101C10000260001F6FF0020303602038704700006D
:101C2000951900080021017041708170C170017127
:101C3000417181710121C1717047026861F386129F
:101C4000026070470146C86880B27047C160704743
:101C50000246002093680B4003B900E00120704762
:101C6000C26922F40062C2610A7862B9026822F491
:101C700000420260026822F480420260026822F49C
:101C80008062026036E00A78012A0ED1026822F4EE
:101C900000420260026822F480420260026822F47C
:101CA000806202F58062026024E00A78022A0ED186
:101CB000026822F4004202F500420260026822F447
:101CC00080420260026822F48062026012E00A78B8
:101CD000032A0FD1026822F4004202F5004202609A
:101CE000026822F4804202F580420260026822F417
:101CF00080620260CB79026863F3492202604A780D
:101D0000012A09D1CA79012A06D1026822F4807217
:101D100002F58072026003E0026822F480720260C1
:101D20004B78026863F3820202608A78072A0BDD2F
:101D3000426822F4807202F5807242608A780368F9
:101D400062F3C503036008E0426822F480724260D7
:101D50008B78026863F3C5020260CB78026863F394
:101D6000C71202600B79026863F3CB2202604B79E1
:101D7000026863F3410202608B79026863F3000238
:101D8000026070472DE9F047002600240025002757
:101D9000A046A146FEF7E2FE8246BAF1000F06D049
:101DA000BAF1010F15D0BAF1020F46D115E02D4856
:101DB000406DC0F3402040B12A48006BC0F3406042
:101DC00018B129482949086002E0294827490860D4
:101DD00037E027482549086033E022484068C0F3CF
:101DE000004720484068C0F383441E484068C0F361
:101DF00041750DB90F2C03D12801401C044400E0AB
:101E0000A41C27B91B4860431849086014E0154812
:101E10004068C0F3404058B11248406DC0F30136ED
:101E2000B01C1349B1FBF0F060431049086003E0B7
:101E30000F4860430D49086003E00D480B490860F6
:101E400000BF00BF07484068C0F303180A4810F8F5
:101E500008900648006820FA09F004490860BDE8C7
:101E6000F087000000100240006CDC021800002027
:101E700000127A0000093D0034420008C16282620B
:101E8000436923F001035B1C436170478B79426C0B
:101E900063F30C3242640B78426C63F307024264D2
:101EA0004B79426C63F38A2242640B79426C63F390
:101EB000CB2242644B78426C63F34D324264CB7860
:101EC000426C63F38E3242648B78426C63F3092276
:101ED000426470470B4633B1022B06D0042B06D068
:101EE000062B08D105E0426306E0826304E0C2638A
:101EF00002E0026400E000BF00BF7047026861F3C7
:101F0000092202607047026861F30612026070479E
:101F1000026861F300020260704710B50B4633B1EE
:101F2000022B09D0042B0CD0062B14D10EE08469AF
:101F300062F3C30484610FE0846962F3CB2484619B
:101F40000AE0C46962F3C304C46105E0C46962F3D2
:101F5000CB24C46100E000BF00BF10BD2DE9F041FB
:101F600000250026002701F108035C1C92F801C03F
:101F70000CFA03FC1FFA8CF592F802C00CFA04FC70
:101F80001FFA8CF6D0F804C04FF0010808FA04F8E4
:101F90002CEA080CC0F804C0D0F804C04CEA060CC7
:101FA000C0F804C0D0F804C04FF0010808FA03F8E4
:101FB0002CEA080CC0F804C0D0F804C04CEA050CA8
:101FC000C0F804C00F4637B1022F0DD0042F14D033
:101FD000062F24D11AE092F80080D0F818C068F3D8
:101FE000061CC0F818C01BE092F80080D0F818C09A
:101FF00068F30E3CC0F818C012E092F80080D0F8E8
:102000001CC068F3061CC0F81CC009E092F80080F0
:10201000D0F81CC068F30E3CC0F81CC000E000BF44
:1020200000BF4FF0010C0CEB41034FF0030C0CEB25
:10203000410492F803C00CFA03FC1FFA8CF592F8E5
:1020400004C00CFA04FC1FFA8CF64FF0010808FAE1
:1020500004F8D0F820C02CEA080CC0F820C0D0F852
:1020600020C04CEA060CC0F820C04FF0010C0CFA5E
:1020700003FCD0F8208028EA0C08C0F82080D0F8B3
:1020800020C04CEA050CC0F820C04B004FF0020CF9
:102090000CEB410492F805C04FEA41080CFA08FC29
:1020A0001FFA8CF592F806C04FF0020808EB4108C1
:1020B0000CFA08FC1FFA8CF64FF0010808FA04F835
:1020C000D0F820C02CEA080CC0F820C0D0F820C0FE
:1020D0004CEA060CC0F820C04FF0010808FA03F8DB
:1020E000D0F820C02CEA080CC0F820C0D0F820C0DE
:1020F0004CEA050CC0F820C0BDE8F08110B50B46D5
:1021000033B1022B09D0042B0CD0062B14D10EE0D6
:10211000846962F3820484610FE0846962F38A2433
:1021200084610AE0C46962F38204C46105E0C469A1
:1021300062F38A24C46100E000BF00BF10BD426C9E
:1021400061F3CF3242647047026861F3C7120260E4
:102150007047426861F3061242607047026B61F398
:10216000070202637047826861F3C712826070479A
:102170000146486880B27047426961F3C712426104
:102180007047C26861F34D32C260704701F01F02B0
:1021900012B10268426801E0CA430260704741B967
:1021A000426922F480724261426922F40072426103
:1021B00027E001290AD1426922F4807202F5807277
:1021C0004261426922F4007242611AE002290AD196
:1021D000426922F480724261426922F4007202F57F
:1021E000007242610DE003290BD1426922F4807232
:1021F00002F580724261426922F4007202F50072B7
:10220000426170472DE9F04385B004460F46904681
:1022100099466846FEF732FB1748844205D01748B6
:10222000844202D01648844201D1029E00E0039EFF
:1022300006EB86004000B0FBF7F50A20B5FBF0F195
:1022400000FB1150052803D20A20B5FBF0F503E08E
:102250000A20B5FBF0F0451CA06865F30F00A060F4
:10226000E06868F30C30E060206969F30D302061AC
:1022700005B0BDE8F0830000003801400060014077
:102280000064014030B5012A0BD100EB11431B68FB
:1022900001F01F050124AC40234300EB11442360EF
:1022A0000AE000EB11431B6801F01F050124AC405C
:1022B000A34300EB1144236030BD024600232029D4
:1022C00027D00CDC042939D004DC01293BD00229B9
:1022D0003DD134E0082920D0102938D12AE0402906
:1022E00013D080290DD0B1F5807F06D0B1F5007FE5
:1022F0002DD15069C0F380232BE01069C0F3801307
:1023000027E0D068C0F3C01323E0D068C0F3801387
:102310001FE0D068C0F340131BE0D068C0F340104A
:1023200018B9506900F0010008B1012000E0002058
:1023300003460EE0D068C0F300130AE000BF506906
:1023400000F0010305E0D068C0F3002301E00023A2
:1023500000BF00BF012B01D000207047106808406B
:1023600008B10120F9E70020F7E741B9C26822F47B
:102370000072C260C26822F48062C2601AE0012961
:102380000AD1C26822F40072C260C26822F480627C
:1023900002F58062C2600DE002290BD1C26822F40E
:1023A000007202F50072C260C26822F4806202F517
:1023B0008062C2607047C26861F38202C260704787
:1023C000C26861F3C302C260704701460A69D1E97D
:1023D00001309860D1E9010358605068884201D10A
:1023E00088685060002008611068401E1060106806
:1023F00070470000034B0360034B0B6080231360A6
:1024000070470000180B002018050020034B0360E4
:10241000034B0B604FF4807313607047740B002004
:102420001807002000F1080141604FF0FF31816082
:1024300000F10801C16001610021016070470021C5
:102440000161704710B502460B685C1C0CB910693D
:1024500007E002F1080000E04068446824689C42FC
:10246000FAD944684C604C68A160886041600A6198
:102470001468641C146010BD42684A6093688B60E5
:10248000936859609160086103685B1C0360704742
:1024900000BF502080F31188BFF34F8FBFF36F8FC1
:1024A00000BF0E480068401C0C49086008460068E0
:1024B000012812D10A480068C0B208B9012000E022
:1024C000002050B900BF502080F31188BFF34F8F18
:1024D000BFF36F8F00BF00BFFEE770470C00002006
:1024E00004ED00E00D48006850B900BF502080F3B3
:1024F0001188BFF34F8FBFF36F8F00BF00BFFEE7A0
:1025000006480068401E054908600846006820B972
:10251000002080F3118800BF00BF70470C0000202E
:1025200070B506463546002E44D0083D2C4622495B
:1025300060680968084008B1012000E0002050B937
:1025400000BF502080F31188BFF34F8FBFF36F8F10
:1025500000BF00BFFEE7206808B9012000E00020AE
:1025600050B900BF502080F31188BFF34F8FBFF3E5
:102570006F8F00BF00BFFEE70F4960680968084021
:10258000C0B12068B0B90C496068096888436060D0
:1025900000F0E8F9094960680968084407490860DB
:1025A0002046FEF7D5FF06480068401C0449086035
:1025B00001F02CFD70BD0000A80000209800002054
:1025C000A400002000204FF0E02108618861064847
:1025D00000684FF47A71B0FBF1F0401E4FF0E0213B
:1025E00048610720086170471800002070B5FDF7AA
:1025F00031FE0446102C16D304F1E02090F8F0537D
:1026000015480078854201DB012000E0002050B928
:1026100000BF502080F31188BFF34F8FBFF36F8F3F
:1026200000BF00BFFEE70D48006800F4E0600C4901
:102630000968884201D8012000E0002050B900BF9D
:10264000502080F31188BFF34F8FBFF36F8F00BF0F
:1026500000BFFEE770BD0000100000200CED00E0A0
:1026600014000020024600200BE0084B53F83030E5
:1026700033B9064B43F8301003EBC0035A6002E055
:10268000401C0828F1D300BF70470000E00B002079
:102690002DE9F04105460E4617462C46FFF7F8FE99
:1026A00094F94400401C10B9002084F8440094F9C7
:1026B0004500401C10B9002084F84500FFF712FFC8
:1026C000A06B28B93A46314604F1240000F062F8C4
:1026D0002046FFF78CF9BDE8F081000070B5044694
:1026E0000025D4B11248006808B9012000E000209C
:1026F00050B900BF502080F31188BFF34F8FBFF354
:102700006F8F00BF00BFFEE700F02CF900212046CC
:10271000FEF792FC01F07AFC05463DB94FF080507F
:1027200004490860BFF34F8FBFF36F8F70BD000087
:102730007400002004ED00E00349096801600349CA
:102740000968416070470000600000204C000020D4
:1027500001200149086070475C00002070B5044604
:102760000D4654B900BF502080F31188BFF34F8F3E
:10277000BFF36F8F00BF00BFFEE705480168183147
:102780002046FFF75FFE01212846FEF755FC70BD8D
:102790003800002070B505460E46144655B900BFF6
:1027A000502080F31188BFF34F8FBFF36F8F00BFAE
:1027B00000BFFEE70648016818312846FFF75CFEB7
:1027C0000CB14FF0FF3621463046FEF735FC70BDA8
:1027D000380000202DE9F04706460F4634464FF0FA
:1027E0000109002E55D0206D50B900BF502080F354
:1027F0001188BFF34F8FBFF36F8F00BF00BFFEE79D
:10280000E06CB84201D23D4600E0E56CE06AA842C7
:102810003FD0206D01283CD11F480068844201D080
:10282000012000E0002050B900BF502080F3118843
:10283000BFF34F8FBFF36F8F00BF00BFFEE7D4F829
:102840002C80E562A06900F0004010B9C5F11000CD
:10285000A06108EB8801114A02EB8101606988429E
:1028600001D1012000E0002098B1201DFFF7ADFD4F
:102870000B49E06A0968884202D90949E06A0860A0
:10288000E16A01EB8101054A02EB8100211DFFF79E
:10289000F3FDBDE8F087000038000020200C002088
:1028A0005000002010B586B000200590049003AAC7
:1028B00004A905A8FFF79EFD0022DDE904101346D8
:1028C000CDE9002102901FA12048039A01F098F958
:1028D0001F4908600846006808B1012400E0002490
:1028E000012C02D101F014FC0446012C15D100BFCB
:1028F000502080F31188BFF34F8FBFF36F8F00BF5D
:102900004FF0FF3013490860012013490860002090
:102910001249086000F0D8FB10E0601C08B10120EB
:1029200000E0002050B900BF502080F31188BFF3B1
:102930004F8FBFF36F8F00BF00BFFEE708480068EE
:1029400006B010BD49444C4500000000D9130008F2
:102950006C00002068000020540000204C00002083
:102960007000002002480068401C01490860704760
:10297000740000201E48006818B101201D4908603D
:1029800034E000201B4908601B4801680CE051B985
:1029900000BF502080F31188BFF34F8FBFF36F8FBC
:1029A00000BF00BFFEE7491E01EB8100134A52F849
:1029B000200008B9012000E000200028E7D101EB49
:1029C00081020E4B03EB820042685268426000F1C4
:1029D00008024368934202D14268526842604268EA
:1029E000D268074B1A600448016000BF70470000BE
:1029F000740000205C00002050000020200C00200B
:102A00003800002010B501210148FEF735FA10BD4D
:102A10000203103000B585B01148FEF765F968462D
:102A2000FEF7ABF81020ADF8080000208DF80F007D
:102A300001208DF80D0000208DF80E008DF80C009F
:102A40008DF811008DF8100069460548FEF7FEF874
:102A50001E22012102480838FEF7ACF805B000BD7F
:102A60000800024043608160C260704710B5FFF704
:102A70000FFDFEF771F9FEF77BF9FFF733FDFFF766
:102A800011FF10BD1CB56846FEF796F901211648E6
:102A9000FEF78EF930211448FEF78CF901208DF8ED
:102AA000070000208DF8040010208DF8060001209A
:102AB000009004208DF8050069460B48FEF787F961
:102AC00002208DF8070000208DF8040010208DF8FA
:102AD00006003020009004208DF805006946024869
:102AE000FEF775F91CBD0000000C014070B5032015
:102AF000FEF78EFAFDF7C8FD054600221146FDF7E8
:102B000099FC044621466FF00B00FDF7C5FDFDF76B
:102B1000BBFD054600221146FDF78CFC044621460C
:102B20006FF00A00FDF7B8FDFDF7AEFD0546002287
:102B30001146FDF77FFC044621466FF00900FDF7C2
:102B4000ABFDFDF7A1FD054600221146FDF772FC25
:102B5000044621466FF00400FDF79EFDFDF794FD4D
:102B6000054600221146FDF765FC044621466FF03C
:102B70000300FDF791FDFDF787FD054600220F21BB
:102B8000FDF758FC044621466FF00100FDF784FD77
:102B9000FDF77AFD054600220F21FDF74BFC0446A8
:102BA00021464FF0FF30FDF777FD002206210B2074
:102BB000FEF7CAF9002205212720FEF7C5F970BDEE
:102BC00010B501214FF4A010FDF71EFF01214FF4B5
:102BD000C010FDF719FF01210D48FDF715FF012178
:102BE0000B48401CFDF710FF01210948C01CFDF7F0
:102BF0000BFF012106480930FDF706FF01210448BB
:102C00000A30FDF701FF01210248FDF7FDFE10BD6E
:102C10000200180012001C001FB502A8FEF7CCF835
:102C20006846FEF7FFFF02208DF80F0000208DF8A8
:102C30000C0008208DF80E002020029004208DF852
:102C40000D0002A92248FEF7C2F802208DF80F00FD
:102C500000208DF80C008DF80E004020029004201A
:102C60008DF80D0002A91A48FEF7B1F802208DF880
:102C70000F0000208DF80C0008208DF80E00802039
:102C8000029004208DF80D0002A91148FEF79FF86C
:102C900000208DF8000001208DF8010000208DF843
:102CA00004008DF8030002208DF8020000208DF84A
:102CB000050001208DF806008DF8070069460548DB
:102CC000FEF7CEFF01210348FEF7B7FF1FBD00004E
:102CD000000801400030014010B5FDF7F5FE01216C
:102CE0000420FDF79BFD00BF2048FDF75DFE012895
:102CF000FAD101210846FDF791FD00BFFDF76CFEFA
:102D00000028FBD001210020FDF788FD00BF012035
:102D1000FDF74AFE0128FAD101221D211046FDF7D8
:102D200095FE01210220FDF779FD00BF1920FDF776
:102D30003BFE0128FAD10020FDF73EFD0420FDF7FF
:102D40004FFD0420FDF742FD0120FDF753FD022059
:102D5000FDF7E6FE00BFFDF701FF0228FBD10020D2
:102D6000FDF748FDFFF70EF810BD0000010024003C
:102D700000B587B005A8FEF71FF84FF48050059006
:102D800000208DF81A008DF8180004208DF8190025
:102D900001208DF81B0005A9A248FEF718F84FF492
:102DA0000050059008208DF81A0000208DF81800BA
:102DB00004208DF8190002208DF81B0005A9994800
:102DC000FEF705F84FF48040059008208DF81A00B2
:102DD00000208DF8180004208DF8190002208DF8CD
:102DE0001B0005A98F48FDF7F2FF4FF40040059046
:102DF00008208DF81A0000208DF8180004208DF8A6
:102E0000190002208DF81B0005A98648FDF7DFFF99
:102E10004FF48070059008208DF81A0000208DF87E
:102E2000180004208DF8190002208DF81B0005A958
:102E30007D48FDF7CCFF4FF40070059008208DF819
:102E40001A0000208DF8180004208DF819000220C7
:102E50008DF81B0005A97448FDF7B9FF4FF4806099
:102E6000059008208DF81A0000208DF81800042025
:102E70008DF8190002208DF81B0005A96A48FDF79E
:102E8000A6FF02216948FFF73EF800216748FFF7D7
:102E900035F800216548FFF761F900216348FFF725
:102EA00053F9002241F287316048FEF7E7FF002125
:102EB0005E48FFF758F907215C48FFF74AF90620FA
:102EC0008DF80C0001208DF811008DF81200002003
:102ED0008DF80F008DF810008DF80D008DF80E00A4
:102EE00003AA00215148FFF739F8002211464F4844
:102EF000FEF7F0FF002211464C48FFF70EF80022C3
:102F000011464A48FFF7FAF806208DF80C00012018
:102F10008DF811008DF8120000208DF80F008DF84B
:102F200010008DF80D008DF80E0003AA02213F4815
:102F3000FFF714F8002202213C48FEF7CBFF0022E5
:102F400002213A48FEF7E9FF002202213748FFF745
:102F5000D5F806208DF80C0001208DF811008DF8B1
:102F6000120000208DF80F008DF810008DF80D0074
:102F70008DF80E0003AA04212C48FEF7EFFF002273
:102F800004212A48FEF7A6FF002204212748FEF765
:102F9000C4FF002204212548FFF7B0F806208DF871
:102FA0000C0001208DF8110000208DF812008DF822
:102FB0000F008DF810008DF80D008DF80E0003AA9B
:102FC00006211A48FEF7CAFF002206211748FEF71D
:102FD00081FF002206211548FEF79FFF00220621EF
:102FE0001248FFF78BF800208DF80A008DF80700D3
:102FF0008DF805008DF808008DF809008DF80600A1
:1030000032208DF8040001A90848FEF73FFF012196
:103010000648FFF794F801210448FEF779FF07B04E
:1030200000BD0000000C014000080140002C0140E0
:103030001CB56846FDF7C0FE02208DF80700002091
:103040008DF8040008208DF80600C00100900420CF
:103050008DF8050069461A48FDF7B9FE02208DF883
:10306000070000208DF804008DF806004FF4006082
:10307000009004208DF8050069461148FDF7A7FE71
:1030800000231A464FF461210E48FFF7BBF80121D7
:103090000C48FFF795F901210A48FFF78CF9002148
:1030A0000848FFF762F901210648FFF765F800219B
:1030B0000448FFF774F801210248FFF762F81CBDCD
:1030C000000C0140004800401CB5524800685249BD
:1030D000884201D0012000E0002050B900BF5020FC
:1030E00080F31188BFF34F8FBFF36F8F00BF00BF16
:1030F000FEE7484800684849491E884201D001203F
:1031000000E0002050B900BF502080F31188BFF3C9
:103110004F8FBFF36F8F00BF00BFFEE73F490846E8
:1031200000780190FF200A46107008460078009051
:103130009DF8000000F0F0009DF80020904201D1C1
:10314000012000E0002050B900BF502080F311881A
:10315000BFF34F8FBFF36F8F00BF00BFFEE79DF837
:10316000000000F050002E4A107007202D4A106019
:1031700009E02C480068401E2A4A10609DF80000B3
:103180004006000E00909DF8000000F080008028AE
:10319000EFD024480068C0F10700042801D10120C5
:1031A00000E0002050B900BF502080F31188BFF329
:1031B0004F8FBFF36F8F00BF00BFFEE71948006855
:1031C0000002184A10601046008800F4E0601060A9
:1031D000124A019810700F482030006840F47000C7
:1031E0000C49203108600846006840F070400860D3
:1031F000FFF7E8F900200C490860FCF7F3FF0B48E3
:10320000006840F0404009490860FCF7D7FF002003
:103210001CBD000000ED00E071C20F4100E400E0C1
:1032200010000020140000200C00002034EF00E00B
:1032300010B500BF502080F31188BFF34F8FBFF34C
:103240006F8F00BF00F050FD18B14FF0805004495F
:10325000086000BF002080F3118800BF10BD00008F
:1032600004ED00E02DE9F84306460F4690460EB106
:10327000012000E0002050B900BF502080F31188E9
:10328000BFF34F8FBFF36F8F00BF00BFFEE706FB9A
:1032900007F51FB1B5FBF7F0B04201D1012000E006
:1032A000002050B900BF502080F31188BFF34F8F2A
:1032B000BFF36F8F00BF00BFFEE705F15000A842CB
:1032C00001D9012000E0002050B900BF502080F358
:1032D0001188BFF34F8FBFF36F8F00BF00BFFEE7B2
:1032E00005F15000FEF7C2FB044664B1A14609F1A6
:1032F0005009002084F8460043464A463946304685
:103300000094FEF77DF82046BDE8F8832DE9F843E8
:1033100080460E4617461D46DDF82090B8F1000F96
:1033200001D0012000E0002050B900BF502080F300
:103330001188BFF34F8FBFF36F8F00BF00BFFEE751
:103340000DB1012000E0002050B900BF502080F3F3
:103350001188BFF34F8FBFF36F8F00BF00BFFEE731
:1033600007B10EB1012000E0002050B900BF50208D
:1033700080F31188BFF34F8FBFF36F8F00BF00BF83
:10338000FEE707B90EB9012000E0002050B900BFE8
:10339000502080F31188BFF34F8FBFF36F8F00BFB2
:1033A00000BFFEE7502000900098502801D1012076
:1033B00000E0002050B900BF502080F31188BFF317
:1033C0004F8FBFF36F8F00BF00BFFEE700BF2C46DB
:1033D0004CB1012084F846004B463A4631464046FF
:1033E0000094FEF70DF82046BDE8F88370B5054659
:1033F0000E462C4654B900BF502080F31188BFF30D
:103400004F8FBFF36F8F00BF00BFFEE7FFF740F89D
:10341000D4E90F12206801FB0200A0600020A06325
:1034200020686060E06B401E226C216800FB021186
:10343000E160FF2084F8440084F845009EB92069CB
:1034400008B9012000E00020A8B904F1100000F044
:1034500091FD80B14FF0805009490860BFF34F8F54
:10346000BFF36F8F07E004F11000FEF7DBFF04F1FC
:103470002400FEF7D7FFFFF735F8012070BD0000EC
:1034800004ED00E02DE9FF4383B0064688461D4663
:103490004FF00009344654B900BF502080F3118822
:1034A000BFF34F8FBFF36F8F00BF00BFFEE7B8F1D0
:1034B000000F01D1206C08B9012000E0002050B9B4
:1034C00000BF502080F31188BFF34F8FBFF36F8F81
:1034D00000BF00BFFEE7022D02D1E06B012801D141
:1034E000012000E0002050B900BF502080F3118877
:1034F000BFF34F8FBFF36F8F00BF00BFFEE700F039
:10350000DDFB08B9059808B9012000E0002050B99A
:1035100000BF502080F31188BFF34F8FBFF36F8F30
:1035200000BF00BFFEE700BFFEF7B2FFA06BE16B7C
:10353000884201D3022D28D12A4641462046FDF774
:1035400088FE0746606A08B9012000E0002068B9DB
:1035500004F1240000F00EFD88B14FF08050324994
:103560000860BFF34F8FBFF36F8F08E03FB14FF09C
:1035700080502D490860BFF34F8FBFF36F8FFEF768
:10358000B1FF012007B0BDE8F083059818B9FEF738
:10359000A9FF0020F6E7B9F1000F04D101A8FFF759
:1035A000CBF84FF00109FEF79DFFFFF7DBF9FEF7BF
:1035B0006FFF94F94400401C10B9002084F84400C7
:1035C00094F94500401C10B9002084F84500FEF72E
:1035D00089FF05A901A800F0CBFAF0B92046FEF753
:1035E00024F8A0B104F110000599FFF7B7F82046C0
:1035F000FEF7FDF900F00AFD002895D14FF080504C
:1036000009490860BFF34F8FBFF36F8F8CE72046E7
:10361000FEF7EDF900F0FAFC86E72046FEF7E7F941
:1036200000F0F4FC0020ADE704ED00E02DE9F84FD8
:1036300007468B4690461E463C4654B900BF502074
:1036400080F31188BFF34F8FBFF36F8F00BF00BFB0
:10365000FEE7BBF1000F01D1206C08B9012000E0AA
:10366000002050B900BF502080F31188BFF34F8F66
:10367000BFF36F8F00BF00BFFEE7022E02D1E06BE9
:10368000012801D1012000E0002050B900BF5020E6
:1036900080F31188BFF34F8FBFF36F8F00BF00BF60
:1036A000FEE7FEF7A3FF00BF5021EFF3118081F387
:1036B0001188BFF34F8FBFF36F8F00BF0546A06B1C
:1036C000E16B884201D3022E37D194F945A0A06B5B
:1036D0000090324659462046FDF7BBFD0AF1010035
:1036E00088B9606A08B9012000E0002050B904F1EF
:1036F000240000F03FFC28B1B8F1000F02D00120F7
:10370000C8F8000016E0BAF17F0F01D0012000E0F8
:10371000002050B900BF502080F31188BFF34F8FB5
:10372000BFF36F8F00BF00BFFEE70AF1010040B298
:1037300084F845004FF0010901E04FF0000900BF97
:1037400085F3118800BF4846BDE8F88F2DE9F047A2
:1037500006460F46344654B900BF502080F3118806
:10376000BFF34F8FBFF36F8F00BF00BFFEE7206C2A
:1037700008B9012000E0002050B900BF502080F3BC
:103780001188BFF34F8FBFF36F8F00BF00BFFEE7FD
:10379000206808B9A06808B9012000E0002050B9ED
:1037A00000BF502080F31188BFF34F8FBFF36F8F9E
:1037B00000BF00BFFEE7FEF719FF00BF5021EFF387
:1037C000118081F31188BFF34F8FBFF36F8F00BF5C
:1037D0000546D4F838A0E06B504530D994F94590AF
:1037E0000AF10100A06309F1010070B9606A08B92B
:1037F000012000E00020F8B904F1240000F0BAFB39
:10380000D0B1CFB10120386016E0B9F17F0F01D0FF
:10381000012000E0002050B900BF502080F3118843
:10382000BFF34F8FBFF36F8F00BF00BFFEE709F1FB
:10383000010040B284F845004FF0010801E04FF06C
:10384000000800BF85F3118800BF4046BDE8F0873F
:103850002DE9F74183B005460E464FF000082C468F
:1038600054B900BF502080F31188BFF34F8FBFF3CE
:103870006F8F00BF00BFFEE70EB9206C08B90120B2
:1038800000E0002050B900BF502080F31188BFF342
:103890004F8FBFF36F8F00BF00BFFEE700F00EFA3F
:1038A00008B9059808B9012000E0002050B900BF10
:1038B000502080F31188BFF34F8FBFF36F8F00BF8D
:1038C00000BFFEE700BFFEF7E3FDA76BF7B131468F
:1038D0002046FDF7A9FC781EA063206908B90120E5
:1038E00000E0002060B904F1100000F043FB38B1A3
:1038F0004FF080502F490860BFF34F8FBFF36F8F99
:10390000FEF7F0FD012006B0BDE8F081059818B97A
:10391000FEF7E8FD0020F6E7B8F1000F04D101A89A
:10392000FEF70AFF4FF00108FEF7DCFDFFF71AF87B
:10393000FEF7AEFD94F94400401C10B9002084F855
:10394000440094F94500401C10B9002084F845005B
:10395000FEF7C8FD05A901A800F00AF9F0B9204654
:10396000FDF756FEA0B104F124000599FEF7F6FE1E
:103970002046FEF73CF800F049FB0028A3D14FF0A9
:1039800080500C490860BFF34F8FBFF36F8F9AE7E9
:103990002046FEF72CF800F039FB94E72046FEF7AE
:1039A00026F800F033FB2046FDF732FE00288AD0CF
:1039B0000020A8E704ED00E02DE9F34182B00546C0
:1039C0004FF000082C46002654B900BF502080F369
:1039D0001188BFF34F8FBFF36F8F00BF00BFFEE7AB
:1039E000206C08B9012000E0002050B900BF502031
:1039F00080F31188BFF34F8FBFF36F8F00BF00BFFD
:103A0000FEE700F05BF908B9039808B9012000E06F
:103A1000002050B900BF502080F31188BFF34F8FB2
:103A2000BFF36F8F00BF00BFFEE700BFFEF730FDA2
:103A3000A76BFFB1781EA063206810B9FEF7CCF821
:103A4000A060206908B9012000E0002060B904F1FD
:103A5000100000F08FFA38B14FF0805043490860F1
:103A6000BFF34F8FBFF36F8FFEF73CFD012004B013
:103A7000BDE8F081039898B90EB9012000E000205C
:103A800050B900BF502080F31188BFF34F8FBFF3B0
:103A90006F8F00BF00BFFEE7FEF724FD0020E6E7C2
:103AA000B8F1000F04D16846FEF746FE4FF001085A
:103AB000FEF718FDFEF756FFFEF7EAFC94F9440006
:103AC000401C10B9002084F8440094F94500401CC3
:103AD00010B9002084F84500FEF704FD03A96846EC
:103AE00000F046F840BB2046FDF792FDF0B120689B
:103AF00038B9FEF7CDFCA06800F0EAF90646FEF7FB
:103B0000F1FC04F124000399FEF728FE2046FDF79E
:103B10006EFF00F07BFA002888D14FF080501349E7
:103B20000860BFF34F8FBFF36F8F7FE72046FDF72D
:103B30005EFF00F06BFA79E72046FDF758FF00F0D2
:103B400065FA2046FDF764FD0028EED05EB1FEF771
:103B50009FFC2046FDF7E4FB07463946A068FEF7C8
:103B600039FEFEF7BFFC002081E7000004ED00E015
:103B700070B505460C4655B900BF502080F311883A
:103B8000BFF34F8FBFF36F8F00BF00BFFEE754B985
:103B900000BF502080F31188BFF34F8FBFF36F8FAA
:103BA00000BF00BFFEE7FEF773FC134802686868B9
:103BB000131A2068401C08B9002619E00F4928682C
:103BC0000968884206D06868904203D80126002020
:103BD00020600DE02068984207D92068C01A206054
:103BE0002846FEF7A9FD002602E0002020600126FD
:103BF000FEF778FC304670BD4C00002060000020CD
:103C00002DE9F04F85B00746884691469A46DDE992
:103C10000EB6109C0EB1012000E0002050B900BF8C
:103C2000502080F31188BFF34F8FBFF36F8F00BF19
:103C300000BFFEE70CB1012000E0002050B900BF3A
:103C4000502080F31188BFF34F8FBFF36F8F00BFF9
:103C500000BFFEE75C20039003985C2801D101209F
:103C600000E0002050B900BF502080F31188BFF35E
:103C70004F8FBFF36F8F00BF00BFFEE700BFB4B12F
:103C8000AEB125462C462E63022085F8590000204F
:103C900004A953464A46CDE900B1CDE90250414658
:103CA0003846FDF7C2FB2846FDF704FA01E0002084
:103CB0000490049805B0BDE8F08F0000054909683C
:103CC00009B9012005E00449096809B9022000E0AA
:103CD000002070475400002074000020014908684B
:103CE000704700004C0000202DE9F0414FF0000823
:103CF0004348006800287BD142480068451C414881
:103D0000056015BB40480068006808B9012000E064
:103D1000002050B900BF502080F31188BFF34F8FAF
:103D2000BFF36F8F00BF00BFFEE737480768374813
:103D30000068354908603548076035480068401C10
:103D400033490860FDF7A6FD00BF32480068854290
:103D50003BD300BF2C480068006808B9012000E090
:103D6000002020B14FF0FF302A4908602CE026489F
:103D70000068C068C4686668B54202D2254806601B
:103D800022E0201DFEF721FBA06A18B104F1180003
:103D9000FEF71BFB2049E06A0968884202D91E49E8
:103DA000E06A0860E16A01EB81011C4A02EB8100D4
:103DB000211DFEF761FB1A49E06A0968C96A884259
:103DC000C8D34FF00108C5E700BF15480068C06AB6
:103DD00000EB8000114951F82000012801D94FF073
:103DE00001081048006808B14FF0010805E0FFE73E
:103DF0000D480068401C0C4908604046BDE8F08151
:103E0000740000204C0000203C00002040000020F6
:103E1000600000206800002050000020200C0020DE
:103E2000380000205C0000205800002070B50546D6
:103E30002C460026002D43D022480068844201D140
:103E4000012000E0002050B900BF502080F311880D
:103E5000BFF34F8FBFF36F8F00BF00BFFEE7206D32
:103E600050B900BF502080F31188BFF34F8FBFF3CC
:103E70006F8F00BF00BFFEE7206D401E2065E16C24
:103E8000E06A88421CD0206DD0B9201DFEF79DFA53
:103E9000E06CE062E06AC0F11000A0610A49E06AEB
:103EA0000968884202D90849E06A0860E16A01EBC2
:103EB0008101064A02EB8100211DFEF7DDFA012691
:103EC000304670BD3800002050000020200C00203B
:103ED00070B505462C460026002D42D02249E06AE6
:103EE0000968C96A884235D2A06900F0004028B943
:103EF0001D480068C06AC0F11000A061E16A01EBD2
:103F000081011A4A02EB81016069884201D10120D6
:103F100000E00020C0B1201DFEF757FA12480068EB
:103F2000C06AE0621249E06A0968884202D9104911
:103F3000E06A0860E16A01EB81010C4A02EB810052
:103F4000211DFEF799FA03E007480068C06AE062A5
:103F5000012606E00449E06C0968C96A884200D27B
:103F60000126304670BD000038000020200C0020E3
:103F70005000002070B50646F068C46854B900BF10
:103F8000502080F31188BFF34F8FBFF36F8F00BFB6
:103F900000BFFEE704F11800FEF717FA15480068A5
:103FA000A0B9201DFEF711FA1349E06A096888429A
:103FB00002D91149E06A0860E16A01EB81010F4A08
:103FC00002EB8100211DFEF757FA04E004F118010D
:103FD0000B48FEF751FA0B49E06A0968C96A884242
:103FE00004D9012501200849086000E00025284681
:103FF00070BD00007400002050000020200C002044
:10400000880D0020380000205C00002070B50024DE
:1040100000263648006850B900BF502080F3118850
:10402000BFF34F8FBFF36F8F00BF00BFFEE7FEF7F8
:104030002FFA2E480068401E2C4908600846006888
:1040400000284ED12A48006800284AD023E0294899
:10405000C068C46804F11800FEF7B7F9201DFEF728
:10406000B4F92549E06A0968884202D92249E06A20
:104070000860E16A01EB8101204A02EB8100211D09
:10408000FEF7FAF91E49E06A0968C96A884202D354
:1040900001201C4908601748006808B9012000E0A9
:1040A00000200028D3D00CB1FDF7F4FB16480568BA
:1040B00065B100BFFFF718FE10B10120114908607B
:1040C0006D1E002DF6D100200F4908600D480068D4
:1040D00038B1012630070D490860BFF34F8FBFF399
:1040E0006F8FFEF7FFF9304670BD000074000020AE
:1040F00048000020880D002050000020200C0020E7
:10410000380000205C0000205800002004ED00E092
:1041100010B586B00024FDF729F816480068D0B124
:1041200000200590049003AA04A905A8FEF76EF9E3
:104130000222DDE904100023CDE9002102900EA146
:104140000F48039AFFF75CFD0E49086008460068B7
:1041500000B1012400BF54B900BF502080F3118882
:10416000BFF34F8FBFF36F8F00BF00BFFEE7204646
:1041700006B010BD80000020546D7220537663009D
:10418000D5190008840000202DE9FF4704460D469C
:1041900016461F46DDF830804FF0000954B900BFC5
:1041A000502080F31188BFF34F8FBFF36F8F00BF94
:1041B00000BFFEE71448006810B300950196029412
:1041C000062D15DAFFF77AFD022808D100234246B2
:1041D00069460D480068FFF755F9814610E0002355
:1041E0001A46694608480068FFF74CF9814607E01F
:1041F00000233A46694604480068FFF717FA8146EB
:10420000484604B0BDE8F0878000002000000000B0
:104210000000000001020304060708090000000076
:104220000102030400000000010203040204060866
:10423000020C08100000000000000000010203044E
:10424000060708096442000800000020AC000000D6
:10425000C006000810430008AC000020343A0000FB
:10426000D006000800000000000000000000000070
:10427000AAAAAAAA000000000000000000127A000A
:1042800000000000000000000000000000300140BD
:10429000000C0140010000000000000000000000D0
:1042A000000000000000000000000000000000000E
:1042B00000000000000000000000000000000000FE
:1042C00000000000000000000000000000000000EE
:1042D000000000000F0000000000000000000000CF
:1042E00000000000000000000000000000000000CE
:1042F00000000000000000000000000000000000BE
:1043000000000000000000000000000000000000AD
:040000050800018569
:00000001FF
