:020000040800F2
:10000000704000205D020008470F0008450C000802
:10001000730C0008550A00081113000800000000C6
:100020000000000000000000000000009D0100082A
:10003000C10A000800000000F9010008C50F00080F
:1000400077020008770200087702000877020008AC
:10005000770200087702000877020008770200089C
:10006000770200087702000877020008990A000862
:10007000770200087702000877020008770200087C
:1000800077020008770200080109000877020008DB
:10009000770200087702000877020008770200085C
:1000A000770200087702000877020008770200084C
:1000B0004510000877020008770200087702000860
:1000C000770200087702000877020008770200082C
:1000D00077020008770200087702000885110008FF
:1000E000770200087702000877020008770200080C
:1000F00077020008770200087702000877020008FC
:1001000077020008770200087702000877020008EB
:1001100077020008770200087702000877020008DB
:1001200077020008770200087702000877020008CB
:1001300077020008770200087702000877020008BB
:1001400000000000000000000000000000000000AF
:10015000770200087702000877020008770200089B
:10016000770200087702000877020008770200088B
:10017000770200087702000877020008770200087B
:1001800077020008DFF810D000F0C6FA00480047F8
:100190003D330008AFF30080704000202C4B1968FD
:1001A0000868B0E8F04F80F30988BFF36F8F4FF015
:1001B000000080F3118870470000000008480068C4
:1001C000006880F308884FF0000080F3148862B65E
:1001D00061B6BFF34F8FBFF36F8F00DF00BF00BF6B
:1001E00008ED00E0DFF80C00016841F470010160E7
:1001F000704700BF88ED00E0EFF30980BFF36F8F19
:10020000134B1A681EF0100F08BF20ED108A20E96A
:10021000F04F106009B44FF0500080F31188BFF325
:100220004F8FBFF36F8F04F0C1FD4FF0000080F3DC
:10023000118809BC19680868B0E8F04F1EF0100F6B
:1002400008BFB0EC108A80F30988BFF36F8F704746
:10025000C8000020EFF30580704700000648804783
:1002600006480047FEE7FEE7FEE7FEE7FEE7FEE79B
:10027000FEE7FEE7FEE7FEE7D50F00088501000870
:1002800040EA01039B0703D009E008C9121F08C018
:10029000042AFAD203E011F8013B00F8013B521E98
:1002A000F9D27047D2B201E000F8012B491EFBD20F
:1002B00070470022F6E710B513460A460446194671
:1002C000FFF7F0FF204610BD30B50B460146002079
:1002D0002022012409E021FA02F59D4205D303FA08
:1002E00002F5491B04FA02F52844151EA2F1010289
:1002F000F1DC30BD2DE9F05F0546002092469B46BB
:1003000088460646814640241BE02846414647462B
:10031000224600F022FA53465A46C01A914110D3A1
:1003200011461846224600F009FA2D1A67EB01081B
:100330004F4622460120002100F000FA17EB000989
:100340004E41201EA4F10104DFDC484631462A4616
:100350004346BDE8F09FF0B400F0004221F00041B8
:1003600020F00040CE0DC30DC1F3160141F4000191
:10037000C0F316004C42154640F40000761E09E01A
:1003800010EB440002D582F0004240428842F7D888
:1003900040005B1EB342F9DA18B1F0BC002100F056
:1003A00007BA2846F0BC70472DE9FE4F804681EA27
:1003B0000300C00F0C46009021F0004123F00045DF
:1003C000B8EB0200A94105D24046214690461C46A2
:1003D0000B46024623F00040104347D0270DC7F3D9
:1003E0000A00C3F30A510290401A019040286BDAC8
:1003F000C3F3130040F4801B0098924620B1002301
:10040000D2EB030A63EB0B0B01985946C0F1400293
:10041000504600F093F906460D4650465946019A5B
:1004200000F0ABF910EB08006141002487EA11529B
:1004300084EAE7731A4340D0009A62B3019A012A12
:100440004FEA075215DC001B61EB02014FF000423E
:1004500002EA0752CDE90042001C41F58011324604
:100460002B4600F0E2F903B0BDE8F08F404621468C
:10047000F9E7001B61EB0201001C41F58013001835
:100480005B412018A2F5001747EB030140EAD57045
:10049000B6196D4111E06D084FEA360645EAC075A0
:1004A0004FEA0752001B61EB0201001C41F580116D
:1004B00049084FEA30000019514132462B4603B03B
:1004C000BDE8F04F00F0A2B90098012240000023DF
:1004D000D0EB020263EBE073009821464FEAE07430
:1004E000B8EB000061EB0401E9E783F000435BE750
:1004F00081F0004158E72DE9FE4F81EA030404F042
:10050000004421F0004100944FF0000B23F0004321
:1005100050EA01045ED052EA03045BD0C3F30A54EC
:10052000C1F30A552C44A4F2F3340194A0FB025405
:10053000C1F3130141F48011C3F3130343F4801397
:1005400001FB024400FB034E840A970A44EA8154EB
:1005500047EA8357A4FB076802958D0A05FB0785C8
:100560004FEA932C04FB0C542705029D4FEA0658D2
:1005700047EA1637B5EB08056EEB070C870E920EAF
:1005800047EA811742EA8312A7FB0201B6EB0B018F
:1005900064EB00042B0D43EA0C335E1844EB1C5053
:1005A000DA465146E7FB0201C5F313044FEA0B3369
:1005B00043EA14534FEA0432019C43EA0603A4F1D0
:1005C0000C040294009CCDE900B400F02EF903B0B5
:1005D000BDE8F08F00200146F9E72DE9F04D81EAF2
:1005E000030404F0004B21F0004514464FF0000ACC
:1005F00023F0004150EA050220D054EA01021DD048
:10060000C5F30A570246C5F31303C1F31300C1F340
:100610000A5640F4801543F48013A7EB0608101B1C
:10062000D64608F2FD3873EB050002D308F1010845
:1006300001E092185B41B8F1000F03DA0020014697
:10064000BDE8F08D00204FF48011064684460EE090
:10065000171B73EB050705D3121B63EB050306435A
:100660004CEA010C49084FEA300092185B4150EA0D
:100670000107EDD152EA030012D082EA040083EAB6
:100680000501084305D0101BAB4106D2012200230F
:1006900006E000224FF0004302E06FF00102531029
:1006A0001AEB06004CEB085110EB0A0041EB0B0172
:1006B000BDE8F04D00F0AAB8C1F30A52C1F313012E
:1006C00040F2FF3341F480119A4202DA00200146E1
:1006D000704740F233439A42A2F2334202DC524264
:1006E00000F03BB800F02AB830B5041E71F10004E8
:1006F00004DB4FF00044404264EB0101141E73F12F
:10070000000405DB1C464FF00043524263EB040338
:10071000994208BF904230BD064C074D06E0E068A4
:1007200040F0010394E8070098471034AC42F6D338
:10073000FFF72CFDC4640008E4640008202A04DBF1
:10074000203A00FA02F1002070479140C2F12003E4
:1007500020FA03F3194390407047202A04DB203A23
:1007600021FA02F00021704721FA02F3D040C2F1D1
:1007700020029140084319467047202A06DBCB1718
:10078000203A41FA02F043EAE07306E041FA02F34C
:10079000D040C2F120029140084319467047002919
:1007A000A8BF7047401C490008BF20F001007047F7
:1007B00010B4B0FA80FC00FA0CF050EA010404BF57
:1007C00010BC704749B1CCF1200421FA04F411FAAD
:1007D0000CF118BF012121430843A3EB0C01CB1DF1
:1007E0004FEA00614FEA102042BF002010BC704762
:1007F00000EBC35010440029A4BF10BC7047401C3C
:10080000490008BF20F0010010BC704710B5141E4D
:1008100073F1000408DA401C41F1000192185B41B9
:100820001A4301D120F0010010BD2DE9F04D924690
:100830009B4611B1B1FA81F202E0B0FA80F22032A7
:100840009046FFF77BFF04460F4640EA0A0041EA64
:100850000B0153465A46084313D0114653EA010090
:1008600019D0C8F140025046FFF777FF05460E4603
:10087000504659464246FFF761FF084305D0012024
:1008800004E020463946BDE8F08D0020054346EAE5
:10089000E0762C4337430A986305E40AA0EB08008E
:1008A0000022FD0A44EA47540A3002D500200146DE
:1008B000E9E7010510196941DDE9084500196941B9
:1008C000BDE8F04DA2E730B58C1810F8012B12F0FE
:1008D0000F0301D110F8013B120906D110F8012BCA
:1008E00003E010F8015B01F8015B5B1EF9D101E048
:1008F00001F8013B521EFBD1A142E6D3002030BDDE
:1009000010B50421104801F04CFAD8B100210E486E
:1009100001F03AFB0D49086001210B4801F034FB5E
:100920000A4948600221084801F02EFB0749886007
:10093000074801680748006800F0C4F8042102482D
:1009400001F019FA10BD0000002401400011002040
:10095000C40000206800002010B52DED048BB0EE1F
:10096000408AB0EE480A00F077F8F0EE408A094875
:10097000006890ED160A38EEC00AB0EE409AB0EE6C
:10098000490A00F001FBB0EE409AB0EE490ABDEC16
:10099000048B10BD680000202DE9F0412DED048B83
:1009A00004460D4600228021284801F0EFF9B7EEF9
:1009B000080A00F061F94FF4FA6004F013F99FEDB2
:1009C000240AB0EE408A0A279FED210AB0EE409A31
:1009D000002611E000F086FAB0EE409AB0EE490A27
:1009E00000F03AF8F0EE409A38EE290AB0EE408A6C
:1009F0000A2004F0F7F8761C0A2EEBDBB2EE040AAC
:100A0000C8EE000AC4ED000A00F06CFAB0EE409A9D
:100A1000B0EE490A00F020F8F0EE408A94ED000AAA
:100A200038EEC00A85ED000A4FF4FA7004F0DAF8E7
:100A30009FED070A00F020F901228021034801F010
:100A4000A5F9BDEC048BBDE8F08100000024014055
:100A50000000000000BFFEE710B52DED028BB0EEE8
:100A6000408A0C48006890ED120AB8EEC00A60EEA9
:100A7000080A0848006890ED110AB8EEC00A20EE96
:100A8000800AF0EE408AB0EE680A00F07DFABDEC14
:100A9000028B10BD6800002010B5022001F02EFF6F
:100AA00048B1022001F096FE0021034801F07EFECD
:100AB00001200249087010BD0800024034000020E7
:100AC0007047000070B504460D4600F00BFA84ED47
:100AD000130AD4ED130AB0EE600AFFF73DFF84ED70
:100AE000150A5248006820805048406860804F488E
:100AF0008068A0802088E188401A00EE100AF8EE95
:100B0000C00A9FED4B1A80EE810ADFED4A0A60EEC3
:100B1000200A9FED491A80EE810ADFED480A80EE37
:100B2000201A84ED071A60882189401A00EE100A05
:100B3000B8EEC00ADFED3E0A80EE201A9FED3D0AB6
:100B400061EE000A9FED3C1A80EE810ADFED3B0A60
:100B500080EE201A84ED081AA0886189401A00EE00
:100B6000100AF8EEC00A9FED321A80EE810ADFED1E
:100B7000310A60EE200A9FED301A80EE810ADFED27
:100B80002F0A80EE201A84ED091A94ED081AF0EE6F
:100B9000410A94ED071AB0EE410A04F11801081F4A
:100BA00001F076FAD4ED151AB0EE611AD4ED061AFA
:100BB000F0EE610AD4ED051AB0EE610A04F13C01D1
:100BC000081D02F05DFC9FED1E0A84ED0E0AD4EDB7
:100BD000151AB0EE611AD4ED0E1AF0EE610AD4EDDA
:100BE0000D1AB0EE610A04F11001081F02F05EFB5D
:100BF00094ED041AF0EE410A94ED031AB0EE410AA6
:100C000004F13002111F081F02F016FBD4ED0C1A7C
:100C1000B0EE611AD4ED0B1AF0EE610AD4ED0A1AA7
:100C2000B0EE610A00F0A4F870BD000000110020D1
:100C30000000804533335340000048426F12033BAD
:100C40000000000000BFFEE7F0EE401AF4EEC11A0B
:100C5000F1EE10FA02DBB0EE410A7047F4EEE01A52
:100C6000F1EE10FA02D8B0EE600AF6E7B0EE610AD3
:100C7000F3E700BFFEE7000010B52DED0A8BB0EEE4
:100C8000408A9FED370AF0EE408A9FED350AB0EEBC
:100C9000409A9FED330AF0EE409A9FED310AFFF73C
:100CA000DBFEB0EE40AAB0EE4A0A01F0D7FEF1EE4C
:100CB000690A20EE20CAB0EE4A0A01F06DFE08EE85
:100CC00000CAF0EE4C8AB0EE4A0A01F065FE20EE52
:100CD00029CAB0EE4A0A01F0C1FE08EE00CAB0EE21
:100CE0004C9A2048D0ED000AB0EE001A80EE810A3E
:100CF00030EE280AF0EE40AADFED1B0AB0EE680ADB
:100D000010EE890AB0EE001AC0EE010A90ED000A5A
:100D1000B0EE001AC0EE011A30EEA10AB0EE40BAF1
:100D2000DFED120AB0EE680A10EE890AB0EE001A82
:100D3000C0EE010A90ED000AB0EE001AC0EE011AF2
:100D400030EEA10AF0EE40BAB0EE6B1AF0EE4B0AAC
:100D5000B0EE6A0A00F00CF8BDEC0A8B10BD000082
:100D600000000000540000202DB2DD3F2DB2DDBF99
:100D700010B52DED048BB0EE409AB0EE608AF0EE27
:100D8000418A324890ED001ADFED310AB0EE490A8F
:100D9000FFF75AFFB0EE409A2C4890ED001ADFEDB5
:100DA0002C0AB0EE480AFFF74FFFB0EE408A274802
:100DB00090ED001ADFED260AB0EE680AFFF744FF57
:100DC000F0EE408A214890ED000AC9EE000AF0EEEC
:100DD000609AB7EE001ADFED1E0AB0EE690AFFF75F
:100DE00033FF1C4880ED000A184890ED000AC8EE59
:100DF000000AF0EE609AB7EE001ADFED150AB0EEC9
:100E0000690AFFF721FF144880ED000A0F4890EDB2
:100E1000000AC8EE800AF0EE609AB7EE001ADFED25
:100E20000C0AB0EE690AFFF70FFF0C4880ED000ACC
:100E300090ED001A0848D0ED000A064890ED000A2F
:100E400003F026F9BDEC048B10BD00005400002017
:100E5000000000006C0000207000002074000020E2
:100E60002DE9F0412DED028B04462189606802F0E6
:100E700059F9204600F03EF80546204600F03AF8C1
:100E80000646204600F036F807462189606802F0E1
:100E90004BF9280440EA06203843801208EE100A75
:100EA000B8EE480ADFED0C0A20EE200ADFED0B0A4F
:100EB00080EE201AF0EE418A9FED090A28EE800AA2
:100EC000DFED050A80EE201A84ED031A94ED030A83
:100ED000BDEC028BBDE8F0810000B4430000804609
:100EE000D00FC94010B50248FFF7BAFF10BD00008F
:100EF0004400002070B50446002506E0681C80B25E
:100F000005460A2801DD002070BD0221206803F09B
:100F100009F90028F2D00021206803F001F900252A
:100F200006E0681C80B205460A2801DD0020EBE7D8
:100F30000121206803F0F6F80028F2D0206803F0C1
:100F4000EBF8C0B2E0E77047F0B503460C4603F09B
:100F50000701C1F10700042801D9042001E0C1F113
:100F600007000646081D072801D2002000E0C81E21
:100F700005460120B040401E2040A8400127AF4058
:100F80007F1E17403843F0BD10B52DED028BF0EEFB
:100F9000408ADFED0B0AB0EE680A00F0E7F9B0EE28
:100FA000408AB5EEC08AF1EE10FA04DBB0EE480AD2
:100FB000BDEC028B10BD9FED020A38EE000AF7E788
:100FC000D00FC94010B505F00BF8012801D004F08E
:100FD0001FFC10BD1848006840F4700016490860F6
:100FE0001648006820F00100401C1449086000BF4A
:100FF00012480068C0F340000028F9D00F4840684C
:1010000020F003000D49486000BF0C484068C0F361
:1010100081000028F9D109480068094908400749BA
:1010200008600020486008634FF41F008860C80310
:10103000014980390860704788ED00E000100240E7
:10104000FFFFF2FE10B546480078012819D1454847
:10105000006890ED0A0A444880ED000A41480068A3
:1010600090ED0B0A404880ED010A3E48006890ED83
:101070000C0A3D4880ED020A03220146082000F0D8
:10108000F7F83A480078012828D1394800683949EA
:101090000988401A00EE100AB8EEC00A324880ED06
:1010A000000A3348406833494988401A00EE100A64
:1010B000B8EEC00A2C4880ED010A2D4880682D4901
:1010C0008988401A00EE100AB8EEC00A264880ED62
:1010D000020A032201460B2000F0CAF826480078D5
:1010E000012819D12548006890ED020A1E4880EDBC
:1010F000000A2248006890ED030A1B4880ED010AAF
:101100001E48006890ED040A174880ED020A032289
:1011100001460E2000F0ACF819480078012819D1DA
:101120001048006890ED070A0F4880ED000A0D484E
:10113000006890ED080A0C4880ED010A0948006833
:1011400090ED090A084880ED020A032201461020AA
:1011500000F08EF80121880703F049F910BD000066
:101160001400002068000020440100201500002029
:10117000001100205C00002016000020C4000020A8
:101180001700002010B52021084803F01AFB58B1C1
:10119000064803F065FAC4B2204600F009F82021A1
:1011A000024803F06FFA00BF10BD00000048004085
:1011B0002A49097881B9A5280ED10021284A117041
:1011C00011460A780978491C254B1970254988541D
:1011D0000121224A11703FE02049097801293BD1C1
:1011E0001F490A780978491C1D4B19701D498854FC
:1011F00019460978082926D11A49C979492922D1DD
:101200000022002104E0174B5B5C1344DAB2491C56
:101210000629F8DB13498979914205D00021104B4A
:1012200019700E4B197070470E4949780E4B1970A2
:101230000E490C4BD3F802300B600021084B19709B
:10124000064B197000BF06490978082904DB002104
:10125000034A1170014A117000BFE4E73E0000200C
:101260003D000020350000203F000020400000200D
:101270002DE9F04705460E4617460024B8064FEA0A
:101280001068A146B246A5222146641C1D4842545E
:101290002146641C45542146641C00F8018000204E
:1012A00008E01AF800302146621CD4B2154A5354A3
:1012B000411CC8B24045F4DB002006E01149095C3E
:1012C000494401F0FF09411CC8B2A042F6DB2046A8
:1012D000611CCCB20B4901F8009049222046611CE8
:1012E000CCB208490A5408480078012807D12146A1
:1012F000064801F060FA0121044801F057FABDE800
:10130000F0870000D01000203400002008000240C8
:1013100000BFFEE70FB4054B10B503A9044A0298BD
:1013200000F05CF910BC5DF814FB0000952F00087C
:101330003C01002002480068C0F302207047000012
:101340000CED00E010B5002804DB0A07130E054A77
:10135000135406E00A07140E034A00F00F031B1F84
:10136000D45410BD00E400E018ED00E010B52DED00
:10137000028BF0EE408A18EE900AB0EE608A20F000
:101380000040C0F1FF40C00F07D118EE100A20F056
:101390000040C0F1FF40C00F2BD018EE101A18EE1D
:1013A000900AFEF7D8FF00EE100A10EE100A6FEA5E
:1013B000D05010F0FF0F04BFBDEC028B10BD18EE33
:1013C000900A00F0004110EE100A00F00040814247
:1013D00004BFBDEC028B10BD18EE101A10EE100AFF
:1013E000BDEC028B61F31E0000EE900A30EE600A45
:1013F00010BD18EE900A4FF07F41B1EB400F1CBFBB
:1014000018EE100A5FEA4000C7D1012000F01EF874
:10141000BDEC028BBDE81040AFF30080DFED020AA7
:1014200080EEA00A704700000000000002E008C83B
:10143000121F08C1002AFAD170477047002001E04E
:1014400001C1121F002AFBD170470000014908604A
:1014500070470000400100202DE9FF5F82B00021AD
:10146000DDE90430020DDDF840B0034318D044F646
:101470001050A2F2FF3242431514119801281FD0D8
:10148000A5EB0B00401C5FEA000A4FF000064E4F30
:10149000DFF83891B046504615D5CAF1000413E084
:1014A000119801244AA3012801D16FEA0B01029887
:1014B000119AC0E90031C0E9024206B0BDE8F09FD0
:1014C000CBF10000DFE704460021404A491842EB17
:1014D0000450CDE9001012E0E00707D032463B4649
:1014E00040464946FFF707F88046894632463B4664
:1014F00010461946FEF7FFFF06460F466410002C03
:10150000EAD1DDE90401DDE90023BAF1000F06DAD2
:10151000FEF7F1FF42464B46FEF7EDFF05E0FFF711
:101520005CF842464B46FFF758F804460E46002248
:10153000284BFFF7D9F803D84FF0FF30014607E0FA
:101540000022254B20463146FEF72EFFFFF7B4F868
:10155000102409E0002C0ADB0A220023FEF7CAFE51
:10156000039B30321A55641E50EA0102F2D1641C0A
:10157000039AC4F111031444119A012A03D00122E1
:1015800008430DD10AE0084304D000204FF0110BAE
:10159000119072E7A3EB0B056D1E0DE05B4504DDBA
:1015A0004FF0000205F1010504E003DA4FF00002FC
:1015B000A5F10105002AECD002981199C0E9023189
:1015C000C0E9004579E70000000014400000F03F4A
:1015D000300000000000F0430000E03F2DE9FF4F25
:1015E00095B09A46884606460025EEE1252877D133
:1015F00000242746F94A0121039400E0044316F829
:10160000013F203B01FA03F01042F7D130782A283D
:1016100011D06FF02F033078A0F13002092A16D8CC
:10162000039A44F0020402EB820203EB42021044EC
:10163000761C0390EFE758F8042B0392002A03DA94
:10164000504244F40054039044F00204761C307875
:101650002E2816D116F8010F44F004042A280DD0C4
:101660006FF02F023078A0F13003092B09D807EB77
:10167000870302EB4303C718761CF3E758F8047B93
:10168000761C30786C280FD006DC4C2817D06828E0
:101690000DD06A2814D104E0742810D07A280FD114
:1016A0000DE044F400140AE044F4801401E044F432
:1016B00040147278824202D104F58014761C761CA4
:1016C000307866280BD013DC582877D009DC002846
:1016D00075D04528F6D04628F4D047281AD193E192
:1016E00018E0632835D0642879D0652812D18BE1C1
:1016F000702873D008DC6728F1D069286FD06E2875
:101700000DD06F2806D1ACE073282CD0752874D08A
:10171000782853D05246179990476D1C54E1C4F372
:101720000250022809D003280DD0D8F80010042850
:101730000DD00D6008F1040846E1D8F80010EA1752
:10174000C1E90052F6E7D8F800100D80F2E70D70FD
:10175000F0E718F8041B8DF8001000208DF8010048
:10176000EB46012003E058F804BB4FF0FF3061075F
:101770004FF0000102D40DE009F101018946B942A0
:101780000FDA8145F8DB1BF809100029F4D108E0D5
:1017900009F1010189468142FADB1BF80910002991
:1017A000F6D103985346A0EB090721463846179A0D
:1017B00000F080FA284400EB090507E044E008E166
:1017C0000DE01BF8010B524617999047B9F101093A
:1017D000F7D2534621463846179AF2E039E00A21FB
:1017E000C4F302524FF0000B0091022A06D058F8C1
:1017F000040BC117032A09D00AE023E008F107000F
:1018000020F00702F2E80201904605E000B2C1179D
:10181000042A01D140B2C117002906DA0A46002184
:10182000404261EB02012D2202E0220504D52B2269
:101830008DF80420012203E0E20701D02022F7E71F
:10184000914657E00A2100E010214FF0000B009173
:101850000BE010214FF0000B44F004040827009126
:1018600003E008204FF0000B0090C4F30252022A5C
:1018700005D058F8040B0021032A08D008E008F12D
:10188000070020F00702F2E80201904603E080B270
:10189000042A00D1C0B24FF0000922072AD53278BD
:1018A000702A07D0DDF800C08CF0100C5CEA0B0C3D
:1018B00005D00EE040228DF80420012208E050EA15
:1018C000010306D030238DF804308DF80520022264
:1018D0009146009B83F0080353EA0B030AD150EAB8
:1018E000010201D1620705D530228DF804204FF0A6
:1018F00001097F1E3278582A04D039A20C920CAA12
:1019000002920BE03BA2F9E75B46009AFEF7F2FC7D
:101910000C9B9B5C029A521E0292137050EA0102C9
:10192000F2D1029804A9081A00F1200B600702D531
:1019300024F4803400E001275F4502DDA7EB0B00B3
:1019400000E0002000EB0B01009003984944401A8E
:101950000390E00306D453462146179A039800F0FB
:10196000A9F90544002706E001A85246C05D179971
:1019700090476D1C7F1C4F45F6DBE0030CD55346AA
:101980002146179A039800F095F9054404E03020A9
:101990005246179990476D1C0099481E00900029E7
:1019A000F5DC08E00298029952460078491C029141
:1019B000179990476D1CBBF10001ABF1010BF1DCF5
:1019C0005BE100F065F90544761C307800287FF46F
:1019D0000DAE19B02846BDE8F08F000009280100BF
:1019E0003031323334353637383961626364656695
:1019F0000000000030313233343536373839414257
:101A00004344454600000000600700D4062708F163
:101A1000070020F00700F0E80223804603F0004CA6
:101A20005FEA0C0001D097A009E0200501D596A03F
:101A300005E0E00701D095A001E0AFF24C00139063
:101A4000307823F0004365280CD006DC452809D007
:101A500046281DD047287FD13BE0662818D067284C
:101A60007AD136E00021112F01DB112000E0781C33
:101A7000CDE9000104A90CA8FFF7EEFCDDE90D019A
:101A80000C9A4FF0000B07F10109109200914EE003
:101A90004FF000400097CDE9011004A90CA8FFF712
:101AA000DBFCDDE90D020C9B0F994FF0000B91461A
:101AB0001093009211B9791C00EB0109B7EB0900F2
:101AC00003D4C0F1FF3B07F10109A9EB0700019026
:101AD00042E0012F00DA01270021112F01DD112042
:101AE00000E03846CDE9000104A90CA8FFF7B4FCDA
:101AF000DDE90D010C9A00914FF0000BB9461092F0
:101B000021070FD4009A4A4503DA914601E0A9F172
:101B10000109B9F1010F05DD109AA9F10101515C2C
:101B20003029F4D0B84202DA10F1040F03DA0121AF
:101B3000CDE9011010E0002803DC8344A9EB00018B
:101B400002E0411C494500DD8946A0EB0B00401C2A
:101B500001904FF000400290200705D401984845BD
:101B600002DB4FF0FF30019000208DF84B0002980F
:101B70000DF14B07B0F1004F25D002200C902B2027
:101B80000D90029800280CDA404202902D200D9012
:101B900007E00A210298FEF797FB3031029007F820
:101BA000011D0C99481E0C900029F2DC02980028B7
:101BB000EFD1791E0D980870307800F0200040F0C9
:101BC000450007F8020D11A8C01BC01D0290139814
:101BD000007800B1012000EB0901019801EBE071F0
:101BE000029801440398401A401E0390E00306D473
:101BF00053462146179A039800F05CF80544139861
:101C0000007818B15246179990476D1CE00323D510
:101C100053462146179A039800F04CF805441BE000
:101C2000BBF1000F07DB0098584504DD10981799A9
:101C300010F80B0001E017993020524690470198A8
:101C40000BF1010B401E05F10105019004D12E207E
:101C50005246179990476D1CB9F10001A9F101098D
:101C6000DEDC05E017F8010B5246179990476D1C12
:101C70000299481E02900029F4DC53462146179A27
:101C800003989EE62D0000002B00000020000000BD
:101C90002DE9F041044600251E461746880404D469
:101CA00005E039462020B0476D1C641EF9D5284652
:101CB000BDE8F0812DE9F041044600251E4690461E
:101CC000C80301D5302700E02027880404D505E0AB
:101CD00041463846B0476D1C641EF9D52846BDE81C
:101CE000F0810B78426863F3082242604B78826887
:101CF00063F3410282608B78826863F3CB22826057
:101D0000CA78521EC36A62F31753C3627047002138
:101D10000170417081700121C1707047816821F0AC
:101D2000080108318160704701468868C0F3C0002F
:101D300008B1012070470020FCE7816821F0040110
:101D4000091D8160704701468868C0F3800008B1B2
:101D5000012070470020FCE70349096860F3134144
:101D6000014A11607047000004240140826861F359
:101D7000000282607047CA4302607047024600203A
:101D800013680B4003B900E001207047012A03D11A
:101D900043680B43436003E012B943688B434360DD
:101DA000704702460020012904D002290CD00429E2
:101DB0001ED113E0136803F0010323B15368C3F38A
:101DC000801303B1012014E01368C3F3400323B16F
:101DD0005368C3F3401303B101200AE01368C3F34F
:101DE000800323B15368C3F3C01303B1012000E0A3
:101DF00000BF00BF704770B504460A290CDA20699D
:101E000001EB41060725B540A84301EB410503FA64
:101E100005F5284320610FE0E068A1F10A0505EB14
:101E200045060725B540A843A1F10A0505EB450580
:101E300003FA05F52843E0600D2A10DBE06AA2F101
:101E40000D0505EB85061F25B540A843A2F10D053C
:101E500005EB850501FA05F52843E0621EE0072A37
:101E60000EDB206BD51F05EB85061F25B540A8436B
:101E7000D51F05EB850501FA05F5284320630DE024
:101E8000606B551E05EB85061F25B540A843551E02
:101E900005EB850501FA05F52843606370BD014631
:101EA000C86C80B2704707290ADD836823F000738D
:101EB00003F100738360836861F35343836007E039
:101EC000836823F000738360836861F35343836006
:101ED000836862F3145383607047426861F3CB22D6
:101EE00042607047826861F39652826070474A1E72
:101EF000836B62F3155383637047F0B514460A2968
:101F00000CDA026901EB41070726BE40B24301EB40
:101F1000410603FA06F6324302610FE0C268A1F1FE
:101F20000A0606EB46070726BE40B243A1F10A06A1
:101F300006EB460603FA06F63243C260866BC6F32A
:101F40000157E61CF61BF5B2012D06D0022D09D073
:101F5000032D0CD0042D14D10EE0866B61F3040622
:101F600086630FE0866B61F3491686630AE0866B31
:101F700061F38E26866305E0866B61F3D336866354
:101F800000E000BF00BFF0BD0246002031B10129D2
:101F900007D0022908D003290CD108E0D36B98B2EE
:101FA00009E0136C98B206E0536C98B203E0936CAE
:101FB00098B200E000BF00BF704707290ADD8368C0
:101FC00023F0807303F180738360836861F30E33C1
:101FD000836007E0836823F080738360836861F324
:101FE0000E338360836862F3CF338360704731B10F
:101FF000012909D002290CD0032914D10EE043692C
:1020000062F30B0343610FE0836962F30B038361A7
:102010000AE0C36962F30B03C36105E0036A62F37C
:102020000B03036200E000BF00BF704710B5044619
:102030001348844208D10121124800F005FB002119
:10204000104800F001FB1AE00F4884420AD1012138
:102050000C48401C00F0F8FA00210A48401C00F02F
:10206000F3FA0CE00948844209D101210548801D9A
:1020700000F0EAFA00210348801D00F0E5FA10BDE7
:102080000024014009000C0000280140003C0140F0
:1020900080ED000AF0EE001AB0EE401A01EEA01A30
:1020A000DFED031A21EE211A81ED001A70470000BE
:1020B00056CE133F0EB501221146900702F09AF951
:1020C00001220221964800F00FFC01229549964812
:1020D00002F05CFB954800F0A1FE944840689449EA
:1020E000096848649148C0689149096888648F48C4
:1020F00090ED000A8E48006880ED160A00F0AEFFF1
:10210000002000900190029010238A4A8AA18C48F6
:1021100001F0FBF8002401E18A48007870B188489A
:1021200001F0F0F850B90121854801F0F5F83220AE
:1021300002F058FD0021824801F0EEF87C4800686A
:1021400090ED130A804880ED000A7E48007812283E
:102150007ED2DFE800F0D7093C41465462D78B922B
:1021600098A3AAB0BDC4CAD1704800F057FE6F480A
:1021700040686F49096848646C48C0686C490968E0
:1021800088646A4890ED000A6948006880ED160A84
:102190006748006890ED110AB8EEC00A8DED000A9C
:1021A0006348006890ED120AB8EEC00A8DED010A8E
:1021B0005F48006890ED160A8DED020A0322694619
:1021C0000120FFF755F800205E4908709BE00124CC
:1021D00000205C49087096E00024002059490870EE
:1021E00091E05A4890ED000ABDEEC00A584880EDD3
:1021F000010A00F063FE00205249087083E0534852
:1022000090ED000ABDEEC00A514880ED030A00F0CF
:1022100055FE00204B49087075E00121484801F047
:102220007BF84C494C48FEF7B7FB4B4890ED000A51
:102230008DED000A474890ED000A8DED010A4648F1
:1022400090ED000A424880ED000A00F037FE00E001
:1022500058E0022269460720FFF70AF800213848B3
:1022600001F05AF80020374908704CE001203B4942
:10227000087000203349087045E000203749087095
:10228000304908703FE0314890ED000A2848006866
:1022900080ED0D0A00202B49087034E00120304900
:1022A00008700020274908702DE000202C49087094
:1022B0002449087027E000F0F7FE8DED000A0122A6
:1022C00069460D20FEF7D4FF00201E4908701AE071
:1022D00001202449087000201A49087013E00020EA
:1022E00020490870174908700DE001201E49087048
:1022F00000201449087006E000201B4908701149AD
:10230000087000E000BF00BF012C04D101220E497B
:102310000220FEF7ADFF052002F064FCFCE60000A1
:102320000800024005000C0000480040E0100020BA
:1023300068000020000C01404C45443100000000C2
:10234000500100203F00002000000020400000203D
:10235000F0100020100000200C00002014000020CD
:102360001500002016000020170000200122802107
:102370000648FFF70BFD41F2F7620621044802F020
:1023800013F802E00A2002F02DFCFBE700240140D4
:10239000002C01400649496860F38F31044A5160BE
:1023A00082080349496862F31C71014A5160704711
:1023B000001002400349496860F30711014A516067
:1023C00070470000001002400349496860F30A2189
:1023D000014A5160704700000010024003494968FB
:1023E00060F3CD21014A51607047000000100240A7
:1023F000012807D10749496D21F030013031054AE4
:10240000516505E00349496D21F03001014A5165EC
:102410007047000000100240052827D2DFE800F0D6
:10242000030A11181F00134A126861F30002114BCE
:102430001A601CE00F4A126861F310420D4B1A60DB
:1024400015E00C4A126861F318620A4B1A600EE03C
:10245000084A126A61F30002064B1A6207E0054A55
:10246000526A61F30002034B5A6200E000BF00BFF2
:1024700070470000001002402DE9F041014600279E
:102480000022002590460023002400F087F906462C
:1024900026B1012E12D0022E43D112E03948406DF0
:1024A000C0F3402038B13748006BC0F3406010B132
:1024B0003548086001E03548086035E03348086079
:1024C00032E030484068C0F300482E484068C0F30E
:1024D00083422C484068C0F341750DB90F2A03D1DF
:1024E0002801401C024400E0921CB8F1000F03D107
:1024F00027485043086013E022484068C0F340403A
:1025000058B12048406DC0F30137B81CDFF87CC0DB
:10251000BCFBF0F05043086002E01C4850430860E8
:1025200002E01A48086000BF00BF16484068C0F3C8
:1025300003131848C45C0868E040486011484068CC
:10254000C0F302231448C45C4868E040C8600D48EA
:102550004068C0F3C2231148C45C4868E04088600A
:1025600008484068C0F3007306484068C0F38130F3
:1025700040EA83030A48C45C8868B0FBF4F0086151
:10258000BDE8F08100100240006CDC0200127A000D
:1025900000093D008C6400089C640008A4640008E5
:1025A000AC64000810B501460020094B03EB114252
:1025B000126801F01F040123A3401A4001F01F0418
:1025C0000123A3409A4200D000E0012010BD00008A
:1025D0000010024030B50024002500E0641C1120EA
:1025E000FFF7E0FF012802D0B4F5405FF6D31120D9
:1025F000FFF7D8FF012801D0002500E0012528467B
:1026000030BD000010B501290DD10E4B03EB104277
:10261000126800F01F040123A3401A43094C04EB85
:1026200010431A600CE0074B03EB1042126800F0F5
:102630001F040123A3409A43024C04EB10431A6089
:1026400010BD00000010024010B501290DD10E4B45
:1026500003EB1042126800F01F040123A3401A4349
:10266000094C04EB10431A600CE0074B03EB1042DB
:10267000126800F01F040123A3409A43024C04EBAC
:1026800010431A6010BD00000010024010B568B978
:102690001C4B5B6823F480331A4C636023461B6B2E
:1026A00023F0007303F10073236317E0154B5B689D
:1026B00023F4803303F58033124C6360012805D185
:1026C00023465B6823F40033636007E00D4B5B68CF
:1026D00023F4003303F500330A4C6360094B5B6855
:1026E00061F39543074C63600C09064B5B6864F328
:1026F0005E73044C636023465B6862F3DF73636060
:1027000010BD0000001002401348006820F00100D6
:10271000401C1149086000BF0F480068C0F340002A
:102720000028F9D00C48406820F003000A494860AE
:1027300000BF09484068C0F381000028F9D106486D
:1027400000680649084004490860002048600863A2
:102750004FF41F008860704700100240FFFFF2FE38
:102760000D49496860F301010B4A516000BF00BF89
:1027700000BF00BF00BF00BF00BF00BF00BF00BF61
:1027800000BF00BF00BF00BF00BF00BF00BF00BF51
:1027900000BF00BF704700000010024002484068C0
:1027A000C0F381007047000000100240026861F32E
:1027B0000002026070474160704700210160416083
:1027C00001814181017341738173C173017441744B
:1027D00070470000B0F1805F04D920F07041034AD7
:1027E000116001E0024948607047000004040240A3
:1027F00000000240D0F8A430C3F300633BB9D0F826
:10280000A43023F0807303F18073C0F8A430012951
:1028100006D1D0F8A03062F30703C0F8A03034E04E
:10282000022906D1D0F8A03062F30F23C0F8A030FF
:102830002BE0032906D1D0F8A03062F31743C0F88B
:10284000A03022E0042906D1D0F8A03062F31F6343
:10285000C0F8A03019E0052906D1D0F8A43062F301
:102860000703C0F8A43010E0062906D1D0F8A43040
:1028700062F30F23C0F8A43007E0072905D1D0F890
:10288000A43062F31743C0F8A430704702684BF6D7
:10289000EF731A40026002680B891A4302604B7C96
:1028A000026863F30D320260CB7B026863F38B2214
:1028B00002608B7B026863F3092202604B7B026833
:1028C00063F3C71202600B7B026863F38612026037
:1028D0000B7C026863F3451202604A8942600A6811
:1028E00082604A68C26070471AB103680B43036094
:1028F00002E003688B43036070470000014600203C
:102900000022B1F1805F02D9054B1A6801E0054B46
:102910001A6802EA01030BB1012000E000207047B1
:1029200000040240000002400021026822F001027F
:1029300002600022026042608260C260014640F292
:10294000FF420A40B2F5816F0DD2CAB2083A142391
:10295000B2FBF3F293000F229A400D4B5B681A43CF
:102960000B4B5A6012E040F2FF420A40B2F5916F01
:102970000CD2CAB2083A1423B2FBF3F293000F222E
:102980009A40044B1B681A43024B1A6070470000C0
:102990000000024004040240F0EE400A9FED270AC6
:1029A00020EE800ABDEEC00A10EE100A00EE100AFA
:1029B000B8EEC01ADFED221AB0EE600A01EE610A2D
:1029C000F0EE400A00F0010179B1F5EEC00AF1EE37
:1029D00010FA04DD9FED1A0A30EEC00A03E09FED05
:1029E000180A30EE800AF0EE400A20EEA00ADFED71
:1029F000151AB0EE611ADFED141A41EE001AB0EEAE
:102A0000611ADFED121A41EE001AB0EE611ADFED25
:102A1000101A41EE001AB0EE611ADFED0E1A41EE07
:102A2000001AB0EE611ADFED0C1A41EE001A20EE2A
:102A3000A01AB7EE000A01EE210A704783F9A23E00
:102A4000DA0F4940F2A3ED30017591B4B3CCCF3722
:102A50001408B6BA83AA2A3DFDFFFFBEF0EE400A75
:102A60009FED280A20EE800ABDEEC00A10EE100A83
:102A700000EE100AB8EEC01ADFED231AB0EE600ABD
:102A800001EE610AF0EE400A00F0010179B1F5EEC5
:102A9000C00AF1EE10FA04DD9FED1B0A30EEC00A09
:102AA00003E09FED190A30EE800AF0EE400A20EEB6
:102AB000A00ADFED161AB0EE611ADFED151A41EE2D
:102AC000001AB0EE611ADFED131A41EE001AB0EEF3
:102AD000611ADFED111A41EE001AB0EE611ADFED56
:102AE0000F1A41EE001AB0EE611ADFED0D1A41EE39
:102AF000001A20EEA00A20EE201AB0EE600A01EEC5
:102B0000210A704783F9A23EDA0F49407ABF142F99
:102B1000CA32D4B235C538369E0A50B97888083CD6
:102B2000AAAA2ABE03200B49C96801F0010109B114
:102B300000200EE00749C968C1F3800109B10120F6
:102B400007E00449C968C1F3001109B1022000E09F
:102B5000032070470020024000B502460323FFF720
:102B6000E1FF034603E0FFF7DDFF0346521E0BB90A
:102B7000002AF8D102B90423184600BD03200B49EE
:102B8000C96C01F0010109B100200EE00749C96CD0
:102B9000C1F3800109B1012007E00449C96CC1F308
:102BA000001109B1022000E003207047002002401C
:102BB00000B502460323FFF7E1FF034603E0FFF7FA
:102BC000DDFF0346521E0BB9002AF8D102B90423D7
:102BD000184600BD70B504460D460326B4F1006FDB
:102BE00016D32848844213D82748006920F00100F2
:102BF000401C2549086125804FF48010FFF7ACFF89
:102C000006462148006920F001001F49086136E0AE
:102C10001C48401C844216D3B4F1016F13D21A48E9
:102C2000006D20F00100401C1749086525804FF415
:102C30008010FFF7BDFF06461348006D20F001002D
:102C4000114908651BE0B4F1046F18D30E489030A9
:102C5000006820F00100401C0B499031086025807D
:102C60004FF4801000F0B8F806460748D0F89000FE
:102C700020F001000449C1F8900000F087F83046C8
:102C800070BD0000FFFF07080020024006480069F1
:102C900020F080008030044908610846006D20F073
:102CA00080008030086570470020024030B504463F
:102CB0000325B4F1006F1BD33248844218D8324840
:102CC000006920F00200801C2F4908610846446119
:102CD000006920F04000403008614804FFF73CFFE5
:102CE00005462948006920F002002749086146E0AE
:102CF0002448401C84421BD3B4F1016F18D22248EF
:102D0000006D20F00200801C1F49086508464465DC
:102D1000006D20F04000403008654804FFF748FF90
:102D200005461948006D20F002001749086526E0A5
:102D3000B4F1046F23D314489030006820F00200EF
:102D4000801C1149C1F890000846C0F894400E4814
:102D50009030006820F0400040300B49903108600E
:102D60004FF0FF3000F038F805460748D0F89000E3
:102D700020F0020004499031086000F007F828466E
:102D800030BD0000FFFF0708002002404FF0046044
:102D90000068024800680248006870470010400858
:102DA0000020400803200B49096801F0010109B126
:102DB00000200EE007490968C1F3800109B1012034
:102DC00007E004490968C1F3001109B1022000E0DD
:102DD000032070478C20024000B502460323FFF712
:102DE000E1FF034603E0FFF7DDFF0346521E0BB988
:102DF000002AF8D102B90423184600BD0448054949
:102E00004860054848600248486403484864704781
:102E10002301674500200240AB89EFCD70B586B035
:102E2000064613A0FEF776FA002415E01548204464
:102E3000B0F8005802A90D55290A02AA601C1154C5
:102E400002A9085C009002A8035D0F4821182A46D9
:102E50000EA0FEF75FFAA41C102CE7D316A0FEF715
:102E600059FA02A80FC886E80F0006B070BD00002E
:102E700052656164696E6720466C6173683A0D0A39
:102E80000000000000F0030800F80308202041645F
:102E9000647220307825303858203A203078253038
:102EA0003458202D3E203078253032582030782577
:102EB0003032580D0A0000000D0A0000F0B585B050
:102EC000054695E80F0001AC0FC4FFF797FF1948BE
:102ED000FFF7ECFE032806D017A0FEF71BFAFFF75A
:102EE000D5FE05B0F0BD1AA0FEF714FA002417E0D5
:102EF00001A8015D01AA601C105C41EA00260D4991
:102F000060183146FFF766FE01AF601C00963B5C1F
:102F100001A8025D0748211812A0FEF7FBF9A41CC6
:102F2000102CE5D31AA0FEF7F5F9FFF7AFFE00BFAE
:102F3000D7E7000000F80308466C617368206572EB
:102F4000617365204552524F52210D0A0000000066
:102F500057726974696E6720466C6173683A0D0A2E
:102F60000000000020204164647220307825303851
:102F700058203A20307825303258203078253032A9
:102F800058202D3E203078253034580D0A0000009E
:102F90000D0A000070B504460D4600BF80210948A7
:102FA00001F079FB0028F9D0A1B2064801F05CFBE2
:102FB00000BF4021034801F06EFB0028F9D02046F5
:102FC00070BD00000048004010B503220021012020
:102FD00002F038FC0149086010BD0000200000200C
:102FE0000EB50F480F4900221346CDE9002102908B
:102FF0004FF480720CA10F4802F094FF0E49086054
:103000000E480F4900221346CDE9002102904FF4EB
:1030100080720CA10F4802F085FF0F4908600EBDB9
:103020006009002060010020636F6D6D5F74617343
:103030006B000000B520000818000020BC0900202B
:1030400060050020636F6E74726F6C5F7461736BE8
:10305000000000006D2300081C00002010B50020B7
:1030600000210022002309E00D4C246820440C4C70
:10307000646821440A4CA46822445B1C102BF3DBD7
:10308000C0F30F13074C2468E380C1F30F13054C02
:1030900024682381C2F30F13024C2468638110BD9E
:1030A000001100206800002010B52DED028B0221D8
:1030B0001848FEF760FE01211648FEF713FF00BF17
:1030C00002211448FEF75AFE0028F9D002211148C7
:1030D000FEF751FE0F48FEF7E2FE0F490880084652
:1030E000008800EE100AB8EE400A9FED0C1AC0EE00
:1030F000010A9FED0B0A20EE800AF3EE050A20EE8E
:10310000200AF7EE000A80EE208AB0EE480ABDECF5
:10311000028B10BD00240140040000200000804507
:103120003333534041617047016170474FF6FF717F
:103130000160002181710171042141710121C1717E
:103140007047F0B50A461588ABB29579032D01D1C9
:1031500000241AE0957965B9557905F00F04557981
:10316000182D01D1036110E05579282D0DD143614F
:103170000BE0957905F00805167906F0040635434D
:10318000D67906F0030645EA0604DDB2A5B10021B2
:1031900010E001258D401D405DB105688F000F26B0
:1031A000BE40B543056005688E0004FA06F6354357
:1031B0000560491C0829ECD3FF2B15DD1B120021EB
:1031C00010E001258D401D405DB145688F000F2640
:1031D000BE40B543456045688E0004FA06F63543A7
:1031E0004560491C0829ECD3F0BD0000F0B50C4641
:1031F000104F07EB1062C0F30741C0F30725C6B2BA
:10320000C5F12007A7EB010C4FF0FF3707FA0CF3CD
:10321000C5F120077F1AFB40CB408B4017689F43C6
:1032200017602CB106FA01FC176847EA0C07176013
:10323000F0BD000000000140194BD3ED001AB0EEC4
:10324000002A81EE821A31EE001A80ED001ADFEDBD
:10325000151AB0EE401A11EEA01AB0EE002AC1EE17
:10326000021A93ED001AB0EE002AC1EE022A31EEE6
:10327000A21A81ED001ADFED0C1AB0EE401A11EE21
:10328000A01AB0EE002AC1EE021A93ED001AB0EEB9
:10329000002AC1EE022A31EEA21A82ED001A70470E
:1032A000540000202DB2DD3F2DB2DDBF70B52DEDF5
:1032B000048BB0EE408AF0EE608AB0EE419A04468C
:1032C0000D46B0EE490AFFF7C9FBF1EE480A60EE81
:1032D000209AB0EE490AFFF75FFB48EE809AC4EDF2
:1032E000009AB0EE490AFFF757FB60EE089AB0EE7D
:1032F000490AFFF7B3FB48EE809AC5ED009ABDEC92
:10330000048B70BD0146C868704710B5016042600B
:1033100083600024C46010BD70B504460D462DB115
:10332000228991B26068FFF7FDFE04E0228991B224
:103330006068FFF7F9FEE56070BD000001F094FFE2
:1033400001F0FCFE01F012FE01F084FE01F04EFEE1
:1033500001F074FD01F012FE10230A4A0A490B48DD
:1033600001F034FE01210948FFF720FA02F04EF97E
:1033700001F01AFF01F0C4FF02F022F901F02AFE69
:1033800000BFFEE7D01000200448004008000240C3
:103390002DE9F0470B4614464FF0000C00BF2C4AB5
:1033A0001268C2F302211D4626460A46C2F10709E9
:1033B000B9F1040F02D94FF0040901E0C2F1070985
:1033C000C84602F10409B9F1070F02D24FF0000913
:1033D00001E0A2F103094F464FF0010909FA08F98B
:1033E000A9F1010909EA050909FA07F94FF0010AEB
:1033F0000AFA07FAAAF1010A0AEA060A49EA0A09D8
:10340000CC4601466246002904DB15072E0E114DFD
:103410006E5407E015072F0E0D4D0C3501F00F0609
:10342000361FAF5500BF014600290DDB00BF00BFAE
:1034300001F01F050122AA404D09AD0005F1E0256C
:10344000C5F8002100BF00BF00BFBDE8F087000045
:103450000CED00E000E400E000BF00F00702064BC6
:1034600019684FF6FF031940044B0B4343EA02214E
:10347000014B196000BF70470CED00E00000FA0539
:1034800070B52DED048BB0EE408AF0EE608AB0EEA0
:10349000419A04460D46B0EE490AFFF77DFA60EE08
:1034A000089AB0EE490AFFF7D9FA48EE809AC4EDBF
:1034B000009AB0EE490AFFF7D1FAF1EE480A60EE41
:1034C000209AB0EE490AFFF767FA48EE809AC5EDF8
:1034D000009ABDEC048B70BD2DE9F04105460E4607
:1034E0001648076816480068001D01F0F2F9681CCC
:1034F00038B936B112480168091D124801F040FA86
:103500001AE07C190E4800684460BC4207D20C489F
:103510000168091D0C48006801F018FA0CE0084821
:103520000168091D0948006801F010FA08480068A0
:10353000844201D206480460BDE8F081DC0000202E
:10354000C800002044130020D0000020CC00002040
:10355000F800002010B5044601F01EFA2448006867
:10356000401C234908602348006840B92148046092
:103570000846006801280DD100F0FCF90AE01E4859
:10358000006838B91B480068C06AE16A884201D8FF
:103590001848046019480068401C1849086008462B
:1035A000006860641649E06A0968884202D91449D3
:1035B000E06A0860E16A01EB8101124A02EB8100D6
:1035C000211D01F0DDF901F011FA0B48006868B126
:1035D00008480068C06AE16A884207D24FF080500C
:1035E00009490860BFF34F8FBFF36F8F10BD000014
:1035F000D8000020C8000020E4000020F4000020D3
:10360000E0000020B411002004ED00E008B501F056
:10361000C3F912480068E8B9114801F087F9114868
:1036200001F084F90E48104908600E480F490860FF
:1036300000200F4B0F4A102100900A2002F056F98B
:10364000064908600846006820B10BA103480068DD
:1036500001F08CFA01F0CAF908BD00001001002049
:10366000581300206C130020080100200C010020DA
:1036700080130020D0130020546D72510000000010
:1036800010B516E001F088F90C48C068C468201D28
:1036900001F01FF90A480068401E094908600948FE
:1036A0000068401E0749086001F0A0F9204600F0BC
:1036B0005FF8044800680028E4D110BD30130020F2
:1036C000D8000020D400002070B504460D46206CC0
:1036D00070B1216CE0680144E160D4E902108842D5
:1036E00001D32168E1602846226CE168FCF7C8FD3F
:1036F00070BD2DE9F04104460F4615464FF0000815
:10370000A66B206C48B9206800282CD1A06802F074
:103710001FFD80460020A06025E07DB93946226C5F
:103720006068FCF7ADFD216C606808446060D4E916
:103730000101884217D32068606014E03946226C8A
:10374000E068FCF79DFD216CE068411AE1602168AA
:10375000E068884203D2216CA068411AE160022D22
:1037600001D106B1761E701CA0634046BDE8F08111
:1037700010B5044694F8590030B9206B01F054F9A3
:10378000204601F051F91AE094F85900012803D1BC
:10379000204601F049F912E094F85900022801D1BD
:1037A000012000E0002050B900BF502080F31188B4
:1037B000BFF34F8FBFF36F8F00BF00BFFEE710BD99
:1037C0000146084A126812680AB9012200E0002284
:1037D0000A600A6822B9034A1268D268106800E0D9
:1037E000002070470801002030B54FF420531748DF
:1037F00000F007042CB1C01D20F00700134C041B7F
:103800001B1B0246124C22600024114D6C60D01824
:10381000083820F007000F4C206000240D4D2D6863
:103820006C600C4D2D682C601146441A4C60094C9C
:1038300024680C60084D4C682C60084D4C682C6066
:103840004FF00044064D2C6030BD00007014002085
:103850001C010020240100202C0100202801002050
:103860003801002000BFFFF70BFF06480068012861
:10387000F9D94FF0805004490860BFF34F8FBFF370
:103880006F8FF0E7B411002004ED00E02DE9F04166
:1038900006460D4617469846069C0DB9246000E082
:1038A0002760E66325640121204602F08FF884F842
:1038B0004C80BDE8F0812DE9F05F82460E469046CF
:1038C0009B460A9F0C9C4FEA8801A522206BFCF7BF
:1038D000E9FCA8F10100216B01EB800929F007093F
:1038E00009F0070008B9012000E0002050B900BF2E
:1038F000502080F31188BFF34F8FBFF36F8F00BF4D
:1039000000BFFEE786B1002507E0715D04F13400D9
:103910004155705D00B902E06D1C102DF5D300BF5C
:1039200000214320015502E0002084F83400102FCC
:1039300000D30F27E762E76400202065201D01F017
:1039400002F804F1180000F0FEFF2461C7F1100036
:10395000A06164620020606584F858005A465146B0
:10396000484600F07FFB20600B9808B10B9804607C
:10397000BDE8F09F10B5002407E004EB84010F4A76
:1039800002EB810000F0D2FF641C102CF5D30C4830
:1039900000F0CCFF0B4800F0C9FF0B4800F0C6FF59
:1039A0000A4800F0C3FF0A4800F0C0FF0448094974
:1039B000086004480849086010BD0000B4110020E8
:1039C000F4120020081300201C13002030130020E4
:1039D00044130020CC000020D000002010B5014688
:1039E000164800E0006803688B42FBD30246436838
:1039F00013448B4204D143684C682344436001461E
:103A00000A464B6813440468A34211D10C4C036866
:103A10002468A34208D04B680468646823444B6060
:103A200003681B680B6005E0054B1B680B6001E039
:103A300003680B60884200D0016010BD1C010020AB
:103A4000240100202DE9F04104460D4616461F468C
:103A50004FF0000865602461B5420CD8F01BA169E5
:103A6000884202D34FF0010811E0211D0948006887
:103A700000F06CFF0BE0BE4204D2BD4202D34FF017
:103A8000010804E0211D0448006800F05FFF404683
:103A9000BDE8F0810C0100200801002070B505464A
:103AA00000F07AFFA86B08B9012400E0002400F0C0
:103AB0009DFF204670BD70B5054600F06DFFA86BF8
:103AC000E96B884201D1012400E0002400F08EFF60
:103AD000204670BDF8B505460F461A480068C06814
:103AE000C468201D00F0F5FE94F8280000F00400E2
:103AF000E8B1A06941192B463A462046FFF7A2FFDC
:103B0000D8B1002003462A4601460090204602F024
:103B10007BFC064656B900BF502080F31188BFF3E6
:103B20004F8FBFF36F8F00BF00BFFEE705E094F833
:103B3000280020F0010084F828002046216A8847E8
:103B4000F8BD000008010020F0B587B0A0E00398A0
:103B5000002811DA04AE56B900BF502080F3118856
:103B6000BFF34F8FBFF36F8F00BF00BFFEE7D6E9F3
:103B70000020B168904700BF03980028E6DB059C51
:103B8000606908B9012000E0002010B9201D00F094
:103B9000A0FE02A800F0DCF8054603980A2875D2BA
:103BA000DFE800F009050739416306083A4200BF23
:103BB00000BF00BF00BF94F8280040F0010084F867
:103BC00028000498A269811803462A462046FFF778
:103BD00039FFF8B12046216A884794F8280000F0A0
:103BE0000400B8B1002000900498A1694218002395
:103BF0001946204602F008FC074657B900BF50207E
:103C000080F31188BFF34F8FBFF36F8F00BF00BFEA
:103C1000FEE700BF3BE000BF94F8280020F0010061
:103C200084F8280033E000BF94F8280040F0010039
:103C300084F828000498A061A06908B1012000E080
:103C4000002050B900BF502080F31188BFF34F8F80
:103C5000BFF36F8F00BF00BFFEE7A06941192B467D
:103C60002A462046FFF7EEFE11E094F8280000F007
:103C7000020018B9204600F0D7FE05E094F82800AD
:103C800020F0010084F8280001E0FFE700BF00BF3A
:103C9000002203A90448006802F048F800287FF4D5
:103CA00056AF07B0F0BD000010010020F8B5054682
:103CB0000C4601F073F8684600F04AF80646009892
:103CC00020BB44B9B54206D802F0E0FA3146284696
:103CD000FFF700FF1CE03CB10E480068006808B91F
:103CE000012000E000200446A91B22460A48006883
:103CF00000F052FF02F0CAFA50B94FF08050074965
:103D00000860BFF34F8FBFF36F8F01E002F0BEFA80
:103D1000F8BD00000C0100201001002004ED00E0BF
:103D200009480068006808B9012000E0002020B1BF
:103D30004FF0FF300549086005E003480068C0689F
:103D40000068024908607047CC000020F80000209D
:103D500070B5044602F054F90546074800688542EC
:103D600004D200F00BF80120206001E00020206068
:103D700001480560284670BD180100202DE9F84370
:103D800034E025480068C068056823480068C068BA
:103D9000C468201D00F09DFD2046216A884794F8E4
:103DA000280000F0040008B3A0694619AE4207D904
:103DB00066602461211D1848006800F0C7FD15E009
:103DC000002003462A4601460090204602F01CFBD4
:103DD000074657B900BF502080F31188BFF34F8FBB
:103DE000BFF36F8F00BF00BFFEE700BF0A48006847
:103DF000006808B9012000E000200028C1D0064872
:103E0000D0F8008005480068034908600348C0F8FE
:103E10000080BDE8F8830000080100200C010020AC
:103E20000E480068401C08B9012000E0002050B98D
:103E300000BF502080F31188BFF34F8FBFF36F8F07
:103E400000BF00BFFEE700BF502080F31188BFF322
:103E50004F8FBFF36F8F00BF00BFFEE7240000202D
:103E600008B500BF6846FFF7ABFC04462046009942
:103E7000FFF71CFFFFF768FEF4E770B5044600F09B
:103E80008BFD94F9455010E0606A08B9012000E00C
:103E9000002038B904F1240002F0ACF918B100F0A8
:103EA000DBFE00E003E0681E45B2002DECDC00BF45
:103EB000FF2084F8450000F099FD00F06DFD94F9B5
:103EC000445010E0206908B9012000E0002048B902
:103ED00004F1100002F08EF908B100F0BDFE681E7A
:103EE00045B200E001E0002DECDC00BFFF2084F8CB
:103EF000440000F07BFD70BD2DE9F04104464FF019
:103F0000000800F04BFF5148006808B9FFF76CFC4F
:103F10004F480068204000287ED13CB304F10800DF
:103F2000A04223D9083404F0070000B304F00700CE
:103F3000C0F108002044A04216D904F00700C0F1E7
:103F40000800044404F0070008B9012000E0002044
:103F500068B900BF502080F31188BFF34F8FBFF3C3
:103F60006F8F00BF00BFFEE7002400E00024002C9C
:103F700054D038480068844250D8374E30460568DF
:103F800001E02E462D686868A04202D22868002809
:103F9000F7D12E480068854240D0306800F108080B
:103FA000286830606868001B102819D92F1907F09D
:103FB000070008B9012000E0002050B900BF5020E0
:103FC00080F31188BFF34F8FBFF36F8F00BF00BF27
:103FD000FEE76868001B78606C603846FFF7FEFCFF
:103FE0001C4968680968081A1A4908600846006888
:103FF0001A490968884203D21648006817490860C0
:1040000013496868096808436860002028601448FC
:104010000068401C124900E000E0086002F036F938
:1040200008F0070008B9012000E0002050B900BFE7
:10403000502080F31188BFF34F8FBFF36F8F00BF05
:1040400000BFFEE74046BDE8F081000024010020EB
:1040500038010020280100201C0100202C01002034
:1040600030010020001F4FF080730360001F21F01B
:1040700001030360001F054B036014380260001F3A
:104080006FF002030360203870470000213E0008F3
:1040900010B52DED048BB0EE408AF0EE608AB0EEE4
:1040A000419A9FED130A28EE000ABCEEC00A10EEFA
:1040B000102A00210F4800F077F99FED0D0A28EE35
:1040C000800ABCEEC00A10EE102A0221094800F056
:1040D0006BF99FED070A29EE000ABCEEC00A10EE4C
:1040E000102A0421034800F05FF9BDEC048B10BDD9
:1040F0000078BB45002C01400021017041708170A7
:10410000C1700171417181710121C17170470268F3
:1041100061F38612026070470146C86880B270473A
:10412000C16070470246002093680B4003B900E06D
:1041300001207047C26922F40062C2610A7862B944
:10414000026822F400420260026822F480420260A7
:10415000026822F48062026036E00A78012A0ED1F9
:10416000026822F400420260026822F48042026087
:10417000026822F4806202F58062026024E00A781C
:10418000022A0ED1026822F4004202F500420260C7
:10419000026822F480420260026822F480620260B7
:1041A00012E00A78032A0FD1026822F4004202F5D5
:1041B00000420260026822F4804202F580420260FE
:1041C000026822F480620260CB79026863F34922BC
:1041D00002604A78012A09D1CA79012A06D1026807
:1041E00022F4807202F58072026003E0026822F419
:1041F000807202604B78026863F3820202608A7800
:10420000072A0BDD426822F4807202F58072426058
:104210008A78036862F3C503036008E0426822F409
:10422000807242608B78026863F3C5020260CB78CB
:10423000026863F3C71202600B79026863F3CB2252
:1042400002604B79026863F3410202608B79026875
:1042500063F30002026070472DE9F0470026002456
:1042600000250027A046A146FEF798FA8246BAF13B
:10427000000F06D0BAF1010F15D0BAF1020F46D1E6
:1042800015E02D48406DC0F3402040B12A48006B36
:10429000C0F3406018B129482949086002E0294864
:1042A0002749086037E027482549086033E022485D
:1042B0004068C0F3004720484068C0F383441E486C
:1042C0004068C0F341750DB90F2C03D12801401C83
:1042D000044400E0A41C27B91B4860431849086047
:1042E00014E015484068C0F3404058B11248406D92
:1042F000C0F30136B01C1349B1FBF0F06043104924
:10430000086003E00F4860430D49086003E00D4872
:104310000B49086000BF00BF07484068C0F303189E
:104320000A4810F808900648006820FA09F0044985
:104330000860BDE8F087000000100240006CDC025D
:104340003000002000127A0000093D00B46400082B
:10435000C1628262436923F001035B1C43617047C1
:104360008B79426C63F30C3242640B78426C63F3DA
:10437000070242644B79426C63F38A2242640B79F0
:10438000426C63F3CB2242644B78426C63F34D3250
:104390004264CB78426C63F38E3242648B78426C19
:1043A00063F30922426470470B4633B1022B06D0F7
:1043B000042B06D0062B08D105E0426306E0826399
:1043C00004E0C26302E0026400E000BF00BF704787
:1043D000026861F3092202607047026861F3061205
:1043E00002607047026861F3000202607047CA43CE
:1043F00002617047012A03D1C3680B43C36003E025
:1044000012B9C3688B43C360704710B50B4633B114
:10441000022B09D0042B0CD0062B14D10EE084699A
:1044200062F3C30484610FE0846962F3CB24846186
:104430000AE0C46962F3C304C46105E0C46962F3BD
:10444000CB24C46100E000BF00BF10BD2DE9F041E6
:1044500000250026002701F108035C1C92F801C02A
:104460000CFA03FC1FFA8CF592F802C00CFA04FC5B
:104470001FFA8CF6D0F804C04FF0010808FA04F8CF
:104480002CEA080CC0F804C0D0F804C04CEA060CB2
:10449000C0F804C0D0F804C04FF0010808FA03F8CF
:1044A0002CEA080CC0F804C0D0F804C04CEA050C93
:1044B000C0F804C00F4637B1022F0DD0042F14D01E
:1044C000062F24D11AE092F80080D0F818C068F3C3
:1044D000061CC0F818C01BE092F80080D0F818C085
:1044E00068F30E3CC0F818C012E092F80080D0F8D3
:1044F0001CC068F3061CC0F81CC009E092F80080DC
:10450000D0F81CC068F30E3CC0F81CC000E000BF2F
:1045100000BF4FF0010C0CEB41034FF0030C0CEB10
:10452000410492F803C00CFA03FC1FFA8CF592F8D0
:1045300004C00CFA04FC1FFA8CF64FF0010808FACC
:1045400004F8D0F820C02CEA080CC0F820C0D0F83D
:1045500020C04CEA060CC0F820C04FF0010C0CFA49
:1045600003FCD0F8208028EA0C08C0F82080D0F89E
:1045700020C04CEA050CC0F820C04B004FF0020CE4
:104580000CEB410492F805C04FEA41080CFA08FC14
:104590001FFA8CF592F806C04FF0020808EB4108AC
:1045A0000CFA08FC1FFA8CF64FF0010808FA04F820
:1045B000D0F820C02CEA080CC0F820C0D0F820C0E9
:1045C0004CEA060CC0F820C04FF0010808FA03F8C6
:1045D000D0F820C02CEA080CC0F820C0D0F820C0C9
:1045E0004CEA050CC0F820C0BDE8F08110B50B46C0
:1045F00033B1022B09D0042B0CD0062B14D10EE0C2
:10460000846962F3820484610FE0846962F38A241E
:1046100084610AE0C46962F38204C46105E0C4698C
:1046200062F38A24C46100E000BF00BF10BD426C89
:1046300061F3CF3242647047026861F3C7120260CF
:104640007047426861F3061242607047026B61F383
:10465000070202637047826861F3C7128260704785
:104660000146486880B27047C1F308024260704753
:10467000426961F3C71242617047C26861F34D320B
:10468000C260704701F01F0212B10268426801E087
:10469000CA430260704702461068084008B1012012
:1046A00070470020FCE741B9426922F48072426100
:1046B000426922F40072426127E001290AD142696D
:1046C00022F4807202F580724261426922F4007223
:1046D00042611AE002290AD1426922F480724261E1
:1046E000426922F4007202F5007242610DE0032972
:1046F0000BD1426922F4807202F5807242614269F4
:1047000022F4007202F50072426170472DE9F04315
:1047100085B004460F46904699466846FDF7ACFEC4
:104720001748844205D01748844202D01648844274
:1047300001D1029E00E0039E06EB86004000B0FB24
:10474000F7F50A20B5FBF0F100FB1150052803D264
:104750000A20B5FBF0F503E00A20B5FBF0F0451C9C
:10476000A06865F30F00A060E06868F30C30E060BB
:10477000206969F30D30206105B0BDE8F0830000C9
:1047800000380140006001400064014030B5012A5A
:104790000BD100EB11431B6801F01F050124AC4055
:1047A000234300EB114423600AE000EB11431B6834
:1047B00001F01F050124AC40A34300EB114423602A
:1047C00030BD02460023202927D00CDC042939D033
:1047D00004DC01293BD002293DD134E0082920D056
:1047E000102938D12AE0402913D080290DD0B1F505
:1047F000807F06D0B1F5007F2DD15069C0F38023B2
:104800002BE01069C0F3801327E0D068C0F3C01319
:1048100023E0D068C0F380131FE0D068C0F34013DA
:104820001BE0D068C0F3401018B9506900F00100D7
:1048300008B1012000E0002003460EE0D068C0F37C
:1048400000130AE000BF506900F0010305E0D068E2
:10485000C0F3002301E0002300BF00BF012B01D003
:10486000002070471068084008B10120F9E70020D7
:10487000F7E741B9C26822F40072C260C26822F44C
:104880008062C2601AE001290AD1C26822F4007273
:10489000C260C26822F4806202F58062C2600DE0EC
:1048A00002290BD1C26822F4007202F50072C260C4
:1048B000C26822F4806202F58062C2607047C268FA
:1048C00061F38202C2607047C26861F3C302C260D2
:1048D000704701460A69D1E901309860D1E90103C6
:1048E00058605068884201D1886850600020086193
:1048F0001068401E1060106870470000034B036092
:10490000034B0B60802313607047000018100020D9
:10491000180A0020034B0360034B0B604FF48073B5
:104920001360704774100020180C002000F108017B
:1049300041604FF0FF31816000F10801C160016109
:1049400000210160704700210161704710B50246E7
:104950000B685C1C0CB9106907E002F1080000E06C
:104960004068446824689C42FAD944684C604C68AA
:10497000A160886041600A611468641C146010BD05
:1049800042684A6093688B609368596091600861DF
:1049900003685B1C0360704700BF502080F31188E0
:1049A000BFF34F8FBFF36F8F00BF0E480068401CEE
:1049B0000C49086008460068012812D10A480068BE
:1049C000C0B208B9012000E0002050B900BF50205B
:1049D00080F31188BFF34F8FBFF36F8F00BF00BF0D
:1049E000FEE770472400002004ED00E00D48006859
:1049F00050B900BF502080F31188BFF34F8FBFF331
:104A00006F8F00BF00BFFEE706480068401E0549E3
:104A100008600846006820B9002080F3118800BFB4
:104A200000BF70472400002070B506463546002EB2
:104A300044D0083D2C46224960680968084008B106
:104A4000012000E0002050B900BF502080F3118801
:104A5000BFF34F8FBFF36F8F00BF00BFFEE720682B
:104A600008B9012000E0002050B900BF502080F3B9
:104A70001188BFF34F8FBFF36F8F00BF00BFFEE7FA
:104A80000F49606809680840C0B12068B0B90C4996
:104A9000606809688843606000F080F909496068CF
:104AA00009680844074908602046FEF797FF064852
:104AB0000068401C0449086001F0E8FB70BD00007C
:104AC00038010020280100203401002000204FF090
:104AD000E02108618861064800684FF47A71B0FBF4
:104AE000F1F0401E4FF0E021486107200861704757
:104AF0003000002070B5FBF7ADFB0446102C16D338
:104B000004F1E02090F8F05315480078854201DB6D
:104B1000012000E0002050B900BF502080F3118830
:104B2000BFF34F8FBFF36F8F00BF00BFFEE70D488D
:104B3000006800F4E0600C490968884201D801204F
:104B400000E0002050B900BF502080F31188BFF36F
:104B50004F8FBFF36F8F00BF00BFFEE770BD000037
:104B6000280000200CED00E02C0000200246002070
:104B70000BE0084B53F8303033B9064B43F8301094
:104B800003EBC0035A6002E0401C0828F1D300BFC9
:104B900070470000741100202DE9F04105460E46D3
:104BA00017462C46FFF7F8FE94F94400401C10B954
:104BB000002084F8440094F94500401C10B90020FE
:104BC00084F84500FFF712FFA06B28B93A4631463A
:104BD00004F1240000F062F82046FFF74EF9BDE82A
:104BE000F081000070B504460025D4B11248006879
:104BF00008B9012000E0002050B900BF502080F328
:104C00001188BFF34F8FBFF36F8F00BF00BFFEE768
:104C100000F0C4F800212046FEF75EFC01F036FBF0
:104C200005463DB94FF0805004490860BFF34F8FEF
:104C3000BFF36F8F70BD00000401002004ED00E0A1
:104C40000349096801600349096841607047000031
:104C5000F0000020DC0000200120014908607047BE
:104C6000EC00002070B504460D4654B900BF50203A
:104C700080F31188BFF34F8FBFF36F8F00BF00BF6A
:104C8000FEE70548016818312046FFF75FFE012165
:104C90002846FEF721FC70BDC800002070B505460F
:104CA0000E46144655B900BF502080F31188BFF35B
:104CB0004F8FBFF36F8F00BF00BFFEE7064801684C
:104CC00018312846FFF75CFE0CB14FF0FF36214645
:104CD0003046FEF701FC70BDC800002010B586B05C
:104CE00000200590049003AA04A905A8FFF706FE7A
:104CF0000022DDE904101346CDE9002102901FA136
:104D00002048039A01F00EF91F4908600846006820
:104D100008B1012400E00024012C02D101F038FB8D
:104D20000446012C15D100BF502080F31188BFF339
:104D30004F8FBFF36F8F00BF4FF0FF3013490860F4
:104D400001201349086000201249086000F0ACFC03
:104D500010E0601C08B1012000E0002050B900BF45
:104D6000502080F31188BFF34F8FBFF36F8F00BFC8
:104D700000BFFEE70848006806B010BD49444C4536
:104D80000000000065380008FC000020F80000204A
:104D9000E4000020DC000020000100200248006840
:104DA000401C014908607047040100201E4800684B
:104DB00018B101201D49086034E000201B4908603B
:104DC0001B4801680CE051B900BF502080F31188E6
:104DD000BFF34F8FBFF36F8F00BF00BFFEE7491EC9
:104DE00001EB8100134A52F8200008B9012000E0CD
:104DF00000200028E7D101EB81020E4B03EB82007B
:104E000042685268426000F108024368934202D14E
:104E10004268526842604268D268074B1A60044890
:104E2000016000BF7047000004010020EC0000207A
:104E3000E0000020B4110020C80000200EB501A839
:104E4000FEF774F903208DF80A000120019001A9F2
:104E50004448FEF776F903208DF80A0002200190FD
:104E600001A94048FEF76DF903208DF80A000420DF
:104E7000019001A93B48FEF764F903208DF80A0070
:104E80001020019001A93748FEF75BF93648FDF77D
:104E9000CDF80220FDF77EFA0020FCF75DFF6846A2
:104EA000FCF735FF01208DF8000000208DF801008F
:104EB0008DF8020001208DF8030069462A48FCF7AE
:104EC00010FF0023012204212748FCF794FF012250
:104ED00007212548FCF7E7FF00212348FCF7FDFFE9
:104EE00003212148FDF703F80023012219461E483B
:104EF000FDF703F8002211461B48FDF778F801235F
:104F0000022219461848FCF7F8FF00220121164832
:104F1000FDF76DF80023032202211348FCF7EDFF93
:104F2000002202211048FDF762F8012211460E48C6
:104F3000FDF743F801210C48FCF718FF0A48FCF77D
:104F4000EDFE00BF0848FCF7EFFE0028FAD1064846
:104F5000FCF7F3FE00BF0448FCF7F5FE0028FAD189
:104F60000EBD0000000801400024014010B50121E1
:104F70000148FEF73BF910BD0203103000B585B0C3
:104F80001148FDF7D1FC6846FDF717FC1020ADF87D
:104F9000080000208DF80F0001208DF80D00002082
:104FA0008DF80E008DF80C008DF811008DF81000B2
:104FB00069460548FDF76AFC1E22012102480838AF
:104FC000FDF718FC05B000BD080002404360816099
:104FD000C260704710B5FFF7DFFCFDF7F5FFFDF786
:104FE000FFFFFFF703FDFFF779FE10BD1CB5684614
:104FF000FEF79CF801211648FEF794F8302114487A
:10500000FEF792F801208DF8070000208DF80400CB
:1050100010208DF806000120009004208DF8050076
:1050200069460B48FEF78DF802208DF80700002036
:105030008DF8040010208DF8060030200090042028
:105040008DF8050069460248FEF77BF81CBD00009C
:10505000000C014070B50320FEF7FEF9FCF76AF979
:10506000054600221146FBF76FFF044621466FF00C
:105070000B00FCF767F9FCF75DF9054600221146C5
:10508000FBF762FF044621466FF00A00FCF75AF96D
:10509000FCF750F9054600221146FBF755FF044680
:1050A00021466FF00900FCF74DF9FCF743F905467E
:1050B00000221146FBF748FF044621466FF004002A
:1050C000FCF740F9FCF736F9054600221146FBF7DC
:1050D0003BFF044621466FF00300FCF733F9FCF771
:1050E00029F9054600220F21FBF72EFF0446214631
:1050F0006FF00100FCF726F9FCF71CF905460022C9
:105100000F21FBF721FF044621464FF0FF30FCF74B
:1051100019F9002206210B20FEF73AF90022052199
:105120001220FEF735F9002205211C20FEF730F988
:10513000002204212720FEF72BF970BD10B50121B4
:105140004FF4A010FDF75EFA01214FF4C010FDF7F7
:1051500059FA01211248FDF755FA01211048401C67
:10516000FDF750FA01210E48C01CFDF74BFA012152
:105170000B48C01DFDF746FA012109480930FDF72B
:1051800041FA012106480A30FDF73CFA01214FF4AB
:10519000E010FDF737FA01210248FDF733FA10BDA0
:1051A0000200180012001C001FB502A8FDF7BEFF88
:1051B0006846FEF7A1FF02208DF80F0000208DF851
:1051C0000C0008208DF80E002020029004208DF89D
:1051D0000D0002A92248FDF7B4FF02208DF80F0050
:1051E00000208DF80C008DF80E0040200290042065
:1051F0008DF80D0002A91A48FDF7A3FF02208DF8D3
:105200000F0000208DF80C0008208DF80E00802083
:10521000029004208DF80D0002A91148FDF791FFBE
:1052200000208DF8000001208DF8010000208DF88D
:1052300004008DF8030002208DF8020000208DF894
:10524000050001208DF806008DF807006946054825
:10525000FEF770FF01210348FEF759FF1FBD000054
:10526000000801400030014010B5FDF74DFA012162
:105270000420FDF7D1F800BF2048FDF793F901287D
:10528000FAD101210846FDF7C7F800BFFDF7A2F9E2
:105290000028FBD001210020FDF7BEF800BF01204F
:1052A000FDF780F90128FAD101221D211046FDF7F2
:1052B000EDF901210220FDF7AFF800BF1920FDF73D
:1052C00071F90128FAD10020FDF774F80420FDF7E8
:1052D00085F80420FDF778F80120FDF789F8022011
:1052E000FDF73EFA00BFFDF759FA0228FBD1002076
:1052F000FDF77EF8FEF7B0FF10BD000001002400AE
:1053000000B587B005A8FDF711FF4FF48050059058
:1053100000208DF81A008DF8180004208DF819006F
:1053200001208DF81B0005A9A248FDF70AFF4FF4E4
:105330000050059008208DF81A0000208DF8180004
:1053400004208DF8190002208DF81B0005A999484A
:10535000FDF7F7FE4FF48040059008208DF81A0005
:1053600000208DF8180004208DF8190002208DF817
:105370001B0005A98F48FDF7E4FE4FF4004005909F
:1053800008208DF81A0000208DF8180004208DF8F0
:10539000190002208DF81B0005A98648FDF7D1FEF3
:1053A0004FF48070059008208DF81A0000208DF8C9
:1053B000180004208DF8190002208DF81B0005A9A3
:1053C0007D48FDF7BEFE4FF40070059008208DF873
:1053D0001A0000208DF8180004208DF81900022012
:1053E0008DF81B0005A97448FDF7ABFE4FF48060F3
:1053F000059008208DF81A0000208DF81800042070
:105400008DF8190002208DF81B0005A96A48FDF7E8
:1054100098FE02216948FEF7E0FF00216748FEF789
:10542000D7FF00216548FFF711F900216348FFF716
:1054300003F9002241F26F716048FEF789FF0021F5
:105440005E48FFF708F907215C48FFF7FAF80620E5
:105450008DF80C0001208DF811008DF8120000204D
:105460008DF80F008DF810008DF80D008DF80E00EE
:1054700003AA00215148FEF7E9FF002211464F48D8
:10548000FEF792FF002211464C48FEF7BEFF0022B5
:1054900011464A48FFF7AAF806208DF80C000120B3
:1054A0008DF811008DF8120000208DF80F008DF896
:1054B00010008DF80D008DF80E0003AA02213F4860
:1054C000FEF7C4FF002202213C48FEF76DFF0022D8
:1054D00002213A48FEF799FF002202213748FFF7E0
:1054E00085F806208DF80C0001208DF811008DF84C
:1054F000120000208DF80F008DF810008DF80D00BF
:105500008DF80E0003AA04212C48FEF79FFF00220D
:1055100004212A48FEF748FF002204212748FEF70D
:1055200074FF002204212548FFF760F806208DF85B
:105530000C0001208DF8110000208DF812008DF86C
:105540000F008DF810008DF80D008DF80E0003AAE5
:1055500006211A48FEF77AFF002206211748FEF7B7
:1055600023FF002206211548FEF74FFF00220621E7
:105570001248FFF73BF800208DF80A008DF807006D
:105580008DF805008DF808008DF809008DF80600EB
:105590000A208DF8040001A90848FEF7E1FE012168
:1055A0000648FFF744F801210448FEF71BFF07B047
:1055B00000BD0000000C014000080140002C01402B
:1055C00010B500214FF08040FEF707FF00214FF09B
:1055D0008040FEF7FDFE00214FF08040FFF72CF8E1
:1055E000172240F2E7314FF08040FEF7B1FE002174
:1055F0004FF08040FFF72FF800214FF08040FFF779
:1056000020F801218807FEF7EDFE10BD1CB56846A5
:10561000FDF78CFD02208DF8070000208DF80400B6
:1056200008208DF80600C001009004208DF80500C8
:1056300069461A48FDF785FD02208DF80700002015
:105640008DF804008DF806004FF4006000900420EF
:105650008DF8050069461148FDF773FD00231A46D1
:105660000F491048FFF752F801210E48FFF72CF9B7
:1056700001210C48FFF723F900210A48FFF7F9F848
:1056800001210848FEF7F4FF00210648FFF70BF858
:1056900001210448FEF7F1FF1CBD0000000C014091
:1056A00000093D00004800401CB5524800685249BE
:1056B000884201D0012000E0002050B900BF5020F6
:1056C00080F31188BFF34F8FBFF36F8F00BF00BF10
:1056D000FEE7484800684849491E884201D0012039
:1056E00000E0002050B900BF502080F31188BFF3C4
:1056F0004F8FBFF36F8F00BF00BFFEE73F490846E3
:1057000000780190FF200A4610700846007800904B
:105710009DF8000000F0F0009DF80020904201D1BB
:10572000012000E0002050B900BF502080F3118814
:10573000BFF34F8FBFF36F8F00BF00BFFEE79DF831
:10574000000000F050002E4A107007202D4A106013
:1057500009E02C480068401E2A4A10609DF80000AD
:105760004006000E00909DF8000000F080008028A8
:10577000EFD024480068C0F10700042801D10120BF
:1057800000E0002050B900BF502080F31188BFF323
:105790004F8FBFF36F8F00BF00BFFEE7194800684F
:1057A0000002184A10601046008800F4E0601060A3
:1057B000124A019810700F482030006840F47000C1
:1057C0000C49203108600846006840F070400860CD
:1057D000FFF77CF900200C490860FAF703FD0B483D
:1057E000006840F0404009490860FAF7E7FC0020F3
:1057F0001CBD000000ED00E071C20F4100E400E0BC
:10580000280000202C0000202400002034EF00E0BD
:1058100010B500BF502080F31188BFF34F8FBFF346
:105820006F8F00BF00F0F2FB18B14FF080500449B9
:10583000086000BF002080F3118800BF10BD000089
:1058400004ED00E02DE9F84306460F4690460EB100
:10585000012000E0002050B900BF502080F31188E3
:10586000BFF34F8FBFF36F8F00BF00BFFEE706FB94
:1058700007F51FB1B5FBF7F0B04201D1012000E000
:10588000002050B900BF502080F31188BFF34F8F24
:10589000BFF36F8F00BF00BFFEE705F15000A842C5
:1058A00001D9012000E0002050B900BF502080F352
:1058B0001188BFF34F8FBFF36F8F00BF00BFFEE7AC
:1058C00005F15000FEF718FB044664B1A14609F14A
:1058D0005009002084F8460043464A46394630467F
:1058E0000094FDF7D3FF2046BDE8F8832DE9F84387
:1058F00080460E4617461D46DDF82090B8F1000F91
:1059000001D0012000E0002050B900BF502080F3FA
:105910001188BFF34F8FBFF36F8F00BF00BFFEE74B
:105920000DB1012000E0002050B900BF502080F3ED
:105930001188BFF34F8FBFF36F8F00BF00BFFEE72B
:1059400007B10EB1012000E0002050B900BF502087
:1059500080F31188BFF34F8FBFF36F8F00BF00BF7D
:10596000FEE707B90EB9012000E0002050B900BFE2
:10597000502080F31188BFF34F8FBFF36F8F00BFAC
:1059800000BFFEE7502000900098502801D1012070
:1059900000E0002050B900BF502080F31188BFF311
:1059A0004F8FBFF36F8F00BF00BFFEE700BF2C46D5
:1059B0004CB1012084F846004B463A4631464046F9
:1059C0000094FDF763FF2046BDE8F88370B50546F7
:1059D0000E462C4654B900BF502080F31188BFF307
:1059E0004F8FBFF36F8F00BF00BFFEE7FEF7D4FFFE
:1059F000D4E90F12206801FB0200A0600020A06320
:105A000020686060E06B401E226C216800FB021180
:105A1000E160FF2084F8440084F845009EB92069C5
:105A200008B9012000E00020A8B904F1100000F03E
:105A3000E1FB80B14FF0805009490860BFF34F8F00
:105A4000BFF36F8F07E004F11000FEF76FFF04F162
:105A50002400FEF76BFFFEF7C9FF012070BD0000B8
:105A600004ED00E02DE9FF4383B0064688461D465D
:105A70004FF00009344654B900BF502080F311881C
:105A8000BFF34F8FBFF36F8F00BF00BFFEE7B8F1CA
:105A9000000F01D1206C08B9012000E0002050B9AE
:105AA00000BF502080F31188BFF34F8FBFF36F8F7B
:105AB00000BF00BFFEE7022D02D1E06B012801D13B
:105AC000012000E0002050B900BF502080F3118871
:105AD000BFF34F8FBFF36F8F00BF00BFFEE700F033
