:020000040800F2
:10000000F03F00205D020008470D0008470A000885
:10001000750A0008CD090008D90F0008000000008B
:100020000000000000000000000000009D0100082A
:10003000450A000800000000F9010008C50D00088D
:1000400077020008770200087702000877020008AC
:10005000770200087702000877020008770200089C
:10006000770200087702000877020008F509000807
:10007000770200087702000877020008770200087C
:10008000770200087702000877020008770200086C
:10009000770200087702000877020008770200085C
:1000A000770200087702000877020008770200084C
:1000B000770200087702000877020008770200083C
:1000C000770200087702000877020008770200082C
:1000D000770200087702000877020008450E000842
:1000E000770200087702000877020008770200080C
:1000F00077020008770200087702000877020008FC
:1001000077020008770200087702000877020008EB
:1001100077020008770200087702000877020008DB
:1001200077020008770200087702000877020008CB
:1001300077020008770200087702000877020008BB
:1001400000000000000000000000000000000000AF
:10015000770200087702000877020008770200089B
:10016000770200087702000877020008770200088B
:10017000770200087702000877020008770200087B
:1001800077020008DFF810D000F0C6FA00480047F8
:10019000ED280008AFF30080F03F00202C4B1968D9
:1001A0000868B0E8F04F80F30988BFF36F8F4FF015
:1001B000000080F3118870470000000008480068C4
:1001C000006880F308884FF0000080F3148862B65E
:1001D00061B6BFF34F8FBFF36F8F00DF00BF00BF6B
:1001E00008ED00E0DFF80C00016841F470010160E7
:1001F000704700BF88ED00E0EFF30980BFF36F8F19
:10020000134B1A681EF0100F08BF20ED108A20E96A
:10021000F04F106009B44FF0500080F31188BFF325
:100220004F8FBFF36F8F04F0E3F84FF0000080F3BF
:10023000118809BC19680868B0E8F04F1EF0100F6B
:1002400008BFB0EC108A80F30988BFF36F8F704746
:100250006C000020EFF305807047000006488047DF
:1002600006480047FEE7FEE7FEE7FEE7FEE7FEE79B
:10027000FEE7FEE7FEE7FEE7D50D00088501000872
:1002800040EA01039B0703D009E008C9121F08C018
:10029000042AFAD203E011F8013B00F8013B521E98
:1002A000F9D27047D2B201E000F8012B491EFBD20F
:1002B00070470022F6E710B513460A460446194671
:1002C000FFF7F0FF204610BD30B50B460146002079
:1002D0002022012409E021FA02F59D4205D303FA08
:1002E00002F5491B04FA02F52844151EA2F1010289
:1002F000F1DC30BD2DE9F05F0546002092469B46BB
:1003000088460646814640241BE02846414647462B
:10031000224600F022FA53465A46C01A914110D3A1
:1003200011461846224600F009FA2D1A67EB01081B
:100330004F4622460120002100F000FA17EB000989
:100340004E41201EA4F10104DFDC484631462A4616
:100350004346BDE8F09FF0B400F0004221F00041B8
:1003600020F00040CE0DC30DC1F3160141F4000191
:10037000C0F316004C42154640F40000761E09E01A
:1003800010EB440002D582F0004240428842F7D888
:1003900040005B1EB342F9DA18B1F0BC002100F056
:1003A00007BA2846F0BC70472DE9FE4F804681EA27
:1003B0000300C00F0C46009021F0004123F00045DF
:1003C000B8EB0200A94105D24046214690461C46A2
:1003D0000B46024623F00040104347D0270DC7F3D9
:1003E0000A00C3F30A510290401A019040286BDAC8
:1003F000C3F3130040F4801B0098924620B1002301
:10040000D2EB030A63EB0B0B01985946C0F1400293
:10041000504600F093F906460D4650465946019A5B
:1004200000F0ABF910EB08006141002487EA11529B
:1004300084EAE7731A4340D0009A62B3019A012A12
:100440004FEA075215DC001B61EB02014FF000423E
:1004500002EA0752CDE90042001C41F58011324604
:100460002B4600F0E2F903B0BDE8F08F404621468C
:10047000F9E7001B61EB0201001C41F58013001835
:100480005B412018A2F5001747EB030140EAD57045
:10049000B6196D4111E06D084FEA360645EAC075A0
:1004A0004FEA0752001B61EB0201001C41F580116D
:1004B00049084FEA30000019514132462B4603B03B
:1004C000BDE8F04F00F0A2B90098012240000023DF
:1004D000D0EB020263EBE073009821464FEAE07430
:1004E000B8EB000061EB0401E9E783F000435BE750
:1004F00081F0004158E72DE9FE4F81EA030404F042
:10050000004421F0004100944FF0000B23F0004321
:1005100050EA01045ED052EA03045BD0C3F30A54EC
:10052000C1F30A552C44A4F2F3340194A0FB025405
:10053000C1F3130141F48011C3F3130343F4801397
:1005400001FB024400FB034E840A970A44EA8154EB
:1005500047EA8357A4FB076802958D0A05FB0785C8
:100560004FEA932C04FB0C542705029D4FEA0658D2
:1005700047EA1637B5EB08056EEB070C870E920EAF
:1005800047EA811742EA8312A7FB0201B6EB0B018F
:1005900064EB00042B0D43EA0C335E1844EB1C5053
:1005A000DA465146E7FB0201C5F313044FEA0B3369
:1005B00043EA14534FEA0432019C43EA0603A4F1D0
:1005C0000C040294009CCDE900B400F02EF903B0B5
:1005D000BDE8F08F00200146F9E72DE9F04D81EAF2
:1005E000030404F0004B21F0004514464FF0000ACC
:1005F00023F0004150EA050220D054EA01021DD048
:10060000C5F30A570246C5F31303C1F31300C1F340
:100610000A5640F4801543F48013A7EB0608101B1C
:10062000D64608F2FD3873EB050002D308F1010845
:1006300001E092185B41B8F1000F03DA0020014697
:10064000BDE8F08D00204FF48011064684460EE090
:10065000171B73EB050705D3121B63EB050306435A
:100660004CEA010C49084FEA300092185B4150EA0D
:100670000107EDD152EA030012D082EA040083EAB6
:100680000501084305D0101BAB4106D2012200230F
:1006900006E000224FF0004302E06FF00102531029
:1006A0001AEB06004CEB085110EB0A0041EB0B0172
:1006B000BDE8F04D00F0AAB8C1F30A52C1F313012E
:1006C00040F2FF3341F480119A4202DA00200146E1
:1006D000704740F233439A42A2F2334202DC524264
:1006E00000F03BB800F02AB830B5041E71F10004E8
:1006F00004DB4FF00044404264EB0101141E73F12F
:10070000000405DB1C464FF00043524263EB040338
:10071000994208BF904230BD064C074D06E0E068A4
:1007200040F0010394E8070098471034AC42F6D338
:10073000FFF72CFDC05C0008E05C0008202A04DB09
:10074000203A00FA02F1002070479140C2F12003E4
:1007500020FA03F3194390407047202A04DB203A23
:1007600021FA02F00021704721FA02F3D040C2F1D1
:1007700020029140084319467047202A06DBCB1718
:10078000203A41FA02F043EAE07306E041FA02F34C
:10079000D040C2F120029140084319467047002919
:1007A000A8BF7047401C490008BF20F001007047F7
:1007B00010B4B0FA80FC00FA0CF050EA010404BF57
:1007C00010BC704749B1CCF1200421FA04F411FAAD
:1007D0000CF118BF012121430843A3EB0C01CB1DF1
:1007E0004FEA00614FEA102042BF002010BC704762
:1007F00000EBC35010440029A4BF10BC7047401C3C
:10080000490008BF20F0010010BC704710B5141E4D
:1008100073F1000408DA401C41F1000192185B41B9
:100820001A4301D120F0010010BD2DE9F04D924690
:100830009B4611B1B1FA81F202E0B0FA80F22032A7
:100840009046FFF77BFF04460F4640EA0A0041EA64
:100850000B0153465A46084313D0114653EA010090
:1008600019D0C8F140025046FFF777FF05460E4603
:10087000504659464246FFF761FF084305D0012024
:1008800004E020463946BDE8F08D0020054346EAE5
:10089000E0762C4337430A986305E40AA0EB08008E
:1008A0000022FD0A44EA47540A3002D500200146DE
:1008B000E9E7010510196941DDE9084500196941B9
:1008C000BDE8F04DA2E7000010B52DED048BF0EE71
:1008D000408AB0EE680A00F07BF8B0EE409AB0EEC5
:1008E000498AB0EE480A00F04FFAB0EE408A9FED18
:1008F0000B0A38EE400AB0EEC00ADFED090AB4EE8A
:10090000E00AF1EE10FA03D29FED060AB0EE408A3B
:10091000B0EE480ABDEC048B10BD0000D00FC940FA
:10092000BD378635000000002DE9F0412DED048B28
:1009300004460D46B7EE000A00F09EF84FF4FA6048
:1009400003F00AFC9FED200AB0EE408A0A279FEDD3
:100950001E0AB0EE409A002611E000F0C3F9B0EE96
:10096000409AB0EE490A00F033F8F0EE409A38EEC3
:10097000290AB0EE408A0A2003F0EEFB761C0A2E0C
:10098000EBDB00F0AFF9B0EE409AB2EE040AC8EE2D
:10099000000AC4ED000AB0EE490A00F019F8F0EEC2
:1009A000408A94ED000A38EEC00A85ED000A4FF443
:1009B000FA7003F0D1FB9FED040A00F05DF8BDEC86
:1009C000048BBDE8F08100000000000000BFFEE7DE
:1009D00010B52DED028BB0EE408AB2EE060A28EE7D
:1009E000000AF0EE408AB0EE680A00F0CDF9BDECE6
:1009F000028B10BD08B500200090022001F020FB02
:100A0000C0B1022001F088FA00210B4801F070FA11
:100A10000A48006870B169460848006804F0D4FBD1
:100A2000009838B14FF0805005490860BFF34F8FF0
:100A3000BFF36F8F08BD00000800024014000020C3
:100A400004ED00E0704700BFFEE7F0EE401AF4EE60
:100A5000C11AF1EE10FA02DBB0EE410A7047F4EE73
:100A6000E01AF1EE10FA02D8B0EE600AF6E7B0EE46
:100A7000610AF3E700BFFEE710B52DED0A8BB0EE7B
:100A8000408A9FED370AF0EE408A9FED350AB0EEBE
:100A9000409A9FED330AF0EE409A9FED310AFFF73E
:100AA00013FFB0EE40AAB0EE4A0A01F079FBF1EE76
:100AB000690A20EE20CAB0EE4A0A01F00FFB08EEE8
:100AC00000CAF0EE4C8AB0EE4A0A01F007FB20EEB5
:100AD00029CAB0EE4A0A01F063FB08EE00CAB0EE84
:100AE0004C9A2048D0ED000AB0EE001A80EE810A40
:100AF00030EE280AF0EE40AADFED1B0AB0EE680ADD
:100B000010EE890AB0EE001AC0EE010A90ED000A5C
:100B1000B0EE001AC0EE011A30EEA10AB0EE40BAF3
:100B2000DFED120AB0EE680A10EE890AB0EE001A84
:100B3000C0EE010A90ED000AB0EE001AC0EE011AF4
:100B400030EEA10AF0EE40BAB0EE6B1AF0EE4B0AAE
:100B5000B0EE6A0A00F00CF8BDEC0A8B10BD000084
:100B600000000000480000202DB2DD3F2DB2DDBFA7
:100B700010B52DED048BB0EE409AB0EE608AF0EE29
:100B8000418A324890ED001ADFED310AB0EE490A91
:100B9000FFF75BFFB0EE409A2C4890ED001ADFEDB6
:100BA0002C0AB0EE480AFFF750FFB0EE408A274803
:100BB00090ED001ADFED260AB0EE680AFFF745FF58
:100BC000F0EE408A214890ED000AC9EE000AF0EEEE
:100BD000609AB7EE001ADFED1E0AB0EE690AFFF761
:100BE00034FF1C4880ED000A184890ED000AC8EE5A
:100BF000000AF0EE609AB7EE001ADFED150AB0EECB
:100C0000690AFFF722FF144880ED000A0F4890EDB3
:100C1000000AC8EE800AF0EE609AB7EE001ADFED27
:100C20000C0AB0EE690AFFF710FF0C4880ED000ACD
:100C300090ED001A0848D0ED000A064890ED000A31
:100C400002F0E8FCBDEC048B10BD00004800002061
:100C50000000000060000020640000206800002008
:100C60002DE9F0412DED028B04462189606801F0E9
:100C700097FD204600F03EF80546204600F03AF881
:100C80000646204600F036F807462189606801F0E4
:100C900089FD280440EA06203843801208EE100A35
:100CA000B8EE480ADFED0C0A20EE200ADFED0B0A51
:100CB00080EE201AF0EE418A9FED090A28EE800AA4
:100CC000DFED050A80EE201A84ED031A94ED030A85
:100CD000BDEC028BBDE8F0810000B443000080460B
:100CE000D00FC94010B50248FFF7BAFF10BD000091
:100CF0003800002070B50446002506E0681C80B26C
:100D000005460A2801DD002070BD0221206802F09E
:100D1000D1FC0028F2D00021206802F0C9FC002597
:100D200006E0681C80B205460A2801DD0020EBE7DA
:100D30000121206802F0BEFC0028F2D0206802F0F9
:100D4000B3FCC0B2E0E77047F0B503460C4603F0D1
:100D50000701C1F10700042801D9042001E0C1F115
:100D600007000646081D072801D2002000E0C81E23
:100D700005460120B040401E2040A8400127AF405A
:100D80007F1E17403843F0BD10B52DED028BF0EEFD
:100D9000408ADFED0B0AB0EE680A00F04BF9B0EEC6
:100DA000408AB5EEC08AF1EE10FA04DBB0EE480AD4
:100DB000BDEC028B10BD9FED020A38EE000AF7E78A
:100DC000D00FC94010B504F0B7FC012801D003F0E2
:100DD0006DFF10BD1848006840F4700016490860A7
:100DE0001648006820F00100401C1449086000BF4C
:100DF00012480068C0F340000028F9D00F4840684E
:100E000020F003000D49486000BF0C484068C0F363
:100E100081000028F9D109480068094908400749BC
:100E200008600020486008634FF41F008860C80312
:100E3000014980390860704788ED00E000100240E9
:100E4000FFFFF2FE10B52021084802F074FF58B1F0
:100E5000064802F0BFFEC4B2204600F009F8202187
:100E6000024802F0C9FE00BF10BD0000004800406B
:100E70002A49097881B9A5280ED10021284A117084
:100E800011460A780978491C254B19702549885460
:100E90000121224A11703FE02049097801293BD104
:100EA0001F490A780978491C1D4B19701D4988543F
:100EB00019460978082926D11A49C979492922D120
:100EC0000022002104E0174B5B5C1344DAB2491C9A
:100ED0000629F8DB13498979914205D00021104B8E
:100EE00019700E4B197070470E4949780E4B1970E6
:100EF0000E490C4BD3F802300B600021084B1970DF
:100F0000064B197000BF06490978082904DB002147
:100F1000034A1170014A117000BFE4E7320000205B
:100F20003100002029000020330000203400002080
:100F30002DE9F04705460E4617460024B8064FEA4D
:100F40001068A146B246A5222146641C1F4842549F
:100F50002146641C45542146641C00F80180002091
:100F600008E01AF800302146621CD4B2174A5354E4
:100F7000411CC8B24045F4DB002006E01349095C7F
:100F8000494401F0FF09411CC8B2A042F6DB2046EB
:100F9000611CCCB20D4901F8009049222046611C29
:100FA000CCB20A490A5400BF01210948006804F084
:100FB00041FA0028F8D12146064800F09EFF0121A1
:100FC000044800F095FFBDE8F0870000681000209D
:100FD000140000200800024000BFFEE70FB4054BDC
:100FE00010B503A9044A029800F05CF910BC5DF842
:100FF00014FB0000D9260008E00000200248006829
:10100000C0F30220704700000CED00E010B500288E
:1010100004DB0A07130E054A135406E00A07140EF0
:10102000034A00F00F031B1FD45410BD00E400E07E
:1010300018ED00E010B52DED028BF0EE408A18EEB1
:10104000900AB0EE608A20F00040C0F1FF40C00F6F
:1010500007D118EE100A20F00040C0F1FF40C00F89
:101060002BD018EE101A18EE900AFFF774F900EE64
:10107000100A10EE100A6FEAD05010F0FF0F04BFF4
:10108000BDEC028B10BD18EE900A00F0004110EE8E
:10109000100A00F00040814204BFBDEC028B10BD7D
:1010A00018EE101A10EE100ABDEC028B61F31E0050
:1010B00000EE900A30EE600A10BD18EE900A4FF074
:1010C0007F41B1EB400F1CBF18EE100A5FEA4000F1
:1010D000C7D1012000F01EF8BDEC028BBDE8104026
:1010E000AFF30080DFED020A80EEA00A7047000037
:1010F0000000000002E008C8121F08C1002AFAD14F
:1011000070477047002001E001C1121F002AFBD187
:10111000704700000149086070470000E4000020AB
:101120002DE9FF5F82B00021DDE90430020DDDF81A
:1011300040B0034318D044F61050A2F2FF324243AD
:101140001514119801281FD0A5EB0B00401C5FEA75
:10115000000A4FF000064E4FDFF83891B046504677
:1011600015D5CAF1000413E0119801244AA30128FF
:1011700001D16FEA0B010298119AC0E90031C0E970
:10118000024206B0BDE8F09FCBF10000DFE7044665
:101190000021404A491842EB0450CDE9001012E00A
:1011A000E00707D032463B4640464946FFF7A3F9E1
:1011B0008046894632463B4610461946FFF79BF962
:1011C00006460F466410002CEAD1DDE90401DDE992
:1011D0000023BAF1000F06DAFFF78DF942464B46BD
:1011E000FFF789F905E0FFF7F8F942464B46FFF7AC
:1011F000F4F904460E460022284BFFF775FA03D88F
:101200004FF0FF30014607E00022254B20463146D3
:10121000FFF7CAF8FFF750FA102409E0002C0ADBA8
:101220000A220023FFF766F8039B30321A55641E2A
:1012300050EA0102F2D1641C039AC4F11103144470
:10124000119A012A03D0012208430DD10AE0084374
:1012500004D000204FF0110B119072E7A3EB0B05A7
:101260006D1E0DE05B4504DD4FF0000205F1010548
:1012700004E003DA4FF00002A5F10105002AECD0EA
:1012800002981199C0E90231C0E9004579E70000F0
:10129000000014400000F03F300000000000F04368
:1012A0000000E03F2DE9FF4F95B09A46884606467C
:1012B0000025EEE1252877D100242746F94A0121AF
:1012C000039400E0044316F8013F203B01FA03F0C9
:1012D0001042F7D130782A2811D06FF02F033078E0
:1012E000A0F13002092A16D8039A44F0020402EB56
:1012F000820203EB42021044761C0390EFE758F899
:10130000042B0392002A03DA504244F40054039061
:1013100044F00204761C30782E2816D116F8010FFE
:1013200044F004042A280DD06FF02F023078A0F189
:101330003003092B09D807EB870302EB4303C718D7
:10134000761CF3E758F8047B761C30786C280FD0B5
:1013500006DC4C2817D068280DD06A2814D104E088
:10136000742810D07A280FD10DE044F400140AE05C
:1013700044F4801401E044F440147278824202D1B3
:1013800004F58014761C761C307866280BD013DCAC
:10139000582877D009DC002875D04528F6D0462893
:1013A000F4D047281AD193E118E0632835D0642897
:1013B00079D0652812D18BE1702873D008DC6728BA
:1013C000F1D069286FD06E280DD06F2806D1ACE01F
:1013D00073282CD0752874D0782853D0524617998A
:1013E00090476D1C54E1C4F30250022809D0032831
:1013F0000DD0D8F8001004280DD00D6008F10408B5
:1014000046E1D8F80010EA17C1E90052F6E7D8F82B
:1014100000100D80F2E70D70F0E718F8041B8DF84E
:10142000001000208DF80100EB46012003E058F881
:1014300004BB4FF0FF3061074FF0000102D40DE014
:1014400009F101018946B9420FDA8145F8DB1BF841
:1014500009100029F4D108E009F10101894681420F
:10146000FADB1BF809100029F6D103985346A0EBCC
:10147000090721463846179A00F080FA284400EB05
:10148000090507E044E008E10DE01BF8010B5246B6
:1014900017999047B9F10109F7D2534621463846CA
:1014A000179AF2E039E00A21C4F302524FF0000B20
:1014B0000091022A06D058F8040BC117032A09D05C
:1014C0000AE023E008F1070020F00702F2E8020139
:1014D000904605E000B2C117042A01D140B2C117FD
:1014E000002906DA0A460021404261EB02012D2262
:1014F00002E0220504D52B228DF80420012203E00E
:10150000E20701D02022F7E7914657E00A2100E0E8
:1015100010214FF0000B00910BE010214FF0000B59
:1015200044F004040827009103E008204FF0000B6A
:101530000090C4F30252022A05D058F8040B00218F
:10154000032A08D008E008F1070020F00702F2E8BB
:101550000201904603E080B2042A00D1C0B24FF0ED
:10156000000922072AD53278702A07D0DDF800C09A
:101570008CF0100C5CEA0B0C05D00EE040228DF8CC
:101580000420012208E050EA010306D030238DF840
:1015900004308DF8052002229146009B83F0080359
:1015A00053EA0B030AD150EA010201D1620705D5C3
:1015B00030228DF804204FF001097F1E3278582A1E
:1015C00004D039A20C920CAA02920BE03BA2F9E7DC
:1015D0005B46009AFEF78EFE0C9B9B5C029A521EA5
:1015E0000292137050EA0102F2D1029804A9081A7B
:1015F00000F1200B600702D524F4803400E00127BD
:101600005F4502DDA7EB0B0000E0002000EB0B01C3
:10161000009003984944401A0390E00306D45346CF
:101620002146179A039800F0A9F90544002706E01F
:1016300001A85246C05D179990476D1C7F1C4F450D
:10164000F6DBE0030CD553462146179A039800F0C9
:1016500095F9054404E030205246179990476D1CD7
:101660000099481E00900029F5DC08E002980299D4
:1016700052460078491C0291179990476D1CBBF1A6
:101680000001ABF1010BF1DC5BE100F065F9054411
:10169000761C307800287FF40DAE19B02846BDE8DE
:1016A000F08F0000092801003031323334353637ED
:1016B000383961626364656600000000303132339E
:1016C000343536373839414243444546000000003E
:1016D000600700D4062708F1070020F00700F0E8B3
:1016E0000223804603F0004C5FEA0C0001D097A073
:1016F00009E0200501D596A005E0E00701D095A0FE
:1017000001E0AFF24C001390307823F000436528DD
:101710000CD006DC452809D046281DD047287FD1AB
:101720003BE0662818D067287AD136E00021112FD7
:1017300001DB112000E0781CCDE9000104A90CA810
:10174000FFF7EEFCDDE90D010C9A4FF0000B07F1FD
:101750000109109200914EE04FF000400097CDE952
:10176000011004A90CA8FFF7DBFCDDE90D020C9BBE
:101770000F994FF0000B91461093009211B9791C0C
:1017800000EB0109B7EB090003D4C0F1FF3B07F1FF
:101790000109A9EB0700019042E0012F00DA0127BF
:1017A0000021112F01DD112000E03846CDE90001B4
:1017B00004A90CA8FFF7B4FCDDE90D010C9A009117
:1017C0004FF0000BB946109221070FD4009A4A45FA
:1017D00003DA914601E0A9F10109B9F1010F05DD34
:1017E000109AA9F10101515C3029F4D0B84202DA13
:1017F00010F1040F03DA0121CDE9011010E00028F7
:1018000003DC8344A9EB000102E0411C494500DDF3
:101810008946A0EB0B00401C01904FF00040029065
:10182000200705D40198484502DB4FF0FF300190B6
:1018300000208DF84B0002980DF14B07B0F1004FDE
:1018400025D002200C902B200D90029800280CDA55
:10185000404202902D200D9007E00A210298FEF7E9
:1018600033FD3031029007F8011D0C99481E0C9091
:101870000029F2DC02980028EFD1791E0D9808703B
:10188000307800F0200040F0450007F8020D11A864
:10189000C01BC01D02901398007800B1012000EB1E
:1018A0000901019801EBE071029801440398401A84
:1018B000401E0390E00306D453462146179A03982E
:1018C00000F05CF805441398007818B15246179957
:1018D00090476D1CE00323D553462146179A039881
:1018E00000F04CF805441BE0BBF1000F07DB00984B
:1018F000584504DD1098179910F80B0001E017996E
:1019000030205246904701980BF1010B401E05F123
:101910000105019004D12E205246179990476D1C65
:10192000B9F10001A9F10109DEDC05E017F8010BAE
:101930005246179990476D1C0299481E0290002943
:10194000F4DC53462146179A03989EE62D000000CA
:101950002B000000200000002DE9F0410446002586
:101960001E461746880404D405E039462020B047B7
:101970006D1C641EF9D52846BDE8F0812DE9F041C3
:10198000044600251E469046C80301D5302700E0D6
:101990002027880404D505E041463846B0476D1C31
:1019A000641EF9D52846BDE8F08100001CB501226F
:1019B0000221504800F03AFB01224F494F4802F003
:1019C0009FF900200090019010234D4A4DA14F48EF
:1019D00000F073FF00248CE04D48007870B14B4854
:1019E00000F068FF50B90121484800F06DFF322037
:1019F00002F0B2FB0021454800F066FF4548006850
:101A000090ED100A444880ED000A4148007807280C
:101A100063D2DFE800F062041D22273543003F480F
:101A200000F09EFD3D4890ED010AB8EEC00A8DED34
:101A3000000A90ED030AB8EEC00A8DED010A0222F9
:101A400069460120FFF774FA00203149087045E02B
:101A5000012400202E49087040E0002400202C4979
:101A600008703BE02E4890ED000ABDEEC00A2D48FC
:101A700080ED010A00F0C4FD0020254908702DE02A
:101A8000274890ED000ABDEEC00A264880ED030A03
:101A900000F0B6FD00201E4908701FE001211B4820
:101AA00000F012FF20492148FEF73EFF1F4890ED4D
:101AB000000A8DED000A1C4890ED000A8DED010A28
:101AC000022269460720FFF733FA00210F4800F091
:101AD000FBFE00200E49087000E000BF00BF012C93
:101AE00004D101220C490220FFF722FA052002F05E
:101AF00033FB71E70800024005000C00004800407D
:101B0000000C01404C45443100000000E80000207A
:101B1000330000205C00002000000020781000202E
:101B2000340000208810002008000020040000205D
:101B300002E0052002F010FBFBE7000003494968C2
:101B400060F30711014A5160704700000010024025
:101B50000349496860F30A21014A51607047000057
:101B6000001002400349496860F3CD21014A5160E9
:101B70007047000000100240012807D10749496D55
:101B800021F030013031054A516505E00349496DC6
:101B900021F03001014A51657047000000100240F9
:101BA000052827D2DFE800F0030A11181F00134AA6
:101BB000126861F30002114B1A601CE00F4A1268B0
:101BC00061F310420D4B1A6015E00C4A126861F384
:101BD00018620A4B1A600EE0084A126A61F30002AA
:101BE000064B1A6207E0054A526A61F30002034B92
:101BF0005A6200E000BF00BF7047000000100240C2
:101C00002DE9F041014600270022002590460023DF
:101C1000002400F065F9064626B1012E12D0022EEE
:101C200043D112E03948406DC0F3402038B1374805
:101C3000006BC0F3406010B13548086001E03548E2
:101C4000086035E03348086032E030484068C0F34F
:101C500000482E484068C0F383422C484068C0F3D7
:101C600041750DB90F2A03D12801401C024400E040
:101C7000921CB8F1000F03D127485043086013E0CD
:101C800022484068C0F3404058B12048406DC0F33E
:101C90000137B81CDFF87CC0BCFBF0F05043086093
:101CA00002E01C485043086002E01A48086000BF88
:101CB00000BF16484068C0F303131848C45C0868A6
:101CC000E040486011484068C0F302231448C45CF7
:101CD0004868E040C8600D484068C0F3C22311481E
:101CE000C45C4868E040886008484068C0F30073FE
:101CF00006484068C0F3813040EA83030A48C45C68
:101D00008868B0FBF4F00861BDE8F0810010024083
:101D1000006CDC0200127A0000093D00885C0008BB
:101D2000985C0008A05C0008A85C000810B501469B
:101D30000020094B03EB1142126801F01F0401233C
:101D4000A3401A4001F01F040123A3409A4200D08F
:101D500000E0012010BD00000010024030B500245A
:101D6000002500E0641C1120FFF7E0FF012802D0ED
:101D7000B4F5405FF6D31120FFF7D8FF012801D05A
:101D8000002500E00125284630BD000010B50129DE
:101D90000DD10E4B03EB1042126800F01F0401231B
:101DA000A3401A43094C04EB10431A600CE0074BA4
:101DB00003EB1042126800F01F040123A3409A4372
:101DC000024C04EB10431A6010BD000000100240EA
:101DD00010B568B91C4B5B6823F480331A4C636000
:101DE00023461B6B23F0007303F10073236317E09A
:101DF000154B5B6823F4803303F58033124C63602A
:101E0000012805D123465B6823F40033636007E0B3
:101E10000D4B5B6823F4003303F500330A4C636019
:101E2000094B5B6861F39543074C63600C09064BF3
:101E30005B6864F35E73044C636023465B6862F323
:101E4000DF73636010BD000000100240134800689B
:101E500020F00100401C1149086000BF0F480068D5
:101E6000C0F340000028F9D00C48406820F003007F
:101E70000A49486000BF09484068C0F38100002853
:101E8000F9D1064800680649084004490860002066
:101E9000486008634FF41F008860704700100240DC
:101EA000FFFFF2FE0D49496860F301010B4A5160E2
:101EB00000BF00BF00BF00BF00BF00BF00BF00BF2A
:101EC00000BF00BF00BF00BF00BF00BF00BF00BF1A
:101ED00000BF00BF00BF00BF7047000000100240FD
:101EE00002484068C0F381007047000000100240C3
:101EF000026861F300020260704741607047002190
:101F00000160416001814181017341738173C1733B
:101F10000174417470470000B0F1805F04D920F073
:101F20007041034A116001E00249486070470000B7
:101F30000404024000000240D0F8A430C3F3006360
:101F40003BB9D0F8A43023F0807303F18073C0F85C
:101F5000A430012906D1D0F8A03062F30703C0F8FD
:101F6000A03034E0022906D1D0F8A03062F30F236C
:101F7000C0F8A0302BE0032906D1D0F8A03062F3DE
:101F80001743C0F8A03022E0042906D1D0F8A030D1
:101F900062F31F63C0F8A03019E0052906D1D0F81C
:101FA000A43062F30703C0F8A43010E0062906D17C
:101FB000D0F8A43062F30F23C0F8A43007E007295B
:101FC00005D1D0F8A43062F31743C0F8A4307047AD
:101FD00002684BF6EF731A40026002680B891A43DD
:101FE00002604B7C026863F30D320260CB7B0268B7
:101FF00063F38B2202608B7B026863F30922026029
:102000004B7B026863F3C71202600B7B026863F3C9
:10201000861202600B7C026863F3451202604A89F3
:1020200042600A6882604A68C26070471AB10368F9
:102030000B43036002E003688B43036070470000BA
:10204000014600200022B1F1805F02D9054B1A68D9
:1020500001E0054B1A6802EA01030BB1012000E020
:102060000020704700040240000002400021026886
:1020700022F0010202600022026042608260C260BF
:10208000014640F2FF420A40B2F5816F0DD2CAB25A
:10209000083A1423B2FBF3F293000F229A400D4B3F
:1020A0005B681A430B4B5A6012E040F2FF420A4051
:1020B000B2F5916F0CD2CAB2083A1423B2FBF3F214
:1020C00093000F229A40044B1B681A43024B1A607C
:1020D000704700000000024004040240F0EE400A95
:1020E0009FED270A20EE800ABDEEC00A10EE100A0E
:1020F00000EE100AB8EEC01ADFED221AB0EE600A48
:1021000001EE610AF0EE400A00F0010179B1F5EE4E
:10211000C00AF1EE10FA04DD9FED1A0A30EEC00A93
:1021200003E09FED180A30EE800AF0EE400A20EE40
:10213000A00ADFED151AB0EE611ADFED141A41EEB8
:10214000001AB0EE611ADFED121A41EE001AB0EE7D
:10215000611ADFED101A41EE001AB0EE611ADFEDE0
:102160000E1A41EE001AB0EE611ADFED0C1A41EEC4
:10217000001A20EEA01AB7EE000A01EE210A7047FD
:1021800083F9A23EDA0F4940F2A3ED30017591B414
:10219000B3CCCF371408B6BA83AA2A3DFDFFFFBEE1
:1021A000F0EE400A9FED280A20EE800ABDEEC00A3C
:1021B00010EE100A00EE100AB8EEC01ADFED231A76
:1021C000B0EE600A01EE610AF0EE400A00F0010193
:1021D00079B1F5EEC00AF1EE10FA04DD9FED1B0AAD
:1021E00030EEC00A03E09FED190A30EE800AF0EEEF
:1021F000400A20EEA00ADFED161AB0EE611ADFEDFC
:10220000151A41EE001AB0EE611ADFED131A41EE15
:10221000001AB0EE611ADFED111A41EE001AB0EEAD
:10222000611ADFED0F1A41EE001AB0EE611ADFED10
:102230000D1A41EE001A20EEA00A20EE201AB0EE90
:10224000600A01EE210A704783F9A23EDA0F494085
:102250007ABF142FCA32D4B235C538369E0A50B967
:102260007888083CAAAA2ABE03200B49C96801F055
:10227000010109B100200EE00749C968C1F38001DE
:1022800009B1012007E00449C968C1F3001109B18F
:10229000022000E0032070470020024000B5024603
:1022A0000323FFF7E1FF034603E0FFF7DDFF0346EB
:1022B000521E0BB9002AF8D102B90423184600BDFA
:1022C00003200B49C96C01F0010109B100200EE0A7
:1022D0000749C96CC1F3800109B1012007E0044935
:1022E000C96CC1F3001109B1022000E0032070475E
:1022F0000020024000B502460323FFF7E1FF03463A
:1023000003E0FFF7DDFF0346521E0BB9002AF8D1A8
:1023100002B90423184600BD70B504460D460326D5
:10232000B4F1006F16D32848844213D827480069B7
:1023300020F00100401C2549086125804FF48010E1
:10234000FFF7ACFF06462148006920F001001F4955
:10235000086136E01C48401C844216D3B4F1016F7A
:1023600013D21A48006D20F00100401C174908657F
:1023700025804FF48010FFF7BDFF06461348006D1F
:1023800020F00100114908651BE0B4F1046F18D377
:102390000E489030006820F00100401C0B4990313D
:1023A000086025804FF4801000F0B8F80646074812
:1023B000D0F8900020F001000449C1F8900000F02E
:1023C00087F8304670BD0000FFFF0708002002407C
:1023D0000648006920F08000803004490861084602
:1023E000006D20F0800080300865704700200240BA
:1023F00030B504460325B4F1006F1BD33248844244
:1024000018D83248006920F00200801C2F4908616A
:1024100008464461006920F04000403008614804EB
:10242000FFF73CFF05462948006920F002002749D4
:10243000086146E02448401C84421BD3B4F1016F7C
:1024400018D22248006D20F00200801C1F49086548
:1024500008464465006D20F040004030086548049F
:10246000FFF748FF05461948006D20F002001749A4
:10247000086526E0B4F1046F23D314489030006857
:1024800020F00200801C1149C1F890000846C0F8F5
:1024900094400E489030006820F0400040300B49D6
:1024A000903108604FF0FF3000F038F805460748DB
:1024B000D0F8900020F0020004499031086000F04C
:1024C00007F8284630BD0000FFFF07080020024043
:1024D0004FF00460006802480068024800687047D6
:1024E000001040080020400803200B49096801F053
:1024F000010109B100200EE007490968C1F380011C
:1025000009B1012007E004490968C1F3001109B1CC
:10251000022000E0032070478C20024000B50246F4
:102520000323FFF7E1FF034603E0FFF7DDFF034668
:10253000521E0BB9002AF8D102B90423184600BD77
:102540000448054948600548486002484864034813
:10255000486470472301674500200240AB89EFCDF6
:1025600070B586B0064613A0FEF738FD002415E0CE
:1025700015482044B0F8005802A90D55290A02AAAE
:10258000601C115402A9085C009002A8035D0F486A
:1025900021182A460EA0FEF721FDA41C102CE7D31B
:1025A00016A0FEF71BFD02A80FC886E80F0006B0B4
:1025B00070BD000052656164696E6720466C61738E
:1025C000683A0D0A0000000000F0030800F8030854
:1025D00020204164647220307825303858203A2019
:1025E000307825303458202D3E2030782530325830
:1025F000203078253032580D0A0000000D0A000006
:10260000F0B585B0054695E80F0001AC0FC4FFF7A3
:1026100097FF1948FFF7ECFE032806D017A0FEF736
:10262000DDFCFFF7D5FE05B0F0BD1AA0FEF7D6FC25
:10263000002417E001A8015D01AA601C105C41EABA
:1026400000260D4960183146FFF766FE01AF601C99
:1026500000963B5C01A8025D0748211812A0FEF716
:10266000BDFCA41C102CE5D31AA0FEF7B7FCFFF7A5
:10267000AFFE00BFD7E7000000F80308466C6173A7
:1026800068206572617365204552524F52210D0AD0
:102690000000000057726974696E6720466C6173B0
:1026A000683A0D0A00000000202041646472203066
:1026B0007825303858203A2030782530325820306C
:1026C0007825303258202D3E203078253034580D72
:1026D0000A0000000D0A000070B504460D4600BF58
:1026E0008021094801F091FA0028F9D0A1B20648EA
:1026F00001F074FA00BF4021034801F086FA002877
:10270000F9D0204670BD00000048004010B50322FB
:102710000021012002F0E4FA0149086010BD000028
:10272000140000200EB50F480F4900221346CDE9D2
:10273000002102904FF480720CA10F4802F09EFF1E
:102740000E4908600E480F4900221346CDE90021CA
:1027500002904FF480720CA10F4802F08FFF0F49D6
:1027600008600EBDF8080020F8000020636F6D6D52
:102770005F7461736B000000AD1900080C0000204D
:1027800054090020F8040020636F6E74726F6C5F50
:102790007461736B00000000311B00081000002002
:1027A00041617047016170474FF6FF710160002180
:1027B00081710171042141710121C1717047F0B52E
:1027C0000A461588ABB29579032D01D100241AE091
:1027D000957965B9557905F00F045579182D01D112
:1027E000036110E05579282D0DD143610BE09579F7
:1027F00005F00805167906F004063543D67906F08B
:10280000030645EA0604DDB2A5B1002110E001256A
:102810008D401D405DB105688F000F26BE40B54359
:10282000056005688E0004FA06F635430560491C0C
:102830000829ECD3FF2B15DD1B12002110E0012528
:102840008D401D405DB145688F000F26BE40B543E9
:10285000456045688E0004FA06F635434560491C1C
:102860000829ECD3F0BD0000F0B50C46104F07EB83
:102870001062C0F30741C0F30725C6B2C5F12007B7
:10288000A7EB010C4FF0FF3707FA0CF3C5F1200757
:102890007F1AFB40CB408B4017689F4317602CB1D9
:1028A00006FA01FC176847EA0C071760F0BD000044
:1028B000000001400146C868704710B501604260E1
:1028C00083600024C46010BD70B504460D462DB170
:1028D000228991B26068FFF763FF04E0228991B218
:1028E0006068FFF75FFFE56070BD000001F032FF38
:1028F00001F0A4FE01F0C4FD01F036FE01F000FE7F
:1029000001F0C6FD1023094A09490A4801F0E8FD13
:1029100001210848FFF7ECFA02F0C8F801F0BAFE0E
:1029200001F064FF01F0E0FD00BFFEE76810002049
:1029300004480040080002402DE9F0470B461446C9
:102940004FF0000C00BF2C4A1268C2F302211D4652
:1029500026460A46C2F10709B9F1040F02D94FF021
:10296000040901E0C2F10709C84602F10409B9F1FE
:10297000070F02D24FF0000901E0A2F103094F4610
:102980004FF0010909FA08F9A9F1010909EA050955
:1029900009FA07F94FF0010A0AFA07FAAAF1010A3F
:1029A0000AEA060A49EA0A09CC46014662460029B3
:1029B00004DB15072E0E114D6E5407E015072F0E80
:1029C0000D4D0C3501F00F06361FAF5500BF014607
:1029D00000290DDB00BF00BF01F01F050122AA4046
:1029E0004D09AD0005F1E025C5F8002100BF00BF8D
:1029F00000BFBDE8F08700000CED00E000E400E05F
:102A000000BF00F00702064B19684FF6FF0319409C
:102A1000044B0B4343EA0221014B196000BF70478E
:102A20000CED00E00000FA052DE9F04105460E46E8
:102A30001648076816480068001D01F004FA681C73
:102A400038B936B112480168091D124801F052FA2E
:102A50001AE07C190E4800684460BC4207D20C485A
:102A60000168091D0C48006801F02AFA0CE00848CA
:102A70000168091D0948006801F022FA0848006849
:102A8000844201D206480460BDE8F0818000002045
:102A90006C000020C4120020740000207000002090
:102AA0009C00002010B5044601F030FA244800686C
:102AB000401C234908602348006840B9214804604D
:102AC0000846006801280DD100F006FA0AE01E4809
:102AD000006838B91B480068C06AE16A884201D8BA
:102AE0001848046019480068401C184908600846E6
:102AF000006860641649E06A0968884202D914498E
:102B0000E06A0860E16A01EB8101124A02EB810090
:102B1000211D01F0EFF901F023FA0B48006868B1BC
:102B200008480068C06AE16A884207D24FF08050C6
:102B300009490860BFF34F8FBFF36F8F10BD0000CE
:102B40007C0000206C0000208800002098000020FD
:102B5000840000203411002004ED00E008B501F0ED
:102B6000D5F912480068E8B9114801F099F91148FF
:102B700001F096F90E48104908600E480F490860A8
:102B800000200F4B0F4A102100900A2002F0FCF8A1
:102B9000064908600846006820B10BA10348006898
:102BA00001F09EFA01F0DCF908BD0000B40000203D
:102BB000D8120020EC120020AC000020B000002051
:102BC0000013002050130020546D725100000000CB
:102BD00010B516E001F09AF90C48C068C468201DD1
:102BE00001F031F90A480068401E094908600948A7
:102BF0000068401E0749086001F0B2F9204600F065
:102C00005FF8044800680028E4D110BDB01200202D
:102C10007C0000207800002070B504460D46206C32
:102C200070B1216CE0680144E160D4E9021088428F
:102C300001D32168E1602846226CE168FDF720FBA2
:102C400070BD2DE9F04104460F4615464FF00008CF
:102C5000A66B206C48B9206800282CD1A06802F02F
:102C600023FE80460020A06025E07DB93946226C15
:102C70006068FDF705FB216C606808446060D4E97A
:102C80000101884217D32068606014E03946226C45
:102C9000E068FDF7F5FA216CE068411AE16021680F
:102CA000E068884203D2216CA068411AE160022DDD
:102CB00001D106B1761E701CA0634046BDE8F081CC
:102CC00010B5044694F8590030B9206B01F066F94C
:102CD000204601F063F91AE094F85900012803D165
:102CE000204601F05BF912E094F85900022801D166
:102CF000012000E0002050B900BF502080F311886F
:102D0000BFF34F8FBFF36F8F00BF00BFFEE710BD53
:102D100001464A6A22B10A6B1268C2F1100000E053
:102D2000002070470146084A126812680AB9012259
:102D300000E000220A600A6822B9034A1268D268D9
:102D4000106800E000207047AC00002030B54FF460
:102D50002053174800F007042CB1C01D20F00700D5
:102D6000134C041B1B1B0246124C22600024114D05
:102D70006C60D018083820F007000F4C2060002449
:102D80000D4D2D686C600C4D2D682C601146441A59
:102D90004C60094C24680C60084D4C682C60084D50
:102DA0004C682C604FF00044064D2C6030BD000094
:102DB000F0130020C0000020C8000020D000002038
:102DC000CC000020DC00002000BFFFF701FF064818
:102DD00000680128F9D94FF0805004490860BFF31A
:102DE0004F8FBFF36F8FF0E73411002004ED00E048
:102DF0002DE9F04106460D4617469846069C0DB94A
:102E0000246000E02760E66325640121204602F08B
:102E10002BF884F84C80BDE8F0812DE9F05F824604
:102E20000E4690469B460A9F0C9C4FEA8801A522BD
:102E3000206BFDF737FAA8F10100216B01EB800947
:102E400029F0070909F0070008B9012000E0002077
:102E500050B900BF502080F31188BFF34F8FBFF3EC
:102E60006F8F00BF00BFFEE786B1002507E0715DF0
:102E700004F134004155705D00B902E06D1C102D65
:102E8000F5D300BF00214320015502E0002084F863
:102E90003400102F00D30F27E762E764002020657D
:102EA000201D01F00AF804F1180001F006F8246171
:102EB000C7F11000A06164620020606584F85800CA
:102EC0005A465146484600F08FFB20600B9808B1E7
:102ED0000B980460BDE8F09F10B5002407E004EBF8
:102EE00084010F4A02EB810000F0DAFF641C102C11
:102EF000F5D30C4800F0D4FF0B4800F0D1FF0B488D
:102F000000F0CEFF0A4800F0CBFF0A4800F0C8FFEF
:102F100004480949086004480849086010BD0000D9
:102F20003411002074120020881200209C1200200E
:102F3000B0120020C4120020700000207400002095
:102F400010B50146164800E0006803688B42FBD3C9
:102F50000246436813448B4204D143684C682344BF
:102F6000436001460A464B6813440468A34211D1EA
:102F70000C4C03682468A34208D04B68046864685A
:102F800023444B6003681B680B6005E0054B1B681E
:102F90000B6001E003680B60884200D0016010BD47
:102FA000C0000020C80000202DE9F04104460D4675
:102FB00016461F464FF0000865602461B5420CD8E4
:102FC000F01BA169884202D34FF0010811E0211DD6
:102FD0000948006800F074FF0BE0BE4204D2BD4215
:102FE00002D34FF0010804E0211D0448006800F0FE
:102FF00067FF4046BDE8F081B0000020AC00002033
:1030000070B5054600F082FFA86B08B9012400E006
:10301000002400F0A5FF204670BD70B5054600F005
:1030200075FFA86BE96B884201D1012400E0002400
:1030300000F096FF204670BDF8B505460F461A48C9
:103040000068C068C468201D00F0FDFE94F82800E8
:1030500000F00400E8B1A06941192B463A46204629
:10306000FFF7A2FFD8B1002003462A460146009090
:10307000204602F0C7FD064656B900BF502080F337
:103080001188BFF34F8FBFF36F8F00BF00BFFEE704
:1030900005E094F8280020F0010084F8280020467C
:1030A000216A8847F8BD0000AC000020F0B587B069
:1030B000A0E00398002811DA04AE56B900BF5020F2
:1030C00080F31188BFF34F8FBFF36F8F00BF00BF36
:1030D000FEE7D6E90020B168904700BF03980028BA
:1030E000E6DB059C606908B9012000E0002010B90A
:1030F000201D00F0A8FE02A800F0DCF805460398A9
:103100000A2875D2DFE800F009050739416306088F
:103110003A4200BF00BF00BF00BF94F8280040F053
:10312000010084F828000498A269811803462A4601
:103130002046FFF739FFF8B12046216A884794F806
:10314000280000F00400B8B1002000900498A169A4
:10315000421800231946204602F054FD074657B98D
:1031600000BF502080F31188BFF34F8FBFF36F8FE4
:1031700000BF00BFFEE700BF3BE000BF94F828009F
:1031800020F0010084F8280033E000BF94F8280004
:1031900040F0010084F828000498A061A06908B1FB
:1031A000012000E0002050B900BF502080F31188BA
:1031B000BFF34F8FBFF36F8F00BF00BFFEE7A06963
:1031C00041192B462A462046FFF7EEFE11E094F8FF
:1031D000280000F0020018B9204600F0DFFE05E0EC
:1031E00094F8280020F0010084F8280001E0FFE7AF
:1031F00000BF00BF002203A90448006802F066F87F
:1032000000287FF456AF07B0F0BD0000B4000020E6
:10321000F8B505460C4601F0E3F8684600F04AF8B8
:103220000646009820BB44B9B54206D802F02CFCF3
:1032300031462846FFF700FF1CE03CB10E4800680D
:10324000006808B9012000E000200446A91B2246BE
:103250000A48006800F05AFF02F016FC50B94FF01F
:10326000805007490860BFF34F8FBFF36F8F01E0B5
:1032700002F00AFCF8BD0000B0000020B4000020FD
:1032800004ED00E009480068006808B9012000E08A
:10329000002020B14FF0FF300549086005E00348E9
:1032A0000068C0680068024908607047700000202C
:1032B0009C00002070B5044602F04EFA054607480F
:1032C0000068854204D200F00BF80120206001E084
:1032D0000020206001480560284670BDBC00002029
:1032E0002DE9F84334E025480068C06805682348A4
:1032F0000068C068C468201D00F0A5FD2046216A52
:10330000884794F8280000F0040008B3A069461923
:10331000AE4207D966602461211D1848006800F09C
:10332000CFFD15E0002003462A46014600902046C6
:1033300002F068FC074657B900BF502080F311889F
:10334000BFF34F8FBFF36F8F00BF00BFFEE700BF1B
:103350000A480068006808B9012000E00020002841
:10336000C1D00648D0F800800548006803490860CD
:103370000348C0F80080BDE8F8830000AC000020DE
:10338000B00000200E480068401C08B9012000E091
:10339000002050B900BF502080F31188BFF34F8F39
:1033A000BFF36F8F00BF00BFFEE700BF502080F368
:1033B0001188BFF34F8FBFF36F8F00BF00BFFEE7D1
:1033C0001800002008B500BF6846FFF7ABFC0446B4
:1033D00020460099FFF71CFFFFF768FEF4E770B581
:1033E000044600F093FD94F9455010E0606A08B976
:1033F000012000E0002038B904F1240002F0F8FABE
:1034000018B100F0E3FE00E003E0681E45B2002DB5
:10341000ECDC00BFFF2084F8450000F0A1FD00F0C7
:1034200075FD94F9445010E0206908B9012000E0CE
:10343000002048B904F1100002F0DAFA08B100F0F7
:10344000C5FE681E45B200E001E0002DECDC00BFC7
:10345000FF2084F8440000F083FD70BD2DE9F041A9
:1034600004464FF0000800F0BBFF5148006808B95F
:10347000FFF76CFC4F480068204000287ED13CB329
:1034800004F10800A04223D9083404F0070000B377
:1034900004F00700C0F108002044A04216D904F04F
:1034A0000700C0F10800044404F0070008B9012037
:1034B00000E0002068B900BF502080F31188BFF3FE
:1034C0004F8FBFF36F8F00BF00BFFEE7002400E007
:1034D0000024002C54D038480068844250D8374E1D
:1034E0003046056801E02E462D686868A04202D289
:1034F00028680028F7D12E480068854240D03068FF
:1035000000F10808286830606868001B102819D985
:103510002F1907F0070008B9012000E0002050B97A
:1035200000BF502080F31188BFF34F8FBFF36F8F20
:1035300000BF00BFFEE76868001B78606C6038461B
:10354000FFF7FEFC1C4968680968081A1A490860F8
:10355000084600681A490968884203D2164800687C
:1035600017490860134968680968084368600020C3
:10357000286014480068401C124900E000E0086020
:1035800002F082FA08F0070008B9012000E00020EC
:1035900050B900BF502080F31188BFF34F8FBFF3A5
:1035A0006F8F00BF00BFFEE74046BDE8F08100001E
:1035B000C8000020DC000020CC000020C00000205B
:1035C000D0000020D40000200648006830B1054932
:1035D000096801F15000096D491C0160014800684B
:1035E000704700006C000020001F4FF080730360E4
:1035F000001F21F001030360001F054B0360143816
:103600000260001F6FF00203036020387047000063
:103610008533000810B52DED048BB0EE408AF0EE36
:10362000608AB0EE419A9FED160A28EE000ABCEEC1
:10363000C00A10EE102A0021124800F07DF99FED1B
:10364000100A28EE800ABCEEC00A10EE102A0221F1
:103650000C4800F071F99FED0A0A29EE000ABCEE51
:10366000C00A10EE102A0421064800F065F941F264
:103670008E220621034800F05FF9BDEC048B10BDDB
:1036800000409C45002C0140002101704170817078
:10369000C1700171417181710121C171704702686E
:1036A00061F38612026070470146C86880B27047B5
:1036B000C16070470246002093680B4003B900E0E8
:1036C00001207047C26922F40062C2610A7862B9BF
:1036D000026822F400420260026822F48042026022
:1036E000026822F48062026036E00A78012A0ED174
:1036F000026822F400420260026822F48042026002
:10370000026822F4806202F58062026024E00A7896
:10371000022A0ED1026822F4004202F50042026041
:10372000026822F480420260026822F48062026031
:1037300012E00A78032A0FD1026822F4004202F54F
:1037400000420260026822F4804202F58042026078
:10375000026822F480620260CB79026863F3492236
:1037600002604A78012A09D1CA79012A06D1026881
:1037700022F4807202F58072026003E0026822F493
:10378000807202604B78026863F3820202608A787A
:10379000072A0BDD426822F4807202F580724260D3
:1037A0008A78036862F3C503036008E0426822F484
:1037B000807242608B78026863F3C5020260CB7846
:1037C000026863F3C71202600B79026863F3CB22CD
:1037D00002604B79026863F3410202608B790268F0
:1037E00063F30002026070472DE9F04700260024D1
:1037F00000250027A046A146FEF772FB8246BAF1DB
:10380000000F06D0BAF1010F15D0BAF1020F46D160
:1038100015E02D48406DC0F3402040B12A48006BB0
:10382000C0F3406018B129482949086002E02948DE
:103830002749086037E027482549086033E02248D7
:103840004068C0F3004720484068C0F383441E48E6
:103850004068C0F341750DB90F2C03D12801401CFD
:10386000044400E0A41C27B91B48604318490860C1
:1038700014E015484068C0F3404058B11248406D0C
:10388000C0F30136B01C1349B1FBF0F0604310499E
:10389000086003E00F4860430D49086003E00D48ED
:1038A0000B49086000BF00BF07484068C0F3031819
:1038B0000A4810F808900648006820FA09F0044900
:1038C0000860BDE8F087000000100240006CDC02D8
:1038D0002400002000127A0000093D00B05C0008BE
:1038E000C1628262436923F001035B1C436170473C
:1038F0008B79426C63F30C3242640B78426C63F355
:10390000070242644B79426C63F38A2242640B796A
:10391000426C63F3CB2242644B78426C63F34D32CA
:103920004264CB78426C63F38E3242648B78426C93
:1039300063F30922426470470B4633B1022B06D071
:10394000042B06D0062B08D105E0426306E0826313
:1039500004E0C26302E0026400E000BF00BF704701
:10396000026861F3092202607047026861F306127F
:1039700002607047026861F300020260704710B590
:103980000B4633B1022B09D0042B0CD0062B14D1DB
:103990000EE0846962F3C30484610FE0846962F31A
:1039A000CB2484610AE0C46962F3C304C46105E006
:1039B000C46962F3CB24C46100E000BF00BF10BD46
:1039C0002DE9F04100250026002701F108035C1CC9
:1039D00092F801C00CFA03FC1FFA8CF592F802C0B1
:1039E0000CFA04FC1FFA8CF6D0F804C04FF0010862
:1039F00008FA04F82CEA080CC0F804C0D0F804C097
:103A00004CEA060CC0F804C0D0F804C04FF001081E
:103A100008FA03F82CEA080CC0F804C0D0F804C077
:103A20004CEA050CC0F804C00F4637B1022F0DD088
:103A3000042F14D0062F24D11AE092F80080D0F879
:103A400018C068F3061CC0F818C01BE092F800808C
:103A5000D0F818C068F30E3CC0F818C012E092F815
:103A60000080D0F81CC068F3061CC0F81CC009E038
:103A700092F80080D0F81CC068F30E3CC0F81CC05F
:103A800000E000BF00BF4FF0010C0CEB41034FF012
:103A9000030C0CEB410492F803C00CFA03FC1FFA70
:103AA0008CF592F804C00CFA04FC1FFA8CF64FF067
:103AB000010808FA04F8D0F820C02CEA080CC0F875
:103AC00020C0D0F820C04CEA060CC0F820C04FF04F
:103AD000010C0CFA03FCD0F8208028EA0C08C0F88E
:103AE0002080D0F820C04CEA050CC0F820C04B0064
:103AF0004FF0020C0CEB410492F805C04FEA41086C
:103B00000CFA08FC1FFA8CF592F806C04FF0020878
:103B100008EB41080CFA08FC1FFA8CF64FF001087C
:103B200008FA04F8D0F820C02CEA080CC0F820C02D
:103B3000D0F820C04CEA060CC0F820C04FF00108B5
:103B400008FA03F8D0F820C02CEA080CC0F820C00E
:103B5000D0F820C04CEA050CC0F820C0BDE8F081C8
:103B600010B50B4633B1022B09D0042B0CD0062B19
:103B700014D10EE0846962F3820484610FE08469E9
:103B800062F38A2484610AE0C46962F38204C46136
:103B900005E0C46962F38A24C46100E000BF00BF8D
:103BA00010BD426C61F3CF3242647047026861F32A
:103BB000C71202607047426861F3061242607047A4
:103BC000026B61F3070202637047826861F3C712F8
:103BD000826070470146486880B27047C1F30802AE
:103BE00042607047426961F3C71242617047C26820
:103BF00061F34D32C260704701F01F0212B10268DA
:103C0000426801E0CA4302607047024610680840FB
:103C100008B1012070470020FCE741B9426922F455
:103C200080724261426922F40072426127E00129F8
:103C30000AD1426922F4807202F5807242614269BF
:103C400022F4007242611AE002290AD1426922F488
:103C500080724261426922F4007202F50072426190
:103C60000DE003290BD1426922F4807202F58072C3
:103C70004261426922F4007202F5007242617047AB
:103C80002DE9F04385B004460F46904699466846B4
:103C9000FDF7B6FF1748844205D01748844202D08A
:103CA0001648844201D1029E00E0039E06EB860086
:103CB0004000B0FBF7F50A20B5FBF0F100FB115016
:103CC000052803D20A20B5FBF0F503E00A20B5FB76
:103CD000F0F0451CA06865F30F00A060E06868F391
:103CE0000C30E060206969F30D30206105B0BDE85B
:103CF000F083000000380140006001400064014092
:103D000030B5012A0BD100EB11431B6801F01F05F0
:103D10000124AC40234300EB114423600AE000EB94
:103D200011431B6801F01F050124AC40A34300EBC5
:103D30001144236030BD02460023202927D00CDC2B
:103D4000042939D004DC01293BD002293DD134E0DB
:103D5000082920D0102938D12AE0402913D0802901
:103D60000DD0B1F5807F06D0B1F5007F2DD150691F
:103D7000C0F380232BE01069C0F3801327E0D068E4
:103D8000C0F3C01323E0D068C0F380131FE0D068F5
:103D9000C0F340131BE0D068C0F3401018B950695D
:103DA00000F0010008B1012000E0002003460EE011
:103DB000D068C0F300130AE000BF506900F00103AF
:103DC00005E0D068C0F3002301E0002300BF00BF7E
:103DD000012B01D0002070471068084008B1012075
:103DE000F9E70020F7E741B9C26822F40072C26027
:103DF000C26822F48062C2601AE001290AD1C26856
:103E000022F40072C260C26822F4806202F580620D
:103E1000C2600DE002290BD1C26822F4007202F5E3
:103E20000072C260C26822F4806202F58062C260E1
:103E30007047C26861F38202C2607047C26861F372
:103E4000C302C260704701460A69D1E90130986037
:103E5000D1E9010358605068884201D188685060F8
:103E6000002008611068401E106010687047000054
:103E7000034B0360034B0B6080231360704700000B
:103E8000B00F0020B0090020034B0360034B0B6010
:103E90004FF48073136070470C100020B00B0020AB
:103EA00000F1080141604FF0FF31816000F108012D
:103EB000C16001610021016070470021016170470C
:103EC00010B502460B685C1C0CB9106907E002F1E2
:103ED000080000E04068446824689C42FAD94468BD
:103EE0004C604C68A160886041600A611468641C81
:103EF000146010BD42684A6093688B609368596093
:103F00009160086103685B1C0360704700BF50202C
:103F100080F31188BFF34F8FBFF36F8F00BF0E4840
:103F20000068401C0C49086008460068012812D14E
:103F30000A480068C0B208B9012000E0002050B96A
:103F400000BF502080F31188BFF34F8FBFF36F8FF6
:103F500000BF00BFFEE770471800002004ED00E03E
:103F60000D48006850B900BF502080F31188BFF39E
:103F70004F8FBFF36F8F00BF00BFFEE7064800689A
:103F8000401E054908600846006820B9002080F3FB
:103F9000118800BF00BF70471800002070B50646AA
:103FA0003546002E44D0083D2C46224960680968F9
:103FB000084008B1012000E0002050B900BF5020A7
:103FC00080F31188BFF34F8FBFF36F8F00BF00BF27
:103FD000FEE7206808B9012000E0002050B900BFCA
:103FE000502080F31188BFF34F8FBFF36F8F00BF56
:103FF00000BFFEE70F49606809680840C0B120684B
:10400000B0B90C49606809688843606000F0E8F95D
:104010000949606809680844074908602046FEF7B6
:104020008FFF06480068401C0449086001F02CFD21
:1040300070BD0000DC000020CC000020D800002073
:1040400000204FF0E02108618861064800684FF4C5
:104050007A71B0FBF1F0401E4FF0E021486107207B
:10406000086170472400002070B5FCF7F3F804469F
:10407000102C16D304F1E02090F8F0531548007886
:10408000854201DB012000E0002050B900BF502034
:1040900080F31188BFF34F8FBFF36F8F00BF00BF56
:1040A000FEE70D48006800F4E0600C4909688842AA
:1040B00001D8012000E0002050B900BF502080F35B
:1040C0001188BFF34F8FBFF36F8F00BF00BFFEE7B4
:1040D00070BD00001C0000200CED00E0200000205E
:1040E000024600200BE0084B53F8303033B9064B42
:1040F00043F8301003EBC0035A6002E0401C08286C
:10410000F1D300BF70470000F41000202DE9F0410A
:1041100005460E4617462C46FFF7F8FE94F9440074
:10412000401C10B9002084F8440094F94500401C5C
:1041300010B9002084F84500FFF712FFA06B28B9E2
:104140003A46314604F1240000F062F82046FFF7B9
:1041500046F9BDE8F081000070B504460025D4B1F1
:104160001248006808B9012000E0002050B900BFE3
:10417000502080F31188BFF34F8FBFF36F8F00BFC4
:1041800000BFFEE700F02CF900212046FEF74CFCB2
:1041900001F07AFC05463DB94FF0805004490860B3
:1041A000BFF34F8FBFF36F8F70BD0000A8000020DA
:1041B00004ED00E0034909680160034909684160B2
:1041C0007047000094000020800000200120014979
:1041D000086070479000002070B504460D4654B941
:1041E00000BF502080F31188BFF34F8FBFF36F8F54
:1041F00000BF00BFFEE70548016818312046FFF701
:104200005FFE01212846FEF70FFC70BD6C00002008
:1042100070B505460E46144655B900BF502080F3D0
:104220001188BFF34F8FBFF36F8F00BF00BFFEE752
:104230000648016818312846FFF75CFE0CB14FF0C4
:10424000FF3621463046FEF7EFFB70BD6C000020C4
:104250002DE9F04706460F4634464FF00109002E7F
:1042600055D0206D50B900BF502080F31188BFF3A6
:104270004F8FBFF36F8F00BF00BFFEE7E06CB84207
:1042800001D23D4600E0E56CE06AA8423FD0206DD7
:1042900001283CD11F480068844201D0012000E081
:1042A000002050B900BF502080F31188BFF34F8F1A
:1042B000BFF36F8F00BF00BFFEE7D4F82C80E5622C
:1042C000A06900F0004010B9C5F11000A06108EB32
:1042D0008801114A02EB81016069884201D1012005
:1042E00000E0002098B1201DFFF7ADFD0B49E06A0A
:1042F0000968884202D90949E06A0860E16A01EB6D
:104300008101054A02EB8100211DFFF7F3FDBDE8A5
:10431000F08700006C000020341100208400002091
:1043200010B586B000200590049003AA04A905A842
:10433000FFF79EFD0022DDE904101346CDE90021C0
:1043400002901FA12048039A01F098F91F490860C4
:104350000846006808B1012400E00024012C02D1C5
:1043600001F014FC0446012C15D100BF502080F34D
:104370001188BFF34F8FBFF36F8F00BF4FF0FF3037
:1043800013490860012013490860002012490860A1
:1043900000F0D8FB10E0601C08B1012000E0002014
:1043A00050B900BF502080F31188BFF34F8FBFF387
:1043B0006F8F00BF00BFFEE70848006806B010BD61
:1043C00049444C4500000000C92D0008A000002011
:1043D0009C0000208800002080000020A400002015
:1043E00002480068401C014908607047A80000208E
:1043F0001E48006818B101201D49086034E0002003
:104400001B4908601B4801680CE051B900BF5020EF
:1044100080F31188BFF34F8FBFF36F8F00BF00BFD2
:10442000FEE7491E01EB8100134A52F8200008B94B
:10443000012000E000200028E7D101EB81020E4BB3
:1044400003EB820042685268426000F10802436850
:10445000934202D14268526842604268D268074B78
:104460001A600448016000BF70470000A8000020E7
:104470009000002084000020341100206C000020F7
:1044800010B501210148FEF7EFF910BD020310300D
:1044900000B585B01148FDF7E9FD6846FDF72FFD31
:1044A0001020ADF8080000208DF80F0001208DF8D5
:1044B0000D0000208DF80E008DF80C008DF8110015
:1044C0008DF8100069460548FDF782FD1E22012186
:1044D00002480838FDF730FD05B000BD0800024075
:1044E00043608160C260704710B5FFF70FFDFEF7B3
:1044F0000DF9FEF717F9FFF733FDFFF711FF10BDB8
:104500001CB56846FEF750F901211648FEF748F938
:1045100030211448FEF746F901208DF807000020ED
:104520008DF8040010208DF8060001200090042072
:104530008DF8050069460B48FEF741F902208DF819
:10454000070000208DF8040010208DF806003020B0
:10455000009004208DF8050069460248FEF72FF907
:104560001CBD0000000C014070B50320FEF748FAA6
:10457000FCF744FD054600221146FCF7E5FB044626
:1045800021466FF00B00FCF741FDFCF737FD0546B7
:1045900000221146FCF7D8FB044621466FF00A00C2
:1045A000FCF734FDFCF72AFD054600221146FCF716
:1045B000CBFB044621466FF00900FCF727FDFCF712
:1045C0001DFD054600221146FCF7BEFB04462146B0
:1045D0006FF00400FCF71AFDFCF710FD0546002201
:1045E0001146FCF7B1FB044621466FF00300FCF7CF
:1045F0000DFDFCF703FD054600220F21FCF7A4FB8F
:10460000044621466FF00100FCF700FDFCF7F6FCC4
:10461000054600220F21FCF797FB044621464FF088
:10462000FF30FCF7F3FC002206210B20FEF784F993
:10463000002205212720FEF77FF970BD10B501216A
:104640004FF4A010FDF7A2FB01214FF4C010FDF7BD
:104650009DFB01210D48FDF799FB01210B48401CF2
:10466000FDF794FB01210948C01CFDF78FFB0121D8
:1046700006480930FDF78AFB012104480A30FDF79E
:1046800085FB01210248FDF781FB10BD02001800E7
:1046900012001C001FB502A8FEF786F86846FEF758
:1046A000F3FF02208DF80F0000208DF80C00082089
:1046B0008DF80E002020029004208DF80D0002A934
:1046C0002248FEF77CF802208DF80F0000208DF8BC
:1046D0000C008DF80E004020029004208DF80D0093
:1046E00002A91A48FEF76BF802208DF80F0000208F
:1046F0008DF80C0008208DF80E0080200290042018
:104700008DF80D0002A91148FEF759F800208DF828
:10471000000001208DF8010000208DF804008DF8C4
:10472000030002208DF8020000208DF80500012012
:104730008DF806008DF8070069460548FEF7C2FFB0
:1047400001210348FEF7ABFF1FBD00000008014038
:104750000030014010B5FDF779FB01210420FDF781
:104760001FFA00BF2048FDF7E1FA0128FAD1012124
:104770000846FDF715FA00BFFDF7F0FA0028FBD058
:1047800001210020FDF70CFA00BF0120FDF7CEFA51
:104790000128FAD101221D211046FDF719FB012144
:1047A0000220FDF7FDF900BF1920FDF7BFFA01282F
:1047B000FAD10020FDF7C2F90420FDF7D3F9042057
:1047C000FDF7C6F90120FDF7D7F90220FDF76AFBD6
:1047D00000BFFDF785FB0228FBD10020FDF7CCF9D7
:1047E000FFF702F810BD00000100240000B587B0FB
:1047F00005A8FDF7D9FF4FF48050059000208DF8F3
:104800001A008DF8180004208DF8190001208DF889
:104810001B0005A9A248FDF7D2FF4FF400500590F8
:1048200008208DF81A0000208DF8180004208DF85B
:10483000190002208DF81B0005A99948FDF7BFFF5C
:104840004FF48040059008208DF81A0000208DF864
:10485000180004208DF8190002208DF81B0005A90E
:104860008F48FDF7ACFF4FF40040059008208DF80D
:104870001A0000208DF8180004208DF8190002207D
:104880008DF81B0005A98648FDF799FF4FF480704D
:10489000059008208DF81A0000208DF818000420DB
:1048A0008DF8190002208DF81B0005A97D48FDF741
:1048B00086FF4FF40070059008208DF81A00002044
:1048C0008DF8180004208DF8190002208DF81B00C7
:1048D00005A97448FDF773FF4FF480600590082028
:1048E0008DF81A0000208DF8180004208DF81900AA
:1048F00002208DF81B0005A96A48FDF760FF022120
:104900006948FFF732F800216748FFF729F80021CE
:104910006548FFF755F900216348FFF747F9002282
:1049200041F287316048FEF7DBFF00215E48FFF768
:104930004CF907215C48FFF73EF906208DF80C0082
:1049400001208DF811008DF8120000208DF80F0065
:104950008DF810008DF80D008DF80E0003AA0021CF
:104960005148FFF72DF8002211464F48FEF7E4FFAB
:10497000002211464C48FFF702F8002211464A482F
:10498000FFF7EEF806208DF80C0001208DF81100DD
:104990008DF8120000208DF80F008DF810008DF8B2
:1049A0000D008DF80E0003AA02213F48FFF708F81A
:1049B000002202213C48FEF7BFFF002202213A48B4
:1049C000FEF7DDFF002202213748FFF7C9F8062075
:1049D0008DF80C0001208DF811008DF812000020D8
:1049E0008DF80F008DF810008DF80D008DF80E0079
:1049F00003AA04212C48FEF7E3FF002204212A48E1
:104A0000FEF79AFF002204212748FEF7B8FF002294
:104A100004212548FFF7A4F806208DF80C0001209A
:104A20008DF8110000208DF812008DF80F008DF820
:104A300010008DF80D008DF80E0003AA06211A480B
:104A4000FEF7BEFF002206211748FEF775FF002281
:104A500006211548FEF793FF002206211248FFF7B2
:104A60007FF800208DF80A008DF807008DF805000A
:104A70008DF808008DF809008DF8060032208DF8B9
:104A8000040001A90848FEF733FF01210648FFF79B
:104A900088F801210448FEF76DFF07B000BD000053
:104AA000000C014000080140002C01401CB5684684
:104AB000FDF77AFE02208DF8070000208DF8040033
:104AC00008208DF80600C001009004208DF8050034
:104AD00069461A48FDF773FE02208DF80700002092
:104AE0008DF804008DF806004FF40060009004205B
:104AF0008DF8050069461148FDF761FE00231A464E
:104B00004FF461210E48FFF7BBF801210C48FFF775
:104B100095F901210A48FFF78CF900210848FFF7B1
:104B200062F901210648FFF75DF800210448FFF70C
:104B300074F801210248FFF75AF81CBD000C01402F
:104B4000004800401CB5524800685249884201D0D4
:104B5000012000E0002050B900BF502080F31188F0
:104B6000BFF34F8FBFF36F8F00BF00BFFEE7484812
:104B700000684849491E884201D0012000E0002019
:104B800050B900BF502080F31188BFF34F8FBFF39F
:104B90006F8F00BF00BFFEE73F49084600780190D5
:104BA000FF200A4610700846007800909DF800002B
:104BB00000F0F0009DF80020904201D1012000E0BB
:104BC000002050B900BF502080F31188BFF34F8FF1
:104BD000BFF36F8F00BF00BFFEE79DF8000000F03D
:104BE00050002E4A107007202D4A106009E02C4812
:104BF0000068401E2A4A10609DF800004006000E22
:104C000000909DF8000000F080008028EFD024483C
:104C10000068C0F10700042801D1012000E0002055
:104C200050B900BF502080F31188BFF34F8FBFF3FE
:104C30006F8F00BF00BFFEE7194800680002184AE6
:104C400010601046008800F4E0601060124A01987D
:104C500010700F482030006840F470000C4920317B
:104C600008600846006840F070400860FFF7E8F907
:104C700000200C490860FBF7B5FA0B48006840F0CB
:104C8000404009490860FBF799FA00201CBD00006C
:104C900000ED00E071C20F4100E400E01C000020C4
:104CA000200000201800002034EF00E010B500BF05
:104CB000502080F31188BFF34F8FBFF36F8F00BF79
:104CC00000F050FD18B14FF080500449086000BF5B
:104CD000002080F3118800BF10BD000004ED00E04B
:104CE0002DE9F84306460F4690460EB1012000E03C
:104CF000002050B900BF502080F31188BFF34F8FC0
:104D0000BFF36F8F00BF00BFFEE706FB07F51FB1C3
:104D1000B5FBF7F0B04201D1012000E0002050B90E
:104D200000BF502080F31188BFF34F8FBFF36F8F08
:104D300000BF00BFFEE705F15000A84201D90120E5
:104D400000E0002050B900BF502080F31188BFF36D
:104D50004F8FBFF36F8F00BF00BFFEE705F150001C
:104D6000FEF77CFB044664B1A14609F1500900201E
:104D700084F8460043464A46394630460094FEF7DA
:104D800037F82046BDE8F8832DE9F84380460E4603
:104D900017461D46DDF82090B8F1000F01D0012024
:104DA00000E0002050B900BF502080F31188BFF30D
:104DB0004F8FBFF36F8F00BF00BFFEE70DB1012023
:104DC00000E0002050B900BF502080F31188BFF3ED
:104DD0004F8FBFF36F8F00BF00BFFEE707B10EB16B
:104DE000012000E0002050B900BF502080F311885E
:104DF000BFF34F8FBFF36F8F00BF00BFFEE707B950
:104E00000EB9012000E0002050B900BF502080F30F
:104E10001188BFF34F8FBFF36F8F00BF00BFFEE756
:104E2000502000900098502801D1012000E000207F
:104E300050B900BF502080F31188BFF34F8FBFF3EC
:104E40006F8F00BF00BFFEE700BF2C464CB10120B2
:104E500084F846004B463A46314640460094FDF7FA
:104E6000C7FF2046BDE8F88370B505460E462C46C0
:104E700054B900BF502080F31188BFF34F8FBFF3A8
:104E80006F8F00BF00BFFEE7FFF740F8D4E90F12B5
:104E9000206801FB0200A0600020A0632068606021
:104EA000E06B401E226C216800FB0211E160FF20D4
:104EB00084F8440084F845009EB9206908B90120AF
:104EC00000E00020A8B904F1100000F091FD80B1CD
:104ED0004FF0805009490860BFF34F8FBFF36F8FC9
:104EE00007E004F11000FEF7DBFF04F12400FEF7F9
:104EF000D7FFFFF735F8012070BD000004ED00E09A
:104F00002DE9FF4383B0064688461D464FF0000951
:104F1000344654B900BF502080F31188BFF34F8F3F
:104F2000BFF36F8F00BF00BFFEE7B8F1000F01D1E4
:104F3000206C08B9012000E0002050B900BF5020CB
:104F400080F31188BFF34F8FBFF36F8F00BF00BF97
:104F5000FEE7022D02D1E06B012801D1012000E023
:104F6000002050B900BF502080F31188BFF34F8F4D
:104F7000BFF36F8F00BF00BFFEE700F0DDFB08B995
:104F8000059808B9012000E0002050B900BF50206A
:104F900080F31188BFF34F8FBFF36F8F00BF00BF47
:104FA000FEE700BFFEF7B2FFA06BE16B884201D3C2
:104FB000022D28D12A4641462046FDF742FE0746EB
:104FC000606A08B9012000E0002068B904F12400FB
:104FD00000F00EFD88B14FF0805032490860BFF3F9
:104FE0004F8FBFF36F8F08E03FB14FF080502D49D6
:104FF0000860BFF34F8FBFF36F8FFEF7B1FF012043
:1050000007B0BDE8F083059818B9FEF7A9FF0020A6
:10501000F6E7B9F1000F04D101A8FFF7CBF84FF084
:105020000109FEF79DFFFFF7DBF9FEF76FFF94F92B
:105030004400401C10B9002084F8440094F9450055
:10504000401C10B9002084F84500FEF789FF05A92F
:1050500001A800F0CBFAF0B92046FDF7DEFFA0B1C1
:1050600004F110000599FFF7B7F82046FEF7B7F9ED
:1050700000F00AFD002895D14FF0805009490860E2
:10508000BFF34F8FBFF36F8F8CE72046FEF7A7F972
:1050900000F0FAFC86E72046FEF7A1F900F0F4FCE8
:1050A0000020ADE704ED00E02DE9F84F07468B4600
:1050B00090461E463C4654B900BF502080F31188EC
:1050C000BFF34F8FBFF36F8F00BF00BFFEE7BBF191
:1050D000000F01D1206C08B9012000E0002050B978
:1050E00000BF502080F31188BFF34F8FBFF36F8F45
:1050F00000BF00BFFEE7022E02D1E06B012801D104
:10510000012000E0002050B900BF502080F311883A
:10511000BFF34F8FBFF36F8F00BF00BFFEE7FEF7F7
:10512000A3FF00BF5021EFF3118081F31188BFF37B
:105130004F8FBFF36F8F00BF0546A06BE16B8842B6
:1051400001D3022E37D194F945A0A06B00903246CE
:1051500059462046FDF775FD0AF1010088B9606ADD
:1051600008B9012000E0002050B904F1240000F04B
:105170003FFC28B1B8F1000F02D00120C8F80000B0
:1051800016E0BAF17F0F01D0012000E0002050B9F5
:1051900000BF502080F31188BFF34F8FBFF36F8F94
:1051A00000BF00BFFEE70AF1010040B284F84500ED
:1051B0004FF0010901E04FF0000900BF85F31188AD
:1051C00000BF4846BDE8F88F2DE9F04706460F4678
:1051D000344654B900BF502080F31188BFF34F8F7D
:1051E000BFF36F8F00BF00BFFEE7206C08B901203E
:1051F00000E0002050B900BF502080F31188BFF3B9
:105200004F8FBFF36F8F00BF00BFFEE7206808B964
:10521000A06808B9012000E0002050B900BF50206C
:1052200080F31188BFF34F8FBFF36F8F00BF00BFB4
:10523000FEE7FEF719FF00BF5021EFF3118081F365
:105240001188BFF34F8FBFF36F8F00BF0546D4F8AF
:1052500038A0E06B504530D994F945900AF101002F
:10526000A06309F1010070B9606A08B9012000E08B
:105270000020F8B904F1240000F0BAFBD0B1CFB19E
:105280000120386016E0B9F17F0F01D0012000E065
:10529000002050B900BF502080F31188BFF34F8F1A
:1052A000BFF36F8F00BF00BFFEE709F1010040B2FE
:1052B00084F845004FF0010801E04FF0000800BFFE
:1052C00085F3118800BF4046BDE8F0872DE9F7411E
:1052D00083B005460E464FF000082C4654B900BF77
:1052E000502080F31188BFF34F8FBFF36F8F00BF43
:1052F00000BFFEE70EB9206C08B9012000E00020D5
:1053000050B900BF502080F31188BFF34F8FBFF317
:105310006F8F00BF00BFFEE700F00EFA08B90598D6
:1053200008B9012000E0002050B900BF502080F3F0
:105330001188BFF34F8FBFF36F8F00BF00BFFEE731
:1053400000BFFEF7E3FDA76BF7B131462046FDF73E
:1053500063FC781EA063206908B9012000E00020EA
:1053600060B904F1100000F043FB38B14FF08050F9
:105370002F490860BFF34F8FBFF36F8FFEF7F0FD2B
:10538000012006B0BDE8F081059818B9FEF7E8FDE8
:105390000020F6E7B8F1000F04D101A8FEF70AFFDC
:1053A0004FF00108FEF7DCFDFFF71AF8FEF7AEFD3F
:1053B00094F94400401C10B9002084F8440094F98A
:1053C0004500401C10B9002084F84500FEF7C8FDD8
:1053D00005A901A800F00AF9F0B92046FDF710FE72
:1053E000A0B104F124000599FEF7F6FE2046FDF772
:1053F000F6FF00F049FB0028A3D14FF080500C4984
:105400000860BFF34F8FBFF36F8F9AE72046FDF719
:10541000E6FF00F039FB94E72046FDF7E0FF00F0DF
:1054200033FB2046FDF7ECFD00288AD00020A8E7DA
:1054300004ED00E02DE9F34182B005464FF000088D
:105440002C46002654B900BF502080F31188BFF3CA
:105450004F8FBFF36F8F00BF00BFFEE7206C08B90E
:10546000012000E0002050B900BF502080F31188D7
:10547000BFF34F8FBFF36F8F00BF00BFFEE700F099
:105480005BF908B9039808B9012000E0002050B981
:1054900000BF502080F31188BFF34F8FBFF36F8F91
:1054A00000BF00BFFEE700BFFEF730FDA76BFFB1F6
:1054B000781EA063206810B9FEF786F8A060206906
:1054C00008B9012000E0002060B904F1100000F0EC
:1054D0008FFA38B14FF0805043490860BFF34F8FC7
:1054E000BFF36F8FFEF73CFD012004B0BDE8F081F3
:1054F000039898B90EB9012000E0002050B900BF10
:10550000502080F31188BFF34F8FBFF36F8F00BF20
:1055100000BFFEE7FEF724FD0020E6E7B8F1000F2C
:1055200004D16846FEF746FE4FF00108FEF718FD6D
:10553000FEF756FFFEF7EAFC94F94400401C10B950
:10554000002084F8440094F94500401C10B9002064
:1055500084F84500FEF704FD03A9684600F046F80C
:1055600040BB2046FDF74CFDF0B1206838B9FEF78E
:10557000CDFCA06800F0EAF90646FEF7F1FC04F164
:1055800024000399FEF728FE2046FDF728FF00F0CF
:105590007BFA002888D14FF0805013490860BFF390
:1055A0004F8FBFF36F8F7FE72046FDF718FF00F0A6
:1055B0006BFA79E72046FDF712FF00F065FA204606
:1055C000FDF71EFD0028EED05EB1FEF79FFC2046E1
:1055D000FDF79EFB07463946A068FEF739FEFEF749
:1055E000BFFC002081E7000004ED00E070B5054637
:1055F0000C4655B900BF502080F31188BFF34F8F80
:10560000BFF36F8F00BF00BFFEE754B900BF50204B
:1056100080F31188BFF34F8FBFF36F8F00BF00BFC0
:10562000FEE7FEF773FC134802686868131A2068E7
:10563000401C08B9002619E00F492868096888420B
:1056400006D06868904203D80126002020600DE053
:105650002068984207D92068C01A20602846FEF7C3
:10566000A9FD002602E0002020600126FEF778FC5C
:10567000304670BD80000020940000202DE9F04FDE
:1056800085B00746884691469A46DDE90EB6109CDD
:105690000EB1012000E0002050B900BF502080F37F
:1056A0001188BFF34F8FBFF36F8F00BF00BFFEE7BE
:1056B0000CB1012000E0002050B900BF502080F361
:1056C0001188BFF34F8FBFF36F8F00BF00BFFEE79E
:1056D0005C20039003985C2801D1012000E00020A9
:1056E00050B900BF502080F31188BFF34F8FBFF334
:1056F0006F8F00BF00BFFEE700BFB4B1AEB125465B
:105700002C462E63022085F85900002004A9534638
:105710004A46CDE900B1CDE9025041463846FDF791
:105720007CFB2846FDF7BEF901E0002004900498B8
:1057300005B0BDE8F08F00000549096809B90120EE
:1057400005E00449096809B9022000E0002070471B
:1057500088000020A8000020014908687047000068
:10576000800000202DE9F0414FF000084348006818
:1057700000287BD142480068451C4148056015BBA4
:1057800040480068006808B9012000E0002050B9D6
:1057900000BF502080F31188BFF34F8FBFF36F8F8E
:1057A00000BF00BFFEE73748076837480068354943
:1057B00008603548076035480068401C3349086078
:1057C000FDF760FD00BF3248006885423BD300BF53
:1057D0002C480068006808B9012000E0002020B1D2
:1057E0004FF0FF302A4908602CE026480068C06866
:1057F000C4686668B54202D22548066022E0201DD2
:10580000FEF721FBA06A18B104F11800FEF71BFB9C
:105810002049E06A0968884202D91E49E06A0860A6
:10582000E16A01EB81011C4A02EB8100211DFEF7B8
:1058300061FB1A49E06A0968C96A8842C8D34FF017
:105840000108C5E700BF15480068C06A00EB80008A
:10585000114951F82000012801D94FF001081048E2
:10586000006808B14FF0010805E0FFE70D48006847
:10587000401C0C4908604046BDE8F081A8000020AB
:1058800080000020700000207400002094000020A0
:105890009C00002084000020341100206C000020B7
:1058A000900000208C00002070B505462C46002694
:1058B000002D43D022480068844201D1012000E03D
:1058C000002050B900BF502080F31188BFF34F8FE4
:1058D000BFF36F8F00BF00BFFEE7206D50B900BF60
:1058E000502080F31188BFF34F8FBFF36F8F00BF3D
:1058F00000BFFEE7206D401E2065E16CE06A884233
:105900001CD0206DD0B9201DFEF79DFAE06CE0623E
:10591000E06AC0F11000A0610A49E06A09688842A3
:1059200002D90849E06A0860E16A01EB8101064A90
:1059300002EB8100211DFEF7DDFA0126304670BD25
:105940006C000020840000203411002070B5054652
:105950002C460026002D42D02249E06A0968C96A17
:10596000884235D2A06900F0004028B91D4800687F
:10597000C06AC0F11000A061E16A01EB81011A4A1E
:1059800002EB81016069884201D1012000E0002022
:10599000C0B1201DFEF757FA12480068C06AE062E5
:1059A0001249E06A0968884202D91049E06A086031
:1059B000E16A01EB81010C4A02EB8100211DFEF737
:1059C00099FA03E007480068C06AE062012606E031
:1059D0000449E06C0968C96A884200D20126304651
:1059E00070BD00006C0000203411002084000020F5
:1059F00070B50646F068C46854B900BF502080F303
:105A00001188BFF34F8FBFF36F8F00BF00BFFEE75A
:105A100004F11800FEF717FA15480068A0B9201D18
:105A2000FEF711FA1349E06A0968884202D9114960
:105A3000E06A0860E16A01EB81010F4A02EB810034
:105A4000211DFEF757FA04E004F118010B48FEF798
:105A500051FA0B49E06A0968C96A884204D90125EC
:105A600001200849086000E00025284670BD0000BC
:105A7000A800002084000020341100209C12002087
:105A80006C0000209000002070B5002400263648ED
:105A9000006850B900BF502080F31188BFF34F8FCA
:105AA000BFF36F8F00BF00BFFEE7FEF72FFA2E484F
:105AB0000068401E2C4908600846006800284ED146
:105AC0002A48006800284AD023E02948C068C468F2
:105AD00004F11800FEF7B7F9201DFEF7B4F92549C7
