:020000040800F2
:10000000184400205D020008671700085D1400080E
:100010000D150008ED0A0008A521000800000000E9
:100020000000000000000000000000009D0100082A
:10003000A912000800000000F9010008F91D0008DD
:1000400077020008770200087702000877020008AC
:10005000770200087702000877020008770200089C
:100060007702000877020008770200087D12000876
:10007000770200087702000877020008770200087C
:100080007702000877020008B50900087702000827
:10009000770200087702000877020008770200085C
:1000A000770200087702000877020008770200084C
:1000B000651E000877020008770200087702000832
:1000C000770200087702000877020008770200082C
:1000D00077020008770200087702000885200008F0
:1000E000770200087702000877020008770200080C
:1000F00077020008770200087702000877020008FC
:1001000077020008770200087702000877020008EB
:1001100077020008770200087702000877020008DB
:1001200077020008770200087702000877020008CB
:1001300077020008770200087702000877020008BB
:1001400000000000000000000000000000000000AF
:10015000770200087702000877020008770200089B
:10016000770200087702000877020008770200088B
:10017000770200087702000877020008770200087B
:1001800077020008DFF810D000F0D4FB00480047E9
:10019000AD440008AFF30080184400202C4B1968D0
:1001A0000868B0E8F04F80F30988BFF36F8F4FF015
:1001B000000080F3118870470000000008480068C4
:1001C000006880F308884FF0000080F3148862B65E
:1001D00061B6BFF34F8FBFF36F8F00DF00BF00BF6B
:1001E00008ED00E0DFF80C00016841F470010160E7
:1001F000704700BF88ED00E0EFF30980BFF36F8F19
:10020000134B1A681EF0100F08BF20ED108A20E96A
:10021000F04F106009B44FF0500080F31188BFF325
:100220004F8FBFF36F8F05F071FC4FF0000080F32C
:10023000118809BC19680868B0E8F04F1EF0100F6B
:1002400008BFB0EC108A80F30988BFF36F8F704746
:10025000F4010020EFF30580704700000648804756
:1002600006480047FEE7FEE7FEE7FEE7FEE7FEE79B
:10027000FEE7FEE7FEE7FEE70D1E00088501000829
:1002800040EA01039B0703D009E008C9121F08C018
:10029000042AFAD203E011F8013B00F8013B521E98
:1002A000F9D27047D2B201E000F8012B491EFBD20F
:1002B00070470022F6E710B513460A460446194671
:1002C000FFF7F0FF204610BD2DE9FE4F804681EA82
:1002D0000300C00F0C46009021F0004123F00045C0
:1002E000B8EB0200A94105D24046214690461C4683
:1002F0000B46024623F00040104347D0270DC7F3BA
:100300000A00C3F30A510290401A019040286BDAA8
:10031000C3F3130040F4801B0098924620B10023E1
:10032000D2EB030A63EB0B0B01985946C0F1400274
:10033000504600F008FA06460D4650465946019AC6
:1003400000F010FA10EB08006141002487EA115216
:1003500084EAE7731A4340D0009A62B3019A012AF3
:100360004FEA075215DC001B61EB02014FF000421F
:1003700002EA0752CDE90042001C41F580113246E5
:100380002B4600F070FA03B0BDE8F08F40462146DE
:10039000F9E7001B61EB0201001C41F58013001816
:1003A0005B412018A2F5001747EB030140EAD57026
:1003B000B6196D4111E06D084FEA360645EAC07581
:1003C0004FEA0752001B61EB0201001C41F580114E
:1003D00049084FEA30000019514132462B4603B01C
:1003E000BDE8F04F00F030BA009801224000002331
:1003F000D0EB020263EBE073009821464FEAE07411
:10040000B8EB000061EB0401E9E783F000435BE730
:1004100081F0004158E72DE9FE4F81EA030404F022
:10042000004421F0004100944FF0000B23F0004302
:1004300050EA01045ED052EA03045BD0C3F30A54CD
:10044000C1F30A552C44A4F2F3340194A0FB0254E6
:10045000C1F3130141F48011C3F3130343F4801378
:1004600001FB024400FB034E840A970A44EA8154CC
:1004700047EA8357A4FB076802958D0A05FB0785A9
:100480004FEA932C04FB0C542705029D4FEA0658B3
:1004900047EA1637B5EB08056EEB070C870E920E90
:1004A00047EA811742EA8312A7FB0201B6EB0B0170
:1004B00064EB00042B0D43EA0C335E1844EB1C5034
:1004C000DA465146E7FB0201C5F313044FEA0B334A
:1004D00043EA14534FEA0432019C43EA0603A4F1B1
:1004E0000C040294009CCDE900B400F0BCF903B008
:1004F000BDE8F08F00200146F9E72DE9F04D81EAD3
:10050000030404F0004B21F0004514464FF0000AAC
:1005100023F0004150EA050220D054EA01021DD028
:10052000C5F30A570246C5F31303C1F31300C1F321
:100530000A5640F4801543F48013A7EB0608101BFD
:10054000D64608F2FD3873EB050002D308F1010826
:1005500001E092185B41B8F1000F03DA0020014678
:10056000BDE8F08D00204FF48011064684460EE071
:10057000171B73EB050705D3121B63EB050306433B
:100580004CEA010C49084FEA300092185B4150EAEE
:100590000107EDD152EA030012D082EA040083EA97
:1005A0000501084305D0101BAB4106D201220023F0
:1005B00006E000224FF0004302E06FF0010253100A
:1005C0001AEB06004CEB085110EB0A0041EB0B0153
:1005D000BDE8F04D00F038B90EB5C10F80EAE0700B
:1005E0000844CA07002140F233438DE80E000A4652
:1005F0000B4600F038F903B000BD00F0004230F0C7
:1006000000400AD0C10D01F56071C0F3160042EA46
:100610000151C2084007114370470020014670474E
:1006200030B5041E71F1000404DB4FF00044404279
:1006300064EB0101141E73F1000405DB1C464FF04E
:100640000043524263EB04038B4208BF824230BD39
:1006500030B5041E71F1000404DB4FF00044404249
:1006600064EB0101141E73F1000405DB1C464FF01E
:100670000043524263EB0403994208BF904230BDED
:1006800001F0004330B421F0004150EA010206D0ED
:100690000A0DA2F56072C1F31301002A02DC30BC1E
:1006A00000207047440F44EAC104C100E01830BC88
:1006B00000EBC25000F068B830B50B460146002090
:1006C0002022012409E021FA02F59D4205D303FA14
:1006D00002F5491B04FA02F52844151EA2F1010295
:1006E000F1DC30BD2DE9F05F0546002092469B46C7
:1006F00088460646814640241BE028464146474638
:10070000224600F029F953465A46C01A914110D3A7
:1007100011461846224600F016F82D1A67EB01081C
:100720004F4622460120002100F00DF817EB00098A
:100730004E41201EA4F10104DFDC484631462A4622
:100740004346BDE8F09F202A04DB203A00FA02F17C
:10075000002070479140C2F1200320FA03F31943AF
:1007600090407047202A06DBCB17203A41FA02F06E
:1007700043EAE07306E041FA02F3D040C2F12002FE
:1007800091400843194670470029A8BF7047401C94
:10079000490008BF20F00100704710B4B0FA80FC97
:1007A00000FA0CF050EA010404BF10BC704749B1D4
:1007B000CCF1200421FA04F411FA0CF118BF012144
:1007C00021430843A3EB0C01CB1D4FEA00614FEA24
:1007D000102042BF002010BC704700EBC3501044F3
:1007E0000029A4BF10BC7047401C490008BF20F07E
:1007F000010010BC7047F0B400F0004221F000414D
:1008000020F00040CE0DC30DC1F3160141F40001EC
:10081000C0F316004C42154640F40000761E09E075
:1008200010EB440002D582F0004240428842F7D8E3
:1008300040005B1EB342F9DA18B1F0BC0021FFF7AB
:10084000ACBF2846F0BC704710B5141E73F100040D
:1008500008DA401C41F1000192185B411A4301D1B2
:1008600020F0010010BD2DE9F04D92469B4611B1DC
:10087000B1FA81F202E0B0FA80F220329046FFF73E
:1008800062FF04460F4640EA0A0041EA0B01534664
:100890005A46084313D0114653EA010019D0C8F153
:1008A0004002504600F058F805460E46504659465C
:1008B0004246FFF748FF084305D0012004E02046E8
:1008C0003946BDE8F08D0020054346EAE0762C432A
:1008D00037430A986305E40AA0EB08000022FD0AEA
:1008E00044EA47540A3002D500200146E9E70105F1
:1008F00010196941DDE9084500196941BDE8F04D6D
:10090000A2E7C1F30A52C1F3130140F2FF3341F4ED
:1009100080119A4202DA00200146704740F23343C8
:100920009A42A2F2334202DC524200F015B8FFF7BD
:100930000ABF0000064C074D06E0E06840F00103E6
:1009400094E8070098471034AC42F6D3FFF71EFC3A
:100950007070000890700008202A04DB203A21FA09
:1009600002F00021704721FA02F3D040C2F12002C8
:10097000914008431946704730B58C1810F8012B88
:1009800012F00F0301D110F8013B120906D110F843
:10099000012B03E010F8015B01F8015B5B1EF9D14C
:1009A00001E001F8013B521EFBD1A142E6D3002039
:1009B00030BD000070B5194D0421284602F0CFFB70
:1009C000F8B10021284602F08BFC154C2060012173
:1009D000284602F085FC60600221284602F080FC77
:1009E000A0600321284602F07BFC0E4908800E48D7
:1009F00001680E48006800F059FC0421284602F006
:100A000098FB0421284602F0AAFB002805D02846BE
:100A1000BDE87040042102F08CBB70BD0024014091
:100A20000015002000000020C00100204800002028
:100A300010B500F05DF805484068D0ED160A30EEBC
:100A4000600ABDE8104000F0A9BE0000440000208C
:100A50002DE9F04105462DED028B0E46214F002277
:100A60008021384602F06FFBB7EE000A00F06EFD01
:100A70004FF47A7004F08EFFDFED1B8AB0EE688AC7
:100A800000F044FE00F042FE002400F03FFE00F0C3
:100A90002FF838EE008A0A2004F07CFF641C0A2C30
:100AA000F3DBB2EE040AC8EE000AC5ED000A00F05E
:100AB0002DFE00F01DF8D5ED000A30EE600A86ED3F
:100AC000000A4FF4FA7004F065FFB0EE680A00F017
:100AD0003DFDBDEC028B3846BDE8F041012280218E
:100AE00002F031BB0024014000000000FEE70000DE
:100AF00007484068D0ED120AF8EEE00A60EE800A7E
:100B000090ED110AB8EEC00A20EE800A00F046BE51
:100B1000440000200F4AD0ED130A92ED000A30EE97
:100B2000C00A0D4B9FED0D1A10EE101A994201DD0F
:100B300030EE410A0A4B10EE101A994201D930EEFC
:100B4000010A90ED411A31EE000A80ED410AC2ED32
:100B5000000A7047C8010020D00F4940D00FC9409B
:100B6000D00F49C070B504460A46164DD4ED130A9D
:100B700095ED001A70EEC10A13499FED141A10EE9C
:100B8000900A884202DD70EEC10A06E010EE900A7B
:100B90000F49884201D970EE810A94ED2D1A21EE99
:100BA000201AC1EE000AC4ED2C0AB0EE600A04F16E
:100BB000B001104600F074FC94ED130A85ED000AB4
:100BC00070BD0000C4010020D00F4940D00FC940C3
:100BD000D00F49C02DE9F04792B038216846FFF7A1
:100BE00068FBFA4C207870B10EA803F045FC50B9B0
:100BF00001210EA803F048FC322004F0CBFE0021B6
:100C00000EA803F041FC20780025F14FF14EDFF8EB
:100C1000C8A3DFF8C8834FF0010946287DD2DFE87A
:100C200000F07C237F838696A67CF6FAFDF2F1F035
:100C3000EFEEEDECEBEAE9E8E7E6E5E47C7C7C7CD2
:100C40007C7CE3E2E1E07CDFDEDDDCDB7C7C7C7C69
:100C50007C7CDAD9D8D7D6D5D4D3D2D17C7C7C7C55
:100C60007C7CD0CFCECDCCCBDD4803F0DFF9DC4BA4
:100C7000386859684164DA688264D3F800C0C0F803
:100C800058C01B6900EE103AB8EEC00A80ED2D0A7C
:100C900000EE101AB8EEC00A8DED000A00EE102A20
:100CA000B8EEC00A8DED010A90ED160A8DED020A2C
:100CB00090ED200A8DED030A90ED210A8DED040AD6
:100CC00003F002FB8DED050A386890ED2D0A8DEDDD
:100CD000060A90ED2F0A8DED070A90ED300A8DED92
:100CE000080A90ED380A8DED090A90ED3A0A8DED6B
:100CF0000A0A90ED280A8DED0B0A90ED370A8DED6A
:100D00000C0A90ED400A8DED0D0A0E226946012075
:100D100001F00AFA86F80890257012B0BDE8F08755
:100D200086F800902570F8E735702570F5E7AA4839
:100D300003F07CF998ED000ABDEEC00A10EE100A2F
:100D4000CAF80400A44803F0B1F92570E5E7A24809
:100D500003F06CF998ED000ABDEEC00A10EE100A1F
:100D6000CAF80C009C4803F0A1F92570D5E70121D1
:100D70000EA803F089FB97491431081FFFF768FE9E
:100D800096ED040A8DED000A96ED050A8DED010A37
:100D9000914803F04BF93069CAF800008E4803F01F
:100DA00085F902226946072001F0BEF900210EA84C
:100DB00003F06AFB2570B0E71BE113E1FEE0F6E00B
:100DC000EEE0EAE0E5E0E1E0DCE0D4E0CCE0C4E045
:100DD000BCE0B8E0B3E0A2E09EE099E08FE085E0FF
:100DE0007DE076E06FE068E062E05AE052E04EE0DD
:100DF00049E045E040E03CE037E033E02EE02AE027
:100E000025E019E015E010E008E004E0FFE786F8CF
:100E10000190257081E7757025707EE7386898ED40
:100E2000000A80ED0D0A257077E786F8029025709C
:100E300073E7B570257070E703F046FA8DED000A90
:100E4000012269460D2001F06FF9257065E786F8EB
:100E50000390257061E7F57025705EE786F80490D1
:100E600025705AE73571257057E786F8059025708B
:100E700053E77571257050E786F8069025704CE7AA
:100E8000B571257049E786F80790257045E7F5713B
:100E9000257042E7386898ED000A80ED290A257030
:100EA0003BE7386898ED000A80ED2A0A257034E7A0
:100EB000386880F80C9125702FE73968022081F896
:100EC0000C01257029E73968032081F80C01257091
:100ED00023E73968042081F80C0125701DE7386884
:100EE00098ED000A80ED0E0A257016E7386898ED37
:100EF000000A80ED200A80ED170A25700DE738689A
:100F000098ED000A80ED210A80ED180A257004E7AB
:100F100086F80990257000E775722570FDE62E4869
:100F200003F084F898ED000ABDEEC00A10EE100A36
:100F3000CAF81000284803F0B9F82570EDE686F8E5
:100F40000A902570E9E6B5722570E6E6386898EDF6
:100F5000000A80ED2E0A2570DFE6386898ED000A59
:100F600080ED2F0A2570D8E6386898ED000A80EDEC
:100F7000300A2570D1E6386898ED000A80ED420A03
:100F80002570CAE686F80B902570C6E6F5722570C6
:100F9000C3E686F80C902570BFE635732570BCE675
:100FA000386898ED000A80ED380A2570B5E6386893
:100FB00098ED000A80ED3A0A2570AEE6386898EDA3
:100FC000000A80ED280A2570A7E60000270000200F
:100FD00048000020CC010020D81400202800002068
:100FE000EC140020386898ED000A80ED370A25706F
:100FF00093E6386898ED000A80ED400A25708CE68B
:1010000010B504462DED048B94ED100A84ED1A0AF8
:10101000D4ED2A0AC4ED1B0A30EEC00A84ED1C0A86
:10102000D4ED1D0A94ED181A70EE600A60EE810A84
:1010300094ED171A41EE000A94ED1E1A30EE819AD3
:1010400084ED1E9A84ED1D0AE06FFFF7D6FA41EC9D
:10105000100B01F0D1F8B0EE408AF0EE608A19EE84
:10106000100AFFF7CAFA53EC182BFFF7F1FA0BD26C
:10107000E06FFFF7C2FA41EC100B01F0BDF851EC44
:10108000100BFFF7FDFAA067E06FFFF7B6FA41EC2F
:10109000100B01F0B1F851EC100B81F0004141EC64
:1010A000180BA06FFFF7A9FA53EC182BFFF7B8FA4B
:1010B00010D2E06FFFF7A1FA41EC100B01F09CF8A1
:1010C00051EC100BFFF7DCFA00EE100AB1EE400A0B
:1010D00084ED1E0ABDEC048B10BD000010B5044663
:1010E0002DED048B94ED0F0A84ED230AD4ED290A2B
:1010F000C4ED240A3A48006890F80C01032801D096
:10110000042803D1D4ED360AC4ED240AD4ED240A10
:1011100030EEC00A84ED250AD4ED260A94ED211A9A
:1011200070EE600A60EE810A94ED201A41EE000A2A
:1011300094ED271A30EE819A84ED279A84ED260AE1
:10114000D4F8A000FFF759FA41EC100B01F054F865
:10115000B0EE408AF0EE608A19EE100AFFF74DFA01
:1011600053EC182BFFF774FA0DD2D4F8A000FFF758
:1011700044FA41EC100B01F03FF851EC100BFFF773
:101180007FFAC4F89C00D4F8A000FFF736FA41ECCF
:10119000100B01F031F851EC100B81F0004141ECE3
:1011A000180BD4F89C00FFF728FA53EC182BFFF724
:1011B00037FA11D2D4F8A000FFF71FFA41EC100B58
:1011C00001F01AF851EC100BFFF75AFA00EE100A72
:1011D000B1EE400A84ED270ABDEC048B10BD00007F
:1011E00048000020097907290FD2DFE801F00E043A
:1011F0000F1A25303B0090ED070AD0ED090AB1EE39
:10120000400A30EE600A80ED080A704790ED080A47
:10121000D0ED090AB1EE400A30EE600A80ED070A0F
:10122000704790ED080AD0ED090AB1EE400A30EEA1
:10123000600A80ED070A704790ED070AD0ED080AB2
:10124000B1EE400A30EE600A80ED090A704790ED79
:10125000070AD0ED090AB1EE400A30EE600A80EDCF
:10126000080A704790ED070AD0ED080AB1EE400A6F
:1012700030EE600A80ED090A7047000010B50220C8
:1012800002F0D8FC002809D0022002F049FC00211D
:10129000034802F031FC03490120087010BD000032
:1012A0000800024024000020704700002DE9F041B2
:1012B00004460D4600F02AFA84ED130AFFF7B8FB46
:1012C00084ED150A4C4A106880B22080516889B2BA
:1012D0006180926892B2A280E388C01A00EE100A80
:1012E000B8EEC00A9FED451A20EE010A9FED442A90
:1012F000F2EE042A20EE020AC0EE220ADFED411AC5
:1013000080EEA10A84ED070A2089081A00EE900AEF
:10131000F8EEE00A60EE810A60EE820A80EEA23A00
:10132000C3EE210AC4ED080A6089101A03EE100A00
:10133000B8EEC33A23EE011A21EE021A81EE222AF8
:1013400082EE211A84ED091A2F4E29467068FFF7A4
:1013500049FF94ED080A04F11801081FF1EE400A54
:1013600094ED070AB1EE400A02F070F904F13C0175
:10137000081D94ED151AD4ED060A94ED050A0F46E2
:10138000804603F0A7F92148D4ED0F0A94ED100A26
:101390003A464146006800F090F89FED1D0A84ED42
:1013A0000E0A2046FFF79AFE2046FFF729FE7068D6
:1013B00090F80C01012807D094ED270A84ED0D0A5E
:1013C00094ED1E0A84ED0E0A04F1100194ED151A35
:1013D000D4ED0E0A94ED0D0A081F03F023F8D4EDA6
:1013E000040A94ED030A284600F05EFA2846BDE898
:1013F000F04103F02BBE00000015002000008039F2
:10140000333353400AD7233C44000020E40100203A
:10141000BD37863510B500F005F8BDE8104003F083
:101420008FB8000010B50C4C0221204601F081FE5F
:101430000121204601F010FF0221204601F07CFE30
:101440000028F9D00221204601F073FE2046BDE8B5
:10145000104001F0DFBE000000280140FEE7000060
:101460009FED060A80ED000ADFED050AC0ED010AD6
:1014700080ED020AC0ED030A704700008B98CC3B58
:10148000000000009FED040A80ED000A9FED030AB2
:1014900080ED010A70470000799FE43D00000000E4
:1014A000D0ED010A90ED001A30EE600A41EE000A1C
:1014B000C0ED010AC1ED000A704790ED011AD0EDB0
:1014C000001A30EE410A01EE801A80ED011A81ED1A
:1014D000001A90ED030A90ED021A70EEC00A01EEB8
:1014E000200A80ED030A82ED000A7047B4EEC10ABB
:1014F000F1EE10FA02DBB0EE410A7047B4EEE00AFA
:10150000F1EE10FAF9D8B0EE600A7047FEE700007D
:101510001CB50020009001900B4C4FF4FA75217817
:1015200001290CD1FFF776FF8DED000A02F0CCFE09
:101530008DED010A02226946242000F0F5FD2846BF
:1015400004F028FAEBE70000D401002010B52DEDDF
:10155000048BB0EE409ADFED208AB0EE680AFFF708
:10156000C7FAF0EE409AB0EE690A02F0A3FB20EE53
:10157000098AB0EE690A02F0E7FB08EEC08AB0EE15
:10158000690A02F097FB60EE288AB0EE690A02F061
:10159000DBFB49EE008A1148F6EE001AB0EE480A6D
:1015A00090ED002A02EE210A9FED0D1AF0EE480A96
:1015B00058EE810A60EEA10A42EE210A9FED091A57
:1015C00018EE818A28EE211A02EE211ABDEC048B56
:1015D000BDE8104000F008B8000000004400002002
:1015E0002DB2DD3F2DB2DDBF10B52DED048BB0EE79
:1015F000608AF0EE418A274CDFED279A94ED001ABD
:10160000F0EE690AFFF772FFB0EE409A94ED001A0F
:10161000F0EE690AB0EE480AFFF768FFB0EE408AC4
:1016200094ED001AF0EE690AB0EE680AFFF75EFF6B
:10163000F0EE408AD4ED000AB7EE001A89EE200AD7
:10164000F0EE690AFFF752FF84ED020AD4ED000ABA
:10165000B7EE001A88EE200AF0EE690AFFF746FF9F
:1016600084ED030AD4ED000AB7EE001A88EEA00A52
:10167000F0EE690AFFF73AFF84ED040AB0EE401A73
:10168000D4ED030A94ED020ABDEC048BBDE81040D2
:1016900003F0E4BC44000020000000002DE9F0410C
:1016A00004462189606802F03DFE204600F034F8CF
:1016B0000546204600F030F80646204600F02CF89B
:1016C00007462189606802F02FFE280440EA0620C0
:1016D0003843800A00EE100ADFED090A9FED091A6F
:1016E000B8EE400A20EE200A20EE010A9FED061A0D
:1016F00020EE011A81EE200A84ED030ABDE8F08194
:101700000000B44300008038D00FC9400148FFF703
:10171000C5BF00003400002070B50446002505E078
:101720006D1CADB20A2D01D9002070BD02212068C8
:1017300003F0D9FC0028F3D00021206803F0D1FC8D
:10174000002505E06D1CADB20A2D01D9002070BD49
:101750000121206803F0C7FC0028F3D0206803F0C3
:10176000BDFCC0B270BD704730B500F00703C3F1D7
:101770000704042C00D90424181D072801D20023D3
:1017800000E0DB1E012505FA04F0401E08409840E9
:101790009D406D1E1540284330BD000010B52DED55
:1017A000028B9FED088AF0EE480A00F02FFDB5EE9F
:1017B000C00AF1EE10FA01DA30EE080ABDEC028B35
:1017C00010BD0000D00FC94010B504462DED048BAC
:1017D00094ED410A84ED3B0AD4ED420AC4ED3C0A83
:1017E00030EEC00A84ED3D0AD4ED380A94ED3A1A81
:1017F00020EE809AD4ED3E0A70EE600A01EE209A47
:1018000084ED3F9A84ED3E0AD4F80001FEF7F5FE20
:1018100041EC100B00F0F0FCB0EE408AF0EE608A74
:1018200019EE100AFEF7E9FE53EC182BFEF710FF35
:101830000DD2D4F80001FEF7E0FE41EC100B00F0F1
:10184000DBFC51EC100BFEF71BFFC4F8FC00D4F8D6
:101850000001FEF7D2FE41EC100B00F0CDFC51EC84
:10186000100B81F0004141EC180BD4F8FC00FEF79E
:10187000C4FE53EC182BFEF7D3FE11D2D4F80001AE
:10188000FEF7BBFE41EC100B00F0B6FC51EC100B68
:10189000FEF7F6FE00EE100AB1EE400A84ED3F0AB4
:1018A000BDEC048B10BD000090ED001ADFEDC11AF5
:1018B000C14961EE211A91ED002A81EE823A80ED54
:1018C000113A23EE202A80ED052ADFEDBC1AF6EE50
:1018D000002A60EE211A40EEE21A61EE831AC0ED92
:1018E000061ADFEDB73A20EE230A00EEE20A20EEF8
:1018F000030A80ED070AB5EEC02AF1EE10FA01DD09
:10190000012100E00021F5EEC01AF1EE10FA01DD30
:10191000012200E00022B5EEC00A01EB4202F1EE26
:1019200010FA01DD012100E0002102EB81010171CB
:10193000072936D2DFE801F03536FE049E6CD4006C
:10194000C0ED0B1A80ED0D2A31EE820A80ED0F0AF0
:10195000B4EEC10AF1EE10FA0BDDC1EE000AC0EDE3
:10196000100A21EEA00A80ED0B0A22EE200A80ED7B
:101970000D0AD0ED0B1AD0ED0D0A31EE610A30EEF2
:10198000600A20EE220A80ED0E0A31EEA01A31EE36
:10199000001A80ED021A70EE800AC0ED030A80ED95
:1019A000040A7047F1EE610AC0ED090AB1EE400A7F
:1019B00080ED0D0A70EE801AC0ED0F1AF4EEC11A18
:1019C000F1EE10FA0BDD81EE212A80ED102A60EE97
:1019D000820AC0ED090A20EE020A80ED0D0AD0ED60
:1019E000091AD0ED0D0A31EE610A30EE600A20EEE0
:1019F000220A80ED0E0A30EE801A80ED021A71EE96
:101A0000A00A70EE800AC0ED030A80ED040A704758
:101A100080ED092A80ED0A0A72EE000AC0ED0F0A75
:101A2000F4EEC10AF1EE10FA0BDDC1EE201AC0EDA2
:101A3000101A62EE210AC0ED090A20EE210A80ED9B
:101A40000A0AD0ED091AD0ED0A0A31EE610A30EE29
:101A5000600A20EE220A80ED0E0A80ED020A31EEC5
:101A6000A01A31EE001A80ED031A30EE800A80EDE4
:101A7000040A7047B1EE420A80ED080AF1EE610AED
:101A8000C0ED0A0A70EE201AC0ED0F1AF4EEC11A6A
:101A9000F1EE10FA0BDD81EE212A80ED102A20EE06
:101AA000020A80ED080A20EE820A80ED0A0AD0EDD3
:101AB000081AD0ED0A0A31EE610A30EE600A20EE13
:101AC000220A80ED0E0A80ED020A30EE801A80EDC7
:101AD000031A71EEA00A30EE800A80ED040A704706
:101AE00080ED080AC0ED0C1A70EE210AC0ED0F0A55
:101AF000F4EEC10AF1EE10FA0BDD81EE202A80ED42
:101B0000102A20EE020A80ED080A21EE820A80EDFA
:101B10000C0AD0ED081AD0ED0C0A31EE610A30EE55
:101B2000600A20EE220A80ED0E0A30EE801A80ED67
:101B3000021A00E008E080ED030A71EEA00A30EE20
:101B4000800A80ED040A7047B1EE400A80ED0B0A6E
:101B5000F1EE420AC0ED0C0A70EE201AC0ED0F1A29
:101B6000F4EEC11AF1EE10FA0BDD81EE212A80EDC0
:101B7000102A20EE020A80ED0B0A20EE820A80ED88
:101B80000C0AD0ED0B1AD0ED0C0A31EE610A30EEE2
:101B9000600A20EE220A80ED0E0A31EEA01A31EE24
:101BA000001A80ED021A80ED030A30EE800A80ED03
:101BB000040A70472DB2DD3F44000020D0B35D3FE2
:101BC000D0B35DBFF0B52DED028B85B0B0EE408A8D
:101BD000F0EE608A80ED178AC0ED188A80ED191A40
:101BE000C0ED1F1A80ED208AC0ED218A80ED221AF7
:101BF000C0ED281A11EE100AFEF7FFFC04460D4650
:101C000018EE900AFEF7F9FC06460F4618EE100A89
:101C1000FEF7F3FC41EC100B06A053EC102BCDE9C2
:101C20000067CDE9024500F0BFFA05B0BDEC028BBC
:101C3000F0BD0000736574206B7020697320256C03
:101C4000662C206B6920697320256C662C206B64E0
:101C500020697320256C660D0A00000030B52DED5B
:101C6000028B83B0B0EE408A80ED2A8AC0ED290A4B
:101C700010EE900AFEF7C1FC04460D4618EE100A5D
:101C8000FEF7BBFC41EC100B05A053EC102BCDE98B
:101C9000004500F089FA03B0BDEC028B30BD0000B6
:101CA000736574207461725F696420697320256CA8
:101CB000662C207461725F697120697320256C66DF
:101CC0000D0A000080ED380AC0ED390A80ED3A1A9D
:101CD000C0ED401A704780ED420A704780ED2F0A30
:101CE000C0ED300A80ED311AC0ED371A704780ED33
:101CF0002E0A704710B504462DED048B94ED2C0A86
:101D000084ED320AD4ED2E0AC4ED330A3948006856
:101D100090F80C01042803D1D4ED3F0AC4ED330A36
:101D2000D4ED330A30EEC00A84ED340AD4ED350A1E
:101D300094ED301A70EE600A60EE810A94ED2F1A6D
:101D400041EE000A94ED361A30EE819A84ED369A0F
:101D500084ED350AD4F8DC00FEF74FFC41EC100BA3
:101D600000F04AFAB0EE408AF0EE608A19EE100AEE
:101D7000FEF743FC53EC182BFEF76AFC0DD2D4F8A7
:101D8000DC00FEF73AFC41EC100B00F035FA51ECA8
:101D9000100BFEF775FCC4F8D800D4F8DC00FEF791
:101DA0002CFC41EC100B00F027FA51EC100B81F0E9
:101DB000004141EC180BD4F8D800FEF71EFC53ECA0
:101DC000182BFEF72DFC11D2D4F8DC00FEF715FC21
:101DD00041EC100B00F010FA51EC100BFEF750FC28
:101DE00000EE100AB1EE400A84ED360ABDEC048B19
:101DF00010BD00004800002010B504F039FF012894
:101E000003D0BDE8104004F03DBC10BD124801688D
:101E100041F4700101601148016841F00101016065
:101E200001688907FCD5416821F0030141604168E0
:101E300011F00C0FFBD10168094A1140016000212B
:101E4000416001634FF41F01816003494FF000605E
:101E5000803908607047000088ED00E00010024003
:101E6000FFFFF2FE70B576480078764D764C01287B
:101E700011D1286890ED0A0A84ED000A90ED0B0A52
:101E800084ED010A90ED0C0A84ED020A032221463A
:101E9000082000F049F96D480078012821D16C48EC
:101EA00002686C490B88D21A00EE102AB8EEC00AFC
:101EB00084ED000A42684B88D21A00EE102AB8EE70
:101EC000C00A84ED010A80688988401A00EE100A71
:101ED000B8EEC00A84ED020A03225B490B2000F031
:101EE00023F95D480078012812D15C48006890ED24
:101EF000020A84ED000A90ED030A84ED010A90EDD8
:101F0000040A84ED020A03224F490E2000F00CF966
:101F100053480078012811D1286890ED070A84ED14
:101F2000000A90ED080A84ED010A90ED090A84ED9B
:101F3000020A03224449102000F0F6F849480078CC
:101F400001280DD1286890ED030A84ED000A90ED78
:101F5000040A84ED010A02223B49122000F0E4F851
:101F60004148007801280DD1286890ED050A84EDDC
:101F7000000A90ED060A84ED010A0222324914207B
:101F800000F0D2F83948007801280DD1286890ED8A
:101F90000F0A84ED000A90ED100A84ED010A022276
:101FA0002949162000F0C0F831480078012809D1ED
:101FB000286890ED130A84ED000A012222490220CC
:101FC00000F0B2F82B480078012809D1286890ED7C
:101FD0002C0A84ED000A01221B49282000F0A4F8F5
:101FE00025480078012809D1286890ED360A84ED4B
:101FF000000A01221449312000F096F81F480078A9
:10200000012809D1286890ED410A84ED000A0122D7
:102010000D49372000F088F819480078012809D1C7
:10202000286890ED3F0A84ED000A01220649392014
:1020300000F07AF8BDE870400121880703F07EB90E
:10204000CD0100204800002070020020CE010020B9
:102050000015002058000020CF010020C001002002
:10206000D0010020D1010020D2010020D3010020A6
:10207000CC010020D5010020D6010020D70100208E
:10208000D801002010B50A4C2021204603F0D5FAD3
:1020900000280BD0204603F037FAC0B200F00AF84F
:1020A0002046BDE81040202103F03FBA10BD0000DB
:1020B0000048004030B51B4C002504F10802A1780F
:1020C000002901D1A52809D001290BD161784B1C29
:1020D000DBB263705054082B05D01CE00121617005
:1020E0001070A17030BDD079492814D10021002092
:1020F000135C1944C9B2401C0628F9DB9079884268
:1021000002D06570A57030BD5078E070D4F80A0038
:1021100060606570A57060780828F4D36570A5705C
:1021200030BD0000240000202DE9F0419206140E7D
:102130000023194DA5222A7068700320AC7000227C
:1021400006E006468F5C401CC0B2AF55521CD2B2AE
:10215000A242F6D3002104E06A5C1A44D3B2491CBF
:10216000C9B28142F8D30146401CC2B26B54492324
:10217000501CC1B2AB5409480078012809D1084C61
:10218000204601F0BEFC2046BDE8F041012101F0EF
:10219000B3BCBDE8F08100005814002024000020EA
:1021A00008000240FEE700000FB4054B10B503A97C
:1021B000044A029800F0F8FB10BC5DF814FB000024
:1021C000614100086802002002480068C0F3022054
:1021D000704700000CED00E00907090E002804DB41
:1021E00000F1E02080F80014704700F00F0000F1CB
:1021F000E02080F8141D70472DED020B019820F0AF
:10220000004001909DED000B02B0704710B52DED20
:10221000028BF0EE408A18EE900AB0EE608A20F051
:102220000040C0F1FF40C00F07D118EE100A20F0A7
:102230000040C0F1FF40C00F2BD018EE101A18EE6E
:10224000900AFEF7D8FA00EE100A10EE100A6FEAB4
:10225000D05010F0FF0F04BFBDEC028B10BD18EE84
:10226000900A00F0004110EE100A00F00040814298
:1022700004BFBDEC028B10BD18EE101A10EE100A50
:10228000BDEC028B61F31E0000EE900A30EE600A96
:1022900010BD18EE900A4FF07F41B1EB400F1CBF0C
:1022A00018EE100A5FEA4000C7D1012000F0B4FA2E
:1022B000BDEC028BBDE8104000F096BA00000000B3
:1022C00070B5D94B00242DED020B2DED108BDDE9FF
:1022D0001010984205DA20F000429A4201D809D144
:1022E00041B19DED100BBDEC108B02B0BDE870400C
:1022F00000F05EBAB0F5801F26DA11430BD000283B
:1023000013DA012000F088FABDEC108B02B0BDE8B2
:10231000704000F059BA022000F07EFA00F030FA66
:1023200051EC100B81F000419EE06FF035049FED01
:10233000C00B53EC102B9DED100B51EC100BFEF766
:102340006AF8CDE91001084604EB2051C0F31304EC
:10235000B948A1F2FF31204400F4801080F07F6280
:1023600082F04052224301EB20559FEDB50B1192B4
:1023700053EC102B9DED100B51EC100BFEF745F8B4
:1023800041EC180BA01CC0F313009FEDAFDB9FEDD9
:10239000B0EBB14E7E4403286CD296ED000B51ECAD
:1023A000180B53EC102BFEF73BF91DD1002D01BF8C
:1023B00096ED000BBDEC108B02B070BD2846FEF709
:1023C0000BF941EC180B53EC1D2BFEF724F841ECF4
:1023D000190B53EC1E2B51EC180BFEF71CF853ECA9
:1023E000192BFDF771FF3FE09FED9D0B51EC180B92
:1023F00053EC102BFEF70FF89FED9B1B53EC112BAA
:10240000FEF706F841EC190B53EC182B51EC180BA6
:10241000FEF701F853EC192BFDF7FDFF41EC190B0A
:10242000002D04BF53EC192B51EC180B1AD0284681
:10243000FEF7D2F841EC1A0B53EC1D2BFDF7EBFF26
:1024400053EC192BFDF7E4FF53EC182BFDF7DDFFE0
:1024500041EC180B53EC1E2B51EC1A0BFDF7DBFF74
:1024600053EC182BFDF7D1FFBDEC108B02B041EC03
:10247000100B70BD9FED7E0B51EC180B53EC102B25
:10248000FDF722FF41EC100B51EC180B53EC102B15
:10249000FEF733F841EC190B2846FEF79DF841ECA6
:1024A0001B0B53EC192B51EC190BFDF7B4FF41EC4E
:1024B0001A0B714853EC1A2B261851EC1A0BFDF726
:1024C000AAFF41EC1F0B6D48C4F1510404F5D72459
:1024D000B0EE4F0AF0EE6F0A0321784400F0D2F814
:1024E00053EC1F2B51EC100BFDF795FF41EC1C0B2F
:1024F0006348B0EE4F0AF0EE6F0A0421784400F012
:10250000C1F853EC1A2B51EC100BFDF784FF344348
:1025100053EC1C2BFDF7D8FE41EC1C0B002C4CDDC2
:102520009FED510B51EC180B53EC102BFDF773FF83
:1025300053EC182BFDF76FFF41EC1A0B55B353EC1E
:102540001D2B51EC1B0BFDF766FF41EC1D0B53ECF3
:102550001C2B51EC1A0BFDF7B7FE53EC192BFDF7B2
:102560005AFF53EC1D2BFDF7AFFE53EC1A2BFDF772
:102570004FFF53EC182BFDF748FF41EC180B53ECC1
:102580001E2B51EC1B0BFDF746FF53EC182BFDF7F0
:102590003CFF69E753EC1C2B51EC1A0BFDF794FE42
:1025A00053EC192BFDF737FF53EC1A2BFDF730FFD7
:1025B00053EC182BFDF72CFF56E735B353EC1D2BCE
:1025C00051EC1B0BFDF727FF41EC1A0B53EC1C2BB6
:1025D00051EC180BFDF719FF53EC192BFDF71BFFFE
:1025E00053EC1A2BFDF711FF53EC182BFDF70DFFE1
:1025F00041EC180B53EC1E2B51EC1B0BFDF70BFFA2
:1026000053EC182BFDF701FF2EE753EC1C2B51EC7C
:10261000180BFDF7FAFE53EC192BFDF7FCFE53ECFB
:10262000182BFDF7F5FE1FE70000F07F000000000B
:102630000000000000005043645F0900000000003B
:10264000000000000000F03F763C7935EF39EA3DAC
:102650000000E0FE422EE63FD04C000000000000EB
:10266000555555555555D53F000000000000E03F39
:10267000000000000000004086EBF9FF524B000014
:10268000484B000070B504462DED028B4D1E00EB4B
:10269000C500B0EE408AF0EE608A90ED000B35F098
:1026A000060017D053EC182B51EC100BFDF7B3FEBE
:1026B00041EC100B6D1E04EBC50090ED001B51ECBE
:1026C000100B53EC112BFDF7FFFD41EC100B35F017
:1026D0000600E7D1022D36D0042D1CD0062D1CBFDC
:1026E000BDEC028B70BD53EC182B51EC100BFDF7B9
:1026F00092FE94ED0A1B53EC112BFDF7E5FD53EC14
:10270000182BFDF788FE94ED081B53EC112BFDF7F9
:10271000DBFD41EC100B53EC182B51EC100BFDF7CB
:102720007AFE94ED061B53EC112BFDF7CDFD53EC17
:10273000182BFDF770FE94ED040B53EC102BFDF7F6
:10274000C3FD41EC100B53EC182B51EC100BFDF7B3
:1027500062FE94ED021B53EC112BFDF7B5FD53EC1B
:10276000182BFDF758FE94ED001B53EC112BFDF7D1
:10277000ABFDBDEC028B41EC100B70BD0000000006
:102780009FED070B10B553EC102B9FED070B51EC91
:10279000100BFDF7B2FE41EC100B10BD0000000065
:1027A0000000000000000000000000000000F03FFA
:1027B00010B553EC102B51EC100BFDF785FD41ECDF
:1027C000100B10BD000000009FED050B10B553EC81
:1027D000102B51EC100BFDF790FE41EC100B10BDCF
:1027E0000000000000000000DFED020A80EEA00AF9
:1027F000704700000000000002E008C8121F08C176
:10280000002AFAD170477047002001E001C1121F71
:10281000002AFBD1704700000149086070470000A2
:102820006C0200202DE9FF5F82B00021DDE9043059
:10283000020DDDF840B0034318D044F61050A2F268
:10284000FF3242431514119801281FD0A5EB0B004D
:10285000401C5FEA000A4FF000064E4FDFF8389147
:10286000B046504615D5CAF1000413E01198012472
:102870004AA3012801D16FEA0B010298119AC0E91D
:102880000031C0E9024206B0BDE8F09FCBF1000084
:10289000DFE704460021404A491842EB0450CDE9E5
:1028A000001012E0E00707D032463B46404649465A
:1028B000FDF7B1FD8046894632463B461046194633
:1028C000FDF7A9FD06460F466410002CEAD1DDE9AC
:1028D0000401DDE90023BAF1000F06DAFDF79BFDE4
:1028E00042464B46FDF797FD05E0FDF706FE4246E2
:1028F0004B46FDF702FE04460E460022284BFDF72C
:10290000A7FE03D84FF0FF30014607E00022254B19
:1029100020463146FDF7D8FCFDF7F3FF102409E00F
:10292000002C0ADB0A220023FDF7DCFE039B303279
:102930001A55641E50EA0102F2D1641C039AC4F1D4
:1029400011031444119A012A03D0012208430DD126
:102950000AE0084304D000204FF0110B119072E7F9
:10296000A3EB0B056D1E0DE05B4504DD4FF000028F
:1029700005F1010504E003DA4FF00002A5F10105BD
:10298000002AECD002981199C0E90231C0E9004553
:1029900079E70000000014400000F03F3000000024
:1029A0000000F0430000E03F2DE9FF4F95B09A464C
:1029B000884606460025EEE1252877D100242746E3
:1029C000F94A0121039400E0044316F8013F203B3B
:1029D00001FA03F01042F7D130782A2811D06FF0B5
:1029E0002F033078A0F13002092A16D8039A44F058
:1029F000020402EB820203EB42021044761C0390B5
:102A0000EFE758F8042B0392002A03DA504244F40B
:102A10000054039044F00204761C30782E2816D11E
:102A200016F8010F44F004042A280DD06FF02F028D
:102A30003078A0F13003092B09D807EB870302EBAC
:102A40004303C718761CF3E758F8047B761C3078EC
:102A50006C280FD006DC4C2817D068280DD06A28C7
:102A600014D104E0742810D07A280FD10DE044F47A
:102A700000140AE044F4801401E044F44014727835
:102A8000824202D104F58014761C761C30786628C8
:102A90000BD013DC582877D009DC002875D04528E6
:102AA000F6D04628F4D047281AD193E118E06328DD
:102AB00035D0642879D0652812D18BE1702873D085
:102AC00008DC6728F1D069286FD06E280DD06F28F8
:102AD00006D1ACE073282CD0752874D0782853D058
:102AE0005246179990476D1C54E1C4F302500228D6
:102AF00009D003280DD0D8F8001004280DD00D609F
:102B000008F1040846E1D8F80010EA17C1E90052BC
:102B1000F6E7D8F800100D80F2E70D70F0E718F82E
:102B2000041B8DF8001000208DF80100EB460120F9
:102B300003E058F804BB4FF0FF3061074FF000018D
:102B400002D40DE009F101018946B9420FDA81454D
:102B5000F8DB1BF809100029F4D108E009F10101A4
:102B600089468142FADB1BF809100029F6D1039847
:102B70005346A0EB090721463846179A00F080FA21
:102B8000284400EB090507E044E008E10DE01BF8EC
:102B9000010B524617999047B9F10109F7D25346F4
:102BA00021463846179AF2E039E00A21C4F302526E
:102BB0004FF0000B0091022A06D058F8040BC11701
:102BC000032A09D00AE023E008F1070020F00702F9
:102BD000F2E80201904605E000B2C117042A01D1D3
:102BE00040B2C117002906DA0A460021404261EBD3
:102BF00002012D2202E0220504D52B228DF80420AB
:102C0000012203E0E20701D02022F7E7914657E0D6
:102C10000A2100E010214FF0000B00910BE0102181
:102C20004FF0000B44F004040827009103E0082053
:102C30004FF0000B0090C4F30252022A05D058F85E
:102C4000040B0021032A08D008E008F1070020F057
:102C50000702F2E80201904603E080B2042A00D1A4
:102C6000C0B24FF0000922072AD53278702A07D067
:102C7000DDF800C08CF0100C5CEA0B0C05D00EE007
:102C800040228DF80420012208E050EA010306D01A
:102C900030238DF804308DF8052002229146009BE8
:102CA00083F0080353EA0B030AD150EA010201D171
:102CB000620705D530228DF804204FF001097F1EF0
:102CC0003278582A04D039A20C920CAA02920BE056
:102CD0003BA2F9E75B46009AFDF704FD0C9B9B5C69
:102CE000029A521E0292137050EA0102F2D1029827
:102CF00004A9081A00F1200B600702D524F48034DF
:102D000000E001275F4502DDA7EB0B0000E000209B
:102D100000EB0B01009003984944401A0390E00334
:102D200006D453462146179A039800F0A9F90544A2
:102D3000002706E001A85246C05D179990476D1C18
:102D40007F1C4F45F6DBE0030CD553462146179A0E
:102D5000039800F095F9054404E030205246179995
:102D600090476D1C0099481E00900029F5DC08E092
:102D70000298029952460078491C0291179990478F
:102D80006D1CBBF10001ABF1010BF1DC5BE100F06C
:102D900065F90544761C307800287FF40DAE19B033
:102DA0002846BDE8F08F0000092801003031323399
:102DB0003435363738396162636465660000000077
:102DC0003031323334353637383941424344454661
:102DD00000000000600700D4062708F1070020F07B
:102DE0000700F0E80223804603F0004C5FEA0C0085
:102DF00001D097A009E0200501D596A005E0E007E5
:102E000001D095A001E0AFF24C001390307823F090
:102E1000004365280CD006DC452809D046281DD083
:102E200047287FD13BE0662818D067287AD136E062
:102E30000021112F01DB112000E0781CCDE90001F9
:102E400004A90CA8FFF7EEFCDDE90D010C9A4FF088
:102E5000000B07F10109109200914EE04FF0004085
:102E60000097CDE9011004A90CA8FFF7DBFCDDE910
:102E70000D020C9B0F994FF0000B9146109300929E
:102E800011B9791C00EB0109B7EB090003D4C0F1BB
:102E9000FF3B07F10109A9EB0700019042E0012F78
:102EA00000DA01270021112F01DD112000E0384652
:102EB000CDE9000104A90CA8FFF7B4FCDDE90D0180
:102EC0000C9A00914FF0000BB946109221070FD4D5
:102ED000009A4A4503DA914601E0A9F10109B9F1E6
:102EE000010F05DD109AA9F10101515C3029F4D0E0
:102EF000B84202DA10F1040F03DA0121CDE9011022
:102F000010E0002803DC8344A9EB000102E0411C2F
:102F1000494500DD8946A0EB0B00401C01904FF0B5
:102F200000400290200705D40198484502DB4FF08D
:102F3000FF30019000208DF84B0002980DF14B07F7
:102F4000B0F1004F25D002200C902B200D9002985C
:102F500000280CDA404202902D200D9007E00A2153
:102F60000298FDF7A9FB3031029007F8011D0C997A
:102F7000481E0C900029F2DC02980028EFD1791E3F
:102F80000D980870307800F0200040F0450007F8F8
:102F9000020D11A8C01BC01D02901398007800B14B
:102FA000012000EB0901019801EBE0710298014456
:102FB0000398401A401E0390E00306D4534621466E
:102FC000179A039800F05CF805441398007818B13C
:102FD0005246179990476D1CE00323D5534621466E
:102FE000179A039800F04CF805441BE0BBF1000F62
:102FF00007DB0098584504DD1098179910F80B006E
:1030000001E0179930205246904701980BF1010BCF
:10301000401E05F10105019004D12E20524617995A
:1030200090476D1CB9F10001A9F10109DEDC05E052
:1030300017F8010B5246179990476D1C0299481ECC
:1030400002900029F4DC53462146179A03989EE625
:103050002D0000002B000000200000002DE9F041B1
:10306000044600251E461746880404D405E0394668
:103070002020B0476D1C641EF9D52846BDE8F081BC
:103080002DE9F041044600251E469046C80301D5AF
:10309000302700E02027880404D505E04146384663
:1030A000B0476D1C641EF9D52846BDE8F0810B7849
:1030B000426863F3082242604B78826863F34102FE
:1030C00082608B78826863F3CB228260C978C26A9F
:1030D000491E61F31752C2627047002101704170AE
:1030E00081700121C1707047816841F008018160E1
:1030F00070478068000701D50120704700207047A5
:10310000816841F00401816070478068400701D503
:10311000012070470020704702490A6860F313429B
:103120000A60704704240140826861F300028260F3
:103130007047C943016070470246002012680A4286
:1031400000D001207047012A05D0002A02D1426830
:103150008A434260704742680A43426070470022D7
:10316000012904D002290AD0042917D10FE00168EF
:10317000C90713D04068400610D501220EE001684F
:1031800089070BD54068800608D5012206E0016852
:10319000490703D54068000600D501221046704754
:1031A00070B507260A2908D2056901EB4104A6403B
:1031B000B543A3402B43036109E0C568A1F10A04AC
:1031C00004EB4404A640B543A3402B43C3601F2334
:1031D0000D2A09D3C46A0D3A02EB820293409C4344
:1031E00091402143C16270BD072A09D3046BD21FED
:1031F00002EB820293409C4391402143016370BDE6
:10320000446B521E02EB820293409C439140214347
:10321000416370BDC06C80B2704701F0070307299D
:1032200008D9816841F000718160816863F353417E
:10323000816007E0816821F000718160816863F33B
:1032400053418160816862F3145181607047426824
:1032500061F3CB2242607047826861F396528260CC
:103260007047826B491E61F315528263704770B5D7
:1032700007260A2908D2056901EB4104A640B54397
:10328000A3402B43036109E0C568A1F10A0404EBE4
:103290004404A640B543A3402B43C360836BC3F3F0
:1032A0000153D21AD21CD2B2012A0AD0022A0DD05E
:1032B000032A10D0042A03D1826B61F3D3328263D4
:1032C00070BD826B61F30402826370BD826B61F337
:1032D0004912826370BD826B61F38E22826370BD7E
:1032E00002460020002908D0012909D002290AD06D
:1032F000032901D1906C80B27047D06B80B27047C7
:10330000106C80B27047506C80B2704701F00703B8
:10331000072908D9816841F080718160816863F371
:103320000E31816007E0816821F0807181608168E1
:1033300063F30E318160816862F3CF318160704741
:1033400000290AD001290DD0022910D0032903D168
:10335000016A62F30B0101627047416962F30B017C
:1033600041617047816962F30B0181617047C169F6
:1033700062F30B01C161704710B5164988420AD14A
:10338000154C0121204600F033FB2046BDE81040DB
:10339000002100F02DBB114988420BD10E4C0121B8
:1033A000641C204600F024FB2046BDE810400021AC
:1033B00000F01EBB0A4988420BD1074C0121A41D15
:1033C000204600F015FB2046BDE81040002100F02B
:1033D0000FBB10BD0024014009000C000028014073
:1033E000003C014010B50022036823F00203036093
:1033F000036843F0010303604FF6FF7300E0521CC3
:103400004468E40701D19A42F9D14268D2073BD01F
:103410004C78026864F3C71202608C78026864F327
:1034200086120260CC78026864F3451202600C795F
:10343000026864F3041202604C79026864F3C30208
:1034400002608C79026864F3820202600A78C469BF
:1034500062F39E74C46109784A08C16962F3DF713E
:10346000C161016821F001010160002100E0491CF7
:103470004268D20701D09942F9D14068C00701D013
:10348000002010BD012010BD002010BD10B500228D
:10349000036823F002030360036843F00103036041
:1034A0004FF6FF7300E0521C4468E40701D19A42D2
:1034B000F9D14268D20727D00A88C469521E62F344
:1034C0000B04C4618C78C26964F31962C261CC7860
:1034D000C26964F31342C2610A79C16962F3165189
:1034E000C161016821F001010160002100E0491C77
:1034F0004268D20701D09942F9D14068C00701D093
:10350000002010BD012010BD002010BD0021417021
:103510008170C1700171417181710170704730B566
:10352000CB7801229A40D0F8003243F00103C0F872
:103530000032D0F81C329343C0F81C320B79002BB8
:1035400002D0012B4BD125E0D0F80C329343C0F8C8
:103550000C32CC788B8900EBC4041B04C4F84032D5
:10356000CB7800EBC303D3F840420D892C43C3F85A
:103570004042CC784B8900EBC4041B04C4F84432AD
:10358000CB7800EBC303D3F84442CD882C43C3F877
:10359000444224E0D0F80C321343C0F80C32CC780B
:1035A000CB8800EBC4041B04C4F84032CB7800EB9A
:1035B000C303D3F840420D892C43C3F84042CC7872
:1035C0004B8900EBC4041B04C4F84432CB7800EBF5
:1035D000C303D3F844428D892C43C3F844424B784B
:1035E00013B1012B0BD105E0D0F804329343C0F89E
:1035F000043204E0D0F804321343C0F804328B786C
:1036000013B1012B0BD105E0D0F814329343C0F86D
:10361000143204E0D0F814321343C0F8143209789D
:1036200039B101290AD1D0F81C121143C0F81C127B
:1036300004E0D0F81C129143C0F81C12D0F800121C
:1036400021F00101C0F8001230BD000080ED000A39
:10365000B0EE001A00EE810ADFED030A20EE200A28
:1036600081ED000A7047000056CE133F2DED028B0E
:10367000642002F08FF92B4800F0D8FC2A4C29492D
:1036800020684A684264CA6882640968816500F0FB
:10369000DBFD26480068FDF7E3FE25480068FDF7DE
:1036A000F1FE9FED248A2068F0EE480AB0EE480A49
:1036B000FEF7D4FAB0EE480A2068FEF718FBB0EE29
:1036C000480A2068FEF707FBF2EE081AB0EE481A27
:1036D000F6EE000A9FED180A2068FEF773FAF2EE84
:1036E000041AB0EE481ADFED150A9FED150A20689E
:1036F000FEF7F4FADFED131A9FED131AF0EE480A05
:10370000B7EE000A2068FEF7DDFA10230F4A10A179
:10371000114800F0B3FEFDF75DFA052002F03AF91A
:10372000F9E70000EC14002048000020E40100202C
:10373000E8010020000000006F12033ACDCCCC3D20
:103740006F12033B0000C84317B7D138000C01408B
:103750004C454431000000007C0200202DED028B1E
:1037600041F2337206210F4801F0C9FD00240E4ECC
:103770009FED0E8A0E4D3168B0EE480A2868FDF7BD
:10378000F1F92868FEF7B6FA641C052C06D1286802
:10379000FDF7C0F92868FEF717F80024022002F0B0
:1037A000F9F8E8E7002C0140E80100206F12033B24
:1037B0004800002070B54FF0FF320024094D0CE0A6
:1037C000035D5A400023D60702D085EA520200E08A
:1037D00052085B1C082BF6D3641C8C42F0D3D043F8
:1037E00070BD00002083B8ED05494A6860F38F3250
:1037F0004A608208486862F31C70486070470000A5
:103800000010024002494A6860F307124A6070479C
:103810000010024002494A6860F30A224A60704779
:103820000010024002494A6860F3CD224A607047A6
:10383000001002400649012804D0486D20F03000F5
:1038400048657047486D40F030004865704700009B
:1038500000100240104A052808D2DFE800F00308F3
:103860000D121700106861F30000106070471068B7
:1038700061F3104010607047106861F318601060C9
:103880007047106A61F3000010627047506A61F37C
:1038900000005062704700000010024030B5014641
:1038A00000F022F9304C314A58B3012834D00228B4
:1038B00034D00C605068C0F303102D4B1B5C0868BB
:1038C000D84048605368C3F30223294C183CE35C9A
:1038D00020FA03F3CB605368C3F3C2230834E35CDC
:1038E000D84088605368C3F300735268C2F38132D2
:1038F00042EA830204F108039A5CB0FBF2F008612B
:1039000030BD506D800505D5106B800102D519487A
:103910000860CFE70C60CDE70C60CBE75068C0F3E0
:1039200000455068C0F383405368C3F341737BB9CB
:103930000F280DD0801C7DB153689B0310D5536DAB
:10394000C3F301339B1CB4FBF3F343430B60B1E7B8
:1039500000EB0310401CEEE7074B58430860A9E753
:10396000014B58430860A5E700127A00001002409E
:103970000C700008006CDC0200093D0001460020CC
:1039800001F01F0301229A40034B03EB1141096828
:103990008A4300D1012070470010024030B5002456
:1039A0004FF4405500E0641C1120FFF7E7FF0128A9
:1039B00001D0AC42F7D31120FFF7E0FF012801D07E
:1039C000002030BD012030BD10B500F01F030122E2
:1039D000064C9A4004EB1040012903D00168914342
:1039E000016010BD01681143016010BD001002406C
:1039F00010B500F01F030122064C9A4004EB104062
:103A0000012903D001689143016010BD0168114391
:103A1000016010BD0010024010B5144B002817D0F3
:103A20005C6844F480345C6001281AD0586840F423
:103A300000305860586861F395405860586809092B
:103A400061F35E705860586862F3DF70586010BDB3
:103A5000586820F480305860186B40F0007018638C
:103A6000E8E7586820F400305860E3E700100240AF
:103A70000D48016841F00101016001688907FCD52A
:103A8000416821F003014160416811F00C0FFBD146
:103A90000168064A114001600021416001634FF452
:103AA0001F0181607047000000100240FFFFF2FE1E
:103AB0000C494A6860F301024A6000BF00BF00BFC2
:103AC00000BF00BF00BF00BF00BF00BF00BF00BFFE
:103AD00000BF00BF00BF00BF00BF00BF00BF00BFEE
:103AE00000BF70470010024002484068C0F38100E8
:103AF0007047000000100240026861F3000202609B
:103B0000704741607047002101604160018141813F
:103B1000017341738173C173017441747047000074
:103B2000B0F1805F04D9044920F07040086070470C
:103B3000024948607047000004040240000002404F
:103B4000D0F8A430DB0105D4D0F8A43043F0807362
:103B5000C0F8A430012911D0022915D0032919D0A9
:103B600004291DD0052921D0062925D0072904D1F3
:103B700050F8A41F62F317410160704750F8A01F6E
:103B800062F307010160704750F8A01F62F30F2134
:103B90000160704750F8A01F62F317410160704741
:103BA00050F8A01F62F31F610160704750F8A41F16
:103BB00062F307010160704750F8A41F62F30F2100
:103BC0000160704702684BF6EF731A4002600268AA
:103BD0000B891A4302604B7C026863F30D3202606A
:103BE000CB7B026863F38B2202608B7B026863F3FA
:103BF000092202604B7B026863F3C71202600B7BF1
:103C0000026863F3861202600B7C026863F345125C
:103C100002604A8942600A6882604968C1607047F0
:103C2000002A03D002680A430260704702688A4390
:103C30000260704702460020B2F1805F02D9044959
:103C4000096801E003490968114200D0012070476A
:103C50000004024000000240016821F001010160FF
:103C60000021016041608160C16040F2FF4100EAD3
:103C70000102C1B2083914230F20B2F5816F08D2B6
:103C8000B1FBF3F18900884008494A681043486055
:103C90007047B2F5916FFBD2B1FBF3F18900884018
:103CA00003490A68104308607047000000000240A2
:103CB00004040240DFED1C0A60EE200AFDEEE00A7B
:103CC00010EE900A00EE900AB8EEE01ADFED170A47
:103CD00001EE600AC00709D0B5EEC00AF1EE10FA95
:103CE00002DD30EE600A01E030EE200A60EE000AEC
:103CF0009FED0F0A9FED0F1A00EE201A9FED0E0A9E
:103D000001EE200A9FED0D1A00EE201A9FED0C0A1D
:103D100001EE200A9FED0B1A00EE201AB7EE000A02
:103D200000EE810A7047000083F9A23EDA0F494095
:103D3000F2A3ED30017591B4B3CCCF371408B6BA05
:103D400083AA2A3DFDFFFFBEDFED1C0A60EE200ABC
:103D5000FDEEE00A10EE900A00EE900AB8EEE01ACE
:103D6000DFED170A01EE600AC00709D0B5EEC00A00
:103D7000F1EE10FA02DD30EE600A01E030EE200ACA
:103D800060EE000A9FED0F1ADFED0F1A41EE201AC8
:103D90009FED0E1A01EEA01ADFED0D1A41EE201A6A
:103DA0009FED0C1A01EEA01ADFED0B1A41EE201A5E
:103DB00060EE800A00EEA10A7047000083F9A23E7F
:103DC000DA0F49407ABF142FCA32D4B235C538361B
:103DD0009E0A50B97888083CAAAA2ABE032008493E
:103DE000CA68D20701D000207047CA68520701D5BF
:103DF00001207047C968C906FBD502207047000042
:103E00000020024000B50346FFF7E8FF02E0FFF79D
:103E1000E5FF5B1E08B9002BF9D1002B00D104206F
:103E200000BD000003200849CA6CD20701D0002061
:103E30007047CA6C520701D501207047C96CC9068A
:103E4000FBD50220704700000020024000B5034669
:103E5000FFF7E8FF02E0FFF7E5FF5B1E08B9002B64
:103E6000F9D1002B00D1042000BD000070B5032261
:103E70004FF40026A0F100651C4C7300B5420DD232
:103E8000226942F00102226101801846FFF7BAFF61
:103E90000246206920F00100206124E0144D054411
:103EA000B5420DD2226D42F0010222650180184612
:103EB000FFF7CCFF0246206D20F00100206512E0E4
:103EC000B0F1046F0FD354F8902F42F0010222603A
:103ED0000180184600F08CF80246206820F00100AE
:103EE000206000F063F8104670BD00000020024022
:103EF0000000F8F70448016941F080010161016D9B
:103F000041F08001016570470020024030B5032177
:103F1000244CA0F100624FF400256304AA4211D2A0
:103F2000216941F0020121616061206940F0400097
:103F300020611846FFF766FF0146206920F0020065
:103F400020612DE0184A0244AA4211D2216D41F0AD
:103F5000020121656065206D40F040002065184633
:103F6000FFF774FF0146206D20F00200206517E086
:103F7000B0F1046F14D354F8901F41F00201216096
:103F80006060206840F0400020604FF0FF3000F09B
:103F90002FF80146206820F00200206000F006F8AB
:103FA000084630BD002002400000F8F74FF00460E2
:103FB0000068024800680248006870470010400826
:103FC0000020400803200949D1F88C20D20701D0F5
:103FD00000207047D1F88C20520701D5012070478E
:103FE000D1F88C10C906FAD5022070470020024093
:103FF00000B50346FFF7E6FF02E0FFF7E3FF5B1EB5
:1040000008B9002BF9D1002B00D1042000BD00001D
:10401000044803494160044A426041644264704775
:104020002301674500200240AB89EFCD30B587B052
:10403000044601AB002111480A18B2F800285A546E
:10404000120A5D186A70891C1829F5D3142101A879
:10405000FFF7B0FB0699814205D009A0FEF7A4F84E
:10406000002007B030BD142201A92046FCF708F952
:104070000BA0FEF799F80120F3E7000000F0030819
:10408000435243204552524F522120466C6173687F
:10409000206461746120696E76616C69642E0A0027
:1040A0004C6F6164204F4B2E0A0000002DE9F04157
:1040B00086B0014614226846FCF7E2F814216846EF
:1040C000FFF778FB0590182113A0FEF76DF86D46F9
:1040D000FFF79EFFDFF860804046FFF717FF0024E0
:1040E0002919285D497840EA012604EB0800314689
:1040F0000746FFF7BBFE3246394610A0FEF754F8DC
:10410000A41C182CECD3FFF7F5FE11A0FEF74CF819
:1041100006B0BDE8F0810000536176696E672050FB
:104120006172616D732C2073697A653D256420622C
:10413000797465730A00000000F8030820203078C5
:1041400025303858203A203078253034580A00007D
:104150005361766520446F6E652E0A0A00000000E8
:1041600070B50446094D8021284601F0E6F9002883
:10417000F9D0A1B2284601F0CAF94021284601F041
:10418000DCF90028F9D0204670BD0000004800404E
:1041900010B503220021012002F08AFA0149C8600B
:1041A00010BD000004000020FEB517480024A0F553
:1041B0002061CDE900414FF48076029023463246DB
:1041C00012A1154802F026FD144D28600E48002368
:1041D0005C30A0F25C61CDE900410290324610A152
:1041E000134802F017FD686007480023B830A0F5B7
:1041F0002E71CDE90041029080220EA1114802F0FB
:1042000009FDA860FEBD00008C0C0020636F6D6D81
:104210005F7461736B0000006D36000804000020BD
:10422000636F6E74726F6C5F7461736B000000007B
:104230005D3700084D6F6E69746F725F7461736BE8
:10424000000000001115000830B4002100240025F2
:1042500000200C4A1368194453681C4493681D4499
:10426000401C1028F6DB0848C1F30F114068C180DC
:10427000220902812A09428130BC0B460A4603A06A
:10428000FDF792BF0015002044000020766F6C748B
:10429000616765414F66667365743A2025642C76C4
:1042A0006F6C74616765414F6666736574203A256B
:1042B000642C766F6C74616765414F6666736574D4
:1042C000203A25640D0A000010B5134C0221204647
:1042D000FEF72FFF01212046FEF7BEFF02212046F8
:1042E000FEF72AFF0028F9D002212046FEF721FF21
:1042F0002046FEF78FFF00EE100ADFED080AB8EE49
:10430000400A20EE200ADFED060A20EE200AF3EE36
:10431000050A20EE200A10BD00240140000080396B
:104320003333534041617047016170474FF6FF716D
:104330000160002181710171042141710121C1716C
:104340007047F0B50A8892B28B79032B3FD0EBB35C
:104350000C79C97903F0080304F00404234301F045
:1043600003010B4312F0FF0F4FF001054FF00F0751
:1043700013D0002105FA01F616420BD006688C0016
:1043800007FA04FC26EA0C060660066803FA04F441
:1043900026430660491C0829ECD3FF2A15D9140AC4
:1043A00000212E4606FA01F525420BD045688A0009
:1043B00007FA02FC25EA0C054560456803FA02F29B
:1043C00015434560491C0829ECD3F0BD01E00023EA
:1043D000C8E7497901F00F03182903D02829C1D172
:1043E0004261BFE70261BDE730B50D4A02EB1063E1
:1043F000C0F30742C0F30724C5B2C4F12000801AFD
:104400004FF0FF348440C440D44094401868A04327
:104410001860002902D095402843186030BD000084
:104420000000014070B504462DED048BB0EE408ACB
:10443000F0EE608AF0EE419A0D46B0EE690AFFF7A1
:1044400039FC20EE289AB0EE690AFFF77DFC08EEF1
:10445000409A84ED009AB0EE690AFFF72BFC20EE3B
:10446000088AB0EE690AFFF76FFC08EE808A85EDD6
:10447000008ABDEC048B70BDC0687047016042606B
:1044800083600021C160704770B504460D46D4E9D1
:104490000120002D04D081B21046FFF743FF03E056
:1044A00081B21046FFF740FFE56070BD01F028FEC5
:1044B00001F088FD01F0ACFC01F01CFD01F0E8FC0E
:1044C00001F0F0FB01F056FB01F0A8FC194C802331
:1044D000164A1749204601F0C9FC01212046FFF782
:1044E0000BFB01F0B9FF02F005F801F0B1FD01F09E
:1044F0004FFE01F08DFF01F023FC012280210E48C8
:10450000FEF721FE01221146900700F01AFF01225A
:1045100002212046FFF784FB054801220749001FBE
:1045200001F07AF801F0A6FCFEE700005814002024
:1045300004480040080002400024014005000C002F
:1045400010B52DED028B00289FED2E8A04DCB0EE15
:10455000480ABDEC028B10BD40F6FF71884202DBB9
:10456000B0EE480AF5E7FCF737F89FED272B53EC40
:10457000122BFBF7C2FF9FED260B53EC102BFBF722
:104580004AFFFCF77DF800EE900AF5EEC00AF1EE66
:1045900010FA04D910EE900A1F49884202DBB0EEEF
:1045A000480AD6E79FED1D1AB7EE008A81EE200A71
:1045B0009FED1B1A30EE480A20EE010AC0EE010AF8
:1045C00010EE900AFCF719F841EC100BFDF778FE9D
:1045D0009FED141B51EC100B53EC112BFBF71BFF41
:1045E0009FED121B53EC112BFBF76EFEFCF748F806
:1045F00000EE100AC8EE000A9FED0E0A30EEC00A67
:10460000A7E70000339388C30000000000FEAF401E
:104610000000006066660A40333353403333534032
:1046200000401C46000000806597303F000000E01D
:10463000E1796B3F3393884370B51C4B1B68C3F320
:104640000223C3F10705042D00D904251C1D072CE6
:1046500001D2002300E0DB1E012606FA05F4641EE9
:104660000C409C4006FA03F1491E11400C430028FF
:1046700006DB00F1E0214FEA041281F8002407E094
:1046800000F00F0202F1E0224FEA041182F8141D3B
:104690000BDB00F01F014FEA50104FEA800000F1E1
:1046A000E02006FA01F6C0F8006170BD0CED00E0F4
:1046B00000F00701054A10684FF6FF03184040EA72
:1046C0000120034908431060704700000CED00E032
:1046D0000000FA0570B504462DED048BB0EE408A5B
:1046E000F0EE608AF0EE419A0D46B0EE690AFFF7EF
:1046F000E1FA20EE089AB0EE690AFFF725FB08EE12
:10470000809A84ED009AB0EE690AFFF7D3FA60EE62
:10471000288AB0EE690AFFF717FB48EE408AC5ED1C
:10472000008ABDEC048B70BD2DE9F04104460F46B4
:10473000134EF5683068001D00F0F7FF601C07D1CC
:1047400037B13168BDE8F041091D0E4801F03CB8B1
:104750002C4430684460AC4206D23168F06B091DCD
:10476000BDE8F04101F018B83168B06B091D01F0E7
:1047700013F8B06A844200D2B462BDE8F081000050
:10478000F4010020EC16002070B5044601F028F872
:104790001C4DA868401CA860286810B1686938B131
:1047A0000CE02C60A868012808D100F099F905E018
:1047B0002868E16AC06A884200D82C60686A401C98
:1047C00068626064E06A2969884200D928610E49FC
:1047D00000EB800001EB8000211D00F0F5FF01F0EF
:1047E0001FF8686900280CD02868E16AC06A88420E
:1047F00007D206494FF080500860BFF34F8FBFF3D8
:104800006F8F70BDF40100205C15002004ED00E006
:1048100038B500F0E5FF104C2068C8B90F4800F02B
:10482000ADFF0E48143000F0A9FF0C48E0601430D2
:1048300020610A4B0020F03B009003F15002102150
:104840000A2001F070FF206010B105A101F06CF8A2
:10485000BDE8384000F0E4BF34020020F01700202B
:10486000546D72510000000070B50C4D0C4E11E0FB
:1048700000F0B6FFF068C468201D00F056FFA8687D
:10488000401EA8606868401E686000F0C9FF2046AE
:1048900000F053F868680028EAD170BDF4010020E8
:1048A000D816002030B40B46026C002A0CD0C16828
:1048B0001144C1608468A14201D30168C160C1682C
:1048C00030BC1846FBF7DCBC30BC70472DE9F0412A
:1048D000044617460026A56B226C002A10D0C7B1EB
:1048E000E068FBF7CDFCE168206C091AE160226802
:1048F000914202D2A168081AE060022F16D017E098
:104900002068A8B9A06802F02DFA06460020A06031
:104910000EE06068FBF7B4FC216C606808446060DE
:10492000A168884204D32068606001E005B16D1E73
:104930006D1CA5633046BDE8F08110B5044694F8BF
:10494000590000280BD0012811D0022814D0502083
:1049500080F31188BFF34F8FBFF36F8FFEE7206B9B
:1049600000F074FF2046BDE8104000F06FBF204605
:10497000BDE8104000F06ABF10BD00000749CA68DA
:104980001168002904D00021016019B1002070478E
:104990000121F9E7D0680068704700003402002068
:1049A0004FF420510F48420706D0C01D20F00700E9
:1049B0000C49411AC1F520510B4A10600023536085
:1049C0000144083921F00701183A11604B600B606F
:1049D0000B1A436001604068906050604FF00040E7
:1049E000506170471818002060020020074E4FF0F9
:1049F0008054074DFFF738FF30680128FAD92C6042
:104A0000BFF34F8FBFF36F8FF4E700005C150020FA
:104A100004ED00E070B51D46049C002909D0226019
:104A2000E06321640121204601F0B4FE84F84C507B
:104A300070BD2460F4E72DE9F05F8246DDE90A5994
:104A40000C9C0E4617469B46B900A522206BFBF72F
:104A500029FC206B7F1E00EB870020F007077807FA
:104A600007D0502080F31188BFF34F8FBFF36F8FB3
:104A7000FEE74FF0000866B100202218315C82F892
:104A80003410315C11B1401C1028F6D384F84380F7
:104A900001E084F83480102D00D30F25E562E56431
:104AA000C4F85080201D00F074FE04F1180000F0DE
:104AB00070FE2461C5F11000A0616462C4F85480E6
:104AC00084F858805A465146384600F0ADFA2060C6
:104AD000B9F1000F01D0C9F80040BDE8F09F000017
:104AE00070B50024114D04EB840005EB800000F04C
:104AF00045FE641C102CF6D30D4800F03FFE0C4818
:104B0000143000F03BFE0A48283000F037FE084819
:104B10003C3000F033FE0648503000F02FFE0548D0
:104B2000034981631431C16370BD00005C1500202E
:104B30009C160020F401002030B5134900E0114616
:104B40000A688242FBD34B685C18844203D14068F8
:104B50001844486008460D6844682318AB420DD1DC
:104B6000094B183B1B689A4206D0526822444260A7
:104B70000A681268026002E0036000E0026081429D
:104B800000D0086030BD00006002002070B5002435
:104B9000416000610C4D91420AD8D11A826991425C
:104BA00001D301240EE0011D286900F0F5FD09E0A4
:104BB0009A4203D2994201D3012403E0011DE8681F
:104BC00000F0EAFD204670BD3402002010B5044616
:104BD00000F006FEA06B20B1002400F021FE20466C
:104BE00010BD0124F9E710B5044600F0F9FDA06BF3
:104BF000E16B884201D1012400E0002400F010FEA6
:104C0000204610BDF8B505460E461748C068C06876
:104C1000C468201D00F089FD94F82800410718D5CC
:104C2000A0692B46411932462046FFF7AFFFA0B1DD
:104C300000200346014600902A46204602F0A4F9CF
:104C400058B9502080F31188BFF34F8FBFF36F8F97
:104C5000FEE720F0010084F82800216A01B0204618
:104C6000BDE8F040084700003402002030B587B0AE
:104C70003C4D6EE00398002803DADDE90420069934
:104C800090470398002864DB059C606910B1201DE3
:104C900000F04BFD02A800F0ADF8024603980A2888
:104CA00057D2DFE800F00505052D334A05052D3301
:104CB00094F8280040F0010084F828000498A169C5
:104CC000034601442046FFF761FF68B3216A20468E
:104CD000884794F8280040073BD5002000900498AE
:104CE000A169002342181946204602F04DF9D8B9AF
:104CF000502080F31188BFF34F8FBFF36F8FFEE713
:104D000014F8280F20F00100207022E094F8280009
:104D100040F0010084F828000498A06128B18118AF
:104D200013462046FFF732FF13E0502080F311882E
:104D3000BFF34F8FBFF36F8FFEE794F82800810712
:104D400003D4204600F082FD03E020F0010084F847
:104D50002800002203A9286801F07EFE002889D1DE
:104D600007B030BD34020020F8B506460D4600F00D
:104D7000C5FE684600F03EF80446009810B102F007
:104D80006BF8F8BD45B9A64206D802F065F8214691
:104D90003046FFF737FFF8BD0C481DB101690968BF
:104DA00091B10025311B2A46006800F0CFFD02F0CA
:104DB00053F80028EFD106494FF080500860BFF348
:104DC0004F8FBFF36F8FF8BD0125EBE73402002052
:104DD00004ED00E00648816B0968002904D0816B6E
:104DE000C9680968816270474FF0FF31816270477E
:104DF000F401002070B5054601F048FF0446074E57
:104E0000B068844204D200F00BF80120286001E071
:104E100000202860B460204670BD000034020020ED
:104E2000F8B51A4E20E0C0680568C468201D00F07F
:104E30007CFC216A2046884794F82800400713D557
:104E4000A0692844A84206D960602461211DF06849
:104E500000F0A2FC08E000200346014600902A462C
:104E6000204602F091F840B1F06801680029DAD1DB
:104E7000F0683169F1603061F8BD502080F311882D
:104E8000BFF34F8FBFF36F8FFEE7000034020020A7
:104E900009484068401C07D0502080F31188BFF3B8
:104EA0004F8FBFF36F8FFEE7502080F31188BFF361
:104EB0004F8FBFF36F8FFEE71400002008B56846E0
:104EC000FFF75CFD0099FFF74FFFFFF7CFFEF6E716
:104ED0002DE9F041044600F083FC94F9455004F1BB
:104EE000240609E0606A48B1304601F079FF08B154
:104EF00000F080FD6D1E6DB2002DF3DC4FF0FF362B
:104F000084F8456000F08CFC00F06AFC94F9445091
:104F100004F1100709E0206948B1384601F060FF4C
:104F200008B100F067FD6D1E6DB2002DF3DC84F852
:104F30004460BDE8F04100F073BC00002DE9F04191
:104F40000446002600F0DAFD364F386808B9FFF74E
:104F500027FD7869044256D1CCB104F10805A54279
:104F600015D9680714D005F00700C0F108002844DF
:104F7000A8420AD9054668070AD0502080F3118854
:104F8000BFF34F8FBFF36F8FFEE7002500E00025D2
:104F9000CDB37868854236D822491831084604686E
:104FA00001E0214604466068A84202D22068002839
:104FB000F7D13868844226D00E6808362068086029
:104FC0006068411B10290ED96019420707D0502094
:104FD00080F31188BFF34F8FBFF36F8FFEE74160FF
:104FE0006560FFF7A9FD61687868401A7860BA6863
:104FF000904200D2B860786901436160002020606F
:10500000F868401CF86001F027FF700707D05020B7
:1050100080F31188BFF34F8FBFF36F8FFEE73046E9
:10502000BDE8F0814802002024384FF0807303620D
:1050300021F00101C1610449816142606FF0020108
:1050400040F8201970470000914E000890ED041AB6
:10505000D0ED030A90ED020AAFF3008010B52DEDFC
:10506000048BF0EE608AB0EE419A9FED128A124CEA
:10507000002120EE080A2046BCEEC00A10EE102ADD
:1050800000F03DF928EE880A02212046BCEEC00A55
:1050900010EE102A00F033F929EE080ABDEC048B5B
:1050A00020460421BCEEC00ABDE8104010EE102AD4
:1050B00000F025B90078BB45002C014000210170AB
:1050C00041708170C1700171417181710121C171A3
:1050D0007047026861F3861202607047C06880B250
:1050E0007047C16070470246002092680A4200D0B3
:1050F00001207047C26922F40062C2610A78002A66
:1051000006D0012A11D0022A1CD0032A27D032E06F
:10511000026822F400420260026822F480420260C7
:10512000026822F48062026025E0026822F40042F4
:105130000260026822F480420260026842F48062E7
:10514000026018E0026842F400420260026822F441
:1051500080420260026822F4806202600BE0026812
:1051600042F400420260026842F480420260026837
:1051700022F480620260CB79026863F34922026004
:105180004A78012A02D1CA79012A15D0026822F48C
:10519000807202604B78026863F3820202608A7850
:1051A000072A0ED9426842F4807242608A78036806
:1051B00062F3C50303600DE0026842F4807202608E
:1051C000E8E7426822F4807242608B78026863F3F9
:1051D000C5020260CB78026863F3C71202600B79E4
:1051E000026863F3CB2202604B79026863F34102E9
:1051F00002608A79016862F3000101607047000073
:1052000070B5FEF771FC224B224C234968B101288E
:1052100016D0022816D00B606068C0F303101F4A36
:10522000105C0A68C2400A6070BD606D800505D5DB
:10523000206B800102D51A480860EDE70B60EBE7B0
:105240000B60E9E76068C0F300456068C0F3834025
:105250006268C2F341727AB90F280DD0801C7DB10B
:105260006268920310D5626DC2F30132921CB3FBE7
:10527000F2F242430A60CFE700EB0210401CEEE777
:10528000084A50430860C7E7014A50430860C3E733
:1052900000127A0000100240200000201C7000085C
:1052A000006CDC0200093D00C1628262416941F08C
:1052B0000101416170478B79426C63F30C324264A7
:1052C0000B78426C63F3070242644B79426C63F3E0
:1052D0008A2242640B79426C63F3CB2242644B789E
:1052E000426C63F34D324264CB78426C63F38E328E
:1052F00042648A78416C62F3092141647047002955
:1053000007D0022907D0042907D0062900D102645A
:1053100070474263704782637047C2637047026898
:1053200061F3092202607047026861F306120260AD
:105330007047026861F3000202607047C94301616F
:105340007047012A05D0002A02D1C2688A43C26090
:105350007047C2680A43C260704700290AD0022918
:105360000DD0042910D0062903D1C16962F3CB21E5
:10537000C1617047816962F3C301816170478169CE
:1053800062F3CB2181617047C16962F3C301C161DE
:1053900070472DE9F04101F108035C1C55789D40F0
:1053A000ADB29678A640B6B2D0F804C0012707FA8D
:1053B00004F42CEA040CC0F804C04468344344608C
:1053C000446807FA03F39C43446043682B434360FB
:1053D0004D00022303EB4106046A07FA06F39C43DF
:1053E00007FA05F39C430462002906D002290FD076
:1053F000042918D006292BD120E0836923F0030368
:10540000836192F800C083696CF3061383611FE027
:10541000836923F44073836192F800C083696CF35D
:105420000E33836114E0C36923F00303C36192F870
:1054300000C0C3696CF30613C36109E0C36923F4B8
:105440004073C36192F800C0C3696CF30E33C3614B
:1054500007EB41034FF0030C0CEB410192F803C042
:105460000CFA03FC1FFA8CFC92F8048008FA01F88D
:105470001FFA88F807FA01F18C4344EA08049F40B8
:10548000BC4344EA0C0404625179A94089B2927980
:10549000B24092B214430C430462BDE8F08100298B
:1054A0000AD002290DD0042910D0062903D1C169E0
:1054B00062F38A21C1617047816962F3820181616F
:1054C0007047816962F38A2181617047C16962F323
:1054D0008201C1617047426C61F3CF324264704710
:1054E000026861F3C71202607047426861F30612F6
:1054F00042607047026B61F3070202637047826883
:1055000061F3C71282607047406880B27047C1F390
:10551000080141607047426961F3C71242617047F8
:10552000C26861F34D32C2607047CA0602D001689A
:1055300040687047C943016070470068084201D065
:10554000012070470020704700290ED0012915D096
:1055500002291CD0032907D1416941F480714161BE
:10556000416941F4007141617047416921F48071E2
:105570004161416921F4007141617047416941F421
:1055800080714161416921F4007141617047416955
:1055900021F480714161416941F4007141617047BA
:1055A000F0B585B004460F4615461E466846FEF720
:1055B00075F91648844205D01548844202D0154832
:1055C000844201D1029800E0039800EB8000400083
:1055D000B0FBF7F00A21B0FBF1F201FB1202052A41
:1055E00002D2B0FBF1F002E0B0FBF1F0401CA16888
:1055F00060F30F01A160E06865F30C30E0602069A2
:1056000066F30D30206105B0F0BD000000380140A8
:10561000006001400064014010B5012301F01F0447
:10562000A34000EB1140012A03D0016899430160B7
:1056300010BD01681943016010BD0022202927D048
:105640000CDC042934D004DC012935D0022936D100
:105650002EE0082920D0102931D125E0402913D08F
:1056600080290DD0B1F5807F06D0B1F5007F26D11D
:105670004269C2F3802222E00269C2F380121EE076
:10568000C268C2F3C0121AE0C268C2F3801216E008
:10569000C268C2F3401212E0C268920602D44269A4
:1056A000D2070CD001220AE0C268C2F3001206E061
:1056B000426902F0010202E0C268C2F30022012A3C
:1056C00001D0002070470068084201D001207047D7
:1056D0000020704700290CD0012913D0022907D1DE
:1056E000C16841F40071C160C16841F48061C1606A
:1056F0007047C16821F40071C160C16821F4806104
:10570000C1607047C16821F40071C160C16841F493
:105710008061C1607047C26861F38202C2607047F5
:10572000C26861F3C302C26070470169D0E9013207
:105730009A60D0E901235A604A68824201D18268A6
:105740004A60002202610868401E086008687047CD
:10575000034B0360A3F5C0600860802010607047B1
:10576000A0130020044B0360A3F25C4008604FF4D8
:105770008070106070470000FC13002000F10801E9
:1057800041604FF0FF328260C16001610021016021
:10579000704700210161704730B50C68621C02D06F
:1057A00000F1080202E0026904E01A4653681D682D
:1057B000A542FAD953684B6099608A6051600861CC
:1057C0000168491C016030BD42684A6093688B6083
:1057D00093685960916008610168491C01607047D5
:1057E000502080F31188BFF34F8FBFF36F8F0A49AA
:1057F0004868401C486001280CD10848006810F037
:10580000FF0F07D0502080F31188BFF34F8FBFF3F5
:105810006F8FFEE7704700001400002004ED00E0E9
:1058200009494868002806D0401E4860002801D178
:1058300080F311887047502080F31188BFF34F8F99
:10584000BFF36F8FFEE700001400002070B5002842
:105850002AD008380446154D60686969084207D1A6
:10586000502080F31188BFF34F8FBFF36F8FFEE797
:1058700022683AB1502080F31188BFF34F8FBFF3F5
:105880006F8FFEE78843606000F038F960686968F0
:10589000084468602046FFF74FF92869401C2861DA
:1058A000BDE8704001F0D8BA70BD00004802002089
:1058B0004FF0E02000210161816105494FF47A72C7
:1058C0000968B1FBF2F1491E41610721016170478E
:1058D0002000002010B5FAF7BDFC114910280ED3A6
:1058E00000F1E02090F8F0030A78904207D25020AF
:1058F00080F31188BFF34F8FBFF36F8FFEE7094826
:105900000068896800F4E060884207D9502080F37D
:105910001188BFF34F8FBFF36F8FFEE710BD0000FC
:10592000140000200CED00E010B50022064B53F8E7
:1059300032401CB1521C082AF9D310BD43F8321072
:1059400003EBC201486010BD1C15002070B5044671
:105950000D461646FFF744FF94F944304FF000001F
:105960005B1C01D184F8440094F94510491C01D115
:1059700084F84500FFF754FFA06B28B9324629464A
:1059800004F1240000F056F82046BDE87040FFF70F
:105990009FBA000010B502460020002A12D00F481E
:1059A000406B38B1502080F31188BFF34F8FBFF3A5
:1059B0006F8FFEE700F0A2F800211046FEF7B4FE5C
:1059C00001F04AFA002807D105494FF080500860DD
:1059D000BFF34F8FBFF36F8F10BD0000F4010020A5
:1059E00004ED00E002490A6A0260C968416070473C
:1059F000F401002001490120C8617047F401002032
:105A000010B50C4600280AD0094909681831FFF77B
:105A1000C3FE2046BDE810400121FEF785BE5020A0
:105A200080F31188BFF34F8FBFF36F8FFEE7000045
:105A3000F401002070B50D46144600280DD00B4926
:105A400009681831FFF7C0FE0CB14FF0FF35214651
:105A50002846BDE87040FEF767BE502080F31188ED
:105A6000BFF34F8FBFF36F8FFEE70000F4010020FC
:105A700030B587B000240694059404AA05A906A8A9
:105A8000FFF766FEDDE90510CDE900410290002335
:105A900016A11848049A01F0BDF8174DE86208B144
:105AA000012000E00020012801D101F039FA01288D
:105AB00002D0401C12D00EE0502080F31188BFF3BA
:105AC0004F8FBFF36F8F4FF0FF30A86201206861E6
:105AD000EC6000F05DFD286B07B030BD502080F316
