:020000040800F2
:10000000080600205D020008DB020008D302000899
:10001000D7020008A50200087D04000800000000C7
:100020000000000000000000000000009D0100082A
:10003000D102000800000000F90100081D030008BB
:1000400077020008770200087702000877020008AC
:10005000770200087702000877020008770200089C
:10006000770200087702000877020008A90200085A
:10007000770200087702000877020008770200087C
:10008000770200087702000877020008770200086C
:10009000770200087702000877020008770200085C
:1000A000770200087702000877020008770200084C
:1000B000770200087702000877020008770200083C
:1000C000770200087702000877020008770200082C
:1000D00077020008770200087702000895030008FD
:1000E000770200087702000877020008770200080C
:1000F00077020008770200087702000877020008FC
:1001000077020008770200087702000877020008EB
:1001100077020008770200087702000877020008DB
:1001200077020008770200087702000877020008CB
:1001300077020008770200087702000877020008BB
:1001400000000000000000000000000000000000AF
:10015000770200087702000877020008770200089B
:10016000770200087702000877020008770200088B
:10017000770200087702000877020008770200087B
:1001800077020008DFF810D000F07AF80048004746
:10019000810B0008AFF30080080600202C4B196883
:1001A0000868B0E8F04F80F30988BFF36F8F4FF015
:1001B000000080F3118870470000000008480068C4
:1001C000006880F308884FF0000080F3148862B65E
:1001D00061B6BFF34F8FBFF36F8F00DF00BF00BF6B
:1001E00008ED00E0DFF80C00016841F470010160E7
:1001F000704700BF88ED00E0EFF30980BFF36F8F19
:10020000134B1A681EF0100F08BF20ED108A20E96A
:10021000F04F106009B44FF0500080F31188BFF325
:100220004F8FBFF36F8F00F043FF4FF0000080F35C
:10023000118809BC19680868B0E8F04F1EF0100F6B
:1002400008BFB0EC108A80F30988BFF36F8F704746
:1002500010000020EFF3058070470000064880473B
:1002600006480047FEE7FEE7FEE7FEE7FEE7FEE79B
:10027000FEE7FEE7FEE7FEE725030008850100082C
:10028000064C074D06E0E06840F0010394E80700E3
:1002900098471034AC42F6D3FFF778FFA01500085A
:1002A000C015000800BFFEE710B5022000F094FB67
:1002B00048B1012004490870022000F0F9FA002139
:1002C000024800F0E3FA10BD0400002008000240DC
:1002D000704700BFFEE700BFFEE77047F0B503467A
:1002E0000C4603F00701C1F10700042801D90420DE
:1002F00001E0C1F107000646081D072801D20020D1
:1003000000E0C81E05460120B040401E2040A84025
:100310000127AF407F1E17403843F0BD10B501F0F4
:1003200067F810BD1848006840F47000164908606E
:100330001648006820F00100401C1449086000BF06
:1003400012480068C0F340000028F9D00F48406808
:1003500020F003000D49486000BF0C484068C0F31E
:1003600081000028F9D10948006809490840074977
:1003700008600020486008634FF41F008860C803CD
:10038000014980390860704788ED00E000100240A4
:10039000FFFFF2FE10B52021084800F0E0FD58B143
:1003A000064800F033FDC4B2204600F009F82021D1
:1003B000024800F03DFD00BF10BD000000480040B5
:1003C00008B52A49097881B9A5280ED10021284A03
:1003D000117011460A780978491C254B1970254976
:1003E00088540121214A11703EE0204909780129F1
:1003F0003AD11F490A780978491C1D4B19701D49CB
:10040000885419460978082925D11A49C9794929F2
:1004100021D10022002104E0164B5B5C1344DAB2C8
:10042000491C0629F8DB13498979914205D000213E
:100430000F4B19700D4B197008BD0E4949780E4BC2
:1004400019700C49D1F8021000910021084B197065
:10045000064B197000BF06490978082904DB002102
:10046000034A1170014A117000BFE5E70E00002039
:100470000D000020050000200F00002000BFFEE757
:1004800002480068C0F30220704700000CED00E055
:1004900010B5002804DB0A07130E054A135406E0C2
:1004A0000A07140E034A00F00F031B1FD45410BD9B
:1004B00000E400E018ED00E002E008C8121F08C1E7
:1004C000002AFAD170477047002001E001C1121FD5
:1004D000002AFBD1704700000349496860F3071107
:1004E000014A51607047000000100240034949680A
:1004F00060F30A21014A5160704700000010024079
:100500000349496860F3CD21014A516070470000FA
:1005100000100240012807D10749496D21F0300140
:100520003031054A516505E00349496D21F030013C
:10053000014A51657047000000100240052827D28B
:10054000DFE800F0030A11181F00134A126861F374
:100550000002114B1A601CE00F4A126861F310424E
:100560000D4B1A6015E00C4A126861F318620A4BD1
:100570001A600EE0084A126A61F30002064B1A6222
:1005800007E0054A526A61F30002034B5A6200E039
:1005900000BF00BF70470000001002402DE9F0418D
:1005A000014600270022002590460023002400F089
:1005B00065F9064626B1012E12D0022E43D112E073
:1005C0003948406DC0F3402038B13748006BC0F364
:1005D000406010B13548086001E03548086035E0FA
:1005E0003348086032E030484068C0F300482E4885
:1005F0004068C0F383422C484068C0F341750DB990
:100600000F2A03D12801401C024400E0921CB8F1DB
:10061000000F03D127485043086013E02248406888
:10062000C0F3404058B12048406DC0F30137B81CBA
:10063000DFF87CC0BCFBF0F05043086002E01C48CF
:100640005043086002E01A48086000BF00BF164827
:100650004068C0F303131848C45C0868E040486071
:1006600011484068C0F302231448C45C4868E04065
:10067000C8600D484068C0F3C2231148C45C486894
:10068000E040886008484068C0F30073064840684E
:10069000C0F3813040EA83030A48C45C8868B0FB39
:1006A000F4F00861BDE8F08100100240006CDC024B
:1006B00000127A0000093D0068150008781500084E
:1006C000801500088815000810B501460020094B68
:1006D00003EB1142126801F01F040123A3401A40EA
:1006E00001F01F040123A3409A4200D000E0012042
:1006F00010BD00000010024030B50024002500E0CD
:10070000641C1120FFF7E0FF012802D0B4F5405F20
:10071000F6D31120FFF7D8FF012801D0002500E013
:100720000125284630BD000010B501290DD10E4B22
:1007300003EB1042126800F01F040123A3401A4388
:10074000094C04EB10431A600CE0074B03EB10421A
:10075000126800F01F040123A3409A43024C04EBEB
:1007600010431A6010BD00000010024010B568B9B7
:100770001C4B5B6823F480331A4C636023461B6B6D
:1007800023F0007303F10073236317E0154B5B68DC
:1007900023F4803303F58033124C6360012805D1C4
:1007A00023465B6823F40033636007E00D4B5B680E
:1007B00023F4003303F500330A4C6360094B5B6894
:1007C00061F39543074C63600C09064B5B6864F367
:1007D0005E73044C636023465B6862F3DF7363609F
:1007E00010BD0000001002401348006820F0010016
:1007F000401C1149086000BF0F480068C0F340006A
:100800000028F9D00C48406820F003000A494860ED
:1008100000BF09484068C0F381000028F9D10648AC
:1008200000680649084004490860002048600863E1
:100830004FF41F008860704700100240FFFFF2FE77
:100840000D49496860F301010B4A516000BF00BFC8
:1008500000BF00BF00BF00BF00BF00BF00BF00BFA0
:1008600000BF00BF00BF00BF00BF00BF00BF00BF90
:1008700000BF00BF704700000010024002484068FF
:10088000C0F381007047000000100240026861F36D
:1008900000020260704700210160416001814181D6
:1008A000017341738173C173017441747047000017
:1008B000B0F1805F04D920F07041034A116001E07B
:1008C00002494860704700000404024000000240F2
:1008D000D0F8A430C3F300633BB9D0F8A43023F0C0
:1008E000807303F18073C0F8A430012906D1D0F8D9
:1008F000A03062F30703C0F8A03034E0022906D12B
:10090000D0F8A03062F30F23C0F8A0302BE0032909
:1009100006D1D0F8A03062F31743C0F8A03022E02F
:10092000042906D1D0F8A03062F31F63C0F8A030CC
:1009300019E0052906D1D0F8A43062F30703C0F806
:10094000A43010E0062906D1D0F8A43062F30F23BA
:10095000C0F8A43007E0072905D1D0F8A43062F32D
:100960001743C0F8A430704702684BF6EF731A4083
:10097000026002680B891A4302604B7C026863F3D1
:100980000D320260CB7B026863F38B2202608B7BAB
:10099000026863F3092202604B7B026863F3C712AB
:1009A00002600B7B026863F3861202600B7C0268B4
:1009B00063F3451202604A8942600A6882604A68AD
:1009C000C26070471AB103680B43036002E003681A
:1009D0008B43036070470000014600200022B1F104
:1009E000805F02D9054B1A6801E0054B1A6802EADC
:1009F00001030BB1012000E0002070470004024019
:100A0000000002400021026822F001020260002280
:100A1000026042608260C260014640F2FF420A40CA
:100A2000B2F5816F0DD2CAB2083A1423B2FBF3F2C9
:100A300093000F229A400D4B5B681A430B4B5A6090
:100A400012E040F2FF420A40B2F5916F0CD2CAB2F6
:100A5000083A1423B2FBF3F293000F229A40044B9E
:100A60001B681A43024B1A607047000000000240E6
:100A7000040402404FF6FF71016000218171017191
:100A8000042141710121C1717047F0B50A461588F2
:100A9000ABB29579032D01D100241AE0957965B99F
:100AA000557905F00F045579182D01D1036110E037
:100AB0005579282D0DD143610BE0957905F0080596
:100AC000167906F004063543D67906F0030645EAA2
:100AD0000604DDB2A5B1002110E001258D401D40C6
:100AE0005DB105688F000F26BE40B54305600568FF
:100AF0008E0004FA06F635430560491C0829ECD33C
:100B0000FF2B15DD1B12002110E001258D401D403B
:100B10005DB145688F000F26BE40B543456045680E
:100B20008E0004FA06F635434560491C0829ECD3CB
:100B3000F0BD0000F0B50C46104F07EB1062C0F39B
:100B40000741C0F30725C6B2C5F12007A7EB010C8A
:100B50004FF0FF3707FA0CF3C5F120077F1AFB406F
:100B6000CB408B4017689F4317602CB106FA01FCFD
:100B7000176847EA0C071760F0BD0000000001404D
:100B800000F09EFB00F07AFB00F0DAFA00F00CFBBC
:100B900000F0DEFA1023124A1249134800F000FB5D
:100BA00001211148FFF772FE00F0D6FB012202215D
:100BB0000D48FFF707FF01220C490A48001F00F00B
:100BC000B3F900240AE00A480078012806D12CB9BC
:100BD00001210448001F00F01DF90124F3E7000083
:100BE00050000020044800400800024005000C00AE
:100BF0000F0000202DE9F0470B4614464FF0000C83
:100C000000BF2C4A1268C2F302211D4626460A463E
:100C1000C2F10709B9F1040F02D94FF0040901E04C
:100C2000C2F10709C84602F10409B9F1070F02D25F
:100C30004FF0000901E0A2F103094F464FF001090E
:100C400009FA08F9A9F1010909EA050909FA07F9F8
:100C50004FF0010A0AFA07FAAAF1010A0AEA060A9B
:100C600049EA0A09CC4601466246002904DB150719
:100C70002E0E114D6E5407E015072F0E0D4D0C353D
:100C800001F00F06361FAF5500BF014600290DDBEE
:100C900000BF00BF01F01F050122AA404D09AD00B1
:100CA00005F1E025C5F8002100BF00BF00BFBDE889
:100CB000F08700000CED00E000E400E000BF00F071
:100CC0000702064B19684FF6FF031940044B0B430C
:100CD00043EA0221014B196000BF70470CED00E0B0
:100CE0000000FA0509480068006808B9012000E022
:100CF000002020B14FF0FF300549086005E00348AF
:100D00000068C0680068024908607047140000204D
:100D1000400000202DE9F047002600240025002790
:100D2000A046A146FFF7AAFD8246BAF1000F06D001
:100D3000BAF1010F15D0BAF1020F46D115E02D48D6
:100D4000406DC0F3402040B12A48006BC0F34060C2
:100D500018B129482949086002E029482749086054
:100D600037E027482549086033E022484068C0F34F
:100D7000004720484068C0F383441E484068C0F3E1
:100D800041750DB90F2C03D12801401C044400E02B
:100D9000A41C27B91B4860431849086014E0154893
:100DA0004068C0F3404058B11248406DC0F301366E
:100DB000B01C1349B1FBF0F060431049086003E038
:100DC0000F4860430D49086003E00D480B49086077
:100DD00000BF00BF07484068C0F303180A4810F876
:100DE00008900648006820FA09F004490860BDE848
:100DF000F087000000100240006CDC0200000020C0
:100E000000127A0000093D0090150008014648686C
:100E100080B27047C1F3080242607047426961F3D3
:100E2000C71242617047C26861F34D32C2607047B9
:100E300001F01F0212B10268426801E0CA43026079
:100E4000704741B9426922F480724261426922F4DA
:100E50000072426127E001290AD1426922F48072BE
:100E600002F580724261426922F4007242611AE026
:100E700002290AD1426922F480724261426922F455
:100E8000007202F5007242610DE003290BD1426944
:100E900022F4807202F580724261426922F400728B
:100EA00002F50072426170472DE9F04385B00446B7
:100EB0000F46904699466846FFF770FB17488442F4
:100EC00005D01748844202D01648844201D1029EC0
:100ED00000E0039E06EB86004000B0FBF7F50A2019
:100EE000B5FBF0F100FB1150052803D20A20B5FB39
:100EF000F0F503E00A20B5FBF0F0451CA06865F3AF
:100F00000F00A060E06868F30C30E060206969F3CE
:100F10000D30206105B0BDE8F083000000380140CD
:100F2000006001400064014030B5012A0BD100EBA4
:100F300011431B6801F01F050124AC40234300EB63
:100F4000114423600AE000EB11431B6801F01F0508
:100F50000124AC40A34300EB1144236030BD0246A2
:100F60000023202927D00CDC042939D004DC0129F6
:100F70003BD002293DD134E0082920D0102938D1B6
:100F80002AE0402913D080290DD0B1F5807F06D00A
:100F9000B1F5007F2DD15069C0F380232BE010699B
:100FA000C0F3801327E0D068C0F3C01323E0D068FB
:100FB000C0F380131FE0D068C0F340131BE0D0687B
:100FC000C0F3401018B9506900F0010008B10120C9
:100FD00000E0002003460EE0D068C0F300130AE0F2
:100FE00000BF506900F0010305E0D068C0F30023A2
:100FF00001E0002300BF00BF012B01D0002070479B
:101000001068084008B10120F9E70020F7E741B96E
:10101000C26822F40072C260C26822F48062C260B8
:101020001AE001290AD1C26822F40072C260C268C3
:1010300022F4806202F58062C2600DE002290BD1C9
:10104000C26822F4007202F50072C260C26822F423
:10105000806202F58062C2607047C26861F38202FA
:10106000C2607047C26861F3C302C2607047014644
:101070000A69D1E901309860D1E9010358605068EC
:10108000884201D188685060002008611068401EC5
:1010900010601068704742684A6093688B6093687C
:1010A00059609160086103685B1C03607047000031
:1010B0001E48006818B101201D49086034E0002076
:1010C0001B4908601B4801680CE051B900BF502063
:1010D00080F31188BFF34F8FBFF36F8F00BF00BF46
:1010E000FEE7491E01EB8100134A52F8200008B9BF
:1010F000012000E000200028E7D101EB81020E4B27
:1011000003EB820042685268426000F108024368C3
:10111000934202D14268526842604268D268074BEB
:101120001A600448016000BF704700004C000020B6
:101130003400002028000020600000201000002063
:1011400010B501210148FFF7F5FC10BD0203103076
:1011500000B585B01148FFF755FC6846FFF79BFBCB
:101160001020ADF8080000208DF80F0001208DF848
:101170000D0000208DF80E008DF80C008DF8110088
:101180008DF8100069460548FFF7EEFB1E2201218D
:1011900002480838FFF79CFB05B000BD080002407C
:1011A00043608160C260704770B50320FFF786FD21
:1011B000FFF766F9054600221146FFF78FF804464F
:1011C00021466FF00B00FFF763F9FFF759F9054669
:1011D00000221146FFF782F8044621466FF00A000C
:1011E000FFF756F9FFF74CF9054600221146FFF7C5
:1011F00075F8044621466FF00900FFF749F9FFF73B
:101200003FF9054600221146FFF768F804462146DB
:101210006FF00400FFF73CF9FFF732F905460022B2
:101220001146FFF75BF8044621466FF00300FFF715
:101230002FF9FFF725F9054600220F21FFF74EF899
:10124000044621466FF00100FFF722F9FFF718F975
:10125000054600220F21FFF741F8044621464FF0D2
:10126000FF30FFF715F9002205210B20FFF7C2FC24
:10127000002205212720FFF7BDFC70BD10B501211C
:101280004FF4A010FFF750FA01214FF4C010FFF700
:101290004BFA01210848FFF747FA01210648401C94
:1012A000FFF742FA01210448C01CFFF73DFA012173
:1012B0000248FFF739FA10BD0200180012001C00A6
:1012C00010B5FFF791FA01210420FFF737F900BFAD
:1012D0002048FFF7F9F90128FAD101210846FFF764
:1012E0002DF900BFFFF708FA0028FBD001210020EC
:1012F000FFF724F900BF0120FFF7E6F90128FAD132
:1013000001221D211046FFF731FA01210220FFF7CB
:1013100015F900BF1920FFF7D7F90128FAD10020ED
:10132000FFF7DAF80420FFF7EBF80420FFF7DEF808
:101330000120FFF7EFF80220FFF782FA00BFFFF766
:101340009DFA0228FBD10020FFF7E4F8FFF7E2FC4A
:1013500010BD0000010024001CB56846FFF78AFBA1
:1013600002208DF8070000208DF8040008208DF879
:101370000600C001009004208DF8050069461A4857
:10138000FFF783FB02208DF8070000208DF8040092
:101390008DF806004FF40060009004208DF80500E1
:1013A00069461148FFF771FB00231A464FF461218B
:1013B0000E48FFF779FD01210C48FFF753FE01218C
:1013C0000A48FFF74AFE00210848FFF720FE0121E6
:1013D0000648FFF723FD00210448FFF732FD0121F5
:1013E0000248FFF720FD1CBD000C014000480040F2
:1013F00010B500BF502080F31188BFF34F8FBFF3AB
:101400006F8F00BF00F00EF818B14FF08050044904
:10141000086000BF002080F3118800BF10BD0000ED
:1014200004ED00E02DE9F0414FF00008434800686A
:1014300000287BD142480068451C4148056015BB27
:1014400040480068006808B9012000E0002050B959
:1014500000BF502080F31188BFF34F8FBFF36F8F11
:1014600000BF00BFFEE737480768374800683549C6
:1014700008603548076035480068401C33490860FB
:10148000FFF730FC00BF3248006885423BD300BF05
:101490002C480068006808B9012000E0002020B155
:1014A0004FF0FF302A4908602CE026480068C068E9
:1014B000C4686668B54202D22548066022E0201D55
:1014C000FFF7D5FDA06A18B104F11800FFF7CFFDB2
:1014D0002049E06A0968884202D91E49E06A08602A
:1014E000E16A01EB81011C4A02EB8100211DFFF73B
:1014F000D2FD1A49E06A0968C96A8842C8D34FF028
:101500000108C5E700BF15480068C06A00EB80000D
:10151000114951F82000012801D94FF00108104865
:10152000006808B14FF0010805E0FFE70D480068CA
:10153000401C0C4908604046BDE8F0814C0000208A
:101540002400002014000020180000203800002093
:101550004000002028000020600000201000002033
:1015600034000020300000200000000000000000D7
:101570000102030406070809000000000102030439
:10158000000000000102030402040608020C081017
:101590000000000000000000010203040607080923
:1015A000C01500080000002050000000B80400082A
:1015B0001016000850000020B8050000C8040008FC
:1015C00000127A000000000000000000000000008F
:1015D000000000000000000000000000000000000B
:1015E00000000000000000000000000000000000FB
:1015F00000000000000000000000000000000000EB
:1016000000000000000000000F00000000000000CB
:040000050800018569
:00000001FF
