:020000040800F2
:10000000E84000205D020008A7130008091000085E
:10001000D5100008290B0008311E00080000000060
:100020000000000000000000000000009D0100082A
:100030004D0E000800000000F90100085D1A0008DC
:1000400077020008770200087702000877020008AC
:10005000770200087702000877020008770200089C
:10006000770200087702000877020008250E0008D2
:10007000770200087702000877020008770200087C
:100080007702000877020008B50900087702000827
:10009000770200087702000877020008770200085C
:1000A000770200087702000877020008770200084C
:1000B000DD1A0008770200087702000877020008BE
:1000C000770200087702000877020008770200082C
:1000D000770200087702000877020008A51C0008D4
:1000E000770200087702000877020008770200080C
:1000F00077020008770200087702000877020008FC
:1001000077020008770200087702000877020008EB
:1001100077020008770200087702000877020008DB
:1001200077020008770200087702000877020008CB
:1001300077020008770200087702000877020008BB
:1001400000000000000000000000000000000000AF
:10015000770200087702000877020008770200089B
:10016000770200087702000877020008770200088B
:10017000770200087702000877020008770200087B
:1001800077020008DFF810D000F0D4FB00480047E9
:1001900021450008AFF30080E84000202C4B19688F
:1001A0000868B0E8F04F80F30988BFF36F8F4FF015
:1001B000000080F3118870470000000008480068C4
:1001C000006880F308884FF0000080F3148862B65E
:1001D00061B6BFF34F8FBFF36F8F00DF00BF00BF6B
:1001E00008ED00E0DFF80C00016841F470010160E7
:1001F000704700BF88ED00E0EFF30980BFF36F8F19
:10020000134B1A681EF0100F08BF20ED108A20E96A
:10021000F04F106009B44FF0500080F31188BFF325
:100220004F8FBFF36F8F05F0D1FF4FF0000080F3C9
:10023000118809BC19680868B0E8F04F1EF0100F6B
:1002400008BFB0EC108A80F30988BFF36F8F704746
:1002500098010020EFF305807047000006488047B2
:1002600006480047FEE7FEE7FEE7FEE7FEE7FEE79B
:10027000FEE7FEE7FEE7FEE76D1A000885010008CD
:1002800040EA01039B0703D009E008C9121F08C018
:10029000042AFAD203E011F8013B00F8013B521E98
:1002A000F9D27047D2B201E000F8012B491EFBD20F
:1002B00070470022F6E710B513460A460446194671
:1002C000FFF7F0FF204610BD2DE9FE4F804681EA82
:1002D0000300C00F0C46009021F0004123F00045C0
:1002E000B8EB0200A94105D24046214690461C4683
:1002F0000B46024623F00040104347D0270DC7F3BA
:100300000A00C3F30A510290401A019040286BDAA8
:10031000C3F3130040F4801B0098924620B10023E1
:10032000D2EB030A63EB0B0B01985946C0F1400274
:10033000504600F008FA06460D4650465946019AC6
:1003400000F010FA10EB08006141002487EA115216
:1003500084EAE7731A4340D0009A62B3019A012AF3
:100360004FEA075215DC001B61EB02014FF000421F
:1003700002EA0752CDE90042001C41F580113246E5
:100380002B4600F070FA03B0BDE8F08F40462146DE
:10039000F9E7001B61EB0201001C41F58013001816
:1003A0005B412018A2F5001747EB030140EAD57026
:1003B000B6196D4111E06D084FEA360645EAC07581
:1003C0004FEA0752001B61EB0201001C41F580114E
:1003D00049084FEA30000019514132462B4603B01C
:1003E000BDE8F04F00F030BA009801224000002331
:1003F000D0EB020263EBE073009821464FEAE07411
:10040000B8EB000061EB0401E9E783F000435BE730
:1004100081F0004158E72DE9FE4F81EA030404F022
:10042000004421F0004100944FF0000B23F0004302
:1004300050EA01045ED052EA03045BD0C3F30A54CD
:10044000C1F30A552C44A4F2F3340194A0FB0254E6
:10045000C1F3130141F48011C3F3130343F4801378
:1004600001FB024400FB034E840A970A44EA8154CC
:1004700047EA8357A4FB076802958D0A05FB0785A9
:100480004FEA932C04FB0C542705029D4FEA0658B3
:1004900047EA1637B5EB08056EEB070C870E920E90
:1004A00047EA811742EA8312A7FB0201B6EB0B0170
:1004B00064EB00042B0D43EA0C335E1844EB1C5034
:1004C000DA465146E7FB0201C5F313044FEA0B334A
:1004D00043EA14534FEA0432019C43EA0603A4F1B1
:1004E0000C040294009CCDE900B400F0BCF903B008
:1004F000BDE8F08F00200146F9E72DE9F04D81EAD3
:10050000030404F0004B21F0004514464FF0000AAC
:1005100023F0004150EA050220D054EA01021DD028
:10052000C5F30A570246C5F31303C1F31300C1F321
:100530000A5640F4801543F48013A7EB0608101BFD
:10054000D64608F2FD3873EB050002D308F1010826
:1005500001E092185B41B8F1000F03DA0020014678
:10056000BDE8F08D00204FF48011064684460EE071
:10057000171B73EB050705D3121B63EB050306433B
:100580004CEA010C49084FEA300092185B4150EAEE
:100590000107EDD152EA030012D082EA040083EA97
:1005A0000501084305D0101BAB4106D201220023F0
:1005B00006E000224FF0004302E06FF0010253100A
:1005C0001AEB06004CEB085110EB0A0041EB0B0153
:1005D000BDE8F04D00F038B90EB5C10F80EAE0700B
:1005E0000844CA07002140F233438DE80E000A4652
:1005F0000B4600F038F903B000BD00F0004230F0C7
:1006000000400AD0C10D01F56071C0F3160042EA46
:100610000151C2084007114370470020014670474E
:1006200030B5041E71F1000404DB4FF00044404279
:1006300064EB0101141E73F1000405DB1C464FF04E
:100640000043524263EB04038B4208BF824230BD39
:1006500030B5041E71F1000404DB4FF00044404249
:1006600064EB0101141E73F1000405DB1C464FF01E
:100670000043524263EB0403994208BF904230BDED
:1006800001F0004330B421F0004150EA010206D0ED
:100690000A0DA2F56072C1F31301002A02DC30BC1E
:1006A00000207047440F44EAC104C100E01830BC88
:1006B00000EBC25000F068B830B50B460146002090
:1006C0002022012409E021FA02F59D4205D303FA14
:1006D00002F5491B04FA02F52844151EA2F1010295
:1006E000F1DC30BD2DE9F05F0546002092469B46C7
:1006F00088460646814640241BE028464146474638
:10070000224600F029F953465A46C01A914110D3A7
:1007100011461846224600F016F82D1A67EB01081C
:100720004F4622460120002100F00DF817EB00098A
:100730004E41201EA4F10104DFDC484631462A4622
:100740004346BDE8F09F202A04DB203A00FA02F17C
:10075000002070479140C2F1200320FA03F31943AF
:1007600090407047202A06DBCB17203A41FA02F06E
:1007700043EAE07306E041FA02F3D040C2F12002FE
:1007800091400843194670470029A8BF7047401C94
:10079000490008BF20F00100704710B4B0FA80FC97
:1007A00000FA0CF050EA010404BF10BC704749B1D4
:1007B000CCF1200421FA04F411FA0CF118BF012144
:1007C00021430843A3EB0C01CB1D4FEA00614FEA24
:1007D000102042BF002010BC704700EBC3501044F3
:1007E0000029A4BF10BC7047401C490008BF20F07E
:1007F000010010BC7047F0B400F0004221F000414D
:1008000020F00040CE0DC30DC1F3160141F40001EC
:10081000C0F316004C42154640F40000761E09E075
:1008200010EB440002D582F0004240428842F7D8E3
:1008300040005B1EB342F9DA18B1F0BC0021FFF7AB
:10084000ACBF2846F0BC704710B5141E73F100040D
:1008500008DA401C41F1000192185B411A4301D1B2
:1008600020F0010010BD2DE9F04D92469B4611B1DC
:10087000B1FA81F202E0B0FA80F220329046FFF73E
:1008800062FF04460F4640EA0A0041EA0B01534664
:100890005A46084313D0114653EA010019D0C8F153
:1008A0004002504600F058F805460E46504659465C
:1008B0004246FFF748FF084305D0012004E02046E8
:1008C0003946BDE8F08D0020054346EAE0762C432A
:1008D00037430A986305E40AA0EB08000022FD0AEA
:1008E00044EA47540A3002D500200146E9E70105F1
:1008F00010196941DDE9084500196941BDE8F04D6D
:10090000A2E7C1F30A52C1F3130140F2FF3341F4ED
:1009100080119A4202DA00200146704740F23343C8
:100920009A42A2F2334202DC524200F015B8FFF7BD
:100930000ABF0000064C074D06E0E06840F00103E6
:1009400094E8070098471034AC42F6D3FFF71EFC3A
:100950005879000878790008202A04DB203A21FA27
:1009600002F00021704721FA02F3D040C2F12002C8
:10097000914008431946704730B58C1810F8012B88
:1009800012F00F0301D110F8013B120906D110F843
:10099000012B03E010F8015B01F8015B5B1EF9D14C
:1009A00001E001F8013B521EFBD1A142E6D3002039
:1009B00030BD000010B50421174802F020FA08B33A
:1009C0000021154802F00EFB14490860012112486D
:1009D00002F008FB1149486002210F4802F002FBB7
:1009E0000E49886003210C4802F0FCFA0C4908808B
:1009F0000C4801680C48006800F02AFA04210648F7
:100A000002F0E7F90421044802F0F9F918B10421D1
:100A1000014802F0DEF910BD00240140D011002091
:100A200006000020840100202801002010B52DEDD3
:100A3000048BB0EE408AB0EE480A00F077F8F0EE92
:100A4000408A0948006890ED160A38EEC00AB0EEF8
:100A5000409AB0EE490A00F0C7FCB0EE409AB0EE02
:100A6000490ABDEC048B10BD280100202DE9F0419E
:100A70002DED048B04460D4600228021284802F00B
:100A8000B3F9B7EE080A00F027FB4FF4FA6005F05F
:100A9000B9FA9FED240AB0EE408A0A279FED210A99
:100AA000B0EE409A002611E000F04CFCB0EE409A07
:100AB000B0EE490A00F03AF8F0EE409A38EE290A12
:100AC000B0EE408A0A2005F09DFA761C0A2EEBDB78
:100AD000B2EE040AC8EE000AC4ED000A00F032FCCF
:100AE000B0EE409AB0EE490A00F020F8F0EE408AED
:100AF00094ED000A38EEC00A85ED000A4FF4FA7052
:100B000005F080FA9FED070A00F0E6FA0122802145
:100B1000034802F069F9BDEC048BBDE8F0810000E8
:100B2000002401400000000000BFFEE710B52DEDDD
:100B3000028BB0EE408A0C48006890ED120AB8EEC5
:100B4000C00A60EE080A0848006890ED110AB8EE85
:100B5000C00A20EE800AF0EE408AB0EE680A00F08B
:100B600043FCBDEC028B10BD2801002010B52DED1B
:100B7000088B044694ED100A84ED1A0A94ED2A0AB3
:100B800084ED1B0A94ED1B0AD4ED1A0A30EE600ABC
:100B900084ED1C0A94ED1C0AD4ED1D0A30EE600AA7
:100BA000D4ED180A20EE200AD4ED170A94ED1C1A91
:100BB00000EE810AD4ED1E0A30EE200A84ED1E0AF2
:100BC00094ED1C0A84ED1D0A94ED1F0A10EE101A14
:100BD0000846FFF712FD41EC1A0BB0EE4A0AF0EEA0
:100BE0006A0A01F053F9B0EE408AF0EE608A94EDA3
:100BF0001E0A10EE101A0846FFF7FFFC41EC190B15
:100C000053EC182BFFF724FD17D294ED1F0A10EEBA
:100C1000101A0846FFF7F1FC41EC190BB0EE490A37
:100C2000F0EE690A01F032F9B0EE408AF0EE608A27
:100C300051EC180BFFF724FDA06794ED1F0A10EE8E
:100C4000101A0846FFF7D9FC41EC1B0BB0EE4B0A1B
:100C5000F0EE6B0A01F01AF9B0EE40AAF0EE60AACD
:100C600051EC1A0B81F0004141EC180B94ED1E0A77
:100C700010EE101A0846FFF7C0FC41EC190B53ECBC
:100C8000182BFFF7CDFC1BD294ED1F0A10EE101AA3
:100C90000846FFF7B2FC41EC1A0BB0EE4A0AF0EE40
:100CA0006A0A01F0F3F8B0EE409AF0EE609A51EC67
:100CB000190B81F0004141EC180BFFF7E1FCA06734
:100CC000BDEC088B10BD10B52DED088B044694EDDE
:100CD0000F0A84ED230A94ED290A84ED240A94ED89
:100CE000240AD4ED230A30EE600A84ED250A94ED3F
:100CF000250AD4ED260A30EE600AD4ED210A20EE52
:100D0000200AD4ED200A94ED251A00EE810AD4EDD4
:100D1000270A30EE200A84ED270A94ED250A84ED97
:100D2000260A94ED280A10EE101A0846FFF765FC13
:100D300041EC1A0BB0EE4A0AF0EE6A0A01F0A6F88E
:100D4000B0EE408AF0EE608A94ED270A10EE101A99
:100D50000846FFF752FC41EC190B53EC182BFFF738
:100D600077FC18D294ED280A10EE101A0846FFF707
:100D700044FC41EC190BB0EE490AF0EE690A01F0AF
:100D800085F8B0EE408AF0EE608A51EC180BFFF760
:100D900077FC9C21085194ED280A10EE101A0846A1
:100DA000FFF72BFC41EC1B0BB0EE4B0AF0EE6B0A8D
:100DB00001F06CF8B0EE40AAF0EE60AA51EC1A0B0C
:100DC00081F0004141EC180B94ED270A10EE101A47
:100DD0000846FFF712FC41EC190B53EC182BFFF7F8
:100DE0001FFC1CD294ED280A10EE101A0846FFF7DB
:100DF00004FC41EC1A0BB0EE4A0AF0EE6A0A01F06C
:100E000045F8B0EE409AF0EE609A51EC190B81F083
:100E1000004141EC180BFFF733FC9C210851BDEC5D
:100E2000088B10BD10B5022002F054FE48B102201C
:100E300002F0BCFD0021034802F0A4FD012002499C
:100E4000087010BD08000240380000207047000004
:100E500070B504460D4600F075FA84ED130AD4ED22
:100E6000130AB0EE600AFFF7E1FD84ED150A604851
:100E7000006820805E48406860805D488068A0808F
:100E80002088E188401A00EE100AF8EEC00A9FEDB3
:100E9000591A80EE810ADFED580A60EE200A9FEDB4
:100EA000571A80EE810ADFED560A80EE201A84ED93
:100EB000071A60882189401A00EE100AB8EEC00AAD
:100EC000DFED4C0A80EE201A9FED4B0A61EE000A1E
:100ED0009FED4A1A80EE810ADFED490A80EE201A62
:100EE00084ED081AA0886189401A00EE100AB8EE55
:100EF000C00ADFED400A80EE201A9FED3F0A61EE46
:100F0000000A9FED3E1A80EE810ADFED3D0A80EE79
:100F1000201A84ED091A94ED081AB1EE411AF0EE88
:100F2000410A94ED091AB1EE411AB0EE410A04F1FA
:100F30001801081F02F0DAF8D4ED151AB0EE611AA4
:100F4000D4ED061AF0EE610AD4ED051AB0EE610A8E
:100F500004F13C01081D03F06BFC94ED0F1AF0EE58
:100F6000410A94ED101AB0EE410A04F13C02111D41
:100F70002448006800F078F82046FFF7F7FD94ED6C
:100F80001E0A84ED0E0A2046FFF79DFE94ED270A07
:100F900084ED0D0AD4ED151AB0EE611AD4ED0E1AD7
:100FA000F0EE610AD4ED0D1AB0EE610A04F1100101
:100FB000081F03F06DFA94ED041AF0EE410A94ED67
:100FC000031AB0EE410A04F13002111F081F03F0AA
:100FD00025FA94ED041AF0EE410A94ED031AB0EEEE
:100FE000410A284600F01EFA284604F029FA70BD8E
:100FF000D0110020000080453333534000004842A8
:101000006F12033B8801002000BFFEE79FED131A1B
:10101000F0EE410A9FED121A20EE811AF2EE041A48
:1010200021EE211AB7EE002AC2EE011AB7EE001A1D
:1010300031EE811AF7EE001A81EE812AB0EE420AF3
:1010400080ED000A9FED071A80ED011A80ED020A7B
:101050009FED041A80ED031A7047000017B751384E
:10106000560EC9400000000090ED011AD0ED001AA4
:1010700090ED012A30EE422A01EE821A80ED011A2B
:1010800090ED011A81ED001A90ED031AD0ED021ACD
:1010900090ED032A30EEC22A01EE821A80ED031A87
:1010A00090ED031A82ED001A7047F0EE401AF4EE4C
:1010B000C11AF1EE10FA02DBB0EE410A7047F4EE0D
:1010C000E01AF1EE10FA02D8B0EE600AF6E7B0EEE0
:1010D000610AF3E700BFFEE710B52DED0A8BB0EE15
:1010E000408A9FED370AF0EE408A9FED350AB0EE58
:1010F000409A9FED330AF0EE409A9FED310AFFF7D8
:1011000015FDB0EE40AAB0EE4A0A02F093FDF1EEF2
:10111000690A20EE20CAB0EE4A0A02F029FD08EE64
:1011200000CAF0EE4C8AB0EE4A0A02F021FD20EE31
:1011300029CAB0EE4A0A02F07DFD08EE00CAB0EE00
:101140004C9A2048D0ED000AB0EE001A80EE810AD9
:1011500030EE280AF0EE40AADFED1B0AB0EE680A76
:1011600010EE890AB0EE001AC0EE010A90ED000AF6
:10117000B0EE001AC0EE011A30EEA10AB0EE40BA8D
:10118000DFED120AB0EE680A10EE890AB0EE001A1E
:10119000C0EE010A90ED000AB0EE001AC0EE011A8E
:1011A00030EEA10AF0EE40BAB0EE6B1AF0EE4B0A48
:1011B000B0EE6A0A00F00CF8BDEC0A8B10BD00001E
:1011C00000000000580000202DB2DD3F2DB2DDBF31
:1011D00010B52DED048BB0EE409AB0EE608AF0EEC3
:1011E000418A324890ED001ADFED310AB0EE490A2B
:1011F000FFF75BFFB0EE409A2C4890ED001ADFED50
:101200002C0AB0EE480AFFF750FFB0EE408A27489C
:1012100090ED001ADFED260AB0EE680AFFF745FFF1
:10122000F0EE408A214890ED000AC9EE000AF0EE87
:10123000609AB7EE001ADFED1E0AB0EE690AFFF7FA
:1012400034FF1C4880ED000A184890ED000AC8EEF3
:10125000000AF0EE609AB7EE001ADFED150AB0EE64
:10126000690AFFF722FF144880ED000A0F4890ED4D
:10127000000AC8EE800AF0EE609AB7EE001ADFEDC1
:101280000C0AB0EE690AFFF710FF0C4880ED000A67
:1012900090ED001A0848D0ED000A064890ED000ACB
:1012A00004F0E0F8BDEC048B10BD000058000020F5
:1012B000000000002C01002030010020340100203B
:1012C0002DE9F0412DED028B04462189606803F081
:1012D0001BF8204600F03EF80546204600F03AF89C
:1012E0000646204600F036F807462189606803F07C
:1012F0000DF8280440EA06203843801208EE100A50
:10130000B8EE480ADFED0C0A20EE200ADFED0B0AEA
:1013100080EE201AF0EE418A9FED090A28EE800A3D
:10132000DFED050A80EE201A84ED031A94ED030A1E
:10133000BDEC028BBDE8F0810000B44300008046A4
:10134000D00FC94010B50248FFF7BAFF10BD00002A
:101350004800002070B50446002506E0681C80B2F5
:1013600005460A2801DD002070BD0221206804F036
:10137000D1F80028F2D00021206804F0C9F8002537
:1013800006E0681C80B205460A2801DD0020EBE774
:101390000121206804F0BEF80028F2D0206804F093
:1013A000B3F8C0B2E0E77047F0B503460C4603F06F
:1013B0000701C1F10700042801D9042001E0C1F1AF
:1013C00007000646081D072801D2002000E0C81EBD
:1013D00005460120B040401E2040A8400127AF40F4
:1013E0007F1E17403843F0BD10B52DED028BF0EE97
:1013F000408ADFED0B0AB0EE680A00F051FDB0EE56
:10140000408AB5EEC08AF1EE10FA04DBB0EE480A6D
:10141000BDEC028B10BD9FED020A38EE000AF7E723
:10142000D00FC94090ED001ADFEDFE1A21EE211A0F
:10143000FD49D1ED001A81EE212A80ED112A90EDAF
:10144000111A21EE201A80ED051A9FEDF81A20EEF0
:10145000011AF6EE001A01EEE01AD0ED111A21EE93
:10146000211A80ED061A9FEDF21A20EE011AF6EE0F
:10147000001A01EEE01AD0ED111A21EE211A80EDCA
:10148000071A90ED051AB5EEC01AF1EE10FA01DD5B
:10149000012100E0002190ED061AB5EEC01AF1EE30
:1014A00010FA01DD012200E0002201EB420190ED83
:1014B000071AB5EEC01AF1EE10FA01DD012200E0C4
:1014C000002201EB82010171017907297DD2DFE859
:1014D00001F07C5EFC04FBBEFA0090ED061A80ED84
:1014E0000B1A90ED051A80ED0D1A90ED0B1AD0ED48
:1014F0000D1A31EE211A80ED0F1A90ED0F1AD0ED72
:10150000001AB4EEE11AF1EE10FA17DD90ED001AB0
:10151000D0ED0F1A81EE212A80ED102A90ED0B1AE2
:10152000D0ED101A21EE211A80ED0B1A90ED0D1A54
:10153000D0ED101A21EE211A80ED0D1A90ED001A4F
:10154000D0ED0B1A31EE611AD0ED0D1A31EE611AA1
:10155000F0EE001A81EE212A80ED0E2A90ED0B1A92
:10156000D0ED0D1A31EE211AD0ED0E1A31EE211AFE
:1015700080ED021A90ED0D1AD0ED0E1A31EE211AFF
:1015800080ED031A90ED0E1A80ED041ADEE190ED65
:10159000061AB1EE411A80ED091A90ED071AB1EE64
:1015A000411A80ED0D1A90ED091AD0ED0D1A31EEA9
:1015B000211A80ED0F1A90ED0F1AD0ED001AB4EE3B
:1015C000E11AF1EE10FA19DD00E0BEE190ED001A2B
:1015D000D0ED0F1A81EE212A80ED102A90ED091A24
:1015E000D0ED101A21EE211A80ED091A90ED0D1A96
:1015F000D0ED101A21EE211A80ED0D1A90ED001A8F
:10160000D0ED091A31EE611AD0ED0D1A31EE611AE2
:10161000F0EE001A81EE212A80ED0E2A90ED0D1ACF
:10162000D0ED0E1A31EE211A80ED021A90ED091A52
:10163000D0ED0D1A31EE211AD0ED0E1A31EE211A2D
:1016400080ED031A90ED0E1A80ED041A7EE190ED04
:10165000051A80ED091A90ED071A80ED0A1A90ED2F
:10166000091AD0ED0A1A31EE211A80ED0F1A90ED09
:101670000F1AD0ED001AB4EEE11AF1EE10FA17DDF0
:1016800090ED001AD0ED0F1A81EE212A80ED102A7C
:1016900090ED091AD0ED101A21EE211A80ED091AE9
:1016A00090ED0A1AD0ED101A21EE211A80ED0A1AD7
:1016B00090ED001AD0ED091A31EE611AD0ED0A1A38
:1016C00031EE611A02E07EE01FE0E0E0F0EE001A89
:1016D00081EE212A80ED0E2A90ED0E1A80ED021A7D
:1016E00090ED091AD0ED0A1A31EE211AD0ED0E1A3A
:1016F00031EE211A80ED031A90ED0A1AD0ED0E1A80
:1017000031EE211A80ED041A20E190ED051AB1EEB8
:10171000411A80ED081A90ED061AB1EE411A80EDDB
:101720000A1A90ED081AD0ED0A1A31EE211A80ED4E
:101730000F1A90ED0F1AD0ED001AB4EEE11AF1EE87
:1017400010FA17DD90ED001AD0ED0F1A81EE212A64
:1017500080ED102A90ED081AD0ED101A21EE211A12
:1017600080ED081A90ED0A1AD0ED101A21EE211A18
:1017700080ED0A1A90ED001AD0ED081A31EE611AC8
:10178000D0ED0A1A31EE611AF0EE001A81EE212A2C
:1017900080ED0E2A90ED0E1A80ED021A90ED0A1AD5
:1017A000D0ED0E1A31EE211A80ED031A90ED081AD1
:1017B000D0ED0A1A31EE211AD0ED0E1A31EE211AAF
:1017C00080ED041AC2E090ED071A80ED081A90ED42
:1017D000061A80ED0C1A90ED081AD0ED0C1A31EEB5
:1017E000211A80ED0F1A90ED0F1AD0ED001AB4EE09
:1017F000E11AF1EE10FA21DD90ED001AD0ED0F1A8A
:1018000081EE212A80ED102A90ED081AD0ED101AF1
:1018100021EE211A80ED081A90ED0C1AD0ED101A65
:1018200008E000002DB2DD3F58000020D0B35D3F3E
:10183000D0B35DBF21EE211A80ED0C1A90ED001A95
:10184000D0ED081A31EE611AD0ED0C1A31EE611AA2
:10185000F0EE001A81EE212A80ED0E2A90ED0C1A8E
:10186000D0ED0E1A31EE211A80ED021A90ED0E1A0B
:1018700080ED031A90ED081AD0ED0C1A31EE211A02
:10188000D0ED0E1A31EE211A80ED041A5EE090EDD3
:10189000071AB1EE411A80ED0B1A90ED051AB1EE60
:1018A000411A80ED0C1A90ED0B1AD0ED0C1A31EEA6
:1018B000211A80ED0F1A90ED0F1AD0ED001AB4EE38
:1018C000E11AF1EE10FA17DD90ED001AD0ED0F1AC3
:1018D00081EE212A80ED102A90ED0B1AD0ED101A1E
:1018E00021EE211A80ED0B1A90ED0C1AD0ED101A92
:1018F00021EE211A80ED0C1A90ED001AD0ED0B1A92
:1019000031EE611AD0ED0C1A31EE611AF0EE001AC8
:1019100081EE212A80ED0E2A90ED0B1AD0ED0C1AE3
:1019200031EE211AD0ED0E1A31EE211A80ED021A95
:1019300090ED0E1A80ED031A90ED0C1AD0ED0E1AF0
:1019400031EE211A80ED041A00E000BF00BF70479D
:1019500010B52DED0A8B84B00446B0EE408AF0EE4F
:10196000608AB0EE419AF0EE619A84ED178AC4ED78
:10197000188A84ED199AC4ED1F9A84ED208AC4ED6B
:10198000218A84ED229AC4ED289A19EE100AFEF7F6
:1019900034FE41EC1A0B18EE900AFEF72EFE41ECD5
:1019A0001B0B18EE100AFEF728FE41EC1C0B8DED08
:1019B00002AB8DED00BB53EC1C2B03A000F03AFAF8
:1019C00004B0BDEC0A8B10BD736574206B70206988
:1019D0007320256C662C206B6920697320256C664A
:1019E0002C206B6420697320256C660D0A000000B2
:1019F00010B52DED068B82B00446B0EE408AF0EEB5
:101A0000608A84ED2A8AC4ED298A18EE900AFEF7CE
:101A1000F4FD41EC190B18EE100AFEF7EEFD41EC57
:101A20001A0B8DED009B53EC1A2B03A000F002FA69
:101A300002B0BDEC068B10BD736574207461725FDB
:101A4000696420697320256C662C207461725F695B
:101A50007120697320256C660D0A000010B505F031
:101A6000E7FC012801D005F0FBF810BD184800681C
:101A700040F47000164908601648006820F0010024
:101A8000401C1449086000BF12480068C0F34000C1
:101A90000028F9D00F48406820F003000D49486045
:101AA00000BF0C484068C0F381000028F9D1094804
:101AB0000068094908400749086000204860086339
:101AC0004FF41F008860C8030149803908607047DF
:101AD00088ED00E000100240FFFFF2FE10B56548FF
:101AE0000078012819D16448006890ED0A0A63481B
:101AF00080ED000A6048006890ED0B0A5F4880EDB9
:101B0000010A5D48006890ED0C0A5C4880ED020A0D
:101B100003220146082000F03BF9594800780128CB
:101B200028D15848006858490988401A00EE100A20
:101B3000B8EEC00A514880ED000A52484068524948
:101B40004988401A00EE100AB8EEC00A4B4880EDF2
:101B5000010A4C4880684C498988401A00EE100AF6
:101B6000B8EEC00A454880ED020A032201460B2068
:101B700000F00EF945480078012819D14448006862
:101B800090ED020A3D4880ED000A4148006890ED62
:101B9000030A3A4880ED010A3D48006890ED040AC6
:101BA000364880ED020A032201460E2000F0F0F8CC
:101BB00038480078012812D12F48006890ED080AB3
:101BC0002E4880ED010A2C48006890ED090A2B4848
:101BD00080ED020A03220146102000F0D9F82E48B9
:101BE0000078012812D12448006890ED030A2348A8
:101BF00080ED000A2048006890ED040A1F4880ED3F
:101C0000010A02220146122000F0C2F8234800789F
:101C1000012812D11848006890ED050A174880ED98
:101C2000000A1548006890ED060A144880ED010A84
:101C300002220146142000F0ABF819480078012870
:101C400012D10D48006890ED0F0A0C4880ED000A93
:101C50000948006890ED100A084880ED010A022248
:101C60000146162000F094F80121880703F0B7FD23
:101C700010BD0000140000202801002014020020E4
:101C800015000020D0110020600000201600002068
:101C900084010020170000201800002019000020F7
:101CA0001A00002010B52021084803F09AFF58B10F
:101CB000064803F0E5FEC4B2204600F009F82021F2
:101CC000024803F0EFFE00BF10BD000000480040D6
:101CD0002A49097881B9A5280ED10021284A117016
:101CE00011460A780978491C254B197025498854F2
:101CF0000121224A11703FE02049097801293BD196
:101D00001F490A780978491C1D4B19701D498854D0
:101D100019460978082926D11A49C979492922D1B1
:101D20000022002104E0174B5B5C1344DAB2491C2B
:101D30000629F8DB13498979914205D00021104B1F
:101D400019700E4B197070470E4949780E4B197077
:101D50000E490C4BD3F802300B600021084B197070
:101D6000064B197000BF06490978082904DB0021D9
:101D7000034A1170014A117000BFE4E742000020DD
:101D800041000020390000204300002044000020D2
:101D90002DE9F04705460E4617460024B8064FEADF
:101DA0001068A146B246A5222146641C1D48425433
:101DB0002146641C45542146641C00F80180002023
:101DC00008E01AF800302146621CD4B2154A535478
:101DD000411CC8B24045F4DB002006E01149095C13
:101DE000494401F0FF09411CC8B2A042F6DB20467D
:101DF000611CCCB20B4901F8009049222046611CBD
:101E0000CCB208490A5408480078012807D1214675
:101E1000064801F0BCFD0121044801F0B3FDBDE816
:101E2000F0870000A01100203800002008000240C8
:101E300000BFFEE70FB4054B10B503A9044A029892
:101E400000F0FAFB10BC5DF814FB00006D410008C7
:101E50000C02002002480068C0F302207047000016
:101E60000CED00E010B5002804DB0A07130E054A4C
:101E7000135406E00A07140E034A00F00F031B1F59
:101E8000D45410BD00E400E018ED00E02DED020B8D
:101E9000019820F0004001909DED000B02B07047CA
:101EA00010B52DED028BF0EE408A18EE900AB0EEE0
:101EB000608A20F00040C0F1FF40C00F07D118EE4B
:101EC000100A20F00040C0F1FF40C00F2BD018EEE8
:101ED000101A18EE900AFEF78EFC00EE100A10EEB3
:101EE000100A6FEAD05010F0FF0F04BFBDEC028B58
:101EF00010BD18EE900A00F0004110EE100A00F03C
:101F00000040814204BFBDEC028B10BD18EE101AD8
:101F100010EE100ABDEC028B61F31E0000EE900A79
:101F200030EE600A10BD18EE900A4FF07F41B1EB21
:101F3000400F1CBF18EE100A5FEA4000C7D1012015
:101F400000F0B2FABDEC028BBDE8104000F094BA8C
:101F500070B5D94B00242DED020B2DED108BDDE972
:101F60001010984205DA20F000429A4201D809D1B7
:101F700041B19DED100BBDEC108B02B0BDE870407F
:101F800000F05EBAB0F5801F26DA11430BD00028AE
:101F900013DA012000F088FABDEC108B02B0BDE826
:101FA000704000F059BA022000F07EFA00F030FADA
:101FB00051EC100B81F000419EE06FF035049FED75
:101FC000C00B53EC102B9DED100B51EC100BFEF7DA
:101FD00022FACDE91001084604EB2051C0F31304A6
:101FE000B948A1F2FF31204400F4801080F07F62F4
:101FF00082F04052224301EB20559FEDB50B119228
:1020000053EC102B9DED100B51EC100BFEF7FDF96E
:1020100041EC180BA01CC0F313009FEDAFDB9FED4C
:10202000B0EBB14E7E4403286CD296ED000B51EC20
:10203000180B53EC102BFEF7F3FA1DD1002D01BF46
:1020400096ED000BBDEC108B02B070BD2846FEF77C
:10205000C3FA41EC180B53EC1D2BFEF7DCF941ECF5
:10206000190B53EC1E2B51EC180BFEF7D4F953EC63
:10207000192BFEF729F93FE09FED9D0B51EC180B52
:1020800053EC102BFEF7C7F99FED9B1B53EC112B64
:10209000FEF7BEF941EC190B53EC182B51EC180B61
:1020A000FEF7B9F953EC192BFEF7B5F941EC190B12
:1020B000002D04BF53EC192B51EC180B1AD02846F5
:1020C000FEF78AFA41EC1A0B53EC1D2BFEF7A3F92D
:1020D00053EC192BFEF79CF953EC182BFEF795F9EE
:1020E00041EC180B53EC1E2B51EC1A0BFEF793F935
:1020F00053EC182BFEF789F9BDEC108B02B041ECC4
:10210000100B70BD9FED7E0B51EC180B53EC102B98
:10211000FEF7DAF841EC100B51EC180B53EC102BD6
:10212000FEF7EBF941EC190B2846FEF755FA41ECA6
:102130001B0B53EC192B51EC190BFEF76CF941EC0E
:102140001A0B714853EC1A2B261851EC1A0BFEF798
:1021500062F941EC1F0B6D48C4F1510404F5D7241A
:10216000B0EE4F0AF0EE6F0A0321784400F0D2F887
:1021700053EC1F2B51EC100BFEF74DF941EC1C0BEF
:102180006348B0EE4F0AF0EE6F0A0421784400F085
:10219000C1F853EC1A2B51EC100BFEF73CF9344309
:1021A00053EC1C2BFEF790F841EC1C0B002C4CDD83
:1021B0009FED510B51EC180B53EC102BFEF72BF944
:1021C00053EC182BFEF727F941EC1A0B55B353ECDF
:1021D0001D2B51EC1B0BFEF71EF941EC1D0B53ECB4
:1021E0001C2B51EC1A0BFEF76FF853EC192BFEF772
:1021F00012F953EC1D2BFEF767F853EC1A2BFEF780
:1022000007F953EC182BFEF700F941EC180B53ECCF
:102210001E2B51EC1B0BFEF7FEF853EC182BFEF7B0
:10222000F4F869E753EC1C2B51EC1A0BFEF74CF851
:1022300053EC192BFEF7EFF853EC1A2BFEF7E8F8E6
:1022400053EC182BFEF7E4F856E735B353EC1D2B8F
:1022500051EC1B0BFEF7DFF841EC1A0B53EC1C2B77
:1022600051EC180BFEF7D1F853EC192BFEF7D3F80D
:1022700053EC1A2BFEF7C9F853EC182BFEF7C5F8F0
:1022800041EC180B53EC1E2B51EC1B0BFEF7C3F863
:1022900053EC182BFEF7B9F82EE753EC1C2B51EC3E
:1022A000180BFEF7B2F853EC192BFEF7B4F853EC09
:1022B000182BFEF7ADF81FE70000F07F00000000CC
:1022C0000000000000005043645F090000000000AF
:1022D000000000000000F03F763C7935EF39EA3D20
:1022E0000000E0FE422EE63F2859000000000000FA
:1022F000555555555555D53F000000000000E03FAD
:10230000000000000000004086EBF9FFAA57000023
:10231000A057000070B504462DED028B4D1E00EB5A
:10232000C500B0EE408AF0EE608A90ED000B35F00B
:10233000060017D053EC182B51EC100BFEF76BF87E
:1023400041EC100B6D1E04EBC50090ED001B51EC31
:10235000100B53EC112BFDF7B7FF41EC100B35F0D0
:102360000600E7D1022D36D0042D1CD0062D1CBF4F
:10237000BDEC028B70BD53EC182B51EC100BFEF72B
:102380004AF894ED0A1B53EC112BFDF79DFF53EC1B
:10239000182BFEF740F894ED081B53EC112BFDF7BA
:1023A00093FF41EC100B53EC182B51EC100BFEF784
:1023B00032F894ED061B53EC112BFDF785FF53EC1F
:1023C000182BFEF728F894ED040B53EC102BFDF7B7
:1023D0007BFF41EC100B53EC182B51EC100BFEF76C
:1023E0001AF894ED021B53EC112BFDF76DFF53EC23
:1023F000182BFEF710F894ED001B53EC112BFDF792
:1024000063FFBDEC028B41EC100B70BD00000000BF
:102410009FED070B10B553EC102B9FED070B51EC04
:10242000100BFEF76AF841EC100B10BD0000000025
:102430000000000000000000000000000000F03F6D
:1024400010B553EC102B51EC100BFDF73DFF41EC98
:10245000100B10BD000000009FED050B10B553ECF4
:10246000102B51EC100BFEF748F841EC100B10BD8F
:102470000000000000000000DFED020A80EEA00A6C
:10248000704700000000000002E008C8121F08C1E9
:10249000002AFAD170477047002001E001C1121FE5
:1024A000002AFBD170470000014908607047000016
:1024B000100200202DE9FF5F82B00021DDE9043029
:1024C000020DDDF840B0034318D044F61050A2F2DC
:1024D000FF3242431514119801281FD0A5EB0B00C1
:1024E000401C5FEA000A4FF000064E4FDFF83891BB
:1024F000B046504615D5CAF1000413E011980124E6
:102500004AA3012801D16FEA0B010298119AC0E990
:102510000031C0E9024206B0BDE8F09FCBF10000F7
:10252000DFE704460021404A491842EB0450CDE958
:10253000001012E0E00707D032463B4640464946CD
:10254000FDF769FF8046894632463B4610461946EC
:10255000FDF761FF06460F466410002CEAD1DDE965
:102560000401DDE90023BAF1000F06DAFDF753FF9D
:1025700042464B46FDF74FFF05E0FDF7BEFF4246E2
:102580004B46FDF7BAFF04460E460022284BFEF7E5
:102590005FF803D84FF0FF30014607E00022254BDB
:1025A00020463146FDF790FEFEF7ABF9102409E016
:1025B000002C0ADB0A220023FEF794F8039B30323A
:1025C0001A55641E50EA0102F2D1641C039AC4F148
:1025D00011031444119A012A03D0012208430DD19A
:1025E0000AE0084304D000204FF0110B119072E76D
:1025F000A3EB0B056D1E0DE05B4504DD4FF0000203
:1026000005F1010504E003DA4FF00002A5F1010530
:10261000002AECD002981199C0E90231C0E90045C6
:1026200079E70000000014400000F03F3000000097
:102630000000F0430000E03F2DE9FF4F95B09A46BF
:10264000884606460025EEE1252877D10024274656
:10265000F94A0121039400E0044316F8013F203BAE
:1026600001FA03F01042F7D130782A2811D06FF028
:102670002F033078A0F13002092A16D8039A44F0CB
:10268000020402EB820203EB42021044761C039028
:10269000EFE758F8042B0392002A03DA504244F47F
:1026A0000054039044F00204761C30782E2816D192
:1026B00016F8010F44F004042A280DD06FF02F0201
:1026C0003078A0F13003092B09D807EB870302EB20
:1026D0004303C718761CF3E758F8047B761C307860
:1026E0006C280FD006DC4C2817D068280DD06A283B
:1026F00014D104E0742810D07A280FD10DE044F4EE
:1027000000140AE044F4801401E044F440147278A8
:10271000824202D104F58014761C761C307866283B
:102720000BD013DC582877D009DC002875D0452859
:10273000F6D04628F4D047281AD193E118E0632850
:1027400035D0642879D0652812D18BE1702873D0F8
:1027500008DC6728F1D069286FD06E280DD06F286B
:1027600006D1ACE073282CD0752874D0782853D0CB
:102770005246179990476D1C54E1C4F30250022849
:1027800009D003280DD0D8F8001004280DD00D6012
:1027900008F1040846E1D8F80010EA17C1E9005230
:1027A000F6E7D8F800100D80F2E70D70F0E718F8A2
:1027B000041B8DF8001000208DF80100EB4601206D
:1027C00003E058F804BB4FF0FF3061074FF0000101
:1027D00002D40DE009F101018946B9420FDA8145C1
:1027E000F8DB1BF809100029F4D108E009F1010118
:1027F00089468142FADB1BF809100029F6D10398BB
:102800005346A0EB090721463846179A00F080FA94
:10281000284400EB090507E044E008E10DE01BF85F
:10282000010B524617999047B9F10109F7D2534667
:1028300021463846179AF2E039E00A21C4F30252E1
:102840004FF0000B0091022A06D058F8040BC11774
:10285000032A09D00AE023E008F1070020F007026C
:10286000F2E80201904605E000B2C117042A01D146
:1028700040B2C117002906DA0A460021404261EB46
:1028800002012D2202E0220504D52B228DF804201E
:10289000012203E0E20701D02022F7E7914657E04A
:1028A0000A2100E010214FF0000B00910BE01021F5
:1028B0004FF0000B44F004040827009103E00820C7
:1028C0004FF0000B0090C4F30252022A05D058F8D2
:1028D000040B0021032A08D008E008F1070020F0CB
:1028E0000702F2E80201904603E080B2042A00D118
:1028F000C0B24FF0000922072AD53278702A07D0DB
:10290000DDF800C08CF0100C5CEA0B0C05D00EE07A
:1029100040228DF80420012208E050EA010306D08D
:1029200030238DF804308DF8052002229146009B5B
:1029300083F0080353EA0B030AD150EA010201D1E4
:10294000620705D530228DF804204FF001097F1E63
:102950003278582A04D039A20C920CAA02920BE0C9
:102960003BA2F9E75B46009AFDF7BCFE0C9B9B5C23
:10297000029A521E0292137050EA0102F2D102989A
:1029800004A9081A00F1200B600702D524F4803452
:1029900000E001275F4502DDA7EB0B0000E000200F
:1029A00000EB0B01009003984944401A0390E003A8
:1029B00006D453462146179A039800F0A9F9054416
:1029C000002706E001A85246C05D179990476D1C8C
:1029D0007F1C4F45F6DBE0030CD553462146179A82
:1029E000039800F095F9054404E030205246179909
:1029F00090476D1C0099481E00900029F5DC08E006
:102A00000298029952460078491C02911799904702
:102A10006D1CBBF10001ABF1010BF1DC5BE100F0DF
:102A200065F90544761C307800287FF40DAE19B0A6
:102A30002846BDE8F08F000009280100303132330C
:102A400034353637383961626364656600000000EA
:102A500030313233343536373839414243444546D4
:102A600000000000600700D4062708F1070020F0EE
:102A70000700F0E80223804603F0004C5FEA0C00F8
:102A800001D097A009E0200501D596A005E0E00758
:102A900001D095A001E0AFF24C001390307823F004
:102AA000004365280CD006DC452809D046281DD0F7
:102AB00047287FD13BE0662818D067287AD136E0D6
:102AC0000021112F01DB112000E0781CCDE900016D
:102AD00004A90CA8FFF7EEFCDDE90D010C9A4FF0FC
:102AE000000B07F10109109200914EE04FF00040F9
:102AF0000097CDE9011004A90CA8FFF7DBFCDDE984
:102B00000D020C9B0F994FF0000B91461093009211
:102B100011B9791C00EB0109B7EB090003D4C0F12E
:102B2000FF3B07F10109A9EB0700019042E0012FEB
:102B300000DA01270021112F01DD112000E03846C5
:102B4000CDE9000104A90CA8FFF7B4FCDDE90D01F3
:102B50000C9A00914FF0000BB946109221070FD448
:102B6000009A4A4503DA914601E0A9F10109B9F159
:102B7000010F05DD109AA9F10101515C3029F4D053
:102B8000B84202DA10F1040F03DA0121CDE9011095
:102B900010E0002803DC8344A9EB000102E0411CA3
:102BA000494500DD8946A0EB0B00401C01904FF029
:102BB00000400290200705D40198484502DB4FF001
:102BC000FF30019000208DF84B0002980DF14B076B
:102BD000B0F1004F25D002200C902B200D900298D0
:102BE00000280CDA404202902D200D9007E00A21C7
:102BF0000298FDF761FD3031029007F8011D0C9934
:102C0000481E0C900029F2DC02980028EFD1791EB2
:102C10000D980870307800F0200040F0450007F86B
:102C2000020D11A8C01BC01D02901398007800B1BE
:102C3000012000EB0901019801EBE07102980144C9
:102C40000398401A401E0390E00306D453462146E1
:102C5000179A039800F05CF805441398007818B1AF
:102C60005246179990476D1CE00323D553462146E1
:102C7000179A039800F04CF805441BE0BBF1000FD5
:102C800007DB0098584504DD1098179910F80B00E1
:102C900001E0179930205246904701980BF1010B43
:102CA000401E05F10105019004D12E2052461799CE
:102CB00090476D1CB9F10001A9F10109DEDC05E0C6
:102CC00017F8010B5246179990476D1C0299481E40
:102CD00002900029F4DC53462146179A03989EE699
:102CE0002D0000002B000000200000002DE9F04125
:102CF000044600251E461746880404D405E03946DC
:102D00002020B0476D1C641EF9D52846BDE8F0812F
:102D10002DE9F041044600251E469046C80301D522
:102D2000302700E02027880404D505E041463846D6
:102D3000B0476D1C641EF9D52846BDE8F0810B78BC
:102D4000426863F3082242604B78826863F3410271
:102D500082608B78826863F3CB228260CA78521ECD
:102D6000C36A62F31753C362704700210170417058
:102D700081700121C1707047816821F0080108311C
:102D80008160704701468868C0F3C00008B1012027
:102D900070470020FCE7816821F00401091D816073
:102DA000704701468868C0F3800008B10120704771
:102DB0000020FCE70349096860F31341014A1160F0
:102DC0007047000004240140826861F300028260C1
:102DD0007047CA43026070470246002013680B40E8
:102DE00003B900E001207047012A03D143680B4377
:102DF000436003E012B943688B4343607047024667
:102E00000020012904D002290CD004291ED113E08E
:102E1000136803F0010323B15368C3F3801303B1B4
:102E2000012014E01368C3F3400323B15368C3F3D4
:102E3000401303B101200AE01368C3F3800323B1F8
:102E40005368C3F3C01303B1012000E000BF00BF0B
:102E5000704770B504460A290CDA206901EB410677
:102E60000725B540A84301EB410503FA05F52843C2
:102E700020610FE0E068A1F10A0505EB4506072592
:102E8000B540A843A1F10A0505EB450503FA05F590
:102E90002843E0600D2A10DBE06AA2F10D0505EB86
:102EA00085061F25B540A843A2F10D0505EB850554
:102EB00001FA05F52843E0621EE0072A0EDB206BCD
:102EC000D51F05EB85061F25B540A843D51F05EB8B
:102ED000850501FA05F5284320630DE0606B551E5A
:102EE00005EB85061F25B540A843551E05EB850556
:102EF00001FA05F52843606370BD0146C86C80B2D5
:102F0000704707290ADD836823F0007303F100731B
:102F10008360836861F35343836007E0836823F031
:102F200000738360836861F353438360836862F353
:102F3000145383607047426861F3CB22426070474C
:102F4000826861F39652826070474A1E836B62F317
:102F5000155383637047F0B514460A290CDA0269E9
:102F600001EB41070726BE40B24301EB410603FADD
:102F700006F6324302610FE0C268A1F10A0606EBD1
:102F800046070726BE40B243A1F10A0606EB4606F5
:102F900003FA06F63243C260866BC6F30157E61C9D
:102FA000F61BF5B2012D06D0022D09D0032D0CD051
:102FB000042D14D10EE0866B61F3040686630FE0E6
:102FC000866B61F3491686630AE0866B61F38E2691
:102FD000866305E0866B61F3D336866300E000BF4D
:102FE00000BFF0BD0246002031B1012907D00229FF
:102FF00008D003290CD108E0D36B98B209E0136C18
:1030000098B206E0536C98B203E0936C98B200E07B
:1030100000BF00BF704707290ADD836823F0807373
:1030200003F180738360836861F30E33836007E08C
:10303000836823F080738360836861F30E33836059
:10304000836862F3CF338360704731B1012909D0BF
:1030500002290CD0032914D10EE0436962F30B035B
:1030600043610FE0836962F30B0383610AE0C36984
:1030700062F30B03C36105E0036A62F30B030362AF
:1030800000E000BF00BF704710B5044613488442FB
:1030900008D10121124800F0C3FB0021104800F0C4
:1030A000BFFB1AE00F4884420AD101210C48401CA2
:1030B00000F0B6FB00210A48401C00F0B1FB0CE018
:1030C0000948844209D101210548801D00F0A8FB70
:1030D00000210348801D00F0A3FB10BD0024014027
:1030E00009000C0000280140003C014080ED000A6E
:1030F000F0EE001AB0EE401A01EEA01ADFED031A4E
:1031000021EE211A81ED001A7047000056CE133FC0
:103110000EB501221146900702F064FB0122022144
:10312000DA4800F0CDFC0122D949DA4802F03EFD30
:10313000D94800F05FFFD8484068D849096848641A
:10314000D548C068D54909688864D34890ED000A1D
:10315000D248006880ED160A01F06CF8D04800688B
:10316000FDF754FFDFEDCF0A9FEDCE0ACB48006894
:10317000FEF73EFCF2EE081A9FEDCA1ADFEDCA0A0E
:103180009FEDCA0AC5480068FEF7E2FB00200090E8
:10319000019002901023C64AC6A1C84801F0A7F9C1
:1031A000002471E1C648007870B1C44801F09CF970
:1031B00050B90121C14801F0A1F9322002F022FFEB
:1031C0000021BE4801F09AF9BD48007824286FD24A
:1031D000DFE800F06E12484D52606F6E969DA3AE10
:1031E000B5BBC8CFD5DCE2F4FAF1F0EFEEED6E6ED0
:1031F0006E6E6E6EECEBEAE9A74800F0FBFEA648A7
:103200004068A64909684864A348C068A34909689A
:103210008864A14890ED000AA048006880ED160A75
:103220009E48006890ED110AB8EEC00A8DED000AC4
:103230009A48006890ED120AB8EEC00A8DED010AB6
:103240009648006890ED160A8DED020A0322694641
:103250000120FEF79DFD01209A4908700020984941
:10326000087006E1012400209549087001E100245E
:10327000002093490870FCE0934890ED000ABDEEF1
:10328000C00A924880ED010A00F004FF00208C493A
:103290000870EEE08C4890ED000ABDEEC00A8B4845
:1032A00080ED030A00F0F6FE002085490870E0E09A
:1032B000DEE00121814801F021F985498548FDF7CB
:1032C000D5FB844890ED000A8DED000A804890ED12
:1032D000000A8DED010A7F4890ED000A7B4880EDE1
:1032E000000A00F0D7FE022269460720FEF750FDD3
:1032F0000021724801F002F9002071490870B8E01D
:1033000001207549087000206D490870B1E0002067
:10331000714908706A490870ABE06B4890ED000A8B
:103320005E48006880ED0D0A002065490870A0E045
:1033300001206A49087000206149087099E0002066
:10334000664908705E49087093E000F099FF8DEDC2
:10335000000A012269460D20FEF71AFD0020584997
:10336000087086E001205E4908700020544908700A
:103370007FE000205A4908705149087079E0012027
:103380005849087000204E49087072E000205549E5
:1033900008704B4908706CE0012053490870002008
:1033A0004749087065E05AE050E046E03CE030E014
:1033B00024E01DE015E00EE006E0FFE700204A49AA
:1033C00008703F49087054E0012048490870002007
:1033D0003B4908704DE000204449087038490870A6
:1033E00047E001204249087000203549087040E05C
:1033F00000203F490870324908703AE0324890EDA9
:10340000000A2648006880ED290A00202C4908702F
:103410002FE02D4890ED000A2048006880ED2A0A30
:1034200000202749087024E001201C49096881F820
:10343000B4000020224908701BE0022017490968E7
:1034400081F8B40000201E49087012E003201349DF
:10345000096881F8B40000201949087009E00420C7
:103460000E49096881F8B40000201549087000E091
:1034700000BF00BF012C04D101221E490220FEF72B
:1034800087FC052002F0BEFD8CE60000080002402B
:1034900005000C0000480040B01100202801002069
:1034A00088010020000000009A99993F0AD7233C28
:1034B000000C01404C454431000000002002002077
:1034C000430000201B00002044000020C011002009
:1034D000100000200C000020140000201500002027
:1034E00016000020170000201800002019000020FE
:1034F0001A000020000000202DED028B84B0012274
:1035000080211448FFF770FC41F2F762062112484F
:1035100002F042F9002001900290039018E00F4859
:1035200001780FA0FEF786FC0C48007801280CD12A
:103530000D48008801F01EF8B0EE408A8DED018A3A
:10354000012201A92420FEF723FC642002F05AFD89
:10355000E5E7000000240140002C01401B00002092
:1035600025640D0A00000000060000200649496895
:1035700060F38F31044A516082080349496862F35D
:103580001C71014A516070470010024003494968AC
:1035900060F30711014A51607047000000100240BB
:1035A0000349496860F30A21014A516070470000ED
:1035B000001002400349496860F3CD21014A51607F
:1035C0007047000000100240012807D10749496DEB
:1035D00021F030013031054A516505E00349496D5C
:1035E00021F03001014A516570470000001002408F
:1035F000052827D2DFE800F0030A11181F00134A3C
:10360000126861F30002114B1A601CE00F4A126845
:1036100061F310420D4B1A6015E00C4A126861F319
:1036200018620A4B1A600EE0084A126A61F300023F
:10363000064B1A6207E0054A526A61F30002034B27
:103640005A6200E000BF00BF704700000010024057
:103650002DE9F04101460027002200259046002375
:10366000002400F087F9064626B1012E12D0022E62
:1036700043D112E03948406DC0F3402038B137489B
:10368000006BC0F3406010B13548086001E0354878
:10369000086035E03348086032E030484068C0F3E5
:1036A00000482E484068C0F383422C484068C0F36D
:1036B00041750DB90F2A03D12801401C024400E0D6
:1036C000921CB8F1000F03D127485043086013E063
:1036D00022484068C0F3404058B12048406DC0F3D4
:1036E0000137B81CDFF87CC0BCFBF0F05043086029
:1036F00002E01C485043086002E01A48086000BF1E
:1037000000BF16484068C0F303131848C45C08683B
:10371000E040486011484068C0F302231448C45C8C
:103720004868E040C8600D484068C0F3C2231148B3
:10373000C45C4868E040886008484068C0F3007393
:1037400006484068C0F3813040EA83030A48C45CFD
:103750008868B0FBF4F00861BDE8F0810010024019
:10376000006CDC0200127A0000093D00DC780008E1
:10377000EC780008F4780008FC78000810B50146E1
:103780000020094B03EB1142126801F01F040123D2
:10379000A3401A4001F01F040123A3409A4200D025
:1037A00000E0012010BD00000010024030B50024F0
:1037B000002500E0641C1120FFF7E0FF012802D083
:1037C000B4F5405FF6D31120FFF7D8FF012801D0F0
:1037D000002500E00125284630BD000010B5012974
:1037E0000DD10E4B03EB1042126800F01F040123B1
:1037F000A3401A43094C04EB10431A600CE0074B3A
:1038000003EB1042126800F01F040123A3409A4307
:10381000024C04EB10431A6010BD0000001002407F
:1038200010B501290DD10E4B03EB1042126800F0C8
:103830001F040123A3401A43094C04EB10431A60F0
:103840000CE0074B03EB1042126800F01F04012349
:10385000A3409A43024C04EB10431A6010BD0000D1
:103860000010024010B568B91C4B5B6823F480332C
:103870001A4C636023461B6B23F0007303F1007343
:10388000236317E0154B5B6823F4803303F5803323
:10389000124C6360012805D123465B6823F4003392
:1038A000636007E00D4B5B6823F4003303F50033DE
:1038B0000A4C6360094B5B6861F39543074C636096
:1038C0000C09064B5B6864F35E73044C636023462B
:1038D0005B6862F3DF73636010BD0000001002409C
:1038E0001348006820F00100401C1149086000BF27
:1038F0000F480068C0F340000028F9D00C48406829
:1039000020F003000A49486000BF09484068C0F33E
:1039100081000028F9D1064800680649084004499A
:1039200008600020486008634FF41F0088607047FB
:1039300000100240FFFFF2FE0D49496860F30101EB
:103940000B4A516000BF00BF00BF00BF00BF00BFF7
:1039500000BF00BF00BF00BF00BF00BF00BF00BF6F
:1039600000BF00BF00BF00BF00BF00BF7047000026
:103970000010024002484068C0F381007047000018
:1039800000100240026861F300020260704741606B
:1039900070470021016041600181418101734173E1
:1039A0008173C1730174417470470000B0F1805F8E
:1039B00004D920F07041034A116001E002494860D7
:1039C000704700000404024000000240D0F8A43018
:1039D000C3F300633BB9D0F8A43023F0807303F144
:1039E0008073C0F8A430012906D1D0F8A03062F36A
:1039F0000703C0F8A03034E0022906D1D0F8A03087
:103A000062F30F23C0F8A0302BE0032906D1D0F8D1
:103A1000A03062F31743C0F8A03022E0042906D199
:103A2000D0F8A03062F31F63C0F8A03019E0052978
:103A300006D1D0F8A43062F30703C0F8A43010E038
:103A4000062906D1D0F8A43062F30F23C0F8A430C1
:103A500007E0072905D1D0F8A43062F31743C0F876
:103A6000A430704702684BF6EF731A400260026898
:103A70000B891A4302604B7C026863F30D320260CB
:103A8000CB7B026863F38B2202608B7B026863F35B
:103A9000092202604B7B026863F3C71202600B7B52
:103AA000026863F3861202600B7C026863F34512BE
:103AB00002604A8942600A6882604A68C260704750
:103AC0001AB103680B43036002E003688B43036091
:103AD00070470000014600200022B1F1805F02D94A
:103AE000054B1A6801E0054B1A6802EA01030BB1A5
:103AF000012000E000207047000402400000024066
:103B00000021026822F0010202600022026042608D
:103B10008260C260014640F2FF420A40B2F5816F06
:103B20000DD2CAB2083A1423B2FBF3F293000F226B
:103B30009A400D4B5B681A430B4B5A6012E040F2FF
:103B4000FF420A40B2F5916F0CD2CAB2083A142370
:103B5000B2FBF3F293000F229A40044B1B681A4306
:103B6000024B1A607047000000000240040402404B
:103B7000F0EE400A9FED270A20EE800ABDEEC00A53
:103B800010EE100A00EE100AB8EEC01ADFED221A8D
:103B9000B0EE600A01EE610AF0EE400A00F00101A9
:103BA00079B1F5EEC00AF1EE10FA04DD9FED1A0AC4
:103BB00030EEC00A03E09FED180A30EE800AF0EE06
:103BC000400A20EEA00ADFED151AB0EE611ADFED13
:103BD000141A41EE001AB0EE611ADFED121A41EE2E
:103BE000001AB0EE611ADFED101A41EE001AB0EEC5
:103BF000611ADFED0E1A41EE001AB0EE611ADFED28
:103C00000C1A41EE001A20EEA01AB7EE000A01EEDF
:103C1000210A704783F9A23EDA0F4940F2A3ED3042
:103C2000017591B4B3CCCF371408B6BA83AA2A3D34
:103C3000FDFFFFBEF0EE400A9FED280A20EE800A4D
:103C4000BDEEC00A10EE100A00EE100AB8EEC01A5F
:103C5000DFED231AB0EE600A01EE610AF0EE400AD1
:103C600000F0010179B1F5EEC00AF1EE10FA04DDC1
:103C70009FED1B0A30EEC00A03E09FED190A30EEFB
:103C8000800AF0EE400A20EEA00ADFED161AB0EE30
:103C9000611ADFED151A41EE001AB0EE611ADFED80
:103CA000131A41EE001AB0EE611ADFED111A41EE5F
:103CB000001AB0EE611ADFED0F1A41EE001AB0EEF5
:103CC000611ADFED0D1A41EE001A20EEA00A20EE77
:103CD000201AB0EE600A01EE210A704783F9A23E75
:103CE000DA0F49407ABF142FCA32D4B235C53836FC
:103CF0009E0A50B97888083CAAAA2ABE03200B491C
:103D0000C96801F0010109B100200EE00749C96846
:103D1000C1F3800109B1012007E00449C968C1F37A
:103D2000001109B1022000E003207047002002408A
:103D300000B502460323FFF7E1FF034603E0FFF768
:103D4000DDFF0346521E0BB9002AF8D102B9042345
:103D5000184600BD03200B49C96C01F0010109B1EF
:103D600000200EE00749C96CC1F3800109B10120B0
:103D700007E00449C96CC1F3001109B1022000E059
:103D8000032070470020024000B502460323FFF7DE
:103D9000E1FF034603E0FFF7DDFF0346521E0BB9C8
:103DA000002AF8D102B90423184600BD70B50446B4
:103DB0000D460326B4F1006F16D32848844213D869
:103DC0002748006920F00100401C25490861258032
:103DD0004FF48010FFF7ACFF06462148006920F041
:103DE00001001F49086136E01C48401C844216D37C
:103DF000B4F1016F13D21A48006D20F00100401C8D
:103E00001749086525804FF48010FFF7BDFF06466F
:103E10001348006D20F00100114908651BE0B4F162
:103E2000046F18D30E489030006820F00100401C49
:103E30000B499031086025804FF4801000F0B8F8ED
:103E400006460748D0F8900020F001000449C1F868
:103E5000900000F087F8304670BD0000FFFF0708B3
:103E6000002002400648006920F0800080300449AC
:103E700008610846006D20F08000803008657047BA
:103E80000020024030B504460325B4F1006F1BD377
:103E90003248844218D83248006920F00200801C61
:103EA0002F49086108464461006920F04000403015
:103EB00008614804FFF73CFF05462948006920F0E7
:103EC00002002749086146E02448401C84421BD375
:103ED000B4F1016F18D22248006D20F00200801C5E
:103EE0001F49086508464465006D20F040004030D9
:103EF00008654804FFF748FF05461948006D20F0A3
:103F000002001749086526E0B4F1046F23D3144872
:103F10009030006820F00200801C1149C1F8900028
:103F20000846C0F894400E489030006820F04000E9
:103F300040300B49903108604FF0FF3000F038F806
:103F400005460748D0F8900020F00200044990315F
:103F5000086000F007F8284630BD0000FFFF0708A2
:103F6000002002404FF004600068024800680248E8
:103F700000687047001040080020400803200B49EB
:103F8000096801F0010109B100200EE00749096844
:103F9000C1F3800109B1012007E004490968C1F3B8
:103FA000001109B1022000E0032070478C2002407C
:103FB00000B502460323FFF7E1FF034603E0FFF7E6
:103FC000DDFF0346521E0BB9002AF8D102B90423C3
:103FD000184600BD04480549486005484860024845
:103FE0004864034848647047230167450020024045
:103FF000AB89EFCD70B586B0064613A0FDF71AFF6A
:10400000002415E015482044B0F8005802A90D55C9
:10401000290A02AA601C115402A9085C009002A897
:10402000035D0F4821182A460EA0FDF703FFA41CCC
:10403000102CE7D316A0FDF7FDFE02A80FC886E8F6
:104040000F0006B070BD000052656164696E6720A4
:10405000466C6173683A0D0A0000000000F0030826
:1040600000F803082020416464722030782530383D
:1040700058203A20307825303458202D3E20307892
:1040800025303258203078253032580D0A00000093
:104090000D0A0000F0B585B0054695E80F0001ACAB
:1040A0000FC4FFF797FF1948FFF7ECFE032806D06F
:1040B00017A0FDF7BFFEFFF7D5FE05B0F0BD1AA0B3
:1040C000FDF7B8FE002417E001A8015D01AA601CFD
:1040D000105C41EA00260D4960183146FFF766FE84
:1040E00001AF601C00963B5C01A8025D07482118E7
:1040F00012A0FDF79FFEA41C102CE5D31AA0FDF71B
:1041000099FEFFF7AFFE00BFD7E7000000F80308F5
:10411000466C617368206572617365204552524F29
:1041200052210D0A0000000057726974696E672001
:10413000466C6173683A0D0A00000000202041645B
:10414000647220307825303858203A203078253075
:10415000325820307825303258202D3E20307825B6
:104160003034580D0A0000000D0A000070B50446F6
:104170000D4600BF8021094801F09DFC0028F9D0C0
:10418000A1B2064801F080FC00BF4021034801F0C5
:1041900092FC0028F9D0204670BD00000048004085
:1041A00010B503220021012002F074FD01490860CE
:1041B00010BD0000240000200EB50F480F4900225A
:1041C0001346CDE9002102904FF480720CA10F48F4
:1041D00003F0D0F80E4908600E480F49002213463C
:1041E000CDE9002102904FF480720CA10F4803F03A
:1041F000C1F80F4908600EBD300A002030020020CF
:10420000636F6D6D5F7461736B00000011310008A6
:104210001C0000208C0A002030060020636F6E74A2
:10422000726F6C5F7461736B00000000F9340008FA
:104230002000002010B5002000210022002309E00A
:104240000D4C246820440C4C646821440A4CA4683A
:1042500022445B1C102BF3DBC0F30F13074C2468C4
:10426000E380C1F30F13054C24682381C2F30F13BD
:10427000024C2468638110BDD01100202801002069
:1042800010B52DED028B0423022219461A48FEF7C1
:10429000E0FD02211848FEF79CFD01211648FEF7BB
:1042A0004FFE00BF02211448FEF796FD0028F9D00A
:1042B00002211148FEF78DFD0F48FEF71EFE0F4943
:1042C00008800846008800EE100AB8EE400A9FED0C
:1042D0000C1AC0EE010A9FED0B0A20EE800AF3EEE5
:1042E000050A20EE200AF7EE000A80EE208AB0EEE2
:1042F000480ABDEC028B10BD0024014004000020E0
:10430000000080453333534041617047016170477D
:104310004FF6FF710160002181710171042141712B
:104320000121C1717047F0B50A461588ABB2957985
:10433000032D01D100241AE0957965B9557905F06E
:104340000F045579182D01D1036110E05579282DFE
:104350000DD143610BE0957905F00805167906F05B
:1043600004063543D67906F0030645EA0604DDB2B5
:10437000A5B1002110E001258D401D405DB105680B
:104380008F000F26BE40B543056005688E0004FA15
:1043900006F635430560491C0829ECD3FF2B15DDD3
:1043A0001B12002110E001258D401D405DB14568C4
:1043B0008F000F26BE40B543456045688E0004FA65
:1043C00006F635434560491C0829ECD3F0BD0000D2
:1043D000F0B50C46104F07EB1062C0F30741C0F375
:1043E0000725C6B2C5F12007A7EB010C4FF0FF3738
:1043F00007FA0CF3C5F120077F1AFB40CB408B4036
:1044000017689F4317602CB106FA01FC176847EA4A
:104410000C071760F0BD000000000140194BD3ED00
:10442000001AB0EE002A81EE821A31EE001A80EDF9
:10443000001ADFED151AB0EE401A11EEA01AB0EE18
:10444000002AC1EE021A93ED001AB0EE002AC1EE66
:10445000022A31EEA21A81ED001ADFED0C1AB0EE3D
:10446000401A11EEA01AB0EE002AC1EE021A93ED26
:10447000001AB0EE002AC1EE022A31EEA21A82ED35
:10448000001A7047580000202DB2DD3F2DB2DDBF6D
:1044900070B52DED048BB0EE408AF0EE608AB0EE80
:1044A000419A04460D46B0EE490AFFF7C3FBF1EE10
:1044B000480A60EE209AB0EE490AFFF759FB48EE31
:1044C000809AC4ED009AB0EE490AFFF751FB60EE06
:1044D000089AB0EE490AFFF7ADFB48EE809AC5EDA9
:1044E000009ABDEC048B70BD0146C868704710B5DA
:1044F0000160426083600024C46010BD70B5044652
:104500000D462DB1228991B26068FFF7FDFE04E0EF
:10451000228991B26068FFF7F9FEE56070BD000086
:1045200002F0CAF802F032F801F048FF01F0BAFFD9
:1045300001F084FF01F092FE01F048FF10230A4AC7
:104540000A490B4801F06AFF01210948FFF71AFAEE
:1045500002F084FA02F050F802F0FAF802F058FA89
:1045600001F060FF00BFFEE7A011002004480040FA
:10457000080002402DE9F0412DED0C8B0546002D81
:1045800005DC9FED5E0ABDEC0C8BBDE8F081284692
:10459000FCF722F841EC190B9FED590B53EC102B53
:1045A000FCF756F802D89FED550AECE72846FCF7D1
:1045B00013F841EC1B0B9FED520B53EC102BFBF748
:1045C0009CFF41EC1A0B9FED500B53EC102BFBF7AB
:1045D00022FF41EC190BFCF753F804462046FCF788
:1045E0000CF841EC190B9FED4A0B53EC102BFCF728
:1045F00017F80BD92046FCF700F841EC190B9FED9A
:10460000420B53EC102BFCF723F802D89FED3B0A2A
:10461000B9E72046FBF7F1FF41EC1C0B53EC1C2BD8
:104620009FED390B51EC100BFBF767FF41EC1B0BB7
:104630009FED390B53EC102BFBF7E7FE41EC1A0B07
:104640009FED370B53EC102BFBF7E5FE41EC190BFC
:10465000FCF716F806463046FBF7CFFF41EC1D0B82
:104660009FED2F0B53EC102BFBF747FF41EC1C0B7E
:10467000B0EE4C0AF0EE6C0AFDF76AFCB0EE40BA00
:10468000F0EE60BA9FED280B53EC102B51EC1B0B96
:10469000FBF7C1FE41EC1A0B9FED250B53EC102BE1
:1046A000FBF712FE41EC190BFBF7EAFF0746384611
:1046B000FBF7A3FF41EC1A0B53EC1A2B9FED160BE3
:1046C00051EC100BFBF719FF41EC190BFBF7D8FF6E
:1046D00080464046FBF791FF41EC1A0B9FED160B0D
:1046E00053EC102BFBF791FE41EC190BFBF7C8FFC5
:1046F00008EE100AB0EE480A45E70000339388C37D
:104700000000000000FEAF406666666666660A400E
:104710000000000000000000000000000000F03F6A
:10472000000000000088C34081D91E7E6597303F9D
:1047300083DBB5DCE1796B3F6666666666127140C5
:104740002DE9F0470B4614464FF0000C00BF2C4AF1
:104750001268C2F302211D4626460A46C2F1070925
:10476000B9F1040F02D94FF0040901E0C2F10709C1
:10477000C84602F10409B9F1070F02D24FF000094F
:1047800001E0A2F103094F464FF0010909FA08F9C7
:10479000A9F1010909EA050909FA07F94FF0010A27
:1047A0000AFA07FAAAF1010A0AEA060A49EA0A0914
:1047B000CC4601466246002904DB15072E0E114D3A
:1047C0006E5407E015072F0E0D4D0C3501F00F0646
:1047D000361FAF5500BF014600290DDB00BF00BFEB
:1047E00001F01F050122AA404D09AD0005F1E025A9
:1047F000C5F8002100BF00BF00BFBDE8F087000082
:104800000CED00E000E400E000BF00F00702064B02
:1048100019684FF6FF031940044B0B4343EA02218A
:10482000014B196000BF70470CED00E00000FA0575
:1048300070B52DED048BB0EE408AF0EE608AB0EEDC
:10484000419A04460D46B0EE490AFFF791F960EE31
:10485000089AB0EE490AFFF7EDF948EE809AC4EDE8
:10486000009AB0EE490AFFF7E5F9F1EE480A60EE6A
:10487000209AB0EE490AFFF77BF948EE809AC5ED21
:10488000009ABDEC048B70BD2DE9F04105460E4643
:104890001648076816480068001D01F02AFA681CCF
:1048A00038B936B112480168091D124801F078FA8A
:1048B0001AE07C190E4800684460BC4207D20C48DC
:1048C0000168091D0C48006801F050FA0CE0084826
:1048D0000168091D0948006801F048FA08480068A5
:1048E000844201D206480460BDE8F081AC0100209A
:1048F00098010020BC130020A00100209C01002092
:10490000C801002010B5044601F056FA244800689A
:10491000401C234908602348006840B921480460CE
:104920000846006801280DD100F0FCF90AE01E4895
:10493000006838B91B480068C06AE16A884201D83B
:104940001848046019480068401C18490860084667
:10495000006860641649E06A0968884202D914490F
:10496000E06A0860E16A01EB8101124A02EB810012
:10497000211D01F015FA01F049FA0B48006868B1F1
:1049800008480068C06AE16A884207D24FF0805048
:1049900009490860BFF34F8FBFF36F8F10BD000050
:1049A000A801002098010020B4010020C4010020CB
:1049B000B00100202C12002004ED00E008B501F049
:1049C000FBF912480068E8B9114801F0BFF9114835
:1049D00001F0BCF90E48104908600E480F49086004
:1049E00000200F4B0F4A102100900A2002F0A6F978
:1049F000064908600846006820B10BA1034800681A
:104A000001F0C4FA01F002FA08BD0000E001002044
:104A1000D0130020E4130020D8010020DC01002086
:104A2000F813002048140020546D7251000000005B
:104A300010B516E001F0C0F90C48C068C468201D2C
:104A400001F057F90A480068401E09490860094802
:104A50000068401E0749086001F0D8F9204600F0C0
:104A60005FF8044800680028E4D110BDA8130020B6
:104A7000A8010020A401002070B504460D46206C5A
:104A800070B1216CE0680144E160D4E90210884211
:104A900001D32168E1602846226CE168FBF7F0FB56
:104AA00070BD2DE9F04104460F4615464FF0000851
:104AB000A66B206C48B9206800282CD1A06802F0B1
:104AC0006FFD80460020A06025E07DB93946226C4C
:104AD0006068FBF7D5FB216C606808446060D4E92E
:104AE0000101884217D32068606014E03946226CC7
:104AF000E068FBF7C5FB216CE068411AE1602168C2
:104B0000E068884203D2216CA068411AE160022D5E
:104B100001D106B1761E701CA0634046BDE8F0814D
:104B200010B5044694F8590030B9206B01F08CF9A7
:104B3000204601F089F91AE094F85900012803D1C0
:104B4000204601F081F912E094F85900022801D1C1
:104B5000012000E0002050B900BF502080F31188F0
:104B6000BFF34F8FBFF36F8F00BF00BFFEE710BDD5
:104B70000146084A126812680AB9012200E00022C0
:104B80000A600A6822B9034A1268D268106800E015
:104B900000207047D801002030B54FF4205317484B
:104BA00000F007042CB1C01D20F00700134C041BBB
:104BB0001B1B0246124C22600024114D6C60D01861
:104BC000083820F007000F4C206000240D4D2D68A0
:104BD0006C600C4D2D682C601146441A4C60094CD9
:104BE00024680C60084D4C682C60084D4C682C60A3
:104BF0004FF00044064D2C6030BD0000E81400204A
:104C0000EC010020F4010020FC010020F80100204C
:104C10000802002000BFFFF70BFF064800680128CC
:104C2000F9D94FF0805004490860BFF34F8FBFF3AC
:104C30006F8FF0E72C12002004ED00E02DE9F04129
:104C400006460D4617469846069C0DB9246000E0BE
:104C50002760E66325640121204602F0DFF884F82E
:104C60004C80BDE8F0812DE9F05F82460E4690460B
:104C70009B460A9F0C9C4FEA8801A522206BFBF7FC
:104C800011FBA8F10100216B01EB800929F0070954
:104C900009F0070008B9012000E0002050B900BF6A
:104CA000502080F31188BFF34F8FBFF36F8F00BF89
:104CB00000BFFEE786B1002507E0715D04F1340016
:104CC0004155705D00B902E06D1C102DF5D300BF99
:104CD00000214320015502E0002084F83400102F09
:104CE00000D30F27E762E76400202065201D01F054
:104CF0003AF804F1180001F036F82461C7F1100009
:104D0000A06164620020606584F858005A465146EC
:104D1000484600F07FFB20600B9808B10B980460B8
:104D2000BDE8F09F10B5002407E004EB84010F4AB2
:104D300002EB810001F00AF8641C102CF5D30C483A
:104D400001F004F80B4801F001F80B4800F0FEFFF9
:104D50000A4800F0FBFF0A4800F0F8FF0448094940
:104D6000086004480849086010BD00002C120020AB
:104D70006C1300208013002094130020A81300203F
:104D8000BC1300209C010020A001002010B50146AA
:104D9000164800E0006803688B42FBD30246436874
:104DA00013448B4204D143684C682344436001465A
:104DB0000A464B6813440468A34211D10C4C0368A3
:104DC0002468A34208D04B680468646823444B609D
:104DD00003681B680B6005E0054B1B680B6001E076
:104DE00003680B60884200D0016010BDEC01002018
:104DF000F40100202DE9F04104460D4616461F46F9
:104E00004FF0000865602461B5420CD8F01BA16921
:104E1000884202D34FF0010811E0211D09480068C3
:104E200000F0A4FF0BE0BE4204D2BD4202D34FF01B
:104E3000010804E0211D0448006800F097FF404687
:104E4000BDE8F081DC010020D801002070B50546E6
:104E500000F0B2FFA86B08B9012400E0002400F0C4
:104E6000D5FF204670BD70B5054600F0A5FFA86BC4
:104E7000E96B884201D1012400E0002400F0C6FF64
:104E8000204670BDF8B505460F461A480068C06850
:104E9000C468201D00F02DFF94F8280000F00400E5
:104EA000E8B1A06941192B463A462046FFF7A2FF18
:104EB000D8B1002003462A4601460090204602F061
:104EC000CBFC064656B900BF502080F31188BFF3D3
:104ED0004F8FBFF36F8F00BF00BFFEE705E094F870
:104EE000280020F0010084F828002046216A884725
:104EF000F8BD0000D8010020F0B587B0A0E003980D
:104F0000002811DA04AE56B900BF502080F3118892
:104F1000BFF34F8FBFF36F8F00BF00BFFEE7D6E92F
:104F20000020B168904700BF03980028E6DB059C8D
:104F3000606908B9012000E0002010B9201D00F0D0
:104F4000D8FE02A800F0DCF8054603980A2875D2BE
:104F5000DFE800F009050739416306083A4200BF5F
:104F600000BF00BF00BF94F8280040F0010084F8A3
:104F700028000498A269811803462A462046FFF7B4
:104F800039FFF8B12046216A884794F8280000F0DC
:104F90000400B8B1002000900498A16942180023D1
:104FA0001946204602F058FC074657B900BF50206A
:104FB00080F31188BFF34F8FBFF36F8F00BF00BF27
:104FC000FEE700BF3BE000BF94F8280020F001009E
:104FD00084F8280033E000BF94F8280040F0010076
:104FE00084F828000498A061A06908B1012000E0BD
:104FF000002050B900BF502080F31188BFF34F8FBD
:10500000BFF36F8F00BF00BFFEE7A06941192B46B9
:105010002A462046FFF7EEFE11E094F8280000F043
:10502000020018B9204600F00FFF05E094F82800B0
:1050300020F0010084F8280001E0FFE700BF00BF76
:10504000002203A90448006802F098F800287FF4C1
:1050500056AF07B0F0BD0000E0010020F8B50546EE
:105060000C4601F0ABF8684600F04AF80646009896
:1050700020BB44B9B54206D802F030FB3146284681
:10508000FFF700FF1CE03CB10E480068006808B95B
:10509000012000E000200446A91B22460A480068BF
:1050A00000F08AFF02F01AFB50B94FF08050074918
:1050B0000860BFF34F8FBFF36F8F01E002F00EFB6C
:1050C000F8BD0000DC010020E001002004ED00E05C
:1050D00009480068006808B9012000E0002020B1FC
:1050E0004FF0FF300549086005E003480068C068DC
:1050F00000680249086070479C010020C801002038
:1051000070B5044602F0A4F90546074800688542D8
:1051100004D200F00BF80120206001E000202060A4
:1051200001480560284670BDE80100202DE9F843DC
:1051300034E025480068C068056823480068C068F6
:10514000C468201D00F0D5FD2046216A884794F8E8
:10515000280000F0040008B3A0694619AE4207D940
:1051600066602461211D1848006800F0FFFD15E00D
:10517000002003462A4601460090204602F06CFBC0
:10518000074657B900BF502080F31188BFF34F8FF7
:10519000BFF36F8F00BF00BFFEE700BF0A48006883
:1051A000006808B9012000E000200028C1D00648AE
:1051B000D0F8008005480068034908600348C0F83B
:1051C0000080BDE8F8830000D8010020DC01002049
:1051D0000E480068401C08B9012000E0002050B9CA
:1051E00000BF502080F31188BFF34F8FBFF36F8F44
:1051F00000BF00BFFEE700BF502080F31188BFF35F
:105200004F8FBFF36F8F00BF00BFFEE72800002065
:1052100008B500BF6846FFF7ABFC0446204600997E
:10522000FFF71CFFFFF768FEF4E770B5044600F0D7
:10523000C3FD94F9455010E0606A08B9012000E010
:10524000002038B904F1240002F0FCF918B100F094
:1052500013FF00E003E0681E45B2002DECDC00BF48
:10526000FF2084F8450000F0D1FD00F0A5FD94F981
:10527000445010E0206908B9012000E0002048B93E
:1052800004F1100002F0DEF908B100F0F5FE681E2E
:1052900045B200E001E0002DECDC00BFFF2084F807
:1052A000440000F0B3FD70BD2DE9F04104464FF01D
:1052B000000800F083FF5148006808B9FFF76CFC54
:1052C0004F480068204000287ED13CB304F108001C
:1052D000A04223D9083404F0070000B304F007000B
:1052E000C0F108002044A04216D904F00700C0F124
:1052F0000800044404F0070008B9012000E0002081
:1053000068B900BF502080F31188BFF34F8FBFF3FF
:105310006F8F00BF00BFFEE7002400E00024002CD8
:1053200054D038480068844250D8374E304605681B
:1053300001E02E462D686868A04202D22868002845
:10534000F7D12E480068854240D0306800F1080847
:10535000286830606868001B102819D92F1907F0D9
:10536000070008B9012000E0002050B900BF50201C
:1053700080F31188BFF34F8FBFF36F8F00BF00BF63
:10538000FEE76868001B78606C603846FFF7FEFC3B
:105390001C4968680968081A1A49086008460068C4
:1053A0001A490968884203D21648006817490860FC
:1053B0001349686809680843686000202860144839
:1053C0000068401C124900E000E0086002F086F925
:1053D00008F0070008B9012000E0002050B900BF24
:1053E000502080F31188BFF34F8FBFF36F8F00BF42
:1053F00000BFFEE74046BDE8F0810000F401002058
:1054000008020020F8010020EC010020FC0100202F
:1054100000020020001F4FF080730360001F21F086
:1054200001030360001F054B036014380260001F76
:105430006FF002030360203870470000D15100086C
:1054400010B50446D4ED041AB0EE611AD4ED031A77
:10545000F0EE610AD4ED021AB0EE610A00F002F833
:1054600010BD000010B52DED048BB0EE408AF0EEBB
:10547000608AB0EE419A9FED190A28EE000ADFED2E
:10548000180A20EE200ABCEEC00A10EE102A0021F5
:10549000144800F081F99FED110A28EE800ADFED33
:1054A000100A20EE200ABCEEC00A10EE102A0221DB
:1054B0000C4800F071F99FED090A29EE000ADFEDB2
:1054C000080A20EE200ABCEEC00A10EE102A0421C1
:1054D000044800F061F9BDEC048B10BD0078BB45B9
:1054E0003333733F002C0140002101704170817003
:1054F000C1700171417181710121C17170470268F0
:1055000061F38612026070470146C86880B2704736
:10551000C16070470246002093680B4003B900E069
:1055200001207047C26922F40062C2610A7862B940
:10553000026822F400420260026822F480420260A3
:10554000026822F48062026036E00A78012A0ED1F5
:10555000026822F400420260026822F48042026083
:10556000026822F4806202F58062026024E00A7818
:10557000022A0ED1026822F4004202F500420260C3
:10558000026822F480420260026822F480620260B3
:1055900012E00A78032A0FD1026822F4004202F5D1
:1055A00000420260026822F4804202F580420260FA
:1055B000026822F480620260CB79026863F34922B8
:1055C00002604A78012A09D1CA79012A06D1026803
:1055D00022F4807202F58072026003E0026822F415
:1055E000807202604B78026863F3820202608A78FC
:1055F000072A0BDD426822F4807202F58072426055
:105600008A78036862F3C503036008E0426822F405
:10561000807242608B78026863F3C5020260CB78C7
:10562000026863F3C71202600B79026863F3CB224E
:1056300002604B79026863F3410202608B79026871
:1056400063F30002026070472DE9F0470026002452
:1056500000250027A046A146FEF78CF98246BAF144
:10566000000F06D0BAF1010F15D0BAF1020F46D1E2
:1056700015E02D48406DC0F3402040B12A48006B32
:10568000C0F3406018B129482949086002E0294860
:105690002749086037E027482549086033E0224859
:1056A0004068C0F3004720484068C0F383441E4868
:1056B0004068C0F341750DB90F2C03D12801401C7F
:1056C000044400E0A41C27B91B4860431849086043
:1056D00014E015484068C0F3404058B11248406D8E
:1056E000C0F30136B01C1349B1FBF0F06043104920
:1056F000086003E00F4860430D49086003E00D486F
:105700000B49086000BF00BF07484068C0F303189A
:105710000A4810F808900648006820FA09F0044981
:105720000860BDE8F087000000100240006CDC0259
:105730003400002000127A0000093D0004790008BE
:10574000C1628262436923F001035B1C43617047BD
:105750008B79426C63F30C3242640B78426C63F3D6
:10576000070242644B79426C63F38A2242640B79EC
:10577000426C63F3CB2242644B78426C63F34D324C
:105780004264CB78426C63F38E3242648B78426C15
:1057900063F30922426470470B4633B1022B06D0F3
:1057A000042B06D0062B08D105E0426306E0826395
:1057B00004E0C26302E0026400E000BF00BF704783
:1057C000026861F3092202607047026861F3061201
:1057D00002607047026861F3000202607047CA43CA
:1057E00002617047012A03D1C3680B43C36003E021
:1057F00012B9C3688B43C360704710B50B4633B111
:10580000022B09D0042B0CD0062B14D10EE0846996
:1058100062F3C30484610FE0846962F3CB24846182
:105820000AE0C46962F3C304C46105E0C46962F3B9
:10583000CB24C46100E000BF00BF10BD2DE9F041E2
:1058400000260027002501F108035C1C92F801C026
:105850000CFA03FC1FFA8CF692F802C00CFA04FC56
:105860001FFA8CF7D0F804804FF0010C0CFA04FCFE
:1058700028EA0C08C0F80480D0F804C04CEA070CF1
:10588000C0F804C0D0F804804FF0010C0CFA03FCFF
:1058900028EA0C08C0F80480D0F804C04CEA060CD2
:1058A000C0F804C00D464B004FF0020C0CEB410455
:1058B0004FF0010808FA04F8D0F820C02CEA080CD0
:1058C000C0F820C04FF0010C0CFA03FCD0F8208087
:1058D00028EA0C08C0F8208035B1022D13D0042D21
:1058E00020D0062D3CD12CE0D0F818C02CF0030CB1
:1058F000C0F818C092F80080D0F818C068F3061CF1
:10590000C0F818C02DE0D0F818C02CF4407CC0F8C6
:1059100018C092F80080D0F818C068F30E3CC0F8A8
:1059200018C01EE0D0F81CC02CF0030CC0F81CC03E
:1059300092F80080D0F81CC068F3061CC0F81CC0A8
:105940000FE0D0F81CC02CF4407CC0F81CC092F8CA
:105950000080D0F81CC068F30E3CC0F81CC000E00A
:1059600000BF00BF4FF0010C0CEB41034FF0030CE4
:105970000CEB410492F803C00CFA03FC1FFA8CF6FE
:1059800092F804C00CFA04FC1FFA8CF74FF0010CDB
:105990000CFA04FCD0F8208028EA0C08C0F820801B
:1059A000D0F820C04CEA070CC0F820C04FF0010C22
:1059B0000CFA03FCD0F8208028EA0C08C0F82080FC
:1059C000D0F820C04CEA060CC0F820C092F805C000
:1059D0004FEA41080CFA08FC1FFA8CF692F806C050
:1059E0004FF0020808EB41080CFA08FC1FFA8CF78C
:1059F000D0F820C04CEA070CC0F820C0D0F820C076
:105A00004CEA060CC0F820C0BDE8F08110B50B468A
:105A100033B1022B09D0042B0CD0062B14D10EE08D
:105A2000846962F3820484610FE0846962F38A24EA
:105A300084610AE0C46962F38204C46105E0C46958
:105A400062F38A24C46100E000BF00BF10BD426C55
:105A500061F3CF3242647047026861F3C71202609B
:105A60007047426861F3061242607047026B61F34F
:105A7000070202637047826861F3C7128260704751
:105A80000146486880B27047C1F30802426070471F
:105A9000426961F3C71242617047C26861F34D32D7
:105AA000C260704701F01F0212B10268426801E053
:105AB000CA430260704702461068084008B10120DE
:105AC00070470020FCE741B9426922F480724261CC
:105AD000426922F40072426127E001290AD1426939
